{
  "contractName": "MINTEDNFTMarket",
  "abi": [
    {
      "anonymous": false,
      "inputs": [
        {
          "indexed": false,
          "internalType": "address",
          "name": "admin",
          "type": "address"
        }
      ],
      "name": "AdminGranted",
      "type": "event"
    },
    {
      "anonymous": false,
      "inputs": [
        {
          "indexed": false,
          "internalType": "address",
          "name": "admin",
          "type": "address"
        }
      ],
      "name": "AdminInitiated",
      "type": "event"
    },
    {
      "anonymous": false,
      "inputs": [
        {
          "indexed": false,
          "internalType": "address",
          "name": "admin",
          "type": "address"
        }
      ],
      "name": "AdminRevoked",
      "type": "event"
    },
    {
      "anonymous": false,
      "inputs": [
        {
          "indexed": false,
          "internalType": "uint256",
          "name": "primaryMintedFeeBasisPoints",
          "type": "uint256"
        },
        {
          "indexed": false,
          "internalType": "uint256",
          "name": "secondaryMintedFeeBasisPoints",
          "type": "uint256"
        },
        {
          "indexed": false,
          "internalType": "uint256",
          "name": "secondaryCreatorFeeBasisPoints",
          "type": "uint256"
        }
      ],
      "name": "MarketFeesUpdated",
      "type": "event"
    },
    {
      "anonymous": false,
      "inputs": [
        {
          "indexed": true,
          "internalType": "bytes32",
          "name": "role",
          "type": "bytes32"
        },
        {
          "indexed": true,
          "internalType": "bytes32",
          "name": "previousAdminRole",
          "type": "bytes32"
        },
        {
          "indexed": true,
          "internalType": "bytes32",
          "name": "newAdminRole",
          "type": "bytes32"
        }
      ],
      "name": "RoleAdminChanged",
      "type": "event"
    },
    {
      "anonymous": false,
      "inputs": [
        {
          "indexed": true,
          "internalType": "bytes32",
          "name": "role",
          "type": "bytes32"
        },
        {
          "indexed": true,
          "internalType": "address",
          "name": "account",
          "type": "address"
        },
        {
          "indexed": true,
          "internalType": "address",
          "name": "sender",
          "type": "address"
        }
      ],
      "name": "RoleGranted",
      "type": "event"
    },
    {
      "anonymous": false,
      "inputs": [
        {
          "indexed": true,
          "internalType": "bytes32",
          "name": "role",
          "type": "bytes32"
        },
        {
          "indexed": true,
          "internalType": "address",
          "name": "account",
          "type": "address"
        },
        {
          "indexed": true,
          "internalType": "address",
          "name": "sender",
          "type": "address"
        }
      ],
      "name": "RoleRevoked",
      "type": "event"
    },
    {
      "anonymous": false,
      "inputs": [
        {
          "indexed": true,
          "internalType": "address",
          "name": "user",
          "type": "address"
        },
        {
          "indexed": false,
          "internalType": "uint256",
          "name": "amount",
          "type": "uint256"
        }
      ],
      "name": "WithdrawPending",
      "type": "event"
    },
    {
      "anonymous": false,
      "inputs": [
        {
          "indexed": true,
          "internalType": "address",
          "name": "user",
          "type": "address"
        },
        {
          "indexed": false,
          "internalType": "uint256",
          "name": "amount",
          "type": "uint256"
        }
      ],
      "name": "Withdrawal",
      "type": "event"
    },
    {
      "inputs": [],
      "name": "DEFAULT_ADMIN_ROLE",
      "outputs": [
        {
          "internalType": "bytes32",
          "name": "",
          "type": "bytes32"
        }
      ],
      "stateMutability": "view",
      "type": "function",
      "constant": true
    },
    {
      "inputs": [
        {
          "internalType": "address",
          "name": "nftContract",
          "type": "address"
        },
        {
          "internalType": "uint256",
          "name": "tokenId",
          "type": "uint256"
        },
        {
          "internalType": "address",
          "name": "seller",
          "type": "address"
        },
        {
          "internalType": "uint256",
          "name": "price",
          "type": "uint256"
        }
      ],
      "name": "_getFees",
      "outputs": [
        {
          "internalType": "uint256",
          "name": "MintedFee",
          "type": "uint256"
        },
        {
          "internalType": "uint256",
          "name": "creatorSecondaryFee",
          "type": "uint256"
        },
        {
          "internalType": "uint256",
          "name": "ownerRev",
          "type": "uint256"
        }
      ],
      "stateMutability": "view",
      "type": "function",
      "constant": true
    },
    {
      "inputs": [],
      "name": "getFeeConfig",
      "outputs": [
        {
          "internalType": "uint256",
          "name": "primaryMintedFeeBasisPoints",
          "type": "uint256"
        },
        {
          "internalType": "uint256",
          "name": "secondaryMintedFeeBasisPoints",
          "type": "uint256"
        },
        {
          "internalType": "uint256",
          "name": "secondaryCreatorFeeBasisPoints",
          "type": "uint256"
        }
      ],
      "stateMutability": "view",
      "type": "function",
      "constant": true
    },
    {
      "inputs": [
        {
          "internalType": "address",
          "name": "nftContract",
          "type": "address"
        },
        {
          "internalType": "uint256",
          "name": "tokenId",
          "type": "uint256"
        },
        {
          "internalType": "uint256",
          "name": "price",
          "type": "uint256"
        }
      ],
      "name": "getFees",
      "outputs": [
        {
          "internalType": "uint256",
          "name": "MintedFee",
          "type": "uint256"
        },
        {
          "internalType": "uint256",
          "name": "creatorSecondaryFee",
          "type": "uint256"
        },
        {
          "internalType": "uint256",
          "name": "ownerRev",
          "type": "uint256"
        }
      ],
      "stateMutability": "view",
      "type": "function",
      "constant": true
    },
    {
      "inputs": [
        {
          "internalType": "address",
          "name": "nftContract",
          "type": "address"
        },
        {
          "internalType": "uint256",
          "name": "tokenId",
          "type": "uint256"
        }
      ],
      "name": "getIsPrimary",
      "outputs": [
        {
          "internalType": "bool",
          "name": "",
          "type": "bool"
        }
      ],
      "stateMutability": "view",
      "type": "function",
      "constant": true
    },
    {
      "inputs": [],
      "name": "getMintedTreasury",
      "outputs": [
        {
          "internalType": "address payable",
          "name": "",
          "type": "address"
        }
      ],
      "stateMutability": "view",
      "type": "function",
      "constant": true
    },
    {
      "inputs": [
        {
          "internalType": "address",
          "name": "user",
          "type": "address"
        }
      ],
      "name": "getPendingWithdrawal",
      "outputs": [
        {
          "internalType": "uint256",
          "name": "",
          "type": "uint256"
        }
      ],
      "stateMutability": "view",
      "type": "function",
      "constant": true
    },
    {
      "inputs": [
        {
          "internalType": "bytes32",
          "name": "role",
          "type": "bytes32"
        }
      ],
      "name": "getRoleAdmin",
      "outputs": [
        {
          "internalType": "bytes32",
          "name": "",
          "type": "bytes32"
        }
      ],
      "stateMutability": "view",
      "type": "function",
      "constant": true
    },
    {
      "inputs": [
        {
          "internalType": "address",
          "name": "account",
          "type": "address"
        }
      ],
      "name": "grantAdmin",
      "outputs": [],
      "stateMutability": "nonpayable",
      "type": "function"
    },
    {
      "inputs": [
        {
          "internalType": "bytes32",
          "name": "role",
          "type": "bytes32"
        },
        {
          "internalType": "address",
          "name": "account",
          "type": "address"
        }
      ],
      "name": "grantRole",
      "outputs": [],
      "stateMutability": "nonpayable",
      "type": "function"
    },
    {
      "inputs": [
        {
          "internalType": "bytes32",
          "name": "role",
          "type": "bytes32"
        },
        {
          "internalType": "address",
          "name": "account",
          "type": "address"
        }
      ],
      "name": "hasRole",
      "outputs": [
        {
          "internalType": "bool",
          "name": "",
          "type": "bool"
        }
      ],
      "stateMutability": "view",
      "type": "function",
      "constant": true
    },
    {
      "inputs": [],
      "name": "isAdmin",
      "outputs": [
        {
          "internalType": "bool",
          "name": "",
          "type": "bool"
        }
      ],
      "stateMutability": "view",
      "type": "function",
      "constant": true
    },
    {
      "inputs": [
        {
          "internalType": "bytes32",
          "name": "role",
          "type": "bytes32"
        },
        {
          "internalType": "address",
          "name": "account",
          "type": "address"
        }
      ],
      "name": "renounceRole",
      "outputs": [],
      "stateMutability": "nonpayable",
      "type": "function"
    },
    {
      "inputs": [
        {
          "internalType": "address",
          "name": "account",
          "type": "address"
        }
      ],
      "name": "revokeAdmin",
      "outputs": [],
      "stateMutability": "nonpayable",
      "type": "function"
    },
    {
      "inputs": [
        {
          "internalType": "bytes32",
          "name": "role",
          "type": "bytes32"
        },
        {
          "internalType": "address",
          "name": "account",
          "type": "address"
        }
      ],
      "name": "revokeRole",
      "outputs": [],
      "stateMutability": "nonpayable",
      "type": "function"
    },
    {
      "inputs": [
        {
          "internalType": "bytes4",
          "name": "interfaceId",
          "type": "bytes4"
        }
      ],
      "name": "supportsInterface",
      "outputs": [
        {
          "internalType": "bool",
          "name": "",
          "type": "bool"
        }
      ],
      "stateMutability": "view",
      "type": "function",
      "constant": true
    },
    {
      "inputs": [],
      "name": "withdraw",
      "outputs": [],
      "stateMutability": "nonpayable",
      "type": "function"
    },
    {
      "inputs": [
        {
          "internalType": "address payable",
          "name": "treasury",
          "type": "address"
        },
        {
          "internalType": "address",
          "name": "admin",
          "type": "address"
        }
      ],
      "name": "initialize",
      "outputs": [],
      "stateMutability": "nonpayable",
      "type": "function"
    },
    {
      "inputs": [
        {
          "internalType": "uint256",
          "name": "primaryF8nFeeBasisPoints",
          "type": "uint256"
        },
        {
          "internalType": "uint256",
          "name": "secondaryF8nFeeBasisPoints",
          "type": "uint256"
        },
        {
          "internalType": "uint256",
          "name": "secondaryCreatorFeeBasisPoints",
          "type": "uint256"
        }
      ],
      "name": "adminUpdateConfig",
      "outputs": [],
      "stateMutability": "nonpayable",
      "type": "function"
    }
  ],
  "bytecode": "0x608060405234801561001057600080fd5b506113a8806100206000396000f3fe608060405234801561001057600080fd5b50600436106101215760003560e01c8063599477a3116100ad57806391d148541161007157806391d148541461028e578063a217fddf146102a1578063b6db75a0146102a9578063d547741f146102b1578063e20e87dd146102c457600080fd5b8063599477a3146101fb5780635fbbc0d21461020e57806374a4512614610236578063753af00e146102495780637ee8b2f81461026457600080fd5b80632f2ff15d116100f45780632f2ff15d146101a757806335bb3e16146101ba57806336568abe146101cd5780633ccfd60b146101e0578063485cc955146101e857600080fd5b806301ffc9a714610126578063204767771461014e578063248a9ca3146101615780632d34567014610192575b600080fd5b610139610134366004610fbe565b6102d7565b60405190151581526020015b60405180910390f35b61013961015c366004610ffd565b61030e565b61018461016f366004611029565b60009081526065602052604090206001015490565b604051908152602001610145565b6101a56101a0366004611042565b61032b565b005b6101a56101b536600461105f565b610376565b6101a56101c8366004611042565b6103a1565b6101a56101db36600461105f565b6103e5565b6101a5610468565b6101a56101f636600461108f565b61059d565b6101a56102093660046110bd565b61061c565b6114205461142154611422545b60408051938452602084019290925290820152606001610145565b61021b6102443660046110e9565b610695565b6097546040516001600160a01b039091168152602001610145565b610184610272366004611042565b6001600160a01b0316600090815261122c602052604090205490565b61013961029c36600461105f565b6106be565b610184600081565b6101396106e9565b6101a56102bf36600461105f565b6106fa565b61021b6102d236600461111e565b610720565b60006001600160e01b03198216637965db0b60e01b148061030857506301ffc9a760e01b6001600160e01b03198316145b92915050565b6000610324838361031f868661079f565b6107ab565b9392505050565b6103366000826106fa565b6040516001600160a01b03821681527f631ff1c4e1a02c54b480a34b810e03bcee61fe38efcb243930a7f820914923e2906020015b60405180910390a150565b6000828152606560205260409020600101546103928133610802565b61039c8383610866565b505050565b6103ac600082610376565b6040516001600160a01b03821681527f1c4e23de8d72c94b22992bd4d7b6786b215ba876af214ff63e6a0ca38fc97af49060200161036b565b6001600160a01b038116331461045a5760405162461bcd60e51b815260206004820152602f60248201527f416363657373436f6e74726f6c3a2063616e206f6e6c792072656e6f756e636560448201526e103937b632b9903337b91039b2b63360891b60648201526084015b60405180910390fd5b61046482826108ec565b5050565b60026110065414156104bc5760405162461bcd60e51b815260206004820152601f60248201527f5265656e7472616e637947756172643a207265656e7472616e742063616c6c006044820152606401610451565b60026110065533600090815261122c6020526040902054806105205760405162461bcd60e51b815260206004820152601f60248201527f4e6f2066756e6473206172652070656e64696e67207769746864726177616c006044820152606401610451565b33600081815261122c602052604080822082905551829184156108fc02918591818181858888f1935050505015801561055d573d6000803e3d6000fd5b5060405182815233907f7fcf532c15f0a6db0bd6d0e038bea71d30d808c7d98cb3bf7268a95bf5081b659060200160405180910390a25050600161100655565b600054610100900460ff16806105b6575060005460ff16155b6105d25760405162461bcd60e51b815260040161045190611166565b600054610100900460ff161580156105f4576000805461ffff19166101011790555b6105fd83610953565b61060682610a47565b801561039c576000805461ff0019169055505050565b6106276000336106be565b61068a5760405162461bcd60e51b815260206004820152602e60248201527f41646d696e526f6c653a2063616c6c657220646f6573206e6f7420686176652060448201526d7468652041646d696e20726f6c6560901b6064820152608401610451565b61039c838383610b02565b60008060006106af86866106a9898961079f565b87610720565b92509250925093509350939050565b60009182526065602090815260408084206001600160a01b0393909316845291905290205460ff1690565b60006106f581336106be565b905090565b6000828152606560205260409020600101546107168133610802565b61039c83836108ec565b6000806000806107318888886107ab565b15610740575061142054610765565b50611421546114225461271090610758908790610c05565b61076291906111ca565b92505b6127106107728683610c05565b61077c91906111ca565b93506107928361078c8787610c11565b90610c11565b9150509450945094915050565b60006103248383610c1d565b6001600160a01b03831660009081526114236020908152604080832085845290915281205460ff161580156107fa5750816001600160a01b03166107ef8585610c98565b6001600160a01b0316145b949350505050565b61080c82826106be565b61046457610824816001600160a01b03166014610d1e565b61082f836020610d1e565b60405160200161084092919061121c565b60408051601f198184030181529082905262461bcd60e51b825261045191600401611291565b61087082826106be565b6104645760008281526065602090815260408083206001600160a01b03851684529091529020805460ff191660011790556108a83390565b6001600160a01b0316816001600160a01b0316837f2f8788117e7eff1d82e926ec794901d17c78024a50270940304540a733656f0d60405160405180910390a45050565b6108f682826106be565b156104645760008281526065602090815260408083206001600160a01b0385168085529252808320805460ff1916905551339285917ff6391f5c32d9c69d2a47ea670b442974b53935d1edc7fd64eb21e047a839171b9190a45050565b600054610100900460ff168061096c575060005460ff16155b6109885760405162461bcd60e51b815260040161045190611166565b600054610100900460ff161580156109aa576000805461ffff19166101011790555b6001600160a01b0382163b610a175760405162461bcd60e51b815260206004820152602d60248201527f4d696e74656454726561737572794e6f64653a2041646472657373206973206e60448201526c1bdd08184818dbdb9d1c9858dd609a1b6064820152608401610451565b609780546001600160a01b0319166001600160a01b0384161790558015610464576000805461ff00191690555050565b600054610100900460ff1680610a60575060005460ff16155b610a7c5760405162461bcd60e51b815260040161045190611166565b600054610100900460ff16158015610a9e576000805461ffff19166101011790555b610aa6610eba565b610ab1600083610f3e565b6040516001600160a01b03831681527f75ef91bb959d6f13ca6b596857395ef84913b9db7adbc407d3bf97af614722d29060200160405180910390a18015610464576000805461ff00191690555050565b6127108310610b535760405162461bcd60e51b815260206004820152601b60248201527f4e46544d61726b6574466565733a2046656573203e3d203130302500000000006044820152606401610451565b612710610b608383610f48565b10610bad5760405162461bcd60e51b815260206004820152601b60248201527f4e46544d61726b6574466565733a2046656573203e3d203130302500000000006044820152606401610451565b61142083905561142182905561142281905560408051848152602081018490529081018290527f556079cdcafac41390a4af41101fa806590aefd70725513ad900a1df6ef488799060600160405180910390a1505050565b600061032482846112c4565b600061032482846112e3565b6040516331a9108f60e11b8152600481018290526000906001600160a01b03841690636352211e9060240160206040518083038186803b158015610c6057600080fd5b505afa158015610c74573d6000803e3d6000fd5b505050506040513d601f19601f8201168201806040525081019061032491906112fa565b604051631030681960e21b8152600481018290526000906001600160a01b038416906340c1a0649060240160206040518083038186803b158015610cdb57600080fd5b505afa925050508015610d0b575060408051601f3d908101601f19168201909252610d08918101906112fa565b60015b610d1757506000610308565b9050610308565b60606000610d2d8360026112c4565b610d38906002611317565b67ffffffffffffffff811115610d5057610d5061132f565b6040519080825280601f01601f191660200182016040528015610d7a576020820181803683370190505b509050600360fc1b81600081518110610d9557610d95611345565b60200101906001600160f81b031916908160001a905350600f60fb1b81600181518110610dc457610dc4611345565b60200101906001600160f81b031916908160001a9053506000610de88460026112c4565b610df3906001611317565b90505b6001811115610e6b576f181899199a1a9b1b9c1cb0b131b232b360811b85600f1660108110610e2757610e27611345565b1a60f81b828281518110610e3d57610e3d611345565b60200101906001600160f81b031916908160001a90535060049490941c93610e648161135b565b9050610df6565b5083156103245760405162461bcd60e51b815260206004820181905260248201527f537472696e67733a20686578206c656e67746820696e73756666696369656e746044820152606401610451565b600054610100900460ff1680610ed3575060005460ff16155b610eef5760405162461bcd60e51b815260040161045190611166565b600054610100900460ff16158015610f11576000805461ffff19166101011790555b610f19610f54565b610f21610f54565b610f29610f54565b8015610f3b576000805461ff00191690555b50565b6104648282610866565b60006103248284611317565b600054610100900460ff1680610f6d575060005460ff16155b610f895760405162461bcd60e51b815260040161045190611166565b600054610100900460ff16158015610f29576000805461ffff19166101011790558015610f3b576000805461ff001916905550565b600060208284031215610fd057600080fd5b81356001600160e01b03198116811461032457600080fd5b6001600160a01b0381168114610f3b57600080fd5b6000806040838503121561101057600080fd5b823561101b81610fe8565b946020939093013593505050565b60006020828403121561103b57600080fd5b5035919050565b60006020828403121561105457600080fd5b813561032481610fe8565b6000806040838503121561107257600080fd5b82359150602083013561108481610fe8565b809150509250929050565b600080604083850312156110a257600080fd5b82356110ad81610fe8565b9150602083013561108481610fe8565b6000806000606084860312156110d257600080fd5b505081359360208301359350604090920135919050565b6000806000606084860312156110fe57600080fd5b833561110981610fe8565b95602085013595506040909401359392505050565b6000806000806080858703121561113457600080fd5b843561113f81610fe8565b935060208501359250604085013561115681610fe8565b9396929550929360600135925050565b6020808252602e908201527f496e697469616c697a61626c653a20636f6e747261637420697320616c72656160408201526d191e481a5b9a5d1a585b1a5e995960921b606082015260800190565b634e487b7160e01b600052601160045260246000fd5b6000826111e757634e487b7160e01b600052601260045260246000fd5b500490565b60005b838110156112075781810151838201526020016111ef565b83811115611216576000848401525b50505050565b7f416363657373436f6e74726f6c3a206163636f756e74200000000000000000008152600083516112548160178501602088016111ec565b7001034b99036b4b9b9b4b733903937b6329607d1b60179184019182015283516112858160288401602088016111ec565b01602801949350505050565b60208152600082518060208401526112b08160408501602087016111ec565b601f01601f19169190910160400192915050565b60008160001904831182151516156112de576112de6111b4565b500290565b6000828210156112f5576112f56111b4565b500390565b60006020828403121561130c57600080fd5b815161032481610fe8565b6000821982111561132a5761132a6111b4565b500190565b634e487b7160e01b600052604160045260246000fd5b634e487b7160e01b600052603260045260246000fd5b60008161136a5761136a6111b4565b50600019019056fea26469706673582212206df3a8ab70c30427919da6e13384a7c553213c0ec411ba196ee313c81122a20c64736f6c63430008090033",
  "immutableReferences": {},
  "source": "/*\r\n::::    :::::  :::::::::  ::::    :::  :::::::::  :::::::::  :::::::::  \r\n+:+:+: :+:+:+     :+:     :+:+:   :+:     :+:     :+:        :+:    :+: \r\n+:+ +:+:+ +:+     +:+     :+:+:+  +:+     +:+     +:+        +:+    +:+ \r\n+#+  +:+  +#+     +#+     +#+ +:+ +#+     +#+     +#++:++#   +#+    +:+ \r\n+#+       +#+     +#+     +#+  +#+#+#     +#+     +#+        +#+    +#+ \r\n#+#       #+#     #+#     #+#   #+#+#     #+#     #+#        #+#    #+# \r\n###       ###  #########  ###    ####     ###     #########  #########  \r\n*/\r\n// SPDX-License-Identifier: MIT OR Apache-2.0\r\n\r\npragma solidity ^0.8.0;\r\npragma abicoder v2; \r\n// solhint-disable-line\r\n\r\nimport \"./mixins/MintedTreasuryNode.sol\";\r\nimport \"./mixins/SendValueWithFallbackWithdraw.sol\";\r\nimport \"./mixins/NFTMarketCreators.sol\";\r\nimport \"./mixins/NFTMarketFees.sol\";\r\nimport \"./mixins/roles/AdminRole.sol\";\r\nimport \"@openzeppelin/contracts-upgradeable/security/ReentrancyGuardUpgradeable.sol\";\r\n\r\n/**\r\n * @title A market for NFTs on Minted.\r\n * @dev This top level file holds no data directly to ease future upgrades.\r\n */\r\ncontract MINTEDNFTMarket is\r\n  MintedTreasuryNode,\r\n  AdminRole,\r\n  ReentrancyGuardUpgradeable,\r\n  NFTMarketCreators,\r\n  SendValueWithFallbackWithdraw,\r\n  NFTMarketFees\r\n{\r\n  /**\r\n   * @notice Called once to configure the contract after the initial deployment.\r\n   * @dev This farms the initialize call out to inherited contracts as needed.\r\n   */\r\n  function initialize(address payable treasury, address admin) public initializer {\r\n    MintedTreasuryNode._initializeMintedTreasuryNode(treasury);\r\n    AdminRole._initializeAdminRole(admin);\r\n  }\r\n\r\n  /**\r\n   * @notice Allows Minted to update the market configuration.\r\n   */\r\n  function adminUpdateConfig(\r\n    uint256 primaryF8nFeeBasisPoints,\r\n    uint256 secondaryF8nFeeBasisPoints,\r\n    uint256 secondaryCreatorFeeBasisPoints\r\n  ) public onlyAdmin {\r\n    _updateMarketFees(primaryF8nFeeBasisPoints, secondaryF8nFeeBasisPoints, secondaryCreatorFeeBasisPoints);\r\n  }\r\n\r\n  /**\r\n   * @dev Checks who the seller for an NFT is, this will check escrow or return the current owner if not in escrow.\r\n   * This is a no-op function required to avoid compile errors.\r\n   */\r\n  function _getSellerFor(address nftContract, uint256 tokenId)\r\n    internal\r\n    view\r\n    virtual\r\n    override(NFTMarketCore)\r\n    returns (address)\r\n  {\r\n    return super._getSellerFor(nftContract, tokenId);\r\n  }\r\n}",
  "sourcePath": "C:\\alex\\nft\\openZeppelin\\mintedBasic\\contracts\\minted\\MINTEDNFTMarket.sol",
  "compiler": {
    "name": "solc",
    "version": "0.8.9+commit.e5eed63a.Emscripten.clang"
  },
  "schemaVersion": "3.4.5",
  "updatedAt": "2022-02-23T13:57:42.679Z",
  "networkType": "ethereum",
  "devdoc": {
    "details": "This top level file holds no data directly to ease future upgrades.",
    "kind": "dev",
    "methods": {
      "_getFees(address,uint256,address,uint256)": {
        "details": "Calculates how funds should be distributed for the given sale details. If this is a primary sale, the creator revenue will appear as `ownerRev`."
      },
      "getFees(address,uint256,uint256)": {
        "details": "This could be used to present exact fee distributing on listing or before a bid is placed."
      },
      "getRoleAdmin(bytes32)": {
        "details": "Returns the admin role that controls `role`. See {grantRole} and {revokeRole}. To change a role's admin, use {_setRoleAdmin}."
      },
      "grantRole(bytes32,address)": {
        "details": "Grants `role` to `account`. If `account` had not been already granted `role`, emits a {RoleGranted} event. Requirements: - the caller must have ``role``'s admin role."
      },
      "hasRole(bytes32,address)": {
        "details": "Returns `true` if `account` has been granted `role`."
      },
      "initialize(address,address)": {
        "details": "This farms the initialize call out to inherited contracts as needed."
      },
      "renounceRole(bytes32,address)": {
        "details": "Revokes `role` from the calling account. Roles are often managed via {grantRole} and {revokeRole}: this function's purpose is to provide a mechanism for accounts to lose their privileges if they are compromised (such as when a trusted device is misplaced). If the calling account had been granted `role`, emits a {RoleRevoked} event. Requirements: - the caller must be `account`."
      },
      "revokeRole(bytes32,address)": {
        "details": "Revokes `role` from `account`. If `account` had been granted `role`, emits a {RoleRevoked} event. Requirements: - the caller must have ``role``'s admin role."
      },
      "supportsInterface(bytes4)": {
        "details": "See {IERC165-supportsInterface}."
      }
    },
    "title": "A market for NFTs on Minted.",
    "version": 1
  },
  "userdoc": {
    "kind": "user",
    "methods": {
      "adminUpdateConfig(uint256,uint256,uint256)": {
        "notice": "Allows Minted to update the market configuration."
      },
      "getFeeConfig()": {
        "notice": "Returns the current fee configuration in basis points."
      },
      "getFees(address,uint256,uint256)": {
        "notice": "Returns how funds will be distributed for a sale at the given price point."
      },
      "getIsPrimary(address,uint256)": {
        "notice": "Returns true if the given NFT has not been sold in this market previously and is being sold by the creator."
      },
      "getMintedTreasury()": {
        "notice": "Returns the address of the Minted treasury."
      },
      "getPendingWithdrawal(address)": {
        "notice": "Returns how much funds are available for manual withdraw due to failed transfers."
      },
      "initialize(address,address)": {
        "notice": "Called once to configure the contract after the initial deployment."
      },
      "withdraw()": {
        "notice": "Allows a user to manually withdraw funds which originally failed to transfer."
      }
    },
    "version": 1
  }
}