{
  "contractName": "MintedNFT721",
  "abi": [
    {
      "anonymous": false,
      "inputs": [
        {
          "indexed": false,
          "internalType": "address",
          "name": "admin",
          "type": "address"
        }
      ],
      "name": "AdminGranted",
      "type": "event"
    },
    {
      "anonymous": false,
      "inputs": [
        {
          "indexed": false,
          "internalType": "address",
          "name": "admin",
          "type": "address"
        }
      ],
      "name": "AdminInitiated",
      "type": "event"
    },
    {
      "anonymous": false,
      "inputs": [
        {
          "indexed": false,
          "internalType": "address",
          "name": "admin",
          "type": "address"
        }
      ],
      "name": "AdminRevoked",
      "type": "event"
    },
    {
      "anonymous": false,
      "inputs": [
        {
          "indexed": true,
          "internalType": "address",
          "name": "owner",
          "type": "address"
        },
        {
          "indexed": true,
          "internalType": "address",
          "name": "approved",
          "type": "address"
        },
        {
          "indexed": true,
          "internalType": "uint256",
          "name": "tokenId",
          "type": "uint256"
        }
      ],
      "name": "Approval",
      "type": "event"
    },
    {
      "anonymous": false,
      "inputs": [
        {
          "indexed": true,
          "internalType": "address",
          "name": "owner",
          "type": "address"
        },
        {
          "indexed": true,
          "internalType": "address",
          "name": "operator",
          "type": "address"
        },
        {
          "indexed": false,
          "internalType": "bool",
          "name": "approved",
          "type": "bool"
        }
      ],
      "name": "ApprovalForAll",
      "type": "event"
    },
    {
      "anonymous": false,
      "inputs": [
        {
          "indexed": false,
          "internalType": "string",
          "name": "baseURI",
          "type": "string"
        }
      ],
      "name": "BaseURIUpdated",
      "type": "event"
    },
    {
      "anonymous": false,
      "inputs": [
        {
          "indexed": true,
          "internalType": "address",
          "name": "creator",
          "type": "address"
        },
        {
          "indexed": true,
          "internalType": "uint256",
          "name": "tokenId",
          "type": "uint256"
        },
        {
          "indexed": true,
          "internalType": "string",
          "name": "indexedTokenIPFSPath",
          "type": "string"
        },
        {
          "indexed": false,
          "internalType": "string",
          "name": "tokenIPFSPath",
          "type": "string"
        }
      ],
      "name": "Minted",
      "type": "event"
    },
    {
      "anonymous": false,
      "inputs": [
        {
          "indexed": false,
          "internalType": "address",
          "name": "admin",
          "type": "address"
        }
      ],
      "name": "MinterGranted",
      "type": "event"
    },
    {
      "anonymous": false,
      "inputs": [
        {
          "indexed": false,
          "internalType": "address",
          "name": "admin",
          "type": "address"
        }
      ],
      "name": "MinterRevoked",
      "type": "event"
    },
    {
      "anonymous": false,
      "inputs": [
        {
          "indexed": true,
          "internalType": "uint256",
          "name": "tokenId",
          "type": "uint256"
        },
        {
          "indexed": true,
          "internalType": "address",
          "name": "originalAddress",
          "type": "address"
        },
        {
          "indexed": true,
          "internalType": "address",
          "name": "newAddress",
          "type": "address"
        }
      ],
      "name": "NFTCreatorMigrated",
      "type": "event"
    },
    {
      "anonymous": false,
      "inputs": [
        {
          "indexed": false,
          "internalType": "string",
          "name": "name",
          "type": "string"
        },
        {
          "indexed": false,
          "internalType": "string",
          "name": "symbol",
          "type": "string"
        },
        {
          "indexed": false,
          "internalType": "string",
          "name": "baseURI",
          "type": "string"
        }
      ],
      "name": "NFTMetadataUpdated",
      "type": "event"
    },
    {
      "anonymous": false,
      "inputs": [
        {
          "indexed": true,
          "internalType": "uint256",
          "name": "tokenId",
          "type": "uint256"
        },
        {
          "indexed": true,
          "internalType": "address",
          "name": "originalAddress",
          "type": "address"
        },
        {
          "indexed": true,
          "internalType": "address",
          "name": "newAddress",
          "type": "address"
        }
      ],
      "name": "NFTOwnerMigrated",
      "type": "event"
    },
    {
      "anonymous": false,
      "inputs": [
        {
          "indexed": false,
          "internalType": "address",
          "name": "admin",
          "type": "address"
        }
      ],
      "name": "OperatoRevoked",
      "type": "event"
    },
    {
      "anonymous": false,
      "inputs": [
        {
          "indexed": false,
          "internalType": "address",
          "name": "admin",
          "type": "address"
        }
      ],
      "name": "OperatorGranted",
      "type": "event"
    },
    {
      "anonymous": false,
      "inputs": [
        {
          "indexed": true,
          "internalType": "uint256",
          "name": "tokenId",
          "type": "uint256"
        },
        {
          "indexed": true,
          "internalType": "address",
          "name": "originalAddress",
          "type": "address"
        },
        {
          "indexed": true,
          "internalType": "address",
          "name": "newAddress",
          "type": "address"
        },
        {
          "indexed": false,
          "internalType": "address",
          "name": "originalPaymentAddress",
          "type": "address"
        },
        {
          "indexed": false,
          "internalType": "address",
          "name": "newPaymentAddress",
          "type": "address"
        }
      ],
      "name": "PaymentAddressMigrated",
      "type": "event"
    },
    {
      "anonymous": false,
      "inputs": [
        {
          "indexed": true,
          "internalType": "bytes32",
          "name": "role",
          "type": "bytes32"
        },
        {
          "indexed": true,
          "internalType": "bytes32",
          "name": "previousAdminRole",
          "type": "bytes32"
        },
        {
          "indexed": true,
          "internalType": "bytes32",
          "name": "newAdminRole",
          "type": "bytes32"
        }
      ],
      "name": "RoleAdminChanged",
      "type": "event"
    },
    {
      "anonymous": false,
      "inputs": [
        {
          "indexed": true,
          "internalType": "bytes32",
          "name": "role",
          "type": "bytes32"
        },
        {
          "indexed": true,
          "internalType": "address",
          "name": "account",
          "type": "address"
        },
        {
          "indexed": true,
          "internalType": "address",
          "name": "sender",
          "type": "address"
        }
      ],
      "name": "RoleGranted",
      "type": "event"
    },
    {
      "anonymous": false,
      "inputs": [
        {
          "indexed": true,
          "internalType": "bytes32",
          "name": "role",
          "type": "bytes32"
        },
        {
          "indexed": true,
          "internalType": "address",
          "name": "account",
          "type": "address"
        },
        {
          "indexed": true,
          "internalType": "address",
          "name": "sender",
          "type": "address"
        }
      ],
      "name": "RoleRevoked",
      "type": "event"
    },
    {
      "anonymous": false,
      "inputs": [
        {
          "indexed": true,
          "internalType": "address",
          "name": "fromPaymentAddress",
          "type": "address"
        },
        {
          "indexed": true,
          "internalType": "address",
          "name": "toPaymentAddress",
          "type": "address"
        },
        {
          "indexed": true,
          "internalType": "uint256",
          "name": "tokenId",
          "type": "uint256"
        }
      ],
      "name": "TokenCreatorPaymentAddressSet",
      "type": "event"
    },
    {
      "anonymous": false,
      "inputs": [
        {
          "indexed": true,
          "internalType": "address",
          "name": "fromCreator",
          "type": "address"
        },
        {
          "indexed": true,
          "internalType": "address",
          "name": "toCreator",
          "type": "address"
        },
        {
          "indexed": true,
          "internalType": "uint256",
          "name": "tokenId",
          "type": "uint256"
        }
      ],
      "name": "TokenCreatorUpdated",
      "type": "event"
    },
    {
      "anonymous": false,
      "inputs": [
        {
          "indexed": true,
          "internalType": "uint256",
          "name": "tokenId",
          "type": "uint256"
        },
        {
          "indexed": true,
          "internalType": "string",
          "name": "indexedTokenIPFSPath",
          "type": "string"
        },
        {
          "indexed": false,
          "internalType": "string",
          "name": "tokenIPFSPath",
          "type": "string"
        }
      ],
      "name": "TokenIPFSPathUpdated",
      "type": "event"
    },
    {
      "anonymous": false,
      "inputs": [
        {
          "indexed": true,
          "internalType": "address",
          "name": "from",
          "type": "address"
        },
        {
          "indexed": true,
          "internalType": "address",
          "name": "to",
          "type": "address"
        },
        {
          "indexed": true,
          "internalType": "uint256",
          "name": "tokenId",
          "type": "uint256"
        }
      ],
      "name": "Transfer",
      "type": "event"
    },
    {
      "inputs": [],
      "name": "DEFAULT_ADMIN_ROLE",
      "outputs": [
        {
          "internalType": "bytes32",
          "name": "",
          "type": "bytes32"
        }
      ],
      "stateMutability": "view",
      "type": "function",
      "constant": true
    },
    {
      "inputs": [],
      "name": "GetBaseURI",
      "outputs": [
        {
          "internalType": "string",
          "name": "",
          "type": "string"
        }
      ],
      "stateMutability": "view",
      "type": "function",
      "constant": true
    },
    {
      "inputs": [],
      "name": "MINTER_ROLE",
      "outputs": [
        {
          "internalType": "bytes32",
          "name": "",
          "type": "bytes32"
        }
      ],
      "stateMutability": "view",
      "type": "function",
      "constant": true
    },
    {
      "inputs": [],
      "name": "OPERATOR_ROLE",
      "outputs": [
        {
          "internalType": "bytes32",
          "name": "",
          "type": "bytes32"
        }
      ],
      "stateMutability": "view",
      "type": "function",
      "constant": true
    },
    {
      "inputs": [
        {
          "internalType": "uint256[]",
          "name": "createdTokenIds",
          "type": "uint256[]"
        },
        {
          "internalType": "uint256[]",
          "name": "ownedTokenIds",
          "type": "uint256[]"
        },
        {
          "internalType": "address",
          "name": "originalAddress",
          "type": "address"
        },
        {
          "internalType": "address payable",
          "name": "newAddress",
          "type": "address"
        },
        {
          "internalType": "bytes",
          "name": "signature",
          "type": "bytes"
        }
      ],
      "name": "adminAccountMigration",
      "outputs": [],
      "stateMutability": "nonpayable",
      "type": "function"
    },
    {
      "inputs": [
        {
          "internalType": "address",
          "name": "to",
          "type": "address"
        },
        {
          "internalType": "uint256",
          "name": "tokenId",
          "type": "uint256"
        }
      ],
      "name": "approve",
      "outputs": [],
      "stateMutability": "nonpayable",
      "type": "function"
    },
    {
      "inputs": [
        {
          "internalType": "address",
          "name": "owner",
          "type": "address"
        }
      ],
      "name": "balanceOf",
      "outputs": [
        {
          "internalType": "uint256",
          "name": "",
          "type": "uint256"
        }
      ],
      "stateMutability": "view",
      "type": "function",
      "constant": true
    },
    {
      "inputs": [
        {
          "internalType": "uint256",
          "name": "tokenId",
          "type": "uint256"
        }
      ],
      "name": "burn",
      "outputs": [],
      "stateMutability": "nonpayable",
      "type": "function"
    },
    {
      "inputs": [
        {
          "internalType": "uint256",
          "name": "tokenId",
          "type": "uint256"
        }
      ],
      "name": "getApproved",
      "outputs": [
        {
          "internalType": "address",
          "name": "",
          "type": "address"
        }
      ],
      "stateMutability": "view",
      "type": "function",
      "constant": true
    },
    {
      "inputs": [
        {
          "internalType": "address",
          "name": "creator",
          "type": "address"
        },
        {
          "internalType": "string",
          "name": "tokenIPFSPath",
          "type": "string"
        }
      ],
      "name": "getHasCreatorMintedIPFSHash",
      "outputs": [
        {
          "internalType": "bool",
          "name": "",
          "type": "bool"
        }
      ],
      "stateMutability": "view",
      "type": "function",
      "constant": true
    },
    {
      "inputs": [],
      "name": "getNextTokenId",
      "outputs": [
        {
          "internalType": "uint256",
          "name": "",
          "type": "uint256"
        }
      ],
      "stateMutability": "view",
      "type": "function",
      "constant": true
    },
    {
      "inputs": [
        {
          "internalType": "bytes32",
          "name": "role",
          "type": "bytes32"
        }
      ],
      "name": "getRoleAdmin",
      "outputs": [
        {
          "internalType": "bytes32",
          "name": "",
          "type": "bytes32"
        }
      ],
      "stateMutability": "view",
      "type": "function",
      "constant": true
    },
    {
      "inputs": [
        {
          "internalType": "uint256",
          "name": "tokenId",
          "type": "uint256"
        }
      ],
      "name": "getTokenCreatorPaymentAddress",
      "outputs": [
        {
          "internalType": "address payable",
          "name": "tokenCreatorPaymentAddress",
          "type": "address"
        }
      ],
      "stateMutability": "view",
      "type": "function",
      "constant": true
    },
    {
      "inputs": [
        {
          "internalType": "uint256",
          "name": "tokenId",
          "type": "uint256"
        }
      ],
      "name": "getTokenIPFSPath",
      "outputs": [
        {
          "internalType": "string",
          "name": "",
          "type": "string"
        }
      ],
      "stateMutability": "view",
      "type": "function",
      "constant": true
    },
    {
      "inputs": [
        {
          "internalType": "address",
          "name": "account",
          "type": "address"
        }
      ],
      "name": "grantAdmin",
      "outputs": [],
      "stateMutability": "nonpayable",
      "type": "function"
    },
    {
      "inputs": [
        {
          "internalType": "address",
          "name": "account",
          "type": "address"
        }
      ],
      "name": "grantMinter",
      "outputs": [],
      "stateMutability": "nonpayable",
      "type": "function"
    },
    {
      "inputs": [
        {
          "internalType": "address",
          "name": "account",
          "type": "address"
        }
      ],
      "name": "grantOperator",
      "outputs": [],
      "stateMutability": "nonpayable",
      "type": "function"
    },
    {
      "inputs": [
        {
          "internalType": "bytes32",
          "name": "role",
          "type": "bytes32"
        },
        {
          "internalType": "address",
          "name": "account",
          "type": "address"
        }
      ],
      "name": "grantRole",
      "outputs": [],
      "stateMutability": "nonpayable",
      "type": "function"
    },
    {
      "inputs": [
        {
          "internalType": "bytes32",
          "name": "role",
          "type": "bytes32"
        },
        {
          "internalType": "address",
          "name": "account",
          "type": "address"
        }
      ],
      "name": "hasRole",
      "outputs": [
        {
          "internalType": "bool",
          "name": "",
          "type": "bool"
        }
      ],
      "stateMutability": "view",
      "type": "function",
      "constant": true
    },
    {
      "inputs": [],
      "name": "isAdmin",
      "outputs": [
        {
          "internalType": "bool",
          "name": "",
          "type": "bool"
        }
      ],
      "stateMutability": "view",
      "type": "function",
      "constant": true
    },
    {
      "inputs": [
        {
          "internalType": "address",
          "name": "owner",
          "type": "address"
        },
        {
          "internalType": "address",
          "name": "operator",
          "type": "address"
        }
      ],
      "name": "isApprovedForAll",
      "outputs": [
        {
          "internalType": "bool",
          "name": "",
          "type": "bool"
        }
      ],
      "stateMutability": "view",
      "type": "function",
      "constant": true
    },
    {
      "inputs": [],
      "name": "isMinter",
      "outputs": [
        {
          "internalType": "bool",
          "name": "",
          "type": "bool"
        }
      ],
      "stateMutability": "view",
      "type": "function",
      "constant": true
    },
    {
      "inputs": [],
      "name": "isOperator",
      "outputs": [
        {
          "internalType": "bool",
          "name": "",
          "type": "bool"
        }
      ],
      "stateMutability": "view",
      "type": "function",
      "constant": true
    },
    {
      "inputs": [
        {
          "internalType": "string",
          "name": "tokenIPFSPath",
          "type": "string"
        },
        {
          "internalType": "address",
          "name": "to",
          "type": "address"
        },
        {
          "internalType": "uint256",
          "name": "tokenId",
          "type": "uint256"
        }
      ],
      "name": "mint",
      "outputs": [],
      "stateMutability": "nonpayable",
      "type": "function"
    },
    {
      "inputs": [
        {
          "internalType": "string",
          "name": "tokenIPFSPath",
          "type": "string"
        }
      ],
      "name": "mint",
      "outputs": [
        {
          "internalType": "uint256",
          "name": "tokenId",
          "type": "uint256"
        }
      ],
      "stateMutability": "nonpayable",
      "type": "function"
    },
    {
      "inputs": [],
      "name": "name",
      "outputs": [
        {
          "internalType": "string",
          "name": "",
          "type": "string"
        }
      ],
      "stateMutability": "view",
      "type": "function",
      "constant": true
    },
    {
      "inputs": [
        {
          "internalType": "uint256",
          "name": "tokenId",
          "type": "uint256"
        }
      ],
      "name": "ownerOf",
      "outputs": [
        {
          "internalType": "address",
          "name": "",
          "type": "address"
        }
      ],
      "stateMutability": "view",
      "type": "function",
      "constant": true
    },
    {
      "inputs": [
        {
          "internalType": "bytes32",
          "name": "role",
          "type": "bytes32"
        },
        {
          "internalType": "address",
          "name": "account",
          "type": "address"
        }
      ],
      "name": "renounceRole",
      "outputs": [],
      "stateMutability": "nonpayable",
      "type": "function"
    },
    {
      "inputs": [
        {
          "internalType": "address",
          "name": "account",
          "type": "address"
        }
      ],
      "name": "revokeAdmin",
      "outputs": [],
      "stateMutability": "nonpayable",
      "type": "function"
    },
    {
      "inputs": [
        {
          "internalType": "address",
          "name": "account",
          "type": "address"
        }
      ],
      "name": "revokeMinter",
      "outputs": [],
      "stateMutability": "nonpayable",
      "type": "function"
    },
    {
      "inputs": [
        {
          "internalType": "address",
          "name": "account",
          "type": "address"
        }
      ],
      "name": "revokeOperator",
      "outputs": [],
      "stateMutability": "nonpayable",
      "type": "function"
    },
    {
      "inputs": [
        {
          "internalType": "bytes32",
          "name": "role",
          "type": "bytes32"
        },
        {
          "internalType": "address",
          "name": "account",
          "type": "address"
        }
      ],
      "name": "revokeRole",
      "outputs": [],
      "stateMutability": "nonpayable",
      "type": "function"
    },
    {
      "inputs": [
        {
          "internalType": "address",
          "name": "from",
          "type": "address"
        },
        {
          "internalType": "address",
          "name": "to",
          "type": "address"
        },
        {
          "internalType": "uint256",
          "name": "tokenId",
          "type": "uint256"
        }
      ],
      "name": "safeTransferFrom",
      "outputs": [],
      "stateMutability": "nonpayable",
      "type": "function"
    },
    {
      "inputs": [
        {
          "internalType": "address",
          "name": "from",
          "type": "address"
        },
        {
          "internalType": "address",
          "name": "to",
          "type": "address"
        },
        {
          "internalType": "uint256",
          "name": "tokenId",
          "type": "uint256"
        },
        {
          "internalType": "bytes",
          "name": "_data",
          "type": "bytes"
        }
      ],
      "name": "safeTransferFrom",
      "outputs": [],
      "stateMutability": "nonpayable",
      "type": "function"
    },
    {
      "inputs": [
        {
          "internalType": "address",
          "name": "operator",
          "type": "address"
        },
        {
          "internalType": "bool",
          "name": "approved",
          "type": "bool"
        }
      ],
      "name": "setApprovalForAll",
      "outputs": [],
      "stateMutability": "nonpayable",
      "type": "function"
    },
    {
      "inputs": [],
      "name": "symbol",
      "outputs": [
        {
          "internalType": "string",
          "name": "",
          "type": "string"
        }
      ],
      "stateMutability": "view",
      "type": "function",
      "constant": true
    },
    {
      "inputs": [
        {
          "internalType": "uint256",
          "name": "tokenId",
          "type": "uint256"
        }
      ],
      "name": "tokenCreator",
      "outputs": [
        {
          "internalType": "address payable",
          "name": "",
          "type": "address"
        }
      ],
      "stateMutability": "view",
      "type": "function",
      "constant": true
    },
    {
      "inputs": [],
      "name": "totalOfMintedTokens",
      "outputs": [
        {
          "internalType": "uint256",
          "name": "",
          "type": "uint256"
        }
      ],
      "stateMutability": "view",
      "type": "function",
      "constant": true
    },
    {
      "inputs": [
        {
          "internalType": "address",
          "name": "from",
          "type": "address"
        },
        {
          "internalType": "address",
          "name": "to",
          "type": "address"
        },
        {
          "internalType": "uint256",
          "name": "tokenId",
          "type": "uint256"
        }
      ],
      "name": "transferFrom",
      "outputs": [],
      "stateMutability": "nonpayable",
      "type": "function"
    },
    {
      "inputs": [
        {
          "internalType": "string",
          "name": "name",
          "type": "string"
        },
        {
          "internalType": "string",
          "name": "symbol",
          "type": "string"
        },
        {
          "internalType": "address",
          "name": "admin",
          "type": "address"
        }
      ],
      "name": "initialize",
      "outputs": [],
      "stateMutability": "nonpayable",
      "type": "function"
    },
    {
      "inputs": [
        {
          "internalType": "string",
          "name": "baseURI",
          "type": "string"
        }
      ],
      "name": "adminUpdateConfig",
      "outputs": [],
      "stateMutability": "nonpayable",
      "type": "function"
    },
    {
      "inputs": [
        {
          "internalType": "uint256",
          "name": "tokenId",
          "type": "uint256"
        }
      ],
      "name": "tokenURI",
      "outputs": [
        {
          "internalType": "string",
          "name": "",
          "type": "string"
        }
      ],
      "stateMutability": "view",
      "type": "function",
      "constant": true
    },
    {
      "inputs": [
        {
          "internalType": "bytes4",
          "name": "interfaceId",
          "type": "bytes4"
        }
      ],
      "name": "supportsInterface",
      "outputs": [
        {
          "internalType": "bool",
          "name": "",
          "type": "bool"
        }
      ],
      "stateMutability": "view",
      "type": "function",
      "constant": true
    }
  ],
  "bytecode": "0x608060405234801561001057600080fd5b50613e39806100206000396000f3fe608060405234801561001057600080fd5b50600436106102695760003560e01c80637e8816b911610151578063cfbd4885116100c3578063e348da1311610087578063e348da1314610549578063e7ec78e31461055c578063e985e9c514610564578063ec5f752e146105a1578063f5b541a6146105b4578063fad8b32a146105c957600080fd5b8063cfbd4885146104e8578063d5391393146104fb578063d547741f14610510578063d85d3d2714610523578063dac28cce1461053657600080fd5b8063a217fddf11610115578063a217fddf14610496578063a22cb4651461049e578063b6db75a0146104b1578063b88d4fde146104b9578063c87b56dd146104cc578063caa0f92a146104df57600080fd5b80637e8816b91461044257806384f4e5c01461045557806389ca8b711461046857806391d148541461047b57806395d89b411461048e57600080fd5b80632f2ff15d116101ea57806342842e0e116101ae57806342842e0e146103e657806342966c68146103f95780634456eda21461040c57806350e59eb3146104145780636352211e1461041c57806370a082311461042f57600080fd5b80632f2ff15d1461037057806335bb3e161461038357806336568abe146103965780633ef83a08146103a957806340c1a064146103bc57600080fd5b806323b872dd1161023157806323b872dd146102fe578063248a9ca314610311578063261707fa1461034257806329b79a67146103555780632d3456701461035d57600080fd5b806301ffc9a71461026e57806306fdde0314610296578063077f224a146102ab578063081812fc146102c0578063095ea7b3146102eb575b600080fd5b61028161027c3660046131d0565b6105dc565b60405190151581526020015b60405180910390f35b61029e6105ed565b60405161028d9190613245565b6102be6102b9366004613319565b610680565b005b6102d36102ce366004613391565b610713565b6040516001600160a01b03909116815260200161028d565b6102be6102f93660046133aa565b61079c565b6102be61030c3660046133d6565b6108b2565b61033461031f366004613391565b60009081526065602052604090206001015490565b60405190815260200161028d565b6102be610350366004613417565b6108e3565b61029e61093b565b6102be61036b366004613417565b61094b565b6102be61037e366004613434565b61098f565b6102be610391366004613417565b6109b5565b6102be6103a4366004613434565b6109f9565b6102be6103b7366004613464565b610a77565b6102d36103ca366004613391565b600090815261089960205260409020546001600160a01b031690565b6102be6103f43660046133d6565b610af1565b6102be610407366004613391565b610b0c565b610281610bfd565b610281610c1c565b6102d361042a366004613391565b610c36565b61033461043d366004613417565b610cae565b6102be610450366004613499565b610d36565b6102be610463366004613527565b610eb6565b610281610476366004613617565b61128e565b610281610489366004613434565b6112d0565b61029e6112fb565b610334600081565b6102be6104ac366004613667565b61130b565b6102816113d1565b6102be6104c736600461369a565b6113dd565b61029e6104da366004613391565b61140f565b6117d954610334565b6102be6104f6366004613417565b61141a565b610334600080516020613de483398151915281565b6102be61051e366004613434565b61146b565b610334610531366004613464565b611491565b61029e610544366004613391565b611568565b6102be610557366004613417565b61160b565b61033461165c565b61028161057236600461371a565b6001600160a01b03918216600090815261086c6020908152604080832093909416825291909152205460ff1690565b6102d36105af366004613391565b611668565b610334600080516020613dc483398151915281565b6102be6105d7366004613417565b6116a6565b60006105e7826116f7565b92915050565b606061086780546105fd90613748565b80601f016020809104026020016040519081016040528092919081815260200182805461062990613748565b80156106765780601f1061064b57610100808354040283529160200191610676565b820191906000526020600020905b81548152906001019060200180831161065957829003601f168201915b5050505050905090565b600054610100900460ff1680610699575060005460ff16155b6106be5760405162461bcd60e51b81526004016106b590613783565b60405180910390fd5b600054610100900460ff161580156106e0576000805461ffff19166101011790555b6106ea8484611702565b6106f2611789565b6106fb826117fa565b801561070d576000805461ff00191690555b50505050565b600061071e826118b5565b61077f5760405162461bcd60e51b815260206004820152602c60248201527f4552433732313a20617070726f76656420717565727920666f72206e6f6e657860448201526b34b9ba32b73a103a37b5b2b760a11b60648201526084016106b5565b50600090815261086b60205260409020546001600160a01b031690565b60006107a782610c36565b9050806001600160a01b0316836001600160a01b031614156108155760405162461bcd60e51b815260206004820152602160248201527f4552433732313a20617070726f76616c20746f2063757272656e74206f776e656044820152603960f91b60648201526084016106b5565b336001600160a01b038216148061083157506108318133610572565b6108a35760405162461bcd60e51b815260206004820152603860248201527f4552433732313a20617070726f76652063616c6c6572206973206e6f74206f7760448201527f6e6572206e6f7220617070726f76656420666f7220616c6c000000000000000060648201526084016106b5565b6108ad83836118d3565b505050565b6108bc3382611942565b6108d85760405162461bcd60e51b81526004016106b5906137d1565b6108ad838383611a2d565b6108fb600080516020613de48339815191528261098f565b6040516001600160a01b03821681527f93e15a6550ecfc8e6edd98132363907de724eed6c5d89ce96917f4d4ff4da1f3906020015b60405180910390a150565b6060610c8380546105fd90613748565b61095660008261146b565b6040516001600160a01b03821681527f631ff1c4e1a02c54b480a34b810e03bcee61fe38efcb243930a7f820914923e290602001610930565b6000828152606560205260409020600101546109ab8133611bd0565b6108ad8383611c34565b6109c060008261098f565b6040516001600160a01b03821681527f1c4e23de8d72c94b22992bd4d7b6786b215ba876af214ff63e6a0ca38fc97af490602001610930565b6001600160a01b0381163314610a695760405162461bcd60e51b815260206004820152602f60248201527f416363657373436f6e74726f6c3a2063616e206f6e6c792072656e6f756e636560448201526e103937b632b9903337b91039b2b63360891b60648201526084016106b5565b610a738282611cba565b5050565b610a826000336112d0565b610ae55760405162461bcd60e51b815260206004820152602e60248201527f41646d696e526f6c653a2063616c6c657220646f6573206e6f7420686176652060448201526d7468652041646d696e20726f6c6560901b60648201526084016106b5565b610aee81611d21565b50565b6108ad838383604051806020016040528060008152506113dd565b6000818152610899602052604090205481906001600160a01b03163314610b815760405162461bcd60e51b8152602060048201526024808201527f4e465437323143726561746f723a2043616c6c6572206973206e6f742063726560448201526330ba37b960e11b60648201526084016106b5565b33610b8b82610c36565b6001600160a01b031614610bf45760405162461bcd60e51b815260206004820152602a60248201527f4e465437323143726561746f723a2043616c6c657220646f6573206e6f74206f6044820152691ddb881d1a194813919560b21b60648201526084016106b5565b610a7382611d65565b6000610c17600080516020613dc4833981519152336112d0565b905090565b6000610c17600080516020613de4833981519152336112d0565b600081815261086960205260408120546001600160a01b0316806105e75760405162461bcd60e51b815260206004820152602960248201527f4552433732313a206f776e657220717565727920666f72206e6f6e657869737460448201526832b73a103a37b5b2b760b91b60648201526084016106b5565b60006001600160a01b038216610d195760405162461bcd60e51b815260206004820152602a60248201527f4552433732313a2062616c616e636520717565727920666f7220746865207a65604482015269726f206164647265737360b01b60648201526084016106b5565b506001600160a01b0316600090815261086a602052604090205490565b610d4e600080516020613de4833981519152336112d0565b610d6a5760405162461bcd60e51b81526004016106b590613822565b6298967f8111610dd65760405162461bcd60e51b815260206004820152603160248201527f4d696e743a20437573746f6d20546f6b656e4944206d757374206265206869676044820152700686572207468616e20313030303030303607c1b60648201526084016106b5565b610ddf816118b5565b15610e2c5760405162461bcd60e51b815260206004820152601e60248201527f4d696e743a20546f6b656e496420616c7265616479206578697374656e74000060448201526064016106b5565b610e3b6117da80546001019055565b610e458282611d6e565b610e4f8183611d88565b610e598184611dfe565b82604051610e679190613872565b604051809103902081836001600160a01b03167fe2406cfd356cfbe4e42d452bde96d27f48c423e5f02b5d78695893308399519d86604051610ea99190613245565b60405180910390a4505050565b838383838080601f016020809104026020016040519081016040528093929190818152602001838380828437600092019190915250610ef89250610bfd915050565b610f585760405162461bcd60e51b815260206004820152602b60248201527f4163636f756e744d6967726174696f6e3a2043616c6c6572206973206e6f742060448201526a30b71037b832b930ba37b960a91b60648201526084016106b5565b816001600160a01b0316836001600160a01b03161415610fd75760405162461bcd60e51b815260206004820152603460248201527f4163636f756e744d6967726174696f6e3a2043616e6e6f74206d696772617465604482015273081d1bc81d1a19481cd85b59481858d8dbdd5b9d60621b60648201526084016106b5565b6000611009610fe584611f36565b604051602001610ff5919061388e565b6040516020818303038152906040526120e6565b9050611016848284612121565b6110885760405162461bcd60e51b815260206004820152603d60248201527f4163636f756e744d6967726174696f6e3a205369676e6174757265206d75737460448201527f2062652066726f6d20746865206f726967696e616c206163636f756e7400000060648201526084016106b5565b60005b898110156111435760008b8b838181106110a7576110a76138e8565b9050602002013590506110b9816118b5565b80156110de5750896001600160a01b03166110d382610c36565b6001600160a01b0316145b15611130576110ee8a8a83611a2d565b886001600160a01b03168a6001600160a01b0316827fde55f075ebd46256cd6bd57d8fb53e0406f687db372e90ae8c18e72be46f5c1660405160405180910390a45b508061113b81613914565b91505061108b565b5060005b8b81101561127f5760008d8d83818110611163576111636138e8565b602090810292909201356000818152610899909352604090922054919250506001600160a01b03161561126c57600081815261089960205260409020546001600160a01b038b81169116146112205760405162461bcd60e51b815260206004820152603960248201527f4e465437323143726561746f723a20546f6b656e20776173206e6f742063726560448201527f617465642062792074686520676976656e20616464726573730000000000000060648201526084016106b5565b61122a818a611d88565b886001600160a01b03168a6001600160a01b0316827f58120fb31972ff9fad76eb87119474a58fc38d6b9b842bb3067a4a329eaa64f660405160405180910390a45b508061127781613914565b915050611147565b50505050505050505050505050565b6001600160a01b0382166000908152610c82602052604080822090516112b5908490613872565b9081526040519081900360200190205460ff16905092915050565b60009182526065602090815260408084206001600160a01b0393909316845291905290205460ff1690565b606061086880546105fd90613748565b6001600160a01b0382163314156113645760405162461bcd60e51b815260206004820152601960248201527f4552433732313a20617070726f766520746f2063616c6c65720000000000000060448201526064016106b5565b33600081815261086c602090815260408083206001600160a01b03871680855290835292819020805460ff191686151590811790915590519081529192917f17307eab39ab6107e8899845ad3d59bd9653f200f220920489ca2b5937696c31910160405180910390a35050565b6000610c1781336112d0565b6113e73383611942565b6114035760405162461bcd60e51b81526004016106b5906137d1565b61070d848484846121ee565b60606105e782612221565b611432600080516020613de48339815191528261146b565b6040516001600160a01b03821681527f44f4322f8daa225d5f4877ad0f7d3dfba248a774396f3ca99405ed40a044fe8190602001610930565b6000828152606560205260409020600101546114878133611bd0565b6108ad8383611cba565b60006114ab600080516020613de4833981519152336112d0565b6114c75760405162461bcd60e51b81526004016106b590613822565b6114d66117da80546001019055565b6117d980549060006114e783613914565b9190505590506114f73382611d6e565b6115018133611d88565b61150b8183611dfe565b816040516115199190613872565b604051809103902081336001600160a01b03167fe2406cfd356cfbe4e42d452bde96d27f48c423e5f02b5d78695893308399519d8560405161155b9190613245565b60405180910390a4919050565b6000818152610c846020526040902080546060919061158690613748565b80601f01602080910402602001604051908101604052809291908181526020018280546115b290613748565b80156115ff5780601f106115d4576101008083540402835291602001916115ff565b820191906000526020600020905b8154815290600101906020018083116115e257829003601f168201915b50505050509050919050565b611623600080516020613dc48339815191528261098f565b6040516001600160a01b03821681527f5b6a420b639feabfb011a07742a6ae14ef72f35d1a330ed65f42216c95bc6c2e90602001610930565b6000610c176117da5490565b600081815261089a60205260409020546001600160a01b0316806116a15750600081815261089960205260409020546001600160a01b03165b919050565b6116be600080516020613dc48339815191528261146b565b6040516001600160a01b03821681527fe672f512db5cb061756ab0b7654938a4293bbc42bc91f74bd0ade5f540a35c8090602001610930565b60006105e78261222c565b600054610100900460ff168061171b575060005460ff16155b6117375760405162461bcd60e51b81526004016106b590613783565b600054610100900460ff16158015611759576000805461ffff19166101011790555b611761612237565b611769612237565b61177383836122a2565b80156108ad576000805461ff0019169055505050565b600054610100900460ff16806117a2575060005460ff16155b6117be5760405162461bcd60e51b81526004016106b590613783565b600054610100900460ff161580156117e0576000805461ffff19166101011790555b60016117d9558015610aee576000805461ff001916905550565b600054610100900460ff1680611813575060005460ff16155b61182f5760405162461bcd60e51b81526004016106b590613783565b600054610100900460ff16158015611851576000805461ffff19166101011790555b611859612339565b6118646000836123a8565b6040516001600160a01b03831681527f75ef91bb959d6f13ca6b596857395ef84913b9db7adbc407d3bf97af614722d29060200160405180910390a18015610a73576000805461ff00191690555050565b600090815261086960205260409020546001600160a01b0316151590565b600081815261086b6020526040902080546001600160a01b0319166001600160a01b038416908117909155819061190982610c36565b6001600160a01b03167f8c5be1e5ebec7d5bd14f71427d1e84f3dd0314c0f7b2291e5b200ac8c7c3b92560405160405180910390a45050565b600061194d826118b5565b6119ae5760405162461bcd60e51b815260206004820152602c60248201527f4552433732313a206f70657261746f7220717565727920666f72206e6f6e657860448201526b34b9ba32b73a103a37b5b2b760a11b60648201526084016106b5565b60006119b983610c36565b9050806001600160a01b0316846001600160a01b031614806119f45750836001600160a01b03166119e984610713565b6001600160a01b0316145b80611a2557506001600160a01b03808216600090815261086c602090815260408083209388168352929052205460ff165b949350505050565b826001600160a01b0316611a4082610c36565b6001600160a01b031614611aa85760405162461bcd60e51b815260206004820152602960248201527f4552433732313a207472616e73666572206f6620746f6b656e2074686174206960448201526839903737ba1037bbb760b91b60648201526084016106b5565b6001600160a01b038216611b0a5760405162461bcd60e51b8152602060048201526024808201527f4552433732313a207472616e7366657220746f20746865207a65726f206164646044820152637265737360e01b60648201526084016106b5565b611b156000826118d3565b6001600160a01b038316600090815261086a60205260408120805460019290611b3f90849061392f565b90915550506001600160a01b038216600090815261086a60205260408120805460019290611b6e908490613946565b90915550506000818152610869602052604080822080546001600160a01b0319166001600160a01b0386811691821790925591518493918716917fddf252ad1be2c89b69c2b068fc378daa952ba7f163c4a11628f55a4df523b3ef91a4505050565b611bda82826112d0565b610a7357611bf2816001600160a01b031660146123b2565b611bfd8360206123b2565b604051602001611c0e92919061395e565b60408051601f198184030181529082905262461bcd60e51b82526106b591600401613245565b611c3e82826112d0565b610a735760008281526065602090815260408083206001600160a01b03851684529091529020805460ff19166001179055611c763390565b6001600160a01b0316816001600160a01b0316837f2f8788117e7eff1d82e926ec794901d17c78024a50270940304540a733656f0d60405160405180910390a45050565b611cc482826112d0565b15610a735760008281526065602090815260408083206001600160a01b0385168085529252808320805460ff1916905551339285917ff6391f5c32d9c69d2a47ea670b442974b53935d1edc7fd64eb21e047a839171b9190a45050565b8051611d3590610c83906020840190613121565b507f6741b2fc379fad678116fe3d4d4b9a1a184ab53ba36b86ad0fa66340b1ab41ad816040516109309190613245565b610aee8161254e565b610a73828260405180602001604052806000815250612557565b6000828152610899602052604080822054905184926001600160a01b038086169316917febd529444fe852bfccb40075e8f8cae7612ea20edebdf5143c72718ccb157f759190a46000918252610899602052604090912080546001600160a01b0319166001600160a01b03909216919091179055565b602e81511015611e5a5760405162461bcd60e51b815260206004820152602160248201527f4e46543732314d657461646174613a20496e76616c69642049504653207061746044820152600d60fb1b60648201526084016106b5565b336000908152610c826020526040908190209051611e79908390613872565b9081526040519081900360200190205460ff1615611ee85760405162461bcd60e51b815260206004820152602660248201527f4e46543732314d657461646174613a204e46542077617320616c7265616479206044820152651b5a5b9d195960d21b60648201526084016106b5565b336000908152610c82602052604090819020905160019190611f0b908490613872565b908152604051908190036020019020805491151560ff19909216919091179055610a7382823361258a565b60408051602a808252606082810190935260009190602082018180368337019050509050600360fc1b81600081518110611f7257611f726138e8565b60200101906001600160f81b031916908160001a905350600f60fb1b81600181518110611fa157611fa16138e8565b60200101906001600160f81b031916908160001a90535060005b60148110156120df576000611fd182601361392f565b611fdc9060086139d3565b611fe7906002613ad6565b611ffa906001600160a01b038716613af8565b60f81b9050600060108260f81c6120119190613b0c565b60f81b905060008160f81c60106120289190613b2e565b8360f81c6120369190613b4f565b60f81b90506120448261263d565b856120508660026139d3565b61205b906002613946565b8151811061206b5761206b6138e8565b60200101906001600160f81b031916908160001a90535061208b8161263d565b856120978660026139d3565b6120a2906003613946565b815181106120b2576120b26138e8565b60200101906001600160f81b031916908160001a90535050505080806120d790613914565b915050611fbb565b5092915050565b60006120f28251612673565b82604051602001612104929190613b72565b604051602081830303815290604052805190602001209050919050565b6000833b156121c657604051630b135d3f60e11b81526001600160a01b03851690631626ba7e906121589086908690600401613bcd565b60206040518083038186803b15801561217057600080fd5b505afa9250505080156121a0575060408051601f3d908101601f1916820190925261219d91810190613be6565b60015b6121ac575060006121e7565b6001600160e01b031916630b135d3f60e11b1490506121e7565b836001600160a01b03166121da8484612771565b6001600160a01b03161490505b9392505050565b6121f9848484611a2d565b61220584848484612795565b61070d5760405162461bcd60e51b81526004016106b590613c03565b60606105e7826128a2565b60006105e782612a0d565b600054610100900460ff1680612250575060005460ff16155b61226c5760405162461bcd60e51b81526004016106b590613783565b600054610100900460ff1615801561228e576000805461ffff19166101011790555b8015610aee576000805461ff001916905550565b600054610100900460ff16806122bb575060005460ff16155b6122d75760405162461bcd60e51b81526004016106b590613783565b600054610100900460ff161580156122f9576000805461ffff19166101011790555b825161230d90610867906020860190613121565b50815161232290610868906020850190613121565b5080156108ad576000805461ff0019169055505050565b600054610100900460ff1680612352575060005460ff16155b61236e5760405162461bcd60e51b81526004016106b590613783565b600054610100900460ff16158015612390576000805461ffff19166101011790555b612398612237565b6123a0612237565b61228e612237565b610a738282611c34565b606060006123c18360026139d3565b6123cc906002613946565b67ffffffffffffffff8111156123e4576123e4613258565b6040519080825280601f01601f19166020018201604052801561240e576020820181803683370190505b509050600360fc1b81600081518110612429576124296138e8565b60200101906001600160f81b031916908160001a905350600f60fb1b81600181518110612458576124586138e8565b60200101906001600160f81b031916908160001a905350600061247c8460026139d3565b612487906001613946565b90505b60018111156124ff576f181899199a1a9b1b9c1cb0b131b232b360811b85600f16601081106124bb576124bb6138e8565b1a60f81b8282815181106124d1576124d16138e8565b60200101906001600160f81b031916908160001a90535060049490941c936124f881613c55565b905061248a565b5083156121e75760405162461bcd60e51b815260206004820181905260248201527f537472696e67733a20686578206c656e67746820696e73756666696369656e7460448201526064016106b5565b610aee81612a18565b6125618383612a65565b61256e6000848484612795565b6108ad5760405162461bcd60e51b81526004016106b590613c03565b612593836118b5565b6125eb5760405162461bcd60e51b8152602060048201526024808201527f4d61737465723a2055524920736574206f66206e6f6e6578697374656e74207460448201526337b5b2b760e11b60648201526084016106b5565b6000838152610c8460209081526040909120835161260b92850190613121565b506000928352610c85602052604090922080546001600160a01b0319166001600160a01b039093169290921790915550565b6000600a60f883901c10156126645761265b60f883901c6030613c6c565b60f81b92915050565b61265b60f883901c6057613c6c565b6060816126975750506040805180820190915260018152600360fc1b602082015290565b8160005b81156126c157806126ab81613914565b91506126ba9050600a83613af8565b915061269b565b60008167ffffffffffffffff8111156126dc576126dc613258565b6040519080825280601f01601f191660200182016040528015612706576020820181803683370190505b5090505b8415611a255761271b60018361392f565b9150612728600a86613c91565b612733906030613946565b60f81b818381518110612748576127486138e8565b60200101906001600160f81b031916908160001a90535061276a600a86613af8565b945061270a565b60008060006127808585612b9a565b9150915061278d81612c0a565b509392505050565b60006001600160a01b0384163b1561289757604051630a85bd0160e11b81526001600160a01b0385169063150b7a02906127d9903390899088908890600401613ca5565b602060405180830381600087803b1580156127f357600080fd5b505af1925050508015612823575060408051601f3d908101601f1916820190925261282091810190613be6565b60015b61287d573d808015612851576040519150601f19603f3d011682016040523d82523d6000602084013e612856565b606091505b5080516128755760405162461bcd60e51b81526004016106b590613c03565b805181602001fd5b6001600160e01b031916630a85bd0160e11b149050611a25565b506001949350505050565b60606128ad826118b5565b6129095760405162461bcd60e51b815260206004820152602760248201527f4d61737465723a2055524920717565727920666f72206e6f6e6578697374656e6044820152663a103a37b5b2b760c91b60648201526084016106b5565b6000828152610c8460205260408120805461292390613748565b80601f016020809104026020016040519081016040528092919081815260200182805461294f90613748565b801561299c5780601f106129715761010080835404028352916020019161299c565b820191906000526020600020905b81548152906001019060200180831161297f57829003601f168201915b5050505050905060006129ad612dc5565b90508051600014156129c0575092915050565b8151156129f25780826040516020016129da929190613ce2565b60405160208183030381529060405292505050919050565b806129fc85612dcf565b6040516020016129da929190613ce2565b60006105e782612ecd565b336000908152610c8260209081526040808320848452610c849092529182902091519091612a4591613d11565b908152604051908190036020019020805460ff19169055610aee81612f0d565b6001600160a01b038216612abb5760405162461bcd60e51b815260206004820181905260248201527f4552433732313a206d696e7420746f20746865207a65726f206164647265737360448201526064016106b5565b612ac4816118b5565b15612b115760405162461bcd60e51b815260206004820152601c60248201527f4552433732313a20746f6b656e20616c7265616479206d696e7465640000000060448201526064016106b5565b6001600160a01b038216600090815261086a60205260408120805460019290612b3b908490613946565b90915550506000818152610869602052604080822080546001600160a01b0319166001600160a01b03861690811790915590518392907fddf252ad1be2c89b69c2b068fc378daa952ba7f163c4a11628f55a4df523b3ef908290a45050565b600080825160411415612bd15760208301516040840151606085015160001a612bc587828585612f33565b94509450505050612c03565b825160401415612bfb5760208301516040840151612bf0868383613020565b935093505050612c03565b506000905060025b9250929050565b6000816004811115612c1e57612c1e613dad565b1415612c275750565b6001816004811115612c3b57612c3b613dad565b1415612c895760405162461bcd60e51b815260206004820152601860248201527f45434453413a20696e76616c6964207369676e6174757265000000000000000060448201526064016106b5565b6002816004811115612c9d57612c9d613dad565b1415612ceb5760405162461bcd60e51b815260206004820152601f60248201527f45434453413a20696e76616c6964207369676e6174757265206c656e6774680060448201526064016106b5565b6003816004811115612cff57612cff613dad565b1415612d585760405162461bcd60e51b815260206004820152602260248201527f45434453413a20696e76616c6964207369676e6174757265202773272076616c604482015261756560f01b60648201526084016106b5565b6004816004811115612d6c57612d6c613dad565b1415610aee5760405162461bcd60e51b815260206004820152602260248201527f45434453413a20696e76616c6964207369676e6174757265202776272076616c604482015261756560f01b60648201526084016106b5565b6060610c1761093b565b606081612df35750506040805180820190915260018152600360fc1b602082015290565b8160005b8115612e1d5780612e0781613914565b9150612e169050600a83613af8565b9150612df7565b60008167ffffffffffffffff811115612e3857612e38613258565b6040519080825280601f01601f191660200182016040528015612e62576020820181803683370190505b5090505b8415611a2557612e7760018361392f565b9150612e84600a86613c91565b612e8f906030613946565b60f81b818381518110612ea457612ea46138e8565b60200101906001600160f81b031916908160001a905350612ec6600a86613af8565b9450612e66565b60006001600160e01b031982166380ac58cd60e01b1480612efe57506001600160e01b03198216635b5e139f60e01b145b806105e757506105e78261304f565b60008181526108996020526040902080546001600160a01b0319169055610aee81613084565b6000807f7fffffffffffffffffffffffffffffff5d576e7357a4501ddfe92f46681b20a0831115612f6a5750600090506003613017565b8460ff16601b14158015612f8257508460ff16601c14155b15612f935750600090506004613017565b6040805160008082526020820180845289905260ff881692820192909252606081018690526080810185905260019060a0016020604051602081039080840390855afa158015612fe7573d6000803e3d6000fd5b5050604051601f1901519150506001600160a01b03811661301057600060019250925050613017565b9150600090505b94509492505050565b6000806001600160ff1b03831660ff84901c601b0161304187828885612f33565b935093505050935093915050565b60006001600160e01b03198216637965db0b60e01b14806105e757506301ffc9a760e01b6001600160e01b03198316146105e7565b600061308f82610c36565b905061309c6000836118d3565b6001600160a01b038116600090815261086a602052604081208054600192906130c690849061392f565b90915550506000828152610869602052604080822080546001600160a01b0319169055518391906001600160a01b038416907fddf252ad1be2c89b69c2b068fc378daa952ba7f163c4a11628f55a4df523b3ef908390a45050565b82805461312d90613748565b90600052602060002090601f01602090048101928261314f5760008555613195565b82601f1061316857805160ff1916838001178555613195565b82800160010185558215613195579182015b8281111561319557825182559160200191906001019061317a565b506131a19291506131a5565b5090565b5b808211156131a157600081556001016131a6565b6001600160e01b031981168114610aee57600080fd5b6000602082840312156131e257600080fd5b81356121e7816131ba565b60005b838110156132085781810151838201526020016131f0565b8381111561070d5750506000910152565b600081518084526132318160208601602086016131ed565b601f01601f19169290920160200192915050565b6020815260006121e76020830184613219565b634e487b7160e01b600052604160045260246000fd5b600067ffffffffffffffff8084111561328957613289613258565b604051601f8501601f19908116603f011681019082821181831017156132b1576132b1613258565b816040528093508581528686860111156132ca57600080fd5b858560208301376000602087830101525050509392505050565b600082601f8301126132f557600080fd5b6121e78383356020850161326e565b6001600160a01b0381168114610aee57600080fd5b60008060006060848603121561332e57600080fd5b833567ffffffffffffffff8082111561334657600080fd5b613352878388016132e4565b9450602086013591508082111561336857600080fd5b50613375868287016132e4565b925050604084013561338681613304565b809150509250925092565b6000602082840312156133a357600080fd5b5035919050565b600080604083850312156133bd57600080fd5b82356133c881613304565b946020939093013593505050565b6000806000606084860312156133eb57600080fd5b83356133f681613304565b9250602084013561340681613304565b929592945050506040919091013590565b60006020828403121561342957600080fd5b81356121e781613304565b6000806040838503121561344757600080fd5b82359150602083013561345981613304565b809150509250929050565b60006020828403121561347657600080fd5b813567ffffffffffffffff81111561348d57600080fd5b611a25848285016132e4565b6000806000606084860312156134ae57600080fd5b833567ffffffffffffffff8111156134c557600080fd5b6134d1868287016132e4565b935050602084013561340681613304565b60008083601f8401126134f457600080fd5b50813567ffffffffffffffff81111561350c57600080fd5b6020830191508360208260051b8501011115612c0357600080fd5b60008060008060008060008060a0898b03121561354357600080fd5b883567ffffffffffffffff8082111561355b57600080fd5b6135678c838d016134e2565b909a50985060208b013591508082111561358057600080fd5b61358c8c838d016134e2565b909850965060408b013591506135a182613304565b90945060608a0135906135b382613304565b90935060808a013590808211156135c957600080fd5b818b0191508b601f8301126135dd57600080fd5b8135818111156135ec57600080fd5b8c60208285010111156135fe57600080fd5b6020830194508093505050509295985092959890939650565b6000806040838503121561362a57600080fd5b823561363581613304565b9150602083013567ffffffffffffffff81111561365157600080fd5b61365d858286016132e4565b9150509250929050565b6000806040838503121561367a57600080fd5b823561368581613304565b91506020830135801515811461345957600080fd5b600080600080608085870312156136b057600080fd5b84356136bb81613304565b935060208501356136cb81613304565b925060408501359150606085013567ffffffffffffffff8111156136ee57600080fd5b8501601f810187136136ff57600080fd5b61370e8782356020840161326e565b91505092959194509250565b6000806040838503121561372d57600080fd5b823561373881613304565b9150602083013561345981613304565b600181811c9082168061375c57607f821691505b6020821081141561377d57634e487b7160e01b600052602260045260246000fd5b50919050565b6020808252602e908201527f496e697469616c697a61626c653a20636f6e747261637420697320616c72656160408201526d191e481a5b9a5d1a585b1a5e995960921b606082015260800190565b60208082526031908201527f4552433732313a207472616e736665722063616c6c6572206973206e6f74206f6040820152701ddb995c881b9bdc88185c1c1c9bdd9959607a1b606082015260800190565b60208082526030908201527f4d696e746572526f6c653a2063616c6c657220646f6573206e6f74206861766560408201526f20746865204d696e74657220726f6c6560801b606082015260800190565b600082516138848184602087016131ed565b9190910192915050565b7f4920617574686f72697a65204d696e74656420746f206d696772617465206d7981526b01030b1b1b7bab73a103a37960a51b6020820152600082516138db81602c8501602087016131ed565b91909101602c0192915050565b634e487b7160e01b600052603260045260246000fd5b634e487b7160e01b600052601160045260246000fd5b6000600019821415613928576139286138fe565b5060010190565b600082821015613941576139416138fe565b500390565b60008219821115613959576139596138fe565b500190565b7f416363657373436f6e74726f6c3a206163636f756e74200000000000000000008152600083516139968160178501602088016131ed565b7001034b99036b4b9b9b4b733903937b6329607d1b60179184019182015283516139c78160288401602088016131ed565b01602801949350505050565b60008160001904831182151516156139ed576139ed6138fe565b500290565b600181815b80851115613a2d578160001904821115613a1357613a136138fe565b80851615613a2057918102915b93841c93908002906139f7565b509250929050565b600082613a44575060016105e7565b81613a51575060006105e7565b8160018114613a675760028114613a7157613a8d565b60019150506105e7565b60ff841115613a8257613a826138fe565b50506001821b6105e7565b5060208310610133831016604e8410600b8410161715613ab0575081810a6105e7565b613aba83836139f2565b8060001904821115613ace57613ace6138fe565b029392505050565b60006121e78383613a35565b634e487b7160e01b600052601260045260246000fd5b600082613b0757613b07613ae2565b500490565b600060ff831680613b1f57613b1f613ae2565b8060ff84160491505092915050565b600060ff821660ff84168160ff0481118215151615613ace57613ace6138fe565b600060ff821660ff841680821015613b6957613b696138fe565b90039392505050565b7f19457468657265756d205369676e6564204d6573736167653a0a000000000000815260008351613baa81601a8501602088016131ed565b835190830190613bc181601a8401602088016131ed565b01601a01949350505050565b828152604060208201526000611a256040830184613219565b600060208284031215613bf857600080fd5b81516121e7816131ba565b60208082526032908201527f4552433732313a207472616e7366657220746f206e6f6e20455243373231526560408201527131b2b4bb32b91034b6b83632b6b2b73a32b960711b606082015260800190565b600081613c6457613c646138fe565b506000190190565b600060ff821660ff84168060ff03821115613c8957613c896138fe565b019392505050565b600082613ca057613ca0613ae2565b500690565b6001600160a01b0385811682528416602082015260408101839052608060608201819052600090613cd890830184613219565b9695505050505050565b60008351613cf48184602088016131ed565b835190830190613d088183602088016131ed565b01949350505050565b600080835481600182811c915080831680613d2d57607f831692505b6020808410821415613d4d57634e487b7160e01b86526022600452602486fd5b818015613d615760018114613d7257613d9f565b60ff19861689528489019650613d9f565b60008a81526020902060005b86811015613d975781548b820152908501908301613d7e565b505084890196505b509498975050505050505050565b634e487b7160e01b600052602160045260246000fdfe97667070c54ef182b0f5858b034beac1b6f3089aa2d3188bb1e8929f4fa9b9299f2df0fed2c77648de5860a4cc508cd0818c85b8b8a1ab4ceeef8d981c8956a6a264697066735822122079f3dc37b71910640534eec0549979f199f2345cb159af4d0d594c6aa40c4a5264736f6c63430008090033",
  "immutableReferences": {},
  "source": "/*\r\n::::    :::::  :::::::::  ::::    :::  :::::::::  :::::::::  :::::::::  \r\n+:+:+: :+:+:+     :+:     :+:+:   :+:     :+:     :+:        :+:    :+: \r\n+:+ +:+:+ +:+     +:+     :+:+:+  +:+     +:+     +:+        +:+    +:+ \r\n+#+  +:+  +#+     +#+     +#+ +:+ +#+     +#+     +#++:++#   +#+    +:+ \r\n+#+       +#+     +#+     +#+  +#+#+#     +#+     +#+        +#+    +#+ \r\n#+#       #+#     #+#     #+#   #+#+#     #+#     #+#        #+#    #+# \r\n###       ###  #########  ###    ####     ###     #########  #########  \r\n*/\r\n// SPDX-License-Identifier: Non-Licensed\r\npragma solidity ^0.8.0;\r\n\r\nimport \"@openzeppelin/contracts-upgradeable/token/ERC721/ERC721Upgradeable.sol\";\r\n\r\nimport \"./mixins/roles/AdminRole.sol\";\r\nimport \"./mixins/roles/OperatorRole.sol\";\r\nimport \"./mixins/NFT721Core.sol\";\r\nimport \"./mixins/NFT721Creator.sol\";\r\nimport \"./mixins/NFT721Metadata.sol\";\r\nimport \"./mixins/NFT721Mint.sol\";\r\nimport \"./mixins/AccountMigration.sol\";\r\n\r\n/**\r\n * @title Minted NFTs implemented using the ERC-721 standard.\r\n * @dev This top level file holds no data directly to ease future upgrades.\r\n */\r\n \r\ncontract MintedNFT721 is\r\n  AdminRole,\r\n  OperatorRole,\r\n  AccountMigration,\r\n  ERC721Upgradeable,\r\n  NFT721Creator,\r\n  NFT721Metadata,\r\n  NFT721Core,\r\n  NFT721Mint  \r\n{\r\n  /**\r\n   * @notice Called once to configure the contract after the initial deployment.\r\n   * @dev This farms the initialize call out to inherited contracts as needed.\r\n   */\r\n  function initialize(\r\n    string memory name,\r\n    string memory symbol,\r\n    address admin\r\n  ) public initializer {\r\n    ERC721Upgradeable.__ERC721_init(name, symbol);\r\n    NFT721Mint._initializeNFT721Mint();\r\n    AdminRole._initializeAdminRole(admin);\r\n  }\r\n\r\n  function _baseURI() internal view virtual override(ERC721Upgradeable, NFT721Metadata, NFT721Mint) returns (string memory) {\r\n    return GetBaseURI();\r\n  }\r\n\r\n  /**\r\n   * @notice Allows a Minted admin to update NFT config variables.\r\n   * @dev This must be called right after the initial call to `initialize`.\r\n   */\r\n  function adminUpdateConfig(\r\n    string memory baseURI\r\n  ) public onlyAdmin {\r\n    _updateBaseURI(baseURI);\r\n  }\r\n\r\n  /**\r\n   * @dev This is a no-op, just an explicit override to address compile errors due to inheritance.\r\n   */\r\n  function _burn(uint256 tokenId) internal override(ERC721Upgradeable, NFT721Creator, NFT721Metadata, NFT721Mint) {\r\n    super._burn(tokenId);\r\n  }\r\n\r\n   function tokenURI(uint256 tokenId) public view virtual override(ERC721Upgradeable, NFT721Metadata, NFT721Mint) returns (string memory) {\r\n     return super.tokenURI(tokenId);\r\n   }\r\n  \r\n  function supportsInterface(bytes4 interfaceId) public view virtual override( ERC721Upgradeable, NFT721Mint, NFT721Metadata, AccessControlUpgradeable, NFT721Creator) returns (bool) {\r\n    return super.supportsInterface(interfaceId);\r\n  }\r\n}",
  "sourcePath": "C:\\alex\\nft\\openZeppelin\\mintedBasic\\contracts\\minted\\MintedNFT721.sol",
  "compiler": {
    "name": "solc",
    "version": "0.8.9+commit.e5eed63a.Emscripten.clang"
  },
  "schemaVersion": "3.4.3",
  "updatedAt": "2021-10-24T17:16:01.523Z",
  "networkType": "ethereum",
  "devdoc": {
    "details": "This top level file holds no data directly to ease future upgrades.",
    "kind": "dev",
    "methods": {
      "adminAccountMigration(uint256[],uint256[],address,address,bytes)": {
        "details": "This will gracefully skip any NFTs that have been burned or transferred.",
        "params": {
          "signature": "Message `I authorize Minted to migrate my account to ${newAccount.address.toLowerCase()}` signed by the original account."
        }
      },
      "adminUpdateConfig(string)": {
        "details": "This must be called right after the initial call to `initialize`."
      },
      "approve(address,uint256)": {
        "details": "See {IERC721-approve}."
      },
      "balanceOf(address)": {
        "details": "See {IERC721-balanceOf}."
      },
      "getApproved(uint256)": {
        "details": "See {IERC721-getApproved}."
      },
      "getRoleAdmin(bytes32)": {
        "details": "Returns the admin role that controls `role`. See {grantRole} and {revokeRole}. To change a role's admin, use {_setRoleAdmin}."
      },
      "getTokenCreatorPaymentAddress(uint256)": {
        "details": "If an alternate address was not defined, the creator is returned instead."
      },
      "grantRole(bytes32,address)": {
        "details": "Grants `role` to `account`. If `account` had not been already granted `role`, emits a {RoleGranted} event. Requirements: - the caller must have ``role``'s admin role."
      },
      "hasRole(bytes32,address)": {
        "details": "Returns `true` if `account` has been granted `role`."
      },
      "initialize(string,string,address)": {
        "details": "This farms the initialize call out to inherited contracts as needed."
      },
      "isApprovedForAll(address,address)": {
        "details": "See {IERC721-isApprovedForAll}."
      },
      "name()": {
        "details": "See {IERC721Metadata-name}."
      },
      "ownerOf(uint256)": {
        "details": "See {IERC721-ownerOf}."
      },
      "renounceRole(bytes32,address)": {
        "details": "Revokes `role` from the calling account. Roles are often managed via {grantRole} and {revokeRole}: this function's purpose is to provide a mechanism for accounts to lose their privileges if they are compromised (such as when a trusted device is misplaced). If the calling account had been granted `role`, emits a {RoleRevoked} event. Requirements: - the caller must be `account`."
      },
      "revokeRole(bytes32,address)": {
        "details": "Revokes `role` from `account`. If `account` had been granted `role`, emits a {RoleRevoked} event. Requirements: - the caller must have ``role``'s admin role."
      },
      "safeTransferFrom(address,address,uint256)": {
        "details": "See {IERC721-safeTransferFrom}."
      },
      "safeTransferFrom(address,address,uint256,bytes)": {
        "details": "See {IERC721-safeTransferFrom}."
      },
      "setApprovalForAll(address,bool)": {
        "details": "See {IERC721-setApprovalForAll}."
      },
      "symbol()": {
        "details": "See {IERC721Metadata-symbol}."
      },
      "transferFrom(address,address,uint256)": {
        "details": "See {IERC721-transferFrom}."
      }
    },
    "title": "Minted NFTs implemented using the ERC-721 standard.",
    "version": 1
  },
  "userdoc": {
    "kind": "user",
    "methods": {
      "adminAccountMigration(uint256[],uint256[],address,address,bytes)": {
        "notice": "Allows an NFT owner or creator and Minted to work together in order to update the creator to a new account and/or transfer NFTs to that account."
      },
      "adminUpdateConfig(string)": {
        "notice": "Allows a Minted admin to update NFT config variables."
      },
      "burn(uint256)": {
        "notice": "Allows the creator to burn if they currently own the NFT."
      },
      "getHasCreatorMintedIPFSHash(address,string)": {
        "notice": "Checks if the creator has already minted a given NFT."
      },
      "getNextTokenId()": {
        "notice": "Gets the tokenId of the next NFT minted."
      },
      "getTokenCreatorPaymentAddress(uint256)": {
        "notice": "Returns the payment address for a given tokenId."
      },
      "getTokenIPFSPath(uint256)": {
        "notice": "Returns the IPFSPath to the metadata JSON file for a given NFT."
      },
      "initialize(string,string,address)": {
        "notice": "Called once to configure the contract after the initial deployment."
      },
      "mint(string)": {
        "notice": "Allows a creator to mint an NFT."
      },
      "tokenCreator(uint256)": {
        "notice": "Returns the creator's address for a given tokenId."
      }
    },
    "version": 1
  }
}