{
  "contractName": "MintedNFT721",
  "abi": [
    {
      "anonymous": false,
      "inputs": [
        {
          "indexed": false,
          "internalType": "address",
          "name": "admin",
          "type": "address"
        }
      ],
      "name": "AdminGranted",
      "type": "event"
    },
    {
      "anonymous": false,
      "inputs": [
        {
          "indexed": false,
          "internalType": "address",
          "name": "admin",
          "type": "address"
        }
      ],
      "name": "AdminInitiated",
      "type": "event"
    },
    {
      "anonymous": false,
      "inputs": [
        {
          "indexed": false,
          "internalType": "address",
          "name": "admin",
          "type": "address"
        }
      ],
      "name": "AdminRevoked",
      "type": "event"
    },
    {
      "anonymous": false,
      "inputs": [
        {
          "indexed": false,
          "internalType": "address",
          "name": "toAddress",
          "type": "address"
        },
        {
          "indexed": false,
          "internalType": "address",
          "name": "fromAddress",
          "type": "address"
        },
        {
          "indexed": false,
          "internalType": "uint256",
          "name": "amount",
          "type": "uint256"
        }
      ],
      "name": "AmountTransferred",
      "type": "event"
    },
    {
      "anonymous": false,
      "inputs": [
        {
          "indexed": true,
          "internalType": "address",
          "name": "owner",
          "type": "address"
        },
        {
          "indexed": true,
          "internalType": "address",
          "name": "approved",
          "type": "address"
        },
        {
          "indexed": true,
          "internalType": "uint256",
          "name": "tokenId",
          "type": "uint256"
        }
      ],
      "name": "Approval",
      "type": "event"
    },
    {
      "anonymous": false,
      "inputs": [
        {
          "indexed": true,
          "internalType": "address",
          "name": "owner",
          "type": "address"
        },
        {
          "indexed": true,
          "internalType": "address",
          "name": "operator",
          "type": "address"
        },
        {
          "indexed": false,
          "internalType": "bool",
          "name": "approved",
          "type": "bool"
        }
      ],
      "name": "ApprovalForAll",
      "type": "event"
    },
    {
      "anonymous": false,
      "inputs": [
        {
          "indexed": false,
          "internalType": "string",
          "name": "baseURI",
          "type": "string"
        }
      ],
      "name": "BaseURIUpdated",
      "type": "event"
    },
    {
      "anonymous": false,
      "inputs": [
        {
          "indexed": true,
          "internalType": "address",
          "name": "creator",
          "type": "address"
        },
        {
          "indexed": true,
          "internalType": "uint256",
          "name": "tokenId",
          "type": "uint256"
        },
        {
          "indexed": true,
          "internalType": "string",
          "name": "indexedTokenIPFSPath",
          "type": "string"
        },
        {
          "indexed": false,
          "internalType": "string",
          "name": "tokenIPFSPath",
          "type": "string"
        }
      ],
      "name": "Minted",
      "type": "event"
    },
    {
      "anonymous": false,
      "inputs": [
        {
          "indexed": false,
          "internalType": "address",
          "name": "admin",
          "type": "address"
        }
      ],
      "name": "MinterGranted",
      "type": "event"
    },
    {
      "anonymous": false,
      "inputs": [
        {
          "indexed": false,
          "internalType": "address",
          "name": "admin",
          "type": "address"
        }
      ],
      "name": "MinterRevoked",
      "type": "event"
    },
    {
      "anonymous": false,
      "inputs": [
        {
          "indexed": true,
          "internalType": "uint256",
          "name": "tokenId",
          "type": "uint256"
        },
        {
          "indexed": true,
          "internalType": "address",
          "name": "originalAddress",
          "type": "address"
        },
        {
          "indexed": true,
          "internalType": "address",
          "name": "newAddress",
          "type": "address"
        }
      ],
      "name": "NFTCreatorMigrated",
      "type": "event"
    },
    {
      "anonymous": false,
      "inputs": [
        {
          "indexed": true,
          "internalType": "address",
          "name": "nftMarket",
          "type": "address"
        }
      ],
      "name": "NFTMarketUpdated",
      "type": "event"
    },
    {
      "anonymous": false,
      "inputs": [
        {
          "indexed": false,
          "internalType": "string",
          "name": "name",
          "type": "string"
        },
        {
          "indexed": false,
          "internalType": "string",
          "name": "symbol",
          "type": "string"
        },
        {
          "indexed": false,
          "internalType": "string",
          "name": "baseURI",
          "type": "string"
        }
      ],
      "name": "NFTMetadataUpdated",
      "type": "event"
    },
    {
      "anonymous": false,
      "inputs": [
        {
          "indexed": true,
          "internalType": "uint256",
          "name": "tokenId",
          "type": "uint256"
        },
        {
          "indexed": true,
          "internalType": "address",
          "name": "originalAddress",
          "type": "address"
        },
        {
          "indexed": true,
          "internalType": "address",
          "name": "newAddress",
          "type": "address"
        }
      ],
      "name": "NFTOwnerMigrated",
      "type": "event"
    },
    {
      "anonymous": false,
      "inputs": [
        {
          "indexed": false,
          "internalType": "address",
          "name": "admin",
          "type": "address"
        }
      ],
      "name": "OperatoRevoked",
      "type": "event"
    },
    {
      "anonymous": false,
      "inputs": [
        {
          "indexed": false,
          "internalType": "address",
          "name": "admin",
          "type": "address"
        }
      ],
      "name": "OperatorGranted",
      "type": "event"
    },
    {
      "anonymous": false,
      "inputs": [
        {
          "indexed": true,
          "internalType": "uint256",
          "name": "tokenId",
          "type": "uint256"
        },
        {
          "indexed": true,
          "internalType": "address",
          "name": "originalAddress",
          "type": "address"
        },
        {
          "indexed": true,
          "internalType": "address",
          "name": "newAddress",
          "type": "address"
        },
        {
          "indexed": false,
          "internalType": "address",
          "name": "originalPaymentAddress",
          "type": "address"
        },
        {
          "indexed": false,
          "internalType": "address",
          "name": "newPaymentAddress",
          "type": "address"
        }
      ],
      "name": "PaymentAddressMigrated",
      "type": "event"
    },
    {
      "anonymous": false,
      "inputs": [
        {
          "indexed": true,
          "internalType": "bytes32",
          "name": "role",
          "type": "bytes32"
        },
        {
          "indexed": true,
          "internalType": "bytes32",
          "name": "previousAdminRole",
          "type": "bytes32"
        },
        {
          "indexed": true,
          "internalType": "bytes32",
          "name": "newAdminRole",
          "type": "bytes32"
        }
      ],
      "name": "RoleAdminChanged",
      "type": "event"
    },
    {
      "anonymous": false,
      "inputs": [
        {
          "indexed": true,
          "internalType": "bytes32",
          "name": "role",
          "type": "bytes32"
        },
        {
          "indexed": true,
          "internalType": "address",
          "name": "account",
          "type": "address"
        },
        {
          "indexed": true,
          "internalType": "address",
          "name": "sender",
          "type": "address"
        }
      ],
      "name": "RoleGranted",
      "type": "event"
    },
    {
      "anonymous": false,
      "inputs": [
        {
          "indexed": true,
          "internalType": "bytes32",
          "name": "role",
          "type": "bytes32"
        },
        {
          "indexed": true,
          "internalType": "address",
          "name": "account",
          "type": "address"
        },
        {
          "indexed": true,
          "internalType": "address",
          "name": "sender",
          "type": "address"
        }
      ],
      "name": "RoleRevoked",
      "type": "event"
    },
    {
      "anonymous": false,
      "inputs": [
        {
          "indexed": true,
          "internalType": "address",
          "name": "fromPaymentAddress",
          "type": "address"
        },
        {
          "indexed": true,
          "internalType": "address",
          "name": "toPaymentAddress",
          "type": "address"
        },
        {
          "indexed": true,
          "internalType": "uint256",
          "name": "tokenId",
          "type": "uint256"
        }
      ],
      "name": "TokenCreatorPaymentAddressSet",
      "type": "event"
    },
    {
      "anonymous": false,
      "inputs": [
        {
          "indexed": true,
          "internalType": "address",
          "name": "fromCreator",
          "type": "address"
        },
        {
          "indexed": true,
          "internalType": "address",
          "name": "toCreator",
          "type": "address"
        },
        {
          "indexed": true,
          "internalType": "uint256",
          "name": "tokenId",
          "type": "uint256"
        }
      ],
      "name": "TokenCreatorUpdated",
      "type": "event"
    },
    {
      "anonymous": false,
      "inputs": [
        {
          "indexed": true,
          "internalType": "uint256",
          "name": "tokenId",
          "type": "uint256"
        },
        {
          "indexed": true,
          "internalType": "string",
          "name": "indexedTokenIPFSPath",
          "type": "string"
        },
        {
          "indexed": false,
          "internalType": "string",
          "name": "tokenIPFSPath",
          "type": "string"
        }
      ],
      "name": "TokenIPFSPathUpdated",
      "type": "event"
    },
    {
      "anonymous": false,
      "inputs": [
        {
          "indexed": false,
          "internalType": "address",
          "name": "from",
          "type": "address"
        },
        {
          "indexed": false,
          "internalType": "address",
          "name": "to",
          "type": "address"
        },
        {
          "indexed": false,
          "internalType": "uint256",
          "name": "tokenId",
          "type": "uint256"
        }
      ],
      "name": "TokenTransfered",
      "type": "event"
    },
    {
      "anonymous": false,
      "inputs": [
        {
          "indexed": true,
          "internalType": "address",
          "name": "from",
          "type": "address"
        },
        {
          "indexed": true,
          "internalType": "address",
          "name": "to",
          "type": "address"
        },
        {
          "indexed": true,
          "internalType": "uint256",
          "name": "tokenId",
          "type": "uint256"
        }
      ],
      "name": "Transfer",
      "type": "event"
    },
    {
      "inputs": [],
      "name": "DEFAULT_ADMIN_ROLE",
      "outputs": [
        {
          "internalType": "bytes32",
          "name": "",
          "type": "bytes32"
        }
      ],
      "stateMutability": "view",
      "type": "function"
    },
    {
      "inputs": [],
      "name": "GetBaseURI",
      "outputs": [
        {
          "internalType": "string",
          "name": "",
          "type": "string"
        }
      ],
      "stateMutability": "view",
      "type": "function"
    },
    {
      "inputs": [],
      "name": "MINTER_ROLE",
      "outputs": [
        {
          "internalType": "bytes32",
          "name": "",
          "type": "bytes32"
        }
      ],
      "stateMutability": "view",
      "type": "function"
    },
    {
      "inputs": [],
      "name": "OPERATOR_ROLE",
      "outputs": [
        {
          "internalType": "bytes32",
          "name": "",
          "type": "bytes32"
        }
      ],
      "stateMutability": "view",
      "type": "function"
    },
    {
      "inputs": [
        {
          "internalType": "uint256[]",
          "name": "createdTokenIds",
          "type": "uint256[]"
        },
        {
          "internalType": "uint256[]",
          "name": "ownedTokenIds",
          "type": "uint256[]"
        },
        {
          "internalType": "address",
          "name": "originalAddress",
          "type": "address"
        },
        {
          "internalType": "address payable",
          "name": "newAddress",
          "type": "address"
        },
        {
          "internalType": "bytes",
          "name": "signature",
          "type": "bytes"
        }
      ],
      "name": "adminAccountMigration",
      "outputs": [],
      "stateMutability": "nonpayable",
      "type": "function"
    },
    {
      "inputs": [
        {
          "internalType": "address",
          "name": "to",
          "type": "address"
        },
        {
          "internalType": "uint256",
          "name": "tokenId",
          "type": "uint256"
        }
      ],
      "name": "approve",
      "outputs": [],
      "stateMutability": "nonpayable",
      "type": "function"
    },
    {
      "inputs": [
        {
          "internalType": "address",
          "name": "owner",
          "type": "address"
        }
      ],
      "name": "balanceOf",
      "outputs": [
        {
          "internalType": "uint256",
          "name": "",
          "type": "uint256"
        }
      ],
      "stateMutability": "view",
      "type": "function"
    },
    {
      "inputs": [
        {
          "internalType": "uint256",
          "name": "tokenId",
          "type": "uint256"
        }
      ],
      "name": "burn",
      "outputs": [],
      "stateMutability": "nonpayable",
      "type": "function"
    },
    {
      "inputs": [
        {
          "internalType": "uint256",
          "name": "tokenId",
          "type": "uint256"
        }
      ],
      "name": "getApproved",
      "outputs": [
        {
          "internalType": "address",
          "name": "",
          "type": "address"
        }
      ],
      "stateMutability": "view",
      "type": "function"
    },
    {
      "inputs": [
        {
          "internalType": "uint256",
          "name": "",
          "type": "uint256"
        }
      ],
      "name": "getFeeBps",
      "outputs": [
        {
          "internalType": "uint256[]",
          "name": "",
          "type": "uint256[]"
        }
      ],
      "stateMutability": "view",
      "type": "function"
    },
    {
      "inputs": [
        {
          "internalType": "uint256",
          "name": "id",
          "type": "uint256"
        }
      ],
      "name": "getFeeRecipients",
      "outputs": [
        {
          "internalType": "address payable[]",
          "name": "",
          "type": "address[]"
        }
      ],
      "stateMutability": "view",
      "type": "function"
    },
    {
      "inputs": [
        {
          "internalType": "address",
          "name": "creator",
          "type": "address"
        },
        {
          "internalType": "string",
          "name": "tokenIPFSPath",
          "type": "string"
        }
      ],
      "name": "getHasCreatorMintedIPFSHash",
      "outputs": [
        {
          "internalType": "bool",
          "name": "",
          "type": "bool"
        }
      ],
      "stateMutability": "view",
      "type": "function"
    },
    {
      "inputs": [],
      "name": "getMintedTreasury",
      "outputs": [
        {
          "internalType": "address payable",
          "name": "",
          "type": "address"
        }
      ],
      "stateMutability": "view",
      "type": "function"
    },
    {
      "inputs": [],
      "name": "getNFTMarket",
      "outputs": [
        {
          "internalType": "address",
          "name": "",
          "type": "address"
        }
      ],
      "stateMutability": "view",
      "type": "function"
    },
    {
      "inputs": [],
      "name": "getNextTokenId",
      "outputs": [
        {
          "internalType": "uint256",
          "name": "",
          "type": "uint256"
        }
      ],
      "stateMutability": "view",
      "type": "function"
    },
    {
      "inputs": [
        {
          "internalType": "bytes32",
          "name": "role",
          "type": "bytes32"
        }
      ],
      "name": "getRoleAdmin",
      "outputs": [
        {
          "internalType": "bytes32",
          "name": "",
          "type": "bytes32"
        }
      ],
      "stateMutability": "view",
      "type": "function"
    },
    {
      "inputs": [
        {
          "internalType": "uint256",
          "name": "tokenId",
          "type": "uint256"
        }
      ],
      "name": "getRoyalties",
      "outputs": [
        {
          "internalType": "address payable[2]",
          "name": "recipients",
          "type": "address[2]"
        },
        {
          "internalType": "uint256[2]",
          "name": "feesInBasisPoints",
          "type": "uint256[2]"
        }
      ],
      "stateMutability": "view",
      "type": "function"
    },
    {
      "inputs": [
        {
          "internalType": "uint256",
          "name": "tokenId",
          "type": "uint256"
        }
      ],
      "name": "getTokenCreatorPaymentAddress",
      "outputs": [
        {
          "internalType": "address payable",
          "name": "tokenCreatorPaymentAddress",
          "type": "address"
        }
      ],
      "stateMutability": "view",
      "type": "function"
    },
    {
      "inputs": [
        {
          "internalType": "uint256",
          "name": "tokenId",
          "type": "uint256"
        }
      ],
      "name": "getTokenIPFSPath",
      "outputs": [
        {
          "internalType": "string",
          "name": "",
          "type": "string"
        }
      ],
      "stateMutability": "view",
      "type": "function"
    },
    {
      "inputs": [
        {
          "internalType": "address",
          "name": "account",
          "type": "address"
        }
      ],
      "name": "grantAdmin",
      "outputs": [],
      "stateMutability": "nonpayable",
      "type": "function"
    },
    {
      "inputs": [
        {
          "internalType": "address",
          "name": "account",
          "type": "address"
        }
      ],
      "name": "grantMinter",
      "outputs": [],
      "stateMutability": "nonpayable",
      "type": "function"
    },
    {
      "inputs": [
        {
          "internalType": "address",
          "name": "account",
          "type": "address"
        }
      ],
      "name": "grantOperator",
      "outputs": [],
      "stateMutability": "nonpayable",
      "type": "function"
    },
    {
      "inputs": [
        {
          "internalType": "bytes32",
          "name": "role",
          "type": "bytes32"
        },
        {
          "internalType": "address",
          "name": "account",
          "type": "address"
        }
      ],
      "name": "grantRole",
      "outputs": [],
      "stateMutability": "nonpayable",
      "type": "function"
    },
    {
      "inputs": [
        {
          "internalType": "bytes32",
          "name": "role",
          "type": "bytes32"
        },
        {
          "internalType": "address",
          "name": "account",
          "type": "address"
        }
      ],
      "name": "hasRole",
      "outputs": [
        {
          "internalType": "bool",
          "name": "",
          "type": "bool"
        }
      ],
      "stateMutability": "view",
      "type": "function"
    },
    {
      "inputs": [],
      "name": "isAdmin",
      "outputs": [
        {
          "internalType": "bool",
          "name": "",
          "type": "bool"
        }
      ],
      "stateMutability": "view",
      "type": "function"
    },
    {
      "inputs": [
        {
          "internalType": "address",
          "name": "owner",
          "type": "address"
        },
        {
          "internalType": "address",
          "name": "operator",
          "type": "address"
        }
      ],
      "name": "isApprovedForAll",
      "outputs": [
        {
          "internalType": "bool",
          "name": "",
          "type": "bool"
        }
      ],
      "stateMutability": "view",
      "type": "function"
    },
    {
      "inputs": [],
      "name": "isMinter",
      "outputs": [
        {
          "internalType": "bool",
          "name": "",
          "type": "bool"
        }
      ],
      "stateMutability": "view",
      "type": "function"
    },
    {
      "inputs": [],
      "name": "isOperator",
      "outputs": [
        {
          "internalType": "bool",
          "name": "",
          "type": "bool"
        }
      ],
      "stateMutability": "view",
      "type": "function"
    },
    {
      "inputs": [
        {
          "internalType": "string",
          "name": "tokenIPFSPath",
          "type": "string"
        },
        {
          "internalType": "address",
          "name": "to",
          "type": "address"
        },
        {
          "internalType": "uint256",
          "name": "tokenId",
          "type": "uint256"
        }
      ],
      "name": "mint",
      "outputs": [],
      "stateMutability": "nonpayable",
      "type": "function"
    },
    {
      "inputs": [
        {
          "internalType": "string",
          "name": "tokenIPFSPath",
          "type": "string"
        }
      ],
      "name": "mint",
      "outputs": [
        {
          "internalType": "uint256",
          "name": "tokenId",
          "type": "uint256"
        }
      ],
      "stateMutability": "nonpayable",
      "type": "function"
    },
    {
      "inputs": [],
      "name": "name",
      "outputs": [
        {
          "internalType": "string",
          "name": "",
          "type": "string"
        }
      ],
      "stateMutability": "view",
      "type": "function"
    },
    {
      "inputs": [
        {
          "internalType": "uint256",
          "name": "tokenId",
          "type": "uint256"
        }
      ],
      "name": "ownerOf",
      "outputs": [
        {
          "internalType": "address",
          "name": "",
          "type": "address"
        }
      ],
      "stateMutability": "view",
      "type": "function"
    },
    {
      "inputs": [
        {
          "internalType": "bytes32",
          "name": "role",
          "type": "bytes32"
        },
        {
          "internalType": "address",
          "name": "account",
          "type": "address"
        }
      ],
      "name": "renounceRole",
      "outputs": [],
      "stateMutability": "nonpayable",
      "type": "function"
    },
    {
      "inputs": [
        {
          "internalType": "address",
          "name": "account",
          "type": "address"
        }
      ],
      "name": "revokeAdmin",
      "outputs": [],
      "stateMutability": "nonpayable",
      "type": "function"
    },
    {
      "inputs": [
        {
          "internalType": "address",
          "name": "account",
          "type": "address"
        }
      ],
      "name": "revokeMinter",
      "outputs": [],
      "stateMutability": "nonpayable",
      "type": "function"
    },
    {
      "inputs": [
        {
          "internalType": "address",
          "name": "account",
          "type": "address"
        }
      ],
      "name": "revokeOperator",
      "outputs": [],
      "stateMutability": "nonpayable",
      "type": "function"
    },
    {
      "inputs": [
        {
          "internalType": "bytes32",
          "name": "role",
          "type": "bytes32"
        },
        {
          "internalType": "address",
          "name": "account",
          "type": "address"
        }
      ],
      "name": "revokeRole",
      "outputs": [],
      "stateMutability": "nonpayable",
      "type": "function"
    },
    {
      "inputs": [
        {
          "internalType": "address",
          "name": "from",
          "type": "address"
        },
        {
          "internalType": "address",
          "name": "to",
          "type": "address"
        },
        {
          "internalType": "uint256",
          "name": "tokenId",
          "type": "uint256"
        }
      ],
      "name": "safeTransferFrom",
      "outputs": [],
      "stateMutability": "nonpayable",
      "type": "function"
    },
    {
      "inputs": [
        {
          "internalType": "address",
          "name": "from",
          "type": "address"
        },
        {
          "internalType": "address",
          "name": "to",
          "type": "address"
        },
        {
          "internalType": "uint256",
          "name": "tokenId",
          "type": "uint256"
        },
        {
          "internalType": "bytes",
          "name": "_data",
          "type": "bytes"
        }
      ],
      "name": "safeTransferFrom",
      "outputs": [],
      "stateMutability": "nonpayable",
      "type": "function"
    },
    {
      "inputs": [
        {
          "internalType": "address",
          "name": "operator",
          "type": "address"
        },
        {
          "internalType": "bool",
          "name": "approved",
          "type": "bool"
        }
      ],
      "name": "setApprovalForAll",
      "outputs": [],
      "stateMutability": "nonpayable",
      "type": "function"
    },
    {
      "inputs": [],
      "name": "symbol",
      "outputs": [
        {
          "internalType": "string",
          "name": "",
          "type": "string"
        }
      ],
      "stateMutability": "view",
      "type": "function"
    },
    {
      "inputs": [
        {
          "internalType": "uint256",
          "name": "tokenId",
          "type": "uint256"
        }
      ],
      "name": "tokenCreator",
      "outputs": [
        {
          "internalType": "address payable",
          "name": "",
          "type": "address"
        }
      ],
      "stateMutability": "view",
      "type": "function"
    },
    {
      "inputs": [],
      "name": "totalOfMintedTokens",
      "outputs": [
        {
          "internalType": "uint256",
          "name": "",
          "type": "uint256"
        }
      ],
      "stateMutability": "view",
      "type": "function"
    },
    {
      "inputs": [
        {
          "internalType": "address",
          "name": "from",
          "type": "address"
        },
        {
          "internalType": "address",
          "name": "to",
          "type": "address"
        },
        {
          "internalType": "uint256",
          "name": "tokenId",
          "type": "uint256"
        }
      ],
      "name": "transferFrom",
      "outputs": [],
      "stateMutability": "nonpayable",
      "type": "function"
    },
    {
      "inputs": [
        {
          "internalType": "address",
          "name": "receiverUserAddress",
          "type": "address"
        }
      ],
      "name": "transferToWallet",
      "outputs": [],
      "stateMutability": "payable",
      "type": "function"
    },
    {
      "inputs": [
        {
          "internalType": "address",
          "name": "newAddress",
          "type": "address"
        },
        {
          "internalType": "uint256",
          "name": "tokenId",
          "type": "uint256"
        }
      ],
      "name": "transferToken",
      "outputs": [],
      "stateMutability": "nonpayable",
      "type": "function"
    },
    {
      "inputs": [
        {
          "internalType": "string",
          "name": "name",
          "type": "string"
        },
        {
          "internalType": "string",
          "name": "symbol",
          "type": "string"
        },
        {
          "internalType": "address",
          "name": "admin",
          "type": "address"
        }
      ],
      "name": "initialize",
      "outputs": [],
      "stateMutability": "nonpayable",
      "type": "function"
    },
    {
      "inputs": [
        {
          "internalType": "address",
          "name": "_nftMarket",
          "type": "address"
        },
        {
          "internalType": "string",
          "name": "baseURI",
          "type": "string"
        }
      ],
      "name": "adminUpdateConfig",
      "outputs": [],
      "stateMutability": "nonpayable",
      "type": "function"
    },
    {
      "inputs": [
        {
          "internalType": "uint256",
          "name": "tokenId",
          "type": "uint256"
        }
      ],
      "name": "tokenURI",
      "outputs": [
        {
          "internalType": "string",
          "name": "",
          "type": "string"
        }
      ],
      "stateMutability": "view",
      "type": "function"
    },
    {
      "inputs": [
        {
          "internalType": "bytes4",
          "name": "interfaceId",
          "type": "bytes4"
        }
      ],
      "name": "supportsInterface",
      "outputs": [
        {
          "internalType": "bool",
          "name": "",
          "type": "bool"
        }
      ],
      "stateMutability": "view",
      "type": "function"
    }
  ],
  "bytecode": "0x608060405234801561001057600080fd5b506148b0806100206000396000f3fe6080604052600436106102c95760003560e01c80637e8816b911610175578063c87b56dd116100dc578063dac28cce11610095578063e985e9c51161006f578063e985e9c5146108be578063ec5f752e14610908578063f5b541a614610928578063fad8b32a1461094a57600080fd5b8063dac28cce14610869578063e348da1314610889578063e7ec78e3146108a957600080fd5b8063c87b56dd146107b1578063caa0f92a146107d1578063cfbd4885146107e7578063d539139314610807578063d547741f14610829578063d85d3d271461084957600080fd5b8063a22cb4651161012e578063a22cb465146106e1578063a4b52df114610701578063b6db75a014610721578063b88d4fde14610736578063b9c4d9fb14610756578063bb3bafd61461078357600080fd5b80637e8816b91461063757806384f4e5c01461065757806389ca8b711461067757806391d148541461069757806395d89b41146106b7578063a217fddf146106cc57600080fd5b80632d3456701161023457806342842e0e116101ed57806350e59eb3116101c757806350e59eb3146105be5780636352211e146105d357806370a08231146105f3578063753af00e1461061357600080fd5b806342842e0e1461056957806342966c68146105895780634456eda2146105a957600080fd5b80632d345670146104935780632f2ff15d146104b357806335bb3e16146104d357806336568abe146104f35780633fd7ca411461051357806340c1a0641461053257600080fd5b80631072cbea116102865780631072cbea146103cc578063180afb07146103ec57806323b872dd146103ff578063248a9ca31461041f578063261707fa1461045e57806329b79a671461047e57600080fd5b806301ffc9a7146102ce57806306fdde0314610303578063077f224a14610325578063081812fc14610347578063095ea7b31461037f5780630ebd4c7f1461039f575b600080fd5b3480156102da57600080fd5b506102ee6102e9366004613ae4565b61096a565b60405190151581526020015b60405180910390f35b34801561030f57600080fd5b5061031861097b565b6040516102fa9190613b59565b34801561033157600080fd5b50610345610340366004613c2d565b610a0e565b005b34801561035357600080fd5b50610367610362366004613ca5565b610aa1565b6040516001600160a01b0390911681526020016102fa565b34801561038b57600080fd5b5061034561039a366004613cbe565b610b2a565b3480156103ab57600080fd5b506103bf6103ba366004613ca5565b610c40565b6040516102fa9190613cea565b3480156103d857600080fd5b506103456103e7366004613cbe565b610d3f565b6103456103fa366004613d2e565b610e54565b34801561040b57600080fd5b5061034561041a366004613d4b565b610f29565b34801561042b57600080fd5b5061045061043a366004613ca5565b6000908152610835602052604090206001015490565b6040519081526020016102fa565b34801561046a57600080fd5b50610345610479366004613d2e565b610f5a565b34801561048a57600080fd5b50610318610fab565b34801561049f57600080fd5b506103456104ae366004613d2e565b610fbb565b3480156104bf57600080fd5b506103456104ce366004613d8c565b610fff565b3480156104df57600080fd5b506103456104ee366004613d2e565b611026565b3480156104ff57600080fd5b5061034561050e366004613d8c565b61106a565b34801561051f57600080fd5b50611452546001600160a01b0316610367565b34801561053e57600080fd5b5061036761054d366004613ca5565b600090815261106960205260409020546001600160a01b031690565b34801561057557600080fd5b50610345610584366004613d4b565b6110e8565b34801561059557600080fd5b506103456105a4366004613ca5565b611103565b3480156105b557600080fd5b506102ee6111f4565b3480156105ca57600080fd5b506102ee611213565b3480156105df57600080fd5b506103676105ee366004613ca5565b61122d565b3480156105ff57600080fd5b5061045061060e366004613d2e565b6112a5565b34801561061f57600080fd5b506000546201000090046001600160a01b0316610367565b34801561064357600080fd5b50610345610652366004613dbc565b61132d565b34801561066357600080fd5b50610345610672366004613e4a565b6114ad565b34801561068357600080fd5b506102ee610692366004613f3a565b611885565b3480156106a357600080fd5b506102ee6106b2366004613d8c565b6118c7565b3480156106c357600080fd5b506103186118f3565b3480156106d857600080fd5b50610450600081565b3480156106ed57600080fd5b506103456106fc366004613f8a565b611903565b34801561070d57600080fd5b5061034561071c366004613f3a565b6119c9565b34801561072d57600080fd5b506102ee611a49565b34801561074257600080fd5b50610345610751366004613fbd565b611a55565b34801561076257600080fd5b50610776610771366004613ca5565b611a87565b6040516102fa919061403d565b34801561078f57600080fd5b506107a361079e366004613ca5565b611b4f565b6040516102fa92919061407e565b3480156107bd57600080fd5b506103186107cc366004613ca5565b611c3d565b3480156107dd57600080fd5b5061239254610450565b3480156107f357600080fd5b50610345610802366004613d2e565b611c48565b34801561081357600080fd5b5061045060008051602061485b83398151915281565b34801561083557600080fd5b50610345610844366004613d8c565b611c99565b34801561085557600080fd5b506104506108643660046140e3565b611cc0565b34801561087557600080fd5b50610318610884366004613ca5565b611d97565b34801561089557600080fd5b506103456108a4366004613d2e565b611e3a565b3480156108b557600080fd5b50610450611e8b565b3480156108ca57600080fd5b506102ee6108d9366004614118565b6001600160a01b03918216600090815261103c6020908152604080832093909416825291909152205460ff1690565b34801561091457600080fd5b50610367610923366004613ca5565b611e97565b34801561093457600080fd5b5061045060008051602061483b83398151915281565b34801561095657600080fd5b50610345610965366004613d2e565b611ed5565b600061097582611f26565b92915050565b6060611037805461098b90614146565b80601f01602080910402602001604051908101604052809291908181526020018280546109b790614146565b8015610a045780601f106109d957610100808354040283529160200191610a04565b820191906000526020600020905b8154815290600101906020018083116109e757829003601f168201915b5050505050905090565b600054610100900460ff1680610a27575060005460ff16155b610a4c5760405162461bcd60e51b8152600401610a4390614181565b60405180910390fd5b600054610100900460ff16158015610a6e576000805461ffff19166101011790555b610a788484611f31565b610a80611fb8565b610a898261202a565b8015610a9b576000805461ff00191690555b50505050565b6000610aac826120e5565b610b0d5760405162461bcd60e51b815260206004820152602c60248201527f4552433732313a20617070726f76656420717565727920666f72206e6f6e657860448201526b34b9ba32b73a103a37b5b2b760a11b6064820152608401610a43565b50600090815261103b60205260409020546001600160a01b031690565b6000610b358261122d565b9050806001600160a01b0316836001600160a01b03161415610ba35760405162461bcd60e51b815260206004820152602160248201527f4552433732313a20617070726f76616c20746f2063757272656e74206f776e656044820152603960f91b6064820152608401610a43565b336001600160a01b0382161480610bbf5750610bbf81336108d9565b610c315760405162461bcd60e51b815260206004820152603860248201527f4552433732313a20617070726f76652063616c6c6572206973206e6f74206f7760448201527f6e6572206e6f7220617070726f76656420666f7220616c6c00000000000000006064820152608401610a43565b610c3b8383612103565b505050565b606060008061145260009054906101000a90046001600160a01b03166001600160a01b0316635fbbc0d26040518163ffffffff1660e01b815260040160606040518083038186803b158015610c9457600080fd5b505afa158015610ca8573d6000803e3d6000fd5b505050506040513d601f19601f82011682018060405250810190610ccc91906141cf565b60408051600280825260608201909252929550909350600092508160200160208202803683370190505090508281600081518110610d0c57610d0c6141fd565b6020026020010181815250508181600181518110610d2c57610d2c6141fd565b6020908102919091010152949350505050565b610d48816120e5565b610d895760405162461bcd60e51b8152602060048201526012602482015271151bdad95b9251081b5d5cdd08195e1a5cdd60721b6044820152606401610a43565b33610d938261122d565b6001600160a01b031614610dfc5760405162461bcd60e51b815260206004820152602a60248201527f5472616e736665722063616e20626520646f6e65206f6e6c79206279207468656044820152691027232a1037bbb732b960b11b6064820152608401610a43565b610e073383836110e8565b604080513381526001600160a01b03841660208201529081018290527fec61728879a33aa50b55e1f4789dcfc1c680f30a24d7b8694a9f874e242a97b49060600160405180910390a15050565b60003411610ea45760405162461bcd60e51b815260206004820152601d60248201527f416d6f756e74206d7573742062652067726561746572207468616e20300000006044820152606401610a43565b6040516001600160a01b038216903480156108fc02916000818181858888f19350505050158015610ed9573d6000803e3d6000fd5b50604080516001600160a01b038316815233602082015234918101919091527f8760fef165fbacea4256b4fe8e74018a3a597d74281e4142ace323cab292d897906060015b60405180910390a150565b610f333382612172565b610f4f5760405162461bcd60e51b8152600401610a4390614213565b610c3b83838361225d565b610f7260008051602061485b83398151915282610fff565b6040516001600160a01b03821681527f93e15a6550ecfc8e6edd98132363907de724eed6c5d89ce96917f4d4ff4da1f390602001610f1e565b606061183c805461098b90614146565b610fc6600082611c99565b6040516001600160a01b03821681527f631ff1c4e1a02c54b480a34b810e03bcee61fe38efcb243930a7f820914923e290602001610f1e565b6000828152610835602052604090206001015461101c8133612400565b610c3b8383612464565b611031600082610fff565b6040516001600160a01b03821681527f1c4e23de8d72c94b22992bd4d7b6786b215ba876af214ff63e6a0ca38fc97af490602001610f1e565b6001600160a01b03811633146110da5760405162461bcd60e51b815260206004820152602f60248201527f416363657373436f6e74726f6c3a2063616e206f6e6c792072656e6f756e636560448201526e103937b632b9903337b91039b2b63360891b6064820152608401610a43565b6110e482826124eb565b5050565b610c3b83838360405180602001604052806000815250611a55565b6000818152611069602052604090205481906001600160a01b031633146111785760405162461bcd60e51b8152602060048201526024808201527f4e465437323143726561746f723a2043616c6c6572206973206e6f742063726560448201526330ba37b960e11b6064820152608401610a43565b336111828261122d565b6001600160a01b0316146111eb5760405162461bcd60e51b815260206004820152602a60248201527f4e465437323143726561746f723a2043616c6c657220646f6573206e6f74206f6044820152691ddb881d1a194813919560b21b6064820152608401610a43565b6110e482612553565b600061120e60008051602061483b833981519152336118c7565b905090565b600061120e60008051602061485b833981519152336118c7565b600081815261103960205260408120546001600160a01b0316806109755760405162461bcd60e51b815260206004820152602960248201527f4552433732313a206f776e657220717565727920666f72206e6f6e657869737460448201526832b73a103a37b5b2b760b91b6064820152608401610a43565b60006001600160a01b0382166113105760405162461bcd60e51b815260206004820152602a60248201527f4552433732313a2062616c616e636520717565727920666f7220746865207a65604482015269726f206164647265737360b01b6064820152608401610a43565b506001600160a01b0316600090815261103a602052604090205490565b61134560008051602061485b833981519152336118c7565b6113615760405162461bcd60e51b8152600401610a4390614264565b6298967f81116113cd5760405162461bcd60e51b815260206004820152603160248201527f4d696e743a20437573746f6d20546f6b656e4944206d757374206265206869676044820152700686572207468616e20313030303030303607c1b6064820152608401610a43565b6113d6816120e5565b156114235760405162461bcd60e51b815260206004820152601e60248201527f4d696e743a20546f6b656e496420616c7265616479206578697374656e7400006044820152606401610a43565b61143261239380546001019055565b61143c828261255c565b6114468183612576565b61145081846125ec565b8260405161145e91906142b4565b604051809103902081836001600160a01b03167fe2406cfd356cfbe4e42d452bde96d27f48c423e5f02b5d78695893308399519d866040516114a09190613b59565b60405180910390a4505050565b838383838080601f0160208091040260200160405190810160405280939291908181526020018383808284376000920191909152506114ef92506111f4915050565b61154f5760405162461bcd60e51b815260206004820152602b60248201527f4163636f756e744d6967726174696f6e3a2043616c6c6572206973206e6f742060448201526a30b71037b832b930ba37b960a91b6064820152608401610a43565b816001600160a01b0316836001600160a01b031614156115ce5760405162461bcd60e51b815260206004820152603460248201527f4163636f756e744d6967726174696f6e3a2043616e6e6f74206d696772617465604482015273081d1bc81d1a19481cd85b59481858d8dbdd5b9d60621b6064820152608401610a43565b60006116006115dc84612724565b6040516020016115ec91906142d0565b6040516020818303038152906040526128d4565b905061160d84828461290f565b61167f5760405162461bcd60e51b815260206004820152603d60248201527f4163636f756e744d6967726174696f6e3a205369676e6174757265206d75737460448201527f2062652066726f6d20746865206f726967696e616c206163636f756e740000006064820152608401610a43565b60005b8981101561173a5760008b8b8381811061169e5761169e6141fd565b9050602002013590506116b0816120e5565b80156116d55750896001600160a01b03166116ca8261122d565b6001600160a01b0316145b15611727576116e58a8a8361225d565b886001600160a01b03168a6001600160a01b0316827fde55f075ebd46256cd6bd57d8fb53e0406f687db372e90ae8c18e72be46f5c1660405160405180910390a45b508061173281614340565b915050611682565b5060005b8b8110156118765760008d8d8381811061175a5761175a6141fd565b602090810292909201356000818152611069909352604090922054919250506001600160a01b03161561186357600081815261106960205260409020546001600160a01b038b81169116146118175760405162461bcd60e51b815260206004820152603960248201527f4e465437323143726561746f723a20546f6b656e20776173206e6f742063726560448201527f617465642062792074686520676976656e2061646472657373000000000000006064820152608401610a43565b611821818a612576565b886001600160a01b03168a6001600160a01b0316827f58120fb31972ff9fad76eb87119474a58fc38d6b9b842bb3067a4a329eaa64f660405160405180910390a45b508061186e81614340565b91505061173e565b50505050505050505050505050565b6001600160a01b038216600090815261183b602052604080822090516118ac9084906142b4565b9081526040519081900360200190205460ff16905092915050565b6000918252610835602090815260408084206001600160a01b0393909316845291905290205460ff1690565b6060611038805461098b90614146565b6001600160a01b03821633141561195c5760405162461bcd60e51b815260206004820152601960248201527f4552433732313a20617070726f766520746f2063616c6c6572000000000000006044820152606401610a43565b33600081815261103c602090815260408083206001600160a01b03871680855290835292819020805460ff191686151590811790915590519081529192917f17307eab39ab6107e8899845ad3d59bd9653f200f220920489ca2b5937696c31910160405180910390a35050565b6119d46000336118c7565b611a375760405162461bcd60e51b815260206004820152602e60248201527f41646d696e526f6c653a2063616c6c657220646f6573206e6f7420686176652060448201526d7468652041646d696e20726f6c6560901b6064820152608401610a43565b611a40826129dc565b6110e481612a95565b600061120e81336118c7565b611a5f3383612172565b611a7b5760405162461bcd60e51b8152600401610a4390614213565b610a9b84848484612ad9565b6060611a92826120e5565b611aae5760405162461bcd60e51b8152600401610a439061435b565b604080516002808252606082018352600092602083019080368337019050506000549091506201000090046001600160a01b031681600081518110611af557611af56141fd565b60200260200101906001600160a01b031690816001600160a01b031681525050611b1e83611e97565b81600181518110611b3157611b316141fd565b6001600160a01b039092166020928302919091019091015292915050565b611b57613a17565b611b5f613a17565b611b68836120e5565b611b845760405162461bcd60e51b8152600401610a439061435b565b6000546201000090046001600160a01b03168252611ba183611e97565b6001600160a01b0390811660208401526114525460408051632fdde06960e11b8152905160009384931691635fbbc0d2916004808301926060929190829003018186803b158015611bf157600080fd5b505afa158015611c05573d6000803e3d6000fd5b505050506040513d601f19601f82011682018060405250810190611c2991906141cf565b908552602085015250929491935090915050565b606061097582612b0c565b611c6060008051602061485b83398151915282611c99565b6040516001600160a01b03821681527f44f4322f8daa225d5f4877ad0f7d3dfba248a774396f3ca99405ed40a044fe8190602001610f1e565b60008281526108356020526040902060010154611cb68133612400565b610c3b83836124eb565b6000611cda60008051602061485b833981519152336118c7565b611cf65760405162461bcd60e51b8152600401610a4390614264565b611d0561239380546001019055565b6123928054906000611d1683614340565b919050559050611d26338261255c565b611d308133612576565b611d3a81836125ec565b81604051611d4891906142b4565b604051809103902081336001600160a01b03167fe2406cfd356cfbe4e42d452bde96d27f48c423e5f02b5d78695893308399519d85604051611d8a9190613b59565b60405180910390a4919050565b600081815261183d60205260409020805460609190611db590614146565b80601f0160208091040260200160405190810160405280929190818152602001828054611de190614146565b8015611e2e5780601f10611e0357610100808354040283529160200191611e2e565b820191906000526020600020905b815481529060010190602001808311611e1157829003601f168201915b50505050509050919050565b611e5260008051602061483b83398151915282610fff565b6040516001600160a01b03821681527f5b6a420b639feabfb011a07742a6ae14ef72f35d1a330ed65f42216c95bc6c2e90602001610f1e565b600061120e6123935490565b600081815261106a60205260409020546001600160a01b031680611ed05750600081815261106960205260409020546001600160a01b03165b919050565b611eed60008051602061483b83398151915282611c99565b6040516001600160a01b03821681527fe672f512db5cb061756ab0b7654938a4293bbc42bc91f74bd0ade5f540a35c8090602001610f1e565b600061097582612b17565b600054610100900460ff1680611f4a575060005460ff16155b611f665760405162461bcd60e51b8152600401610a4390614181565b600054610100900460ff16158015611f88576000805461ffff19166101011790555b611f90612b22565b611f98612b22565b611fa28383612b8d565b8015610c3b576000805461ff0019169055505050565b600054610100900460ff1680611fd1575060005460ff16155b611fed5760405162461bcd60e51b8152600401610a4390614181565b600054610100900460ff1615801561200f576000805461ffff19166101011790555b6001612392558015612027576000805461ff00191690555b50565b600054610100900460ff1680612043575060005460ff16155b61205f5760405162461bcd60e51b8152600401610a4390614181565b600054610100900460ff16158015612081576000805461ffff19166101011790555b612089612c24565b612094600083612c93565b6040516001600160a01b03831681527f75ef91bb959d6f13ca6b596857395ef84913b9db7adbc407d3bf97af614722d29060200160405180910390a180156110e4576000805461ff00191690555050565b600090815261103960205260409020546001600160a01b0316151590565b600081815261103b6020526040902080546001600160a01b0319166001600160a01b03841690811790915581906121398261122d565b6001600160a01b03167f8c5be1e5ebec7d5bd14f71427d1e84f3dd0314c0f7b2291e5b200ac8c7c3b92560405160405180910390a45050565b600061217d826120e5565b6121de5760405162461bcd60e51b815260206004820152602c60248201527f4552433732313a206f70657261746f7220717565727920666f72206e6f6e657860448201526b34b9ba32b73a103a37b5b2b760a11b6064820152608401610a43565b60006121e98361122d565b9050806001600160a01b0316846001600160a01b031614806122245750836001600160a01b031661221984610aa1565b6001600160a01b0316145b8061225557506001600160a01b03808216600090815261103c602090815260408083209388168352929052205460ff165b949350505050565b826001600160a01b03166122708261122d565b6001600160a01b0316146122d85760405162461bcd60e51b815260206004820152602960248201527f4552433732313a207472616e73666572206f6620746f6b656e2074686174206960448201526839903737ba1037bbb760b91b6064820152608401610a43565b6001600160a01b03821661233a5760405162461bcd60e51b8152602060048201526024808201527f4552433732313a207472616e7366657220746f20746865207a65726f206164646044820152637265737360e01b6064820152608401610a43565b612345600082612103565b6001600160a01b038316600090815261103a6020526040812080546001929061236f9084906143a6565b90915550506001600160a01b038216600090815261103a6020526040812080546001929061239e9084906143bd565b90915550506000818152611039602052604080822080546001600160a01b0319166001600160a01b0386811691821790925591518493918716917fddf252ad1be2c89b69c2b068fc378daa952ba7f163c4a11628f55a4df523b3ef91a4505050565b61240a82826118c7565b6110e457612422816001600160a01b03166014612c9d565b61242d836020612c9d565b60405160200161243e9291906143d5565b60408051601f198184030181529082905262461bcd60e51b8252610a4391600401613b59565b61246e82826118c7565b6110e4576000828152610835602090815260408083206001600160a01b03851684529091529020805460ff191660011790556124a73390565b6001600160a01b0316816001600160a01b0316837f2f8788117e7eff1d82e926ec794901d17c78024a50270940304540a733656f0d60405160405180910390a45050565b6124f582826118c7565b156110e4576000828152610835602090815260408083206001600160a01b0385168085529252808320805460ff1916905551339285917ff6391f5c32d9c69d2a47ea670b442974b53935d1edc7fd64eb21e047a839171b9190a45050565b61202781612e39565b6110e4828260405180602001604052806000815250612e42565b6000828152611069602052604080822054905184926001600160a01b038086169316917febd529444fe852bfccb40075e8f8cae7612ea20edebdf5143c72718ccb157f759190a46000918252611069602052604090912080546001600160a01b0319166001600160a01b03909216919091179055565b602e815110156126485760405162461bcd60e51b815260206004820152602160248201527f4e46543732314d657461646174613a20496e76616c69642049504653207061746044820152600d60fb1b6064820152608401610a43565b33600090815261183b60205260409081902090516126679083906142b4565b9081526040519081900360200190205460ff16156126d65760405162461bcd60e51b815260206004820152602660248201527f4e46543732314d657461646174613a204e46542077617320616c7265616479206044820152651b5a5b9d195960d21b6064820152608401610a43565b33600090815261183b6020526040908190209051600191906126f99084906142b4565b908152604051908190036020019020805491151560ff199092169190911790556110e4828233612e75565b60408051602a808252606082810190935260009190602082018180368337019050509050600360fc1b81600081518110612760576127606141fd565b60200101906001600160f81b031916908160001a905350600f60fb1b8160018151811061278f5761278f6141fd565b60200101906001600160f81b031916908160001a90535060005b60148110156128cd5760006127bf8260136143a6565b6127ca90600861444a565b6127d590600261454d565b6127e8906001600160a01b03871661456f565b60f81b9050600060108260f81c6127ff9190614583565b60f81b905060008160f81c601061281691906145a5565b8360f81c61282491906145c6565b60f81b905061283282612f28565b8561283e86600261444a565b6128499060026143bd565b81518110612859576128596141fd565b60200101906001600160f81b031916908160001a90535061287981612f28565b8561288586600261444a565b6128909060036143bd565b815181106128a0576128a06141fd565b60200101906001600160f81b031916908160001a90535050505080806128c590614340565b9150506127a9565b5092915050565b60006128e08251612f5e565b826040516020016128f29291906145e9565b604051602081830303815290604052805190602001209050919050565b6000833b156129b457604051630b135d3f60e11b81526001600160a01b03851690631626ba7e906129469086908690600401614644565b60206040518083038186803b15801561295e57600080fd5b505afa92505050801561298e575060408051601f3d908101601f1916820190925261298b9181019061465d565b60015b61299a575060006129d5565b6001600160e01b031916630b135d3f60e11b1490506129d5565b836001600160a01b03166129c8848461305c565b6001600160a01b03161490505b9392505050565b6001600160a01b0381163b612a4a5760405162461bcd60e51b815260206004820152602e60248201527f4e46543732314d61726b65743a204d61726b657420616464726573732069732060448201526d1b9bdd08184818dbdb9d1c9858dd60921b6064820152608401610a43565b61145280546001600160a01b0319166001600160a01b0383169081179091556040517f07e7630580d612127ff5f3bd98a1ef992bb87b379fef3b98f2e2ca1ad8e27dd890600090a250565b8051612aa99061183c906020840190613a35565b507f6741b2fc379fad678116fe3d4d4b9a1a184ab53ba36b86ad0fa66340b1ab41ad81604051610f1e9190613b59565b612ae484848461225d565b612af084848484613080565b610a9b5760405162461bcd60e51b8152600401610a439061467a565b60606109758261318d565b6000610975826132f8565b600054610100900460ff1680612b3b575060005460ff16155b612b575760405162461bcd60e51b8152600401610a4390614181565b600054610100900460ff16158015612b79576000805461ffff19166101011790555b8015612027576000805461ff001916905550565b600054610100900460ff1680612ba6575060005460ff16155b612bc25760405162461bcd60e51b8152600401610a4390614181565b600054610100900460ff16158015612be4576000805461ffff19166101011790555b8251612bf890611037906020860190613a35565b508151612c0d90611038906020850190613a35565b508015610c3b576000805461ff0019169055505050565b600054610100900460ff1680612c3d575060005460ff16155b612c595760405162461bcd60e51b8152600401610a4390614181565b600054610100900460ff16158015612c7b576000805461ffff19166101011790555b612c83612b22565b612c8b612b22565b612b79612b22565b6110e48282612464565b60606000612cac83600261444a565b612cb79060026143bd565b67ffffffffffffffff811115612ccf57612ccf613b6c565b6040519080825280601f01601f191660200182016040528015612cf9576020820181803683370190505b509050600360fc1b81600081518110612d1457612d146141fd565b60200101906001600160f81b031916908160001a905350600f60fb1b81600181518110612d4357612d436141fd565b60200101906001600160f81b031916908160001a9053506000612d6784600261444a565b612d729060016143bd565b90505b6001811115612dea576f181899199a1a9b1b9c1cb0b131b232b360811b85600f1660108110612da657612da66141fd565b1a60f81b828281518110612dbc57612dbc6141fd565b60200101906001600160f81b031916908160001a90535060049490941c93612de3816146cc565b9050612d75565b5083156129d55760405162461bcd60e51b815260206004820181905260248201527f537472696e67733a20686578206c656e67746820696e73756666696369656e746044820152606401610a43565b61202781613303565b612e4c8383613350565b612e596000848484613080565b610c3b5760405162461bcd60e51b8152600401610a439061467a565b612e7e836120e5565b612ed65760405162461bcd60e51b8152602060048201526024808201527f4d61737465723a2055524920736574206f66206e6f6e6578697374656e74207460448201526337b5b2b760e11b6064820152608401610a43565b600083815261183d602090815260409091208351612ef692850190613a35565b50600092835261183e602052604090922080546001600160a01b0319166001600160a01b039093169290921790915550565b6000600a60f883901c1015612f4f57612f4660f883901c60306146e3565b60f81b92915050565b612f4660f883901c60576146e3565b606081612f825750506040805180820190915260018152600360fc1b602082015290565b8160005b8115612fac5780612f9681614340565b9150612fa59050600a8361456f565b9150612f86565b60008167ffffffffffffffff811115612fc757612fc7613b6c565b6040519080825280601f01601f191660200182016040528015612ff1576020820181803683370190505b5090505b8415612255576130066001836143a6565b9150613013600a86614708565b61301e9060306143bd565b60f81b818381518110613033576130336141fd565b60200101906001600160f81b031916908160001a905350613055600a8661456f565b9450612ff5565b600080600061306b8585613485565b91509150613078816134f5565b509392505050565b60006001600160a01b0384163b1561318257604051630a85bd0160e11b81526001600160a01b0385169063150b7a02906130c490339089908890889060040161471c565b602060405180830381600087803b1580156130de57600080fd5b505af192505050801561310e575060408051601f3d908101601f1916820190925261310b9181019061465d565b60015b613168573d80801561313c576040519150601f19603f3d011682016040523d82523d6000602084013e613141565b606091505b5080516131605760405162461bcd60e51b8152600401610a439061467a565b805181602001fd5b6001600160e01b031916630a85bd0160e11b149050612255565b506001949350505050565b6060613198826120e5565b6131f45760405162461bcd60e51b815260206004820152602760248201527f4d61737465723a2055524920717565727920666f72206e6f6e6578697374656e6044820152663a103a37b5b2b760c91b6064820152608401610a43565b600082815261183d60205260408120805461320e90614146565b80601f016020809104026020016040519081016040528092919081815260200182805461323a90614146565b80156132875780601f1061325c57610100808354040283529160200191613287565b820191906000526020600020905b81548152906001019060200180831161326a57829003601f168201915b5050505050905060006132986136b0565b90508051600014156132ab575092915050565b8151156132dd5780826040516020016132c5929190614759565b60405160208183030381529060405292505050919050565b806132e7856136ba565b6040516020016132c5929190614759565b6000610975826137b8565b33600090815261183b6020908152604080832084845261183d909252918290209151909161333091614788565b908152604051908190036020019020805460ff19169055612027816137c3565b6001600160a01b0382166133a65760405162461bcd60e51b815260206004820181905260248201527f4552433732313a206d696e7420746f20746865207a65726f20616464726573736044820152606401610a43565b6133af816120e5565b156133fc5760405162461bcd60e51b815260206004820152601c60248201527f4552433732313a20746f6b656e20616c7265616479206d696e746564000000006044820152606401610a43565b6001600160a01b038216600090815261103a602052604081208054600192906134269084906143bd565b90915550506000818152611039602052604080822080546001600160a01b0319166001600160a01b03861690811790915590518392907fddf252ad1be2c89b69c2b068fc378daa952ba7f163c4a11628f55a4df523b3ef908290a45050565b6000808251604114156134bc5760208301516040840151606085015160001a6134b0878285856137e9565b945094505050506134ee565b8251604014156134e657602083015160408401516134db8683836138d6565b9350935050506134ee565b506000905060025b9250929050565b600081600481111561350957613509614824565b14156135125750565b600181600481111561352657613526614824565b14156135745760405162461bcd60e51b815260206004820152601860248201527f45434453413a20696e76616c6964207369676e617475726500000000000000006044820152606401610a43565b600281600481111561358857613588614824565b14156135d65760405162461bcd60e51b815260206004820152601f60248201527f45434453413a20696e76616c6964207369676e6174757265206c656e677468006044820152606401610a43565b60038160048111156135ea576135ea614824565b14156136435760405162461bcd60e51b815260206004820152602260248201527f45434453413a20696e76616c6964207369676e6174757265202773272076616c604482015261756560f01b6064820152608401610a43565b600481600481111561365757613657614824565b14156120275760405162461bcd60e51b815260206004820152602260248201527f45434453413a20696e76616c6964207369676e6174757265202776272076616c604482015261756560f01b6064820152608401610a43565b606061120e610fab565b6060816136de5750506040805180820190915260018152600360fc1b602082015290565b8160005b811561370857806136f281614340565b91506137019050600a8361456f565b91506136e2565b60008167ffffffffffffffff81111561372357613723613b6c565b6040519080825280601f01601f19166020018201604052801561374d576020820181803683370190505b5090505b8415612255576137626001836143a6565b915061376f600a86614708565b61377a9060306143bd565b60f81b81838151811061378f5761378f6141fd565b60200101906001600160f81b031916908160001a9053506137b1600a8661456f565b9450613751565b600061097582613905565b60008181526110696020526040902080546001600160a01b031916905561202781613945565b6000807f7fffffffffffffffffffffffffffffff5d576e7357a4501ddfe92f46681b20a083111561382057506000905060036138cd565b8460ff16601b1415801561383857508460ff16601c14155b1561384957506000905060046138cd565b6040805160008082526020820180845289905260ff881692820192909252606081018690526080810185905260019060a0016020604051602081039080840390855afa15801561389d573d6000803e3d6000fd5b5050604051601f1901519150506001600160a01b0381166138c6576000600192509250506138cd565b9150600090505b94509492505050565b6000806001600160ff1b03831660ff84901c601b016138f7878288856137e9565b935093505050935093915050565b60006001600160e01b031982166380ac58cd60e01b148061393657506001600160e01b03198216635b5e139f60e01b145b806109755750610975826139e2565b60006139508261122d565b905061395d600083612103565b6001600160a01b038116600090815261103a602052604081208054600192906139879084906143a6565b90915550506000828152611039602052604080822080546001600160a01b0319169055518391906001600160a01b038416907fddf252ad1be2c89b69c2b068fc378daa952ba7f163c4a11628f55a4df523b3ef908390a45050565b60006001600160e01b03198216637965db0b60e01b148061097557506301ffc9a760e01b6001600160e01b0319831614610975565b60405180604001604052806002906020820280368337509192915050565b828054613a4190614146565b90600052602060002090601f016020900481019282613a635760008555613aa9565b82601f10613a7c57805160ff1916838001178555613aa9565b82800160010185558215613aa9579182015b82811115613aa9578251825591602001919060010190613a8e565b50613ab5929150613ab9565b5090565b5b80821115613ab55760008155600101613aba565b6001600160e01b03198116811461202757600080fd5b600060208284031215613af657600080fd5b81356129d581613ace565b60005b83811015613b1c578181015183820152602001613b04565b83811115610a9b5750506000910152565b60008151808452613b45816020860160208601613b01565b601f01601f19169290920160200192915050565b6020815260006129d56020830184613b2d565b634e487b7160e01b600052604160045260246000fd5b600067ffffffffffffffff80841115613b9d57613b9d613b6c565b604051601f8501601f19908116603f01168101908282118183101715613bc557613bc5613b6c565b81604052809350858152868686011115613bde57600080fd5b858560208301376000602087830101525050509392505050565b600082601f830112613c0957600080fd5b6129d583833560208501613b82565b6001600160a01b038116811461202757600080fd5b600080600060608486031215613c4257600080fd5b833567ffffffffffffffff80821115613c5a57600080fd5b613c6687838801613bf8565b94506020860135915080821115613c7c57600080fd5b50613c8986828701613bf8565b9250506040840135613c9a81613c18565b809150509250925092565b600060208284031215613cb757600080fd5b5035919050565b60008060408385031215613cd157600080fd5b8235613cdc81613c18565b946020939093013593505050565b6020808252825182820181905260009190848201906040850190845b81811015613d2257835183529284019291840191600101613d06565b50909695505050505050565b600060208284031215613d4057600080fd5b81356129d581613c18565b600080600060608486031215613d6057600080fd5b8335613d6b81613c18565b92506020840135613d7b81613c18565b929592945050506040919091013590565b60008060408385031215613d9f57600080fd5b823591506020830135613db181613c18565b809150509250929050565b600080600060608486031215613dd157600080fd5b833567ffffffffffffffff811115613de857600080fd5b613df486828701613bf8565b9350506020840135613d7b81613c18565b60008083601f840112613e1757600080fd5b50813567ffffffffffffffff811115613e2f57600080fd5b6020830191508360208260051b85010111156134ee57600080fd5b60008060008060008060008060a0898b031215613e6657600080fd5b883567ffffffffffffffff80821115613e7e57600080fd5b613e8a8c838d01613e05565b909a50985060208b0135915080821115613ea357600080fd5b613eaf8c838d01613e05565b909850965060408b01359150613ec482613c18565b90945060608a013590613ed682613c18565b90935060808a01359080821115613eec57600080fd5b818b0191508b601f830112613f0057600080fd5b813581811115613f0f57600080fd5b8c6020828501011115613f2157600080fd5b6020830194508093505050509295985092959890939650565b60008060408385031215613f4d57600080fd5b8235613f5881613c18565b9150602083013567ffffffffffffffff811115613f7457600080fd5b613f8085828601613bf8565b9150509250929050565b60008060408385031215613f9d57600080fd5b8235613fa881613c18565b915060208301358015158114613db157600080fd5b60008060008060808587031215613fd357600080fd5b8435613fde81613c18565b93506020850135613fee81613c18565b925060408501359150606085013567ffffffffffffffff81111561401157600080fd5b8501601f8101871361402257600080fd5b61403187823560208401613b82565b91505092959194509250565b6020808252825182820181905260009190848201906040850190845b81811015613d225783516001600160a01b031683529284019291840191600101614059565b60808101818460005b60028110156140af5781516001600160a01b0316835260209283019290910190600101614087565b505050604082018360005b60028110156140d95781518352602092830192909101906001016140ba565b5050509392505050565b6000602082840312156140f557600080fd5b813567ffffffffffffffff81111561410c57600080fd5b61225584828501613bf8565b6000806040838503121561412b57600080fd5b823561413681613c18565b91506020830135613db181613c18565b600181811c9082168061415a57607f821691505b6020821081141561417b57634e487b7160e01b600052602260045260246000fd5b50919050565b6020808252602e908201527f496e697469616c697a61626c653a20636f6e747261637420697320616c72656160408201526d191e481a5b9a5d1a585b1a5e995960921b606082015260800190565b6000806000606084860312156141e457600080fd5b8351925060208401519150604084015190509250925092565b634e487b7160e01b600052603260045260246000fd5b60208082526031908201527f4552433732313a207472616e736665722063616c6c6572206973206e6f74206f6040820152701ddb995c881b9bdc88185c1c1c9bdd9959607a1b606082015260800190565b60208082526030908201527f4d696e746572526f6c653a2063616c6c657220646f6573206e6f74206861766560408201526f20746865204d696e74657220726f6c6560801b606082015260800190565b600082516142c6818460208701613b01565b9190910192915050565b7f4920617574686f72697a65204d696e74656420746f206d696772617465206d7981526b01030b1b1b7bab73a103a37960a51b60208201526000825161431d81602c850160208701613b01565b91909101602c0192915050565b634e487b7160e01b600052601160045260246000fd5b60006000198214156143545761435461432a565b5060010190565b6020808252602b908201527f4552433732314d657461646174613a20517565727920666f72206e6f6e65786960408201526a39ba32b73a103a37b5b2b760a91b606082015260800190565b6000828210156143b8576143b861432a565b500390565b600082198211156143d0576143d061432a565b500190565b7f416363657373436f6e74726f6c3a206163636f756e742000000000000000000081526000835161440d816017850160208801613b01565b7001034b99036b4b9b9b4b733903937b6329607d1b601791840191820152835161443e816028840160208801613b01565b01602801949350505050565b60008160001904831182151516156144645761446461432a565b500290565b600181815b808511156144a457816000190482111561448a5761448a61432a565b8085161561449757918102915b93841c939080029061446e565b509250929050565b6000826144bb57506001610975565b816144c857506000610975565b81600181146144de57600281146144e857614504565b6001915050610975565b60ff8411156144f9576144f961432a565b50506001821b610975565b5060208310610133831016604e8410600b8410161715614527575081810a610975565b6145318383614469565b80600019048211156145455761454561432a565b029392505050565b60006129d583836144ac565b634e487b7160e01b600052601260045260246000fd5b60008261457e5761457e614559565b500490565b600060ff83168061459657614596614559565b8060ff84160491505092915050565b600060ff821660ff84168160ff04811182151516156145455761454561432a565b600060ff821660ff8416808210156145e0576145e061432a565b90039392505050565b7f19457468657265756d205369676e6564204d6573736167653a0a00000000000081526000835161462181601a850160208801613b01565b83519083019061463881601a840160208801613b01565b01601a01949350505050565b8281526040602082015260006122556040830184613b2d565b60006020828403121561466f57600080fd5b81516129d581613ace565b60208082526032908201527f4552433732313a207472616e7366657220746f206e6f6e20455243373231526560408201527131b2b4bb32b91034b6b83632b6b2b73a32b960711b606082015260800190565b6000816146db576146db61432a565b506000190190565b600060ff821660ff84168060ff038211156147005761470061432a565b019392505050565b60008261471757614717614559565b500690565b6001600160a01b038581168252841660208201526040810183905260806060820181905260009061474f90830184613b2d565b9695505050505050565b6000835161476b818460208801613b01565b83519083019061477f818360208801613b01565b01949350505050565b600080835481600182811c9150808316806147a457607f831692505b60208084108214156147c457634e487b7160e01b86526022600452602486fd5b8180156147d857600181146147e957614816565b60ff19861689528489019650614816565b60008a81526020902060005b8681101561480e5781548b8201529085019083016147f5565b505084890196505b509498975050505050505050565b634e487b7160e01b600052602160045260246000fdfe97667070c54ef182b0f5858b034beac1b6f3089aa2d3188bb1e8929f4fa9b9299f2df0fed2c77648de5860a4cc508cd0818c85b8b8a1ab4ceeef8d981c8956a6a26469706673582212208d5a9871b5eef6756901201e448a09b9b5fe9e95f613ee24e4c8bee3c3813f8a64736f6c63430008090033",
  "immutableReferences": {},
  "source": "/*\r\n::::    :::::  :::::::::  ::::    :::  :::::::::  :::::::::  :::::::::  \r\n+:+:+: :+:+:+     :+:     :+:+:   :+:     :+:     :+:        :+:    :+: \r\n+:+ +:+:+ +:+     +:+     :+:+:+  +:+     +:+     +:+        +:+    +:+ \r\n+#+  +:+  +#+     +#+     +#+ +:+ +#+     +#+     +#++:++#   +#+    +:+ \r\n+#+       +#+     +#+     +#+  +#+#+#     +#+     +#+        +#+    +#+ \r\n#+#       #+#     #+#     #+#   #+#+#     #+#     #+#        #+#    #+# \r\n###       ###  #########  ###    ####     ###     #########  #########  \r\n*/\r\n// SPDX-License-Identifier: Non-Licensed\r\npragma solidity ^0.8.0;\r\n\r\nimport \"@openzeppelin/contracts-upgradeable/token/ERC721/ERC721Upgradeable.sol\";\r\n\r\nimport \"./mixins/roles/AdminRole.sol\";\r\nimport \"./mixins/roles/OperatorRole.sol\";\r\nimport \"./mixins/NFT721Core.sol\";\r\nimport \"./mixins/NFT721Creator.sol\";\r\nimport \"./mixins/NFT721Metadata.sol\";\r\nimport \"./mixins/NFT721Mint.sol\";\r\nimport \"./mixins/NFT721Market.sol\";\r\nimport \"./mixins/AccountMigration.sol\";\r\n\r\n/**\r\n * @title Minted NFTs implemented using the ERC-721 standard.\r\n * @dev This top level file holds no data directly to ease future upgrades.\r\n */\r\n \r\ncontract MintedNFT721 is\r\n  AdminRole,\r\n  OperatorRole,\r\n  AccountMigration,\r\n  ERC721Upgradeable,\r\n  NFT721Creator,\r\n  NFT721Market,\r\n  NFT721Metadata,\r\n  NFT721Core,\r\n  NFT721Mint  \r\n{\r\n  /**\r\n   * @notice Called once to configure the contract after the initial deployment.\r\n   * @dev This farms the initialize call out to inherited contracts as needed.\r\n   */\r\n  function initialize(\r\n    string memory name,\r\n    string memory symbol,\r\n    address admin\r\n  ) public initializer {\r\n    ERC721Upgradeable.__ERC721_init(name, symbol);\r\n    NFT721Mint._initializeNFT721Mint();\r\n    AdminRole._initializeAdminRole(admin);\r\n  }\r\n\r\n  function _baseURI() internal view virtual override(ERC721Upgradeable, NFT721Metadata, NFT721Mint) returns (string memory) {\r\n    return GetBaseURI();\r\n  }\r\n\r\n  /**\r\n   * @notice Allows a Minted admin to update NFT config variables.\r\n   * @dev This must be called right after the initial call to `initialize`.\r\n   */\r\n   function adminUpdateConfig(\r\n    address _nftMarket,\r\n    string memory baseURI\r\n  ) public onlyAdmin {\r\n    _updateNFTMarket(_nftMarket);\r\n    _updateBaseURI(baseURI);\r\n  }\r\n\r\n  /**\r\n   * @dev This is a no-op, just an explicit override to address compile errors due to inheritance.\r\n   */\r\n  function _burn(uint256 tokenId) internal override(ERC721Upgradeable, NFT721Creator, NFT721Metadata, NFT721Mint) {\r\n    super._burn(tokenId);\r\n  }\r\n\r\n   function tokenURI(uint256 tokenId) public view virtual override(ERC721Upgradeable, NFT721Metadata, NFT721Mint) returns (string memory) {\r\n     return super.tokenURI(tokenId);\r\n   }\r\n  \r\n  function supportsInterface(bytes4 interfaceId) public view virtual override( ERC721Upgradeable, NFT721Mint, NFT721Market, NFT721Metadata, AccessControlUpgradeable, NFT721Creator) returns (bool) {\r\n    return super.supportsInterface(interfaceId);\r\n  }\r\n}",
  "sourcePath": "C:\\alex\\nft\\openZeppelin\\mintedBasic\\contracts\\minted\\MintedNFT721.sol",
  "compiler": {
    "name": "solc",
    "version": "0.8.9+commit.e5eed63a.Emscripten.clang"
  },
  "schemaVersion": "3.4.3",
  "updatedAt": "2022-03-13T18:25:04.327Z",
  "devdoc": {
    "details": "This top level file holds no data directly to ease future upgrades.",
    "kind": "dev",
    "methods": {
      "adminAccountMigration(uint256[],uint256[],address,address,bytes)": {
        "details": "This will gracefully skip any NFTs that have been burned or transferred.",
        "params": {
          "signature": "Message `I authorize Minted to migrate my account to ${newAccount.address.toLowerCase()}` signed by the original account."
        }
      },
      "adminUpdateConfig(address,string)": {
        "details": "This must be called right after the initial call to `initialize`."
      },
      "approve(address,uint256)": {
        "details": "See {IERC721-approve}."
      },
      "balanceOf(address)": {
        "details": "See {IERC721-balanceOf}."
      },
      "getApproved(uint256)": {
        "details": "See {IERC721-getApproved}."
      },
      "getRoleAdmin(bytes32)": {
        "details": "Returns the admin role that controls `role`. See {grantRole} and {revokeRole}. To change a role's admin, use {_setRoleAdmin}."
      },
      "getTokenCreatorPaymentAddress(uint256)": {
        "details": "If an alternate address was not defined, the creator is returned instead."
      },
      "grantRole(bytes32,address)": {
        "details": "Grants `role` to `account`. If `account` had not been already granted `role`, emits a {RoleGranted} event. Requirements: - the caller must have ``role``'s admin role."
      },
      "hasRole(bytes32,address)": {
        "details": "Returns `true` if `account` has been granted `role`."
      },
      "initialize(string,string,address)": {
        "details": "This farms the initialize call out to inherited contracts as needed."
      },
      "isApprovedForAll(address,address)": {
        "details": "See {IERC721-isApprovedForAll}."
      },
      "name()": {
        "details": "See {IERC721Metadata-name}."
      },
      "ownerOf(uint256)": {
        "details": "See {IERC721-ownerOf}."
      },
      "renounceRole(bytes32,address)": {
        "details": "Revokes `role` from the calling account. Roles are often managed via {grantRole} and {revokeRole}: this function's purpose is to provide a mechanism for accounts to lose their privileges if they are compromised (such as when a trusted device is misplaced). If the calling account had been granted `role`, emits a {RoleRevoked} event. Requirements: - the caller must be `account`."
      },
      "revokeRole(bytes32,address)": {
        "details": "Revokes `role` from `account`. If `account` had been granted `role`, emits a {RoleRevoked} event. Requirements: - the caller must have ``role``'s admin role."
      },
      "safeTransferFrom(address,address,uint256)": {
        "details": "See {IERC721-safeTransferFrom}."
      },
      "safeTransferFrom(address,address,uint256,bytes)": {
        "details": "See {IERC721-safeTransferFrom}."
      },
      "setApprovalForAll(address,bool)": {
        "details": "See {IERC721-setApprovalForAll}."
      },
      "symbol()": {
        "details": "See {IERC721Metadata-symbol}."
      },
      "transferFrom(address,address,uint256)": {
        "details": "See {IERC721-transferFrom}."
      }
    },
    "title": "Minted NFTs implemented using the ERC-721 standard.",
    "version": 1
  },
  "userdoc": {
    "kind": "user",
    "methods": {
      "adminAccountMigration(uint256[],uint256[],address,address,bytes)": {
        "notice": "Allows an NFT owner or creator and Minted to work together in order to update the creator to a new account and/or transfer NFTs to that account."
      },
      "adminUpdateConfig(address,string)": {
        "notice": "Allows a Minted admin to update NFT config variables."
      },
      "burn(uint256)": {
        "notice": "Allows the creator to burn if they currently own the NFT."
      },
      "getFeeBps(uint256)": {
        "notice": "Returns an array of fees in basis points. The expected recipients is communicated with `getFeeRecipients`."
      },
      "getFeeRecipients(uint256)": {
        "notice": "Returns an array of recipient addresses to which fees should be sent. The expected fee amount is communicated with `getFeeBps`."
      },
      "getHasCreatorMintedIPFSHash(address,string)": {
        "notice": "Checks if the creator has already minted a given NFT."
      },
      "getMintedTreasury()": {
        "notice": "Returns the address of the Minted treasury."
      },
      "getNFTMarket()": {
        "notice": "Returns the address of the Minted NFTMarket contract."
      },
      "getNextTokenId()": {
        "notice": "Gets the tokenId of the next NFT minted."
      },
      "getRoyalties(uint256)": {
        "notice": "Get fee recipients and fees in a single call. The data is the same as when calling getFeeRecipients and getFeeBps separately."
      },
      "getTokenCreatorPaymentAddress(uint256)": {
        "notice": "Returns the payment address for a given tokenId."
      },
      "getTokenIPFSPath(uint256)": {
        "notice": "Returns the IPFSPath to the metadata JSON file for a given NFT."
      },
      "initialize(string,string,address)": {
        "notice": "Called once to configure the contract after the initial deployment."
      },
      "mint(string)": {
        "notice": "Allows a creator to mint an NFT."
      },
      "tokenCreator(uint256)": {
        "notice": "Returns the creator's address for a given tokenId."
      }
    },
    "version": 1
  }
}