{
  "contractName": "MintedNFT721",
  "abi": [
    {
      "anonymous": false,
      "inputs": [
        {
          "indexed": false,
          "internalType": "address",
          "name": "admin",
          "type": "address"
        }
      ],
      "name": "AdminGranted",
      "type": "event"
    },
    {
      "anonymous": false,
      "inputs": [
        {
          "indexed": false,
          "internalType": "address",
          "name": "admin",
          "type": "address"
        }
      ],
      "name": "AdminInitiated",
      "type": "event"
    },
    {
      "anonymous": false,
      "inputs": [
        {
          "indexed": false,
          "internalType": "address",
          "name": "admin",
          "type": "address"
        }
      ],
      "name": "AdminRevoked",
      "type": "event"
    },
    {
      "anonymous": false,
      "inputs": [
        {
          "indexed": true,
          "internalType": "address",
          "name": "owner",
          "type": "address"
        },
        {
          "indexed": true,
          "internalType": "address",
          "name": "approved",
          "type": "address"
        },
        {
          "indexed": true,
          "internalType": "uint256",
          "name": "tokenId",
          "type": "uint256"
        }
      ],
      "name": "Approval",
      "type": "event"
    },
    {
      "anonymous": false,
      "inputs": [
        {
          "indexed": true,
          "internalType": "address",
          "name": "owner",
          "type": "address"
        },
        {
          "indexed": true,
          "internalType": "address",
          "name": "operator",
          "type": "address"
        },
        {
          "indexed": false,
          "internalType": "bool",
          "name": "approved",
          "type": "bool"
        }
      ],
      "name": "ApprovalForAll",
      "type": "event"
    },
    {
      "anonymous": false,
      "inputs": [
        {
          "indexed": false,
          "internalType": "string",
          "name": "baseURI",
          "type": "string"
        }
      ],
      "name": "BaseURIUpdated",
      "type": "event"
    },
    {
      "anonymous": false,
      "inputs": [
        {
          "indexed": true,
          "internalType": "address",
          "name": "creator",
          "type": "address"
        },
        {
          "indexed": true,
          "internalType": "uint256",
          "name": "tokenId",
          "type": "uint256"
        },
        {
          "indexed": true,
          "internalType": "string",
          "name": "indexedTokenIPFSPath",
          "type": "string"
        },
        {
          "indexed": false,
          "internalType": "string",
          "name": "tokenIPFSPath",
          "type": "string"
        }
      ],
      "name": "Minted",
      "type": "event"
    },
    {
      "anonymous": false,
      "inputs": [
        {
          "indexed": false,
          "internalType": "address",
          "name": "admin",
          "type": "address"
        }
      ],
      "name": "MinterGranted",
      "type": "event"
    },
    {
      "anonymous": false,
      "inputs": [
        {
          "indexed": false,
          "internalType": "address",
          "name": "admin",
          "type": "address"
        }
      ],
      "name": "MinterRevoked",
      "type": "event"
    },
    {
      "anonymous": false,
      "inputs": [
        {
          "indexed": true,
          "internalType": "uint256",
          "name": "tokenId",
          "type": "uint256"
        },
        {
          "indexed": true,
          "internalType": "address",
          "name": "originalAddress",
          "type": "address"
        },
        {
          "indexed": true,
          "internalType": "address",
          "name": "newAddress",
          "type": "address"
        }
      ],
      "name": "NFTCreatorMigrated",
      "type": "event"
    },
    {
      "anonymous": false,
      "inputs": [
        {
          "indexed": false,
          "internalType": "string",
          "name": "name",
          "type": "string"
        },
        {
          "indexed": false,
          "internalType": "string",
          "name": "symbol",
          "type": "string"
        },
        {
          "indexed": false,
          "internalType": "string",
          "name": "baseURI",
          "type": "string"
        }
      ],
      "name": "NFTMetadataUpdated",
      "type": "event"
    },
    {
      "anonymous": false,
      "inputs": [
        {
          "indexed": true,
          "internalType": "uint256",
          "name": "tokenId",
          "type": "uint256"
        },
        {
          "indexed": true,
          "internalType": "address",
          "name": "originalAddress",
          "type": "address"
        },
        {
          "indexed": true,
          "internalType": "address",
          "name": "newAddress",
          "type": "address"
        }
      ],
      "name": "NFTOwnerMigrated",
      "type": "event"
    },
    {
      "anonymous": false,
      "inputs": [
        {
          "indexed": false,
          "internalType": "address",
          "name": "admin",
          "type": "address"
        }
      ],
      "name": "OperatoRevoked",
      "type": "event"
    },
    {
      "anonymous": false,
      "inputs": [
        {
          "indexed": false,
          "internalType": "address",
          "name": "admin",
          "type": "address"
        }
      ],
      "name": "OperatorGranted",
      "type": "event"
    },
    {
      "anonymous": false,
      "inputs": [
        {
          "indexed": true,
          "internalType": "uint256",
          "name": "tokenId",
          "type": "uint256"
        },
        {
          "indexed": true,
          "internalType": "address",
          "name": "originalAddress",
          "type": "address"
        },
        {
          "indexed": true,
          "internalType": "address",
          "name": "newAddress",
          "type": "address"
        },
        {
          "indexed": false,
          "internalType": "address",
          "name": "originalPaymentAddress",
          "type": "address"
        },
        {
          "indexed": false,
          "internalType": "address",
          "name": "newPaymentAddress",
          "type": "address"
        }
      ],
      "name": "PaymentAddressMigrated",
      "type": "event"
    },
    {
      "anonymous": false,
      "inputs": [
        {
          "indexed": true,
          "internalType": "bytes32",
          "name": "role",
          "type": "bytes32"
        },
        {
          "indexed": true,
          "internalType": "bytes32",
          "name": "previousAdminRole",
          "type": "bytes32"
        },
        {
          "indexed": true,
          "internalType": "bytes32",
          "name": "newAdminRole",
          "type": "bytes32"
        }
      ],
      "name": "RoleAdminChanged",
      "type": "event"
    },
    {
      "anonymous": false,
      "inputs": [
        {
          "indexed": true,
          "internalType": "bytes32",
          "name": "role",
          "type": "bytes32"
        },
        {
          "indexed": true,
          "internalType": "address",
          "name": "account",
          "type": "address"
        },
        {
          "indexed": true,
          "internalType": "address",
          "name": "sender",
          "type": "address"
        }
      ],
      "name": "RoleGranted",
      "type": "event"
    },
    {
      "anonymous": false,
      "inputs": [
        {
          "indexed": true,
          "internalType": "bytes32",
          "name": "role",
          "type": "bytes32"
        },
        {
          "indexed": true,
          "internalType": "address",
          "name": "account",
          "type": "address"
        },
        {
          "indexed": true,
          "internalType": "address",
          "name": "sender",
          "type": "address"
        }
      ],
      "name": "RoleRevoked",
      "type": "event"
    },
    {
      "anonymous": false,
      "inputs": [
        {
          "indexed": true,
          "internalType": "address",
          "name": "fromPaymentAddress",
          "type": "address"
        },
        {
          "indexed": true,
          "internalType": "address",
          "name": "toPaymentAddress",
          "type": "address"
        },
        {
          "indexed": true,
          "internalType": "uint256",
          "name": "tokenId",
          "type": "uint256"
        }
      ],
      "name": "TokenCreatorPaymentAddressSet",
      "type": "event"
    },
    {
      "anonymous": false,
      "inputs": [
        {
          "indexed": true,
          "internalType": "address",
          "name": "fromCreator",
          "type": "address"
        },
        {
          "indexed": true,
          "internalType": "address",
          "name": "toCreator",
          "type": "address"
        },
        {
          "indexed": true,
          "internalType": "uint256",
          "name": "tokenId",
          "type": "uint256"
        }
      ],
      "name": "TokenCreatorUpdated",
      "type": "event"
    },
    {
      "anonymous": false,
      "inputs": [
        {
          "indexed": true,
          "internalType": "uint256",
          "name": "tokenId",
          "type": "uint256"
        },
        {
          "indexed": true,
          "internalType": "string",
          "name": "indexedTokenIPFSPath",
          "type": "string"
        },
        {
          "indexed": false,
          "internalType": "string",
          "name": "tokenIPFSPath",
          "type": "string"
        }
      ],
      "name": "TokenIPFSPathUpdated",
      "type": "event"
    },
    {
      "anonymous": false,
      "inputs": [
        {
          "indexed": false,
          "internalType": "address",
          "name": "from",
          "type": "address"
        },
        {
          "indexed": false,
          "internalType": "address",
          "name": "to",
          "type": "address"
        },
        {
          "indexed": false,
          "internalType": "uint256",
          "name": "tokenId",
          "type": "uint256"
        }
      ],
      "name": "TokenTransfered",
      "type": "event"
    },
    {
      "anonymous": false,
      "inputs": [
        {
          "indexed": true,
          "internalType": "address",
          "name": "from",
          "type": "address"
        },
        {
          "indexed": true,
          "internalType": "address",
          "name": "to",
          "type": "address"
        },
        {
          "indexed": true,
          "internalType": "uint256",
          "name": "tokenId",
          "type": "uint256"
        }
      ],
      "name": "Transfer",
      "type": "event"
    },
    {
      "anonymous": false,
      "inputs": [
        {
          "indexed": false,
          "internalType": "address",
          "name": "toAddress",
          "type": "address"
        },
        {
          "indexed": false,
          "internalType": "address",
          "name": "fromAddress",
          "type": "address"
        },
        {
          "indexed": false,
          "internalType": "uint256",
          "name": "amount",
          "type": "uint256"
        }
      ],
      "name": "amountTransferred",
      "type": "event"
    },
    {
      "inputs": [],
      "name": "DEFAULT_ADMIN_ROLE",
      "outputs": [
        {
          "internalType": "bytes32",
          "name": "",
          "type": "bytes32"
        }
      ],
      "stateMutability": "view",
      "type": "function",
      "constant": true
    },
    {
      "inputs": [],
      "name": "GetBaseURI",
      "outputs": [
        {
          "internalType": "string",
          "name": "",
          "type": "string"
        }
      ],
      "stateMutability": "view",
      "type": "function",
      "constant": true
    },
    {
      "inputs": [],
      "name": "MINTER_ROLE",
      "outputs": [
        {
          "internalType": "bytes32",
          "name": "",
          "type": "bytes32"
        }
      ],
      "stateMutability": "view",
      "type": "function",
      "constant": true
    },
    {
      "inputs": [],
      "name": "OPERATOR_ROLE",
      "outputs": [
        {
          "internalType": "bytes32",
          "name": "",
          "type": "bytes32"
        }
      ],
      "stateMutability": "view",
      "type": "function",
      "constant": true
    },
    {
      "inputs": [
        {
          "internalType": "uint256[]",
          "name": "createdTokenIds",
          "type": "uint256[]"
        },
        {
          "internalType": "uint256[]",
          "name": "ownedTokenIds",
          "type": "uint256[]"
        },
        {
          "internalType": "address",
          "name": "originalAddress",
          "type": "address"
        },
        {
          "internalType": "address payable",
          "name": "newAddress",
          "type": "address"
        },
        {
          "internalType": "bytes",
          "name": "signature",
          "type": "bytes"
        }
      ],
      "name": "adminAccountMigration",
      "outputs": [],
      "stateMutability": "nonpayable",
      "type": "function"
    },
    {
      "inputs": [
        {
          "internalType": "address",
          "name": "to",
          "type": "address"
        },
        {
          "internalType": "uint256",
          "name": "tokenId",
          "type": "uint256"
        }
      ],
      "name": "approve",
      "outputs": [],
      "stateMutability": "nonpayable",
      "type": "function"
    },
    {
      "inputs": [
        {
          "internalType": "address",
          "name": "owner",
          "type": "address"
        }
      ],
      "name": "balanceOf",
      "outputs": [
        {
          "internalType": "uint256",
          "name": "",
          "type": "uint256"
        }
      ],
      "stateMutability": "view",
      "type": "function",
      "constant": true
    },
    {
      "inputs": [
        {
          "internalType": "uint256",
          "name": "tokenId",
          "type": "uint256"
        }
      ],
      "name": "burn",
      "outputs": [],
      "stateMutability": "nonpayable",
      "type": "function"
    },
    {
      "inputs": [
        {
          "internalType": "uint256",
          "name": "tokenId",
          "type": "uint256"
        }
      ],
      "name": "getApproved",
      "outputs": [
        {
          "internalType": "address",
          "name": "",
          "type": "address"
        }
      ],
      "stateMutability": "view",
      "type": "function",
      "constant": true
    },
    {
      "inputs": [
        {
          "internalType": "address",
          "name": "creator",
          "type": "address"
        },
        {
          "internalType": "string",
          "name": "tokenIPFSPath",
          "type": "string"
        }
      ],
      "name": "getHasCreatorMintedIPFSHash",
      "outputs": [
        {
          "internalType": "bool",
          "name": "",
          "type": "bool"
        }
      ],
      "stateMutability": "view",
      "type": "function",
      "constant": true
    },
    {
      "inputs": [],
      "name": "getNextTokenId",
      "outputs": [
        {
          "internalType": "uint256",
          "name": "",
          "type": "uint256"
        }
      ],
      "stateMutability": "view",
      "type": "function",
      "constant": true
    },
    {
      "inputs": [
        {
          "internalType": "bytes32",
          "name": "role",
          "type": "bytes32"
        }
      ],
      "name": "getRoleAdmin",
      "outputs": [
        {
          "internalType": "bytes32",
          "name": "",
          "type": "bytes32"
        }
      ],
      "stateMutability": "view",
      "type": "function",
      "constant": true
    },
    {
      "inputs": [
        {
          "internalType": "uint256",
          "name": "tokenId",
          "type": "uint256"
        }
      ],
      "name": "getTokenCreatorPaymentAddress",
      "outputs": [
        {
          "internalType": "address payable",
          "name": "tokenCreatorPaymentAddress",
          "type": "address"
        }
      ],
      "stateMutability": "view",
      "type": "function",
      "constant": true
    },
    {
      "inputs": [
        {
          "internalType": "uint256",
          "name": "tokenId",
          "type": "uint256"
        }
      ],
      "name": "getTokenIPFSPath",
      "outputs": [
        {
          "internalType": "string",
          "name": "",
          "type": "string"
        }
      ],
      "stateMutability": "view",
      "type": "function",
      "constant": true
    },
    {
      "inputs": [
        {
          "internalType": "address",
          "name": "account",
          "type": "address"
        }
      ],
      "name": "grantAdmin",
      "outputs": [],
      "stateMutability": "nonpayable",
      "type": "function"
    },
    {
      "inputs": [
        {
          "internalType": "address",
          "name": "account",
          "type": "address"
        }
      ],
      "name": "grantMinter",
      "outputs": [],
      "stateMutability": "nonpayable",
      "type": "function"
    },
    {
      "inputs": [
        {
          "internalType": "address",
          "name": "account",
          "type": "address"
        }
      ],
      "name": "grantOperator",
      "outputs": [],
      "stateMutability": "nonpayable",
      "type": "function"
    },
    {
      "inputs": [
        {
          "internalType": "bytes32",
          "name": "role",
          "type": "bytes32"
        },
        {
          "internalType": "address",
          "name": "account",
          "type": "address"
        }
      ],
      "name": "grantRole",
      "outputs": [],
      "stateMutability": "nonpayable",
      "type": "function"
    },
    {
      "inputs": [
        {
          "internalType": "bytes32",
          "name": "role",
          "type": "bytes32"
        },
        {
          "internalType": "address",
          "name": "account",
          "type": "address"
        }
      ],
      "name": "hasRole",
      "outputs": [
        {
          "internalType": "bool",
          "name": "",
          "type": "bool"
        }
      ],
      "stateMutability": "view",
      "type": "function",
      "constant": true
    },
    {
      "inputs": [],
      "name": "isAdmin",
      "outputs": [
        {
          "internalType": "bool",
          "name": "",
          "type": "bool"
        }
      ],
      "stateMutability": "view",
      "type": "function",
      "constant": true
    },
    {
      "inputs": [
        {
          "internalType": "address",
          "name": "owner",
          "type": "address"
        },
        {
          "internalType": "address",
          "name": "operator",
          "type": "address"
        }
      ],
      "name": "isApprovedForAll",
      "outputs": [
        {
          "internalType": "bool",
          "name": "",
          "type": "bool"
        }
      ],
      "stateMutability": "view",
      "type": "function",
      "constant": true
    },
    {
      "inputs": [],
      "name": "isMinter",
      "outputs": [
        {
          "internalType": "bool",
          "name": "",
          "type": "bool"
        }
      ],
      "stateMutability": "view",
      "type": "function",
      "constant": true
    },
    {
      "inputs": [],
      "name": "isOperator",
      "outputs": [
        {
          "internalType": "bool",
          "name": "",
          "type": "bool"
        }
      ],
      "stateMutability": "view",
      "type": "function",
      "constant": true
    },
    {
      "inputs": [
        {
          "internalType": "string",
          "name": "tokenIPFSPath",
          "type": "string"
        },
        {
          "internalType": "address",
          "name": "to",
          "type": "address"
        },
        {
          "internalType": "uint256",
          "name": "tokenId",
          "type": "uint256"
        }
      ],
      "name": "mint",
      "outputs": [],
      "stateMutability": "nonpayable",
      "type": "function"
    },
    {
      "inputs": [
        {
          "internalType": "string",
          "name": "tokenIPFSPath",
          "type": "string"
        }
      ],
      "name": "mint",
      "outputs": [
        {
          "internalType": "uint256",
          "name": "tokenId",
          "type": "uint256"
        }
      ],
      "stateMutability": "nonpayable",
      "type": "function"
    },
    {
      "inputs": [],
      "name": "name",
      "outputs": [
        {
          "internalType": "string",
          "name": "",
          "type": "string"
        }
      ],
      "stateMutability": "view",
      "type": "function",
      "constant": true
    },
    {
      "inputs": [
        {
          "internalType": "uint256",
          "name": "tokenId",
          "type": "uint256"
        }
      ],
      "name": "ownerOf",
      "outputs": [
        {
          "internalType": "address",
          "name": "",
          "type": "address"
        }
      ],
      "stateMutability": "view",
      "type": "function",
      "constant": true
    },
    {
      "inputs": [
        {
          "internalType": "bytes32",
          "name": "role",
          "type": "bytes32"
        },
        {
          "internalType": "address",
          "name": "account",
          "type": "address"
        }
      ],
      "name": "renounceRole",
      "outputs": [],
      "stateMutability": "nonpayable",
      "type": "function"
    },
    {
      "inputs": [
        {
          "internalType": "address",
          "name": "account",
          "type": "address"
        }
      ],
      "name": "revokeAdmin",
      "outputs": [],
      "stateMutability": "nonpayable",
      "type": "function"
    },
    {
      "inputs": [
        {
          "internalType": "address",
          "name": "account",
          "type": "address"
        }
      ],
      "name": "revokeMinter",
      "outputs": [],
      "stateMutability": "nonpayable",
      "type": "function"
    },
    {
      "inputs": [
        {
          "internalType": "address",
          "name": "account",
          "type": "address"
        }
      ],
      "name": "revokeOperator",
      "outputs": [],
      "stateMutability": "nonpayable",
      "type": "function"
    },
    {
      "inputs": [
        {
          "internalType": "bytes32",
          "name": "role",
          "type": "bytes32"
        },
        {
          "internalType": "address",
          "name": "account",
          "type": "address"
        }
      ],
      "name": "revokeRole",
      "outputs": [],
      "stateMutability": "nonpayable",
      "type": "function"
    },
    {
      "inputs": [
        {
          "internalType": "address",
          "name": "from",
          "type": "address"
        },
        {
          "internalType": "address",
          "name": "to",
          "type": "address"
        },
        {
          "internalType": "uint256",
          "name": "tokenId",
          "type": "uint256"
        }
      ],
      "name": "safeTransferFrom",
      "outputs": [],
      "stateMutability": "nonpayable",
      "type": "function"
    },
    {
      "inputs": [
        {
          "internalType": "address",
          "name": "from",
          "type": "address"
        },
        {
          "internalType": "address",
          "name": "to",
          "type": "address"
        },
        {
          "internalType": "uint256",
          "name": "tokenId",
          "type": "uint256"
        },
        {
          "internalType": "bytes",
          "name": "_data",
          "type": "bytes"
        }
      ],
      "name": "safeTransferFrom",
      "outputs": [],
      "stateMutability": "nonpayable",
      "type": "function"
    },
    {
      "inputs": [
        {
          "internalType": "address",
          "name": "operator",
          "type": "address"
        },
        {
          "internalType": "bool",
          "name": "approved",
          "type": "bool"
        }
      ],
      "name": "setApprovalForAll",
      "outputs": [],
      "stateMutability": "nonpayable",
      "type": "function"
    },
    {
      "inputs": [],
      "name": "symbol",
      "outputs": [
        {
          "internalType": "string",
          "name": "",
          "type": "string"
        }
      ],
      "stateMutability": "view",
      "type": "function",
      "constant": true
    },
    {
      "inputs": [
        {
          "internalType": "uint256",
          "name": "tokenId",
          "type": "uint256"
        }
      ],
      "name": "tokenCreator",
      "outputs": [
        {
          "internalType": "address payable",
          "name": "",
          "type": "address"
        }
      ],
      "stateMutability": "view",
      "type": "function",
      "constant": true
    },
    {
      "inputs": [],
      "name": "totalOfMintedTokens",
      "outputs": [
        {
          "internalType": "uint256",
          "name": "",
          "type": "uint256"
        }
      ],
      "stateMutability": "view",
      "type": "function",
      "constant": true
    },
    {
      "inputs": [
        {
          "internalType": "address",
          "name": "from",
          "type": "address"
        },
        {
          "internalType": "address",
          "name": "to",
          "type": "address"
        },
        {
          "internalType": "uint256",
          "name": "tokenId",
          "type": "uint256"
        }
      ],
      "name": "transferFrom",
      "outputs": [],
      "stateMutability": "nonpayable",
      "type": "function"
    },
    {
      "inputs": [
        {
          "internalType": "address",
          "name": "receiverUserAddress",
          "type": "address"
        }
      ],
      "name": "transferToWallet",
      "outputs": [],
      "stateMutability": "payable",
      "type": "function",
      "payable": true
    },
    {
      "inputs": [
        {
          "internalType": "address",
          "name": "newAddress",
          "type": "address"
        },
        {
          "internalType": "uint256",
          "name": "tokenId",
          "type": "uint256"
        }
      ],
      "name": "transferToken",
      "outputs": [],
      "stateMutability": "nonpayable",
      "type": "function"
    },
    {
      "inputs": [
        {
          "internalType": "string",
          "name": "name",
          "type": "string"
        },
        {
          "internalType": "string",
          "name": "symbol",
          "type": "string"
        },
        {
          "internalType": "address",
          "name": "admin",
          "type": "address"
        }
      ],
      "name": "initialize",
      "outputs": [],
      "stateMutability": "nonpayable",
      "type": "function"
    },
    {
      "inputs": [
        {
          "internalType": "string",
          "name": "baseURI",
          "type": "string"
        }
      ],
      "name": "adminUpdateConfig",
      "outputs": [],
      "stateMutability": "nonpayable",
      "type": "function"
    },
    {
      "inputs": [
        {
          "internalType": "uint256",
          "name": "tokenId",
          "type": "uint256"
        }
      ],
      "name": "tokenURI",
      "outputs": [
        {
          "internalType": "string",
          "name": "",
          "type": "string"
        }
      ],
      "stateMutability": "view",
      "type": "function",
      "constant": true
    },
    {
      "inputs": [
        {
          "internalType": "bytes4",
          "name": "interfaceId",
          "type": "bytes4"
        }
      ],
      "name": "supportsInterface",
      "outputs": [
        {
          "internalType": "bool",
          "name": "",
          "type": "bool"
        }
      ],
      "stateMutability": "view",
      "type": "function",
      "constant": true
    }
  ],
  "bytecode": "0x608060405234801561001057600080fd5b50614287806100206000396000f3fe6080604052600436106102725760003560e01c806370a082311161014f578063caa0f92a116100c1578063e348da131161007a578063e348da1314610766578063e7ec78e314610786578063e985e9c51461079b578063ec5f752e146107e5578063f5b541a614610805578063fad8b32a1461082757600080fd5b8063caa0f92a146106ae578063cfbd4885146106c4578063d5391393146106e4578063d547741f14610706578063d85d3d2714610726578063dac28cce1461074657600080fd5b806395d89b411161011357806395d89b411461060f578063a217fddf14610624578063a22cb46514610639578063b6db75a014610659578063b88d4fde1461066e578063c87b56dd1461068e57600080fd5b806370a082311461056f5780637e8816b91461058f57806384f4e5c0146105af57806389ca8b71146105cf57806391d14854146105ef57600080fd5b80632d345670116101e857806340c1a064116101ac57806340c1a064146104ae57806342842e0e146104e557806342966c68146105055780634456eda21461052557806350e59eb31461053a5780636352211e1461054f57600080fd5b80632d3456701461040e5780632f2ff15d1461042e57806335bb3e161461044e57806336568abe1461046e5780633ef83a081461048e57600080fd5b80631072cbea1161023a5780631072cbea14610348578063180afb071461036857806323b872dd1461037b578063248a9ca31461039b578063261707fa146103d957806329b79a67146103f957600080fd5b806301ffc9a71461027757806306fdde03146102ac578063077f224a146102ce578063081812fc146102f0578063095ea7b314610328575b600080fd5b34801561028357600080fd5b5061029761029236600461361e565b610847565b60405190151581526020015b60405180910390f35b3480156102b857600080fd5b506102c1610858565b6040516102a39190613693565b3480156102da57600080fd5b506102ee6102e9366004613767565b6108eb565b005b3480156102fc57600080fd5b5061031061030b3660046137df565b61097e565b6040516001600160a01b0390911681526020016102a3565b34801561033457600080fd5b506102ee6103433660046137f8565b610a07565b34801561035457600080fd5b506102ee6103633660046137f8565b610b1d565b6102ee610376366004613824565b610c32565b34801561038757600080fd5b506102ee610396366004613841565b610d07565b3480156103a757600080fd5b506103cb6103b63660046137df565b60009081526065602052604090206001015490565b6040519081526020016102a3565b3480156103e557600080fd5b506102ee6103f4366004613824565b610d38565b34801561040557600080fd5b506102c1610d89565b34801561041a57600080fd5b506102ee610429366004613824565b610d99565b34801561043a57600080fd5b506102ee610449366004613882565b610ddd565b34801561045a57600080fd5b506102ee610469366004613824565b610e03565b34801561047a57600080fd5b506102ee610489366004613882565b610e47565b34801561049a57600080fd5b506102ee6104a93660046138b2565b610ec5565b3480156104ba57600080fd5b506103106104c93660046137df565b600090815261089960205260409020546001600160a01b031690565b3480156104f157600080fd5b506102ee610500366004613841565b610f3f565b34801561051157600080fd5b506102ee6105203660046137df565b610f5a565b34801561053157600080fd5b5061029761104b565b34801561054657600080fd5b5061029761106a565b34801561055b57600080fd5b5061031061056a3660046137df565b611084565b34801561057b57600080fd5b506103cb61058a366004613824565b6110fc565b34801561059b57600080fd5b506102ee6105aa3660046138e7565b611184565b3480156105bb57600080fd5b506102ee6105ca366004613975565b611304565b3480156105db57600080fd5b506102976105ea366004613a65565b6116dc565b3480156105fb57600080fd5b5061029761060a366004613882565b61171e565b34801561061b57600080fd5b506102c1611749565b34801561063057600080fd5b506103cb600081565b34801561064557600080fd5b506102ee610654366004613ab5565b611759565b34801561066557600080fd5b5061029761181f565b34801561067a57600080fd5b506102ee610689366004613ae8565b61182b565b34801561069a57600080fd5b506102c16106a93660046137df565b61185d565b3480156106ba57600080fd5b506117d9546103cb565b3480156106d057600080fd5b506102ee6106df366004613824565b611868565b3480156106f057600080fd5b506103cb60008051602061423283398151915281565b34801561071257600080fd5b506102ee610721366004613882565b6118b9565b34801561073257600080fd5b506103cb6107413660046138b2565b6118df565b34801561075257600080fd5b506102c16107613660046137df565b6119b6565b34801561077257600080fd5b506102ee610781366004613824565b611a59565b34801561079257600080fd5b506103cb611aaa565b3480156107a757600080fd5b506102976107b6366004613b68565b6001600160a01b03918216600090815261086c6020908152604080832093909416825291909152205460ff1690565b3480156107f157600080fd5b506103106108003660046137df565b611ab6565b34801561081157600080fd5b506103cb60008051602061421283398151915281565b34801561083357600080fd5b506102ee610842366004613824565b611af4565b600061085282611b45565b92915050565b6060610867805461086890613b96565b80601f016020809104026020016040519081016040528092919081815260200182805461089490613b96565b80156108e15780601f106108b6576101008083540402835291602001916108e1565b820191906000526020600020905b8154815290600101906020018083116108c457829003601f168201915b5050505050905090565b600054610100900460ff1680610904575060005460ff16155b6109295760405162461bcd60e51b815260040161092090613bd1565b60405180910390fd5b600054610100900460ff1615801561094b576000805461ffff19166101011790555b6109558484611b50565b61095d611bd7565b61096682611c48565b8015610978576000805461ff00191690555b50505050565b600061098982611d03565b6109ea5760405162461bcd60e51b815260206004820152602c60248201527f4552433732313a20617070726f76656420717565727920666f72206e6f6e657860448201526b34b9ba32b73a103a37b5b2b760a11b6064820152608401610920565b50600090815261086b60205260409020546001600160a01b031690565b6000610a1282611084565b9050806001600160a01b0316836001600160a01b03161415610a805760405162461bcd60e51b815260206004820152602160248201527f4552433732313a20617070726f76616c20746f2063757272656e74206f776e656044820152603960f91b6064820152608401610920565b336001600160a01b0382161480610a9c5750610a9c81336107b6565b610b0e5760405162461bcd60e51b815260206004820152603860248201527f4552433732313a20617070726f76652063616c6c6572206973206e6f74206f7760448201527f6e6572206e6f7220617070726f76656420666f7220616c6c00000000000000006064820152608401610920565b610b188383611d21565b505050565b610b2681611d03565b610b675760405162461bcd60e51b8152602060048201526012602482015271151bdad95b9251081b5d5cdd08195e1a5cdd60721b6044820152606401610920565b33610b7182611084565b6001600160a01b031614610bda5760405162461bcd60e51b815260206004820152602a60248201527f5472616e736665722063616e20626520646f6e65206f6e6c79206279207468656044820152691027232a1037bbb732b960b11b6064820152608401610920565b610be5338383610f3f565b604080513381526001600160a01b03841660208201529081018290527fec61728879a33aa50b55e1f4789dcfc1c680f30a24d7b8694a9f874e242a97b49060600160405180910390a15050565b60003411610c825760405162461bcd60e51b815260206004820152601960248201527f416d6f756e74206d75737420677261746572207468616e2030000000000000006044820152606401610920565b6040516001600160a01b038216903480156108fc02916000818181858888f19350505050158015610cb7573d6000803e3d6000fd5b50604080516001600160a01b038316815233602082015234918101919091527fbc5a2194ba8e227f773cefa80f7f6b4f287e5c2ffec2637a0ca9febfcb6b6b87906060015b60405180910390a150565b610d113382611d90565b610d2d5760405162461bcd60e51b815260040161092090613c1f565b610b18838383611e7b565b610d5060008051602061423283398151915282610ddd565b6040516001600160a01b03821681527f93e15a6550ecfc8e6edd98132363907de724eed6c5d89ce96917f4d4ff4da1f390602001610cfc565b6060610c83805461086890613b96565b610da46000826118b9565b6040516001600160a01b03821681527f631ff1c4e1a02c54b480a34b810e03bcee61fe38efcb243930a7f820914923e290602001610cfc565b600082815260656020526040902060010154610df9813361201e565b610b188383612082565b610e0e600082610ddd565b6040516001600160a01b03821681527f1c4e23de8d72c94b22992bd4d7b6786b215ba876af214ff63e6a0ca38fc97af490602001610cfc565b6001600160a01b0381163314610eb75760405162461bcd60e51b815260206004820152602f60248201527f416363657373436f6e74726f6c3a2063616e206f6e6c792072656e6f756e636560448201526e103937b632b9903337b91039b2b63360891b6064820152608401610920565b610ec18282612108565b5050565b610ed060003361171e565b610f335760405162461bcd60e51b815260206004820152602e60248201527f41646d696e526f6c653a2063616c6c657220646f6573206e6f7420686176652060448201526d7468652041646d696e20726f6c6560901b6064820152608401610920565b610f3c8161216f565b50565b610b188383836040518060200160405280600081525061182b565b6000818152610899602052604090205481906001600160a01b03163314610fcf5760405162461bcd60e51b8152602060048201526024808201527f4e465437323143726561746f723a2043616c6c6572206973206e6f742063726560448201526330ba37b960e11b6064820152608401610920565b33610fd982611084565b6001600160a01b0316146110425760405162461bcd60e51b815260206004820152602a60248201527f4e465437323143726561746f723a2043616c6c657220646f6573206e6f74206f6044820152691ddb881d1a194813919560b21b6064820152608401610920565b610ec1826121b3565b60006110656000805160206142128339815191523361171e565b905090565b60006110656000805160206142328339815191523361171e565b600081815261086960205260408120546001600160a01b0316806108525760405162461bcd60e51b815260206004820152602960248201527f4552433732313a206f776e657220717565727920666f72206e6f6e657869737460448201526832b73a103a37b5b2b760b91b6064820152608401610920565b60006001600160a01b0382166111675760405162461bcd60e51b815260206004820152602a60248201527f4552433732313a2062616c616e636520717565727920666f7220746865207a65604482015269726f206164647265737360b01b6064820152608401610920565b506001600160a01b0316600090815261086a602052604090205490565b61119c6000805160206142328339815191523361171e565b6111b85760405162461bcd60e51b815260040161092090613c70565b6298967f81116112245760405162461bcd60e51b815260206004820152603160248201527f4d696e743a20437573746f6d20546f6b656e4944206d757374206265206869676044820152700686572207468616e20313030303030303607c1b6064820152608401610920565b61122d81611d03565b1561127a5760405162461bcd60e51b815260206004820152601e60248201527f4d696e743a20546f6b656e496420616c7265616479206578697374656e7400006044820152606401610920565b6112896117da80546001019055565b61129382826121bc565b61129d81836121d6565b6112a7818461224c565b826040516112b59190613cc0565b604051809103902081836001600160a01b03167fe2406cfd356cfbe4e42d452bde96d27f48c423e5f02b5d78695893308399519d866040516112f79190613693565b60405180910390a4505050565b838383838080601f016020809104026020016040519081016040528093929190818152602001838380828437600092019190915250611346925061104b915050565b6113a65760405162461bcd60e51b815260206004820152602b60248201527f4163636f756e744d6967726174696f6e3a2043616c6c6572206973206e6f742060448201526a30b71037b832b930ba37b960a91b6064820152608401610920565b816001600160a01b0316836001600160a01b031614156114255760405162461bcd60e51b815260206004820152603460248201527f4163636f756e744d6967726174696f6e3a2043616e6e6f74206d696772617465604482015273081d1bc81d1a19481cd85b59481858d8dbdd5b9d60621b6064820152608401610920565b600061145761143384612384565b6040516020016114439190613cdc565b604051602081830303815290604052612534565b905061146484828461256f565b6114d65760405162461bcd60e51b815260206004820152603d60248201527f4163636f756e744d6967726174696f6e3a205369676e6174757265206d75737460448201527f2062652066726f6d20746865206f726967696e616c206163636f756e740000006064820152608401610920565b60005b898110156115915760008b8b838181106114f5576114f5613d36565b90506020020135905061150781611d03565b801561152c5750896001600160a01b031661152182611084565b6001600160a01b0316145b1561157e5761153c8a8a83611e7b565b886001600160a01b03168a6001600160a01b0316827fde55f075ebd46256cd6bd57d8fb53e0406f687db372e90ae8c18e72be46f5c1660405160405180910390a45b508061158981613d62565b9150506114d9565b5060005b8b8110156116cd5760008d8d838181106115b1576115b1613d36565b602090810292909201356000818152610899909352604090922054919250506001600160a01b0316156116ba57600081815261089960205260409020546001600160a01b038b811691161461166e5760405162461bcd60e51b815260206004820152603960248201527f4e465437323143726561746f723a20546f6b656e20776173206e6f742063726560448201527f617465642062792074686520676976656e2061646472657373000000000000006064820152608401610920565b611678818a6121d6565b886001600160a01b03168a6001600160a01b0316827f58120fb31972ff9fad76eb87119474a58fc38d6b9b842bb3067a4a329eaa64f660405160405180910390a45b50806116c581613d62565b915050611595565b50505050505050505050505050565b6001600160a01b0382166000908152610c8260205260408082209051611703908490613cc0565b9081526040519081900360200190205460ff16905092915050565b60009182526065602090815260408084206001600160a01b0393909316845291905290205460ff1690565b6060610868805461086890613b96565b6001600160a01b0382163314156117b25760405162461bcd60e51b815260206004820152601960248201527f4552433732313a20617070726f766520746f2063616c6c6572000000000000006044820152606401610920565b33600081815261086c602090815260408083206001600160a01b03871680855290835292819020805460ff191686151590811790915590519081529192917f17307eab39ab6107e8899845ad3d59bd9653f200f220920489ca2b5937696c31910160405180910390a35050565b6000611065813361171e565b6118353383611d90565b6118515760405162461bcd60e51b815260040161092090613c1f565b6109788484848461263c565b60606108528261266f565b611880600080516020614232833981519152826118b9565b6040516001600160a01b03821681527f44f4322f8daa225d5f4877ad0f7d3dfba248a774396f3ca99405ed40a044fe8190602001610cfc565b6000828152606560205260409020600101546118d5813361201e565b610b188383612108565b60006118f96000805160206142328339815191523361171e565b6119155760405162461bcd60e51b815260040161092090613c70565b6119246117da80546001019055565b6117d9805490600061193583613d62565b91905055905061194533826121bc565b61194f81336121d6565b611959818361224c565b816040516119679190613cc0565b604051809103902081336001600160a01b03167fe2406cfd356cfbe4e42d452bde96d27f48c423e5f02b5d78695893308399519d856040516119a99190613693565b60405180910390a4919050565b6000818152610c84602052604090208054606091906119d490613b96565b80601f0160208091040260200160405190810160405280929190818152602001828054611a0090613b96565b8015611a4d5780601f10611a2257610100808354040283529160200191611a4d565b820191906000526020600020905b815481529060010190602001808311611a3057829003601f168201915b50505050509050919050565b611a7160008051602061421283398151915282610ddd565b6040516001600160a01b03821681527f5b6a420b639feabfb011a07742a6ae14ef72f35d1a330ed65f42216c95bc6c2e90602001610cfc565b60006110656117da5490565b600081815261089a60205260409020546001600160a01b031680611aef5750600081815261089960205260409020546001600160a01b03165b919050565b611b0c600080516020614212833981519152826118b9565b6040516001600160a01b03821681527fe672f512db5cb061756ab0b7654938a4293bbc42bc91f74bd0ade5f540a35c8090602001610cfc565b60006108528261267a565b600054610100900460ff1680611b69575060005460ff16155b611b855760405162461bcd60e51b815260040161092090613bd1565b600054610100900460ff16158015611ba7576000805461ffff19166101011790555b611baf612685565b611bb7612685565b611bc183836126f0565b8015610b18576000805461ff0019169055505050565b600054610100900460ff1680611bf0575060005460ff16155b611c0c5760405162461bcd60e51b815260040161092090613bd1565b600054610100900460ff16158015611c2e576000805461ffff19166101011790555b60016117d9558015610f3c576000805461ff001916905550565b600054610100900460ff1680611c61575060005460ff16155b611c7d5760405162461bcd60e51b815260040161092090613bd1565b600054610100900460ff16158015611c9f576000805461ffff19166101011790555b611ca7612787565b611cb26000836127f6565b6040516001600160a01b03831681527f75ef91bb959d6f13ca6b596857395ef84913b9db7adbc407d3bf97af614722d29060200160405180910390a18015610ec1576000805461ff00191690555050565b600090815261086960205260409020546001600160a01b0316151590565b600081815261086b6020526040902080546001600160a01b0319166001600160a01b0384169081179091558190611d5782611084565b6001600160a01b03167f8c5be1e5ebec7d5bd14f71427d1e84f3dd0314c0f7b2291e5b200ac8c7c3b92560405160405180910390a45050565b6000611d9b82611d03565b611dfc5760405162461bcd60e51b815260206004820152602c60248201527f4552433732313a206f70657261746f7220717565727920666f72206e6f6e657860448201526b34b9ba32b73a103a37b5b2b760a11b6064820152608401610920565b6000611e0783611084565b9050806001600160a01b0316846001600160a01b03161480611e425750836001600160a01b0316611e378461097e565b6001600160a01b0316145b80611e7357506001600160a01b03808216600090815261086c602090815260408083209388168352929052205460ff165b949350505050565b826001600160a01b0316611e8e82611084565b6001600160a01b031614611ef65760405162461bcd60e51b815260206004820152602960248201527f4552433732313a207472616e73666572206f6620746f6b656e2074686174206960448201526839903737ba1037bbb760b91b6064820152608401610920565b6001600160a01b038216611f585760405162461bcd60e51b8152602060048201526024808201527f4552433732313a207472616e7366657220746f20746865207a65726f206164646044820152637265737360e01b6064820152608401610920565b611f63600082611d21565b6001600160a01b038316600090815261086a60205260408120805460019290611f8d908490613d7d565b90915550506001600160a01b038216600090815261086a60205260408120805460019290611fbc908490613d94565b90915550506000818152610869602052604080822080546001600160a01b0319166001600160a01b0386811691821790925591518493918716917fddf252ad1be2c89b69c2b068fc378daa952ba7f163c4a11628f55a4df523b3ef91a4505050565b612028828261171e565b610ec157612040816001600160a01b03166014612800565b61204b836020612800565b60405160200161205c929190613dac565b60408051601f198184030181529082905262461bcd60e51b825261092091600401613693565b61208c828261171e565b610ec15760008281526065602090815260408083206001600160a01b03851684529091529020805460ff191660011790556120c43390565b6001600160a01b0316816001600160a01b0316837f2f8788117e7eff1d82e926ec794901d17c78024a50270940304540a733656f0d60405160405180910390a45050565b612112828261171e565b15610ec15760008281526065602090815260408083206001600160a01b0385168085529252808320805460ff1916905551339285917ff6391f5c32d9c69d2a47ea670b442974b53935d1edc7fd64eb21e047a839171b9190a45050565b805161218390610c8390602084019061356f565b507f6741b2fc379fad678116fe3d4d4b9a1a184ab53ba36b86ad0fa66340b1ab41ad81604051610cfc9190613693565b610f3c8161299c565b610ec18282604051806020016040528060008152506129a5565b6000828152610899602052604080822054905184926001600160a01b038086169316917febd529444fe852bfccb40075e8f8cae7612ea20edebdf5143c72718ccb157f759190a46000918252610899602052604090912080546001600160a01b0319166001600160a01b03909216919091179055565b602e815110156122a85760405162461bcd60e51b815260206004820152602160248201527f4e46543732314d657461646174613a20496e76616c69642049504653207061746044820152600d60fb1b6064820152608401610920565b336000908152610c8260205260409081902090516122c7908390613cc0565b9081526040519081900360200190205460ff16156123365760405162461bcd60e51b815260206004820152602660248201527f4e46543732314d657461646174613a204e46542077617320616c7265616479206044820152651b5a5b9d195960d21b6064820152608401610920565b336000908152610c82602052604090819020905160019190612359908490613cc0565b908152604051908190036020019020805491151560ff19909216919091179055610ec18282336129d8565b60408051602a808252606082810190935260009190602082018180368337019050509050600360fc1b816000815181106123c0576123c0613d36565b60200101906001600160f81b031916908160001a905350600f60fb1b816001815181106123ef576123ef613d36565b60200101906001600160f81b031916908160001a90535060005b601481101561252d57600061241f826013613d7d565b61242a906008613e21565b612435906002613f24565b612448906001600160a01b038716613f46565b60f81b9050600060108260f81c61245f9190613f5a565b60f81b905060008160f81c60106124769190613f7c565b8360f81c6124849190613f9d565b60f81b905061249282612a8b565b8561249e866002613e21565b6124a9906002613d94565b815181106124b9576124b9613d36565b60200101906001600160f81b031916908160001a9053506124d981612a8b565b856124e5866002613e21565b6124f0906003613d94565b8151811061250057612500613d36565b60200101906001600160f81b031916908160001a905350505050808061252590613d62565b915050612409565b5092915050565b60006125408251612ac1565b82604051602001612552929190613fc0565b604051602081830303815290604052805190602001209050919050565b6000833b1561261457604051630b135d3f60e11b81526001600160a01b03851690631626ba7e906125a6908690869060040161401b565b60206040518083038186803b1580156125be57600080fd5b505afa9250505080156125ee575060408051601f3d908101601f191682019092526125eb91810190614034565b60015b6125fa57506000612635565b6001600160e01b031916630b135d3f60e11b149050612635565b836001600160a01b03166126288484612bbf565b6001600160a01b03161490505b9392505050565b612647848484611e7b565b61265384848484612be3565b6109785760405162461bcd60e51b815260040161092090614051565b606061085282612cf0565b600061085282612e5b565b600054610100900460ff168061269e575060005460ff16155b6126ba5760405162461bcd60e51b815260040161092090613bd1565b600054610100900460ff161580156126dc576000805461ffff19166101011790555b8015610f3c576000805461ff001916905550565b600054610100900460ff1680612709575060005460ff16155b6127255760405162461bcd60e51b815260040161092090613bd1565b600054610100900460ff16158015612747576000805461ffff19166101011790555b825161275b9061086790602086019061356f565b5081516127709061086890602085019061356f565b508015610b18576000805461ff0019169055505050565b600054610100900460ff16806127a0575060005460ff16155b6127bc5760405162461bcd60e51b815260040161092090613bd1565b600054610100900460ff161580156127de576000805461ffff19166101011790555b6127e6612685565b6127ee612685565b6126dc612685565b610ec18282612082565b6060600061280f836002613e21565b61281a906002613d94565b67ffffffffffffffff811115612832576128326136a6565b6040519080825280601f01601f19166020018201604052801561285c576020820181803683370190505b509050600360fc1b8160008151811061287757612877613d36565b60200101906001600160f81b031916908160001a905350600f60fb1b816001815181106128a6576128a6613d36565b60200101906001600160f81b031916908160001a90535060006128ca846002613e21565b6128d5906001613d94565b90505b600181111561294d576f181899199a1a9b1b9c1cb0b131b232b360811b85600f166010811061290957612909613d36565b1a60f81b82828151811061291f5761291f613d36565b60200101906001600160f81b031916908160001a90535060049490941c93612946816140a3565b90506128d8565b5083156126355760405162461bcd60e51b815260206004820181905260248201527f537472696e67733a20686578206c656e67746820696e73756666696369656e746044820152606401610920565b610f3c81612e66565b6129af8383612eb3565b6129bc6000848484612be3565b610b185760405162461bcd60e51b815260040161092090614051565b6129e183611d03565b612a395760405162461bcd60e51b8152602060048201526024808201527f4d61737465723a2055524920736574206f66206e6f6e6578697374656e74207460448201526337b5b2b760e11b6064820152608401610920565b6000838152610c84602090815260409091208351612a599285019061356f565b506000928352610c85602052604090922080546001600160a01b0319166001600160a01b039093169290921790915550565b6000600a60f883901c1015612ab257612aa960f883901c60306140ba565b60f81b92915050565b612aa960f883901c60576140ba565b606081612ae55750506040805180820190915260018152600360fc1b602082015290565b8160005b8115612b0f5780612af981613d62565b9150612b089050600a83613f46565b9150612ae9565b60008167ffffffffffffffff811115612b2a57612b2a6136a6565b6040519080825280601f01601f191660200182016040528015612b54576020820181803683370190505b5090505b8415611e7357612b69600183613d7d565b9150612b76600a866140df565b612b81906030613d94565b60f81b818381518110612b9657612b96613d36565b60200101906001600160f81b031916908160001a905350612bb8600a86613f46565b9450612b58565b6000806000612bce8585612fe8565b91509150612bdb81613058565b509392505050565b60006001600160a01b0384163b15612ce557604051630a85bd0160e11b81526001600160a01b0385169063150b7a0290612c279033908990889088906004016140f3565b602060405180830381600087803b158015612c4157600080fd5b505af1925050508015612c71575060408051601f3d908101601f19168201909252612c6e91810190614034565b60015b612ccb573d808015612c9f576040519150601f19603f3d011682016040523d82523d6000602084013e612ca4565b606091505b508051612cc35760405162461bcd60e51b815260040161092090614051565b805181602001fd5b6001600160e01b031916630a85bd0160e11b149050611e73565b506001949350505050565b6060612cfb82611d03565b612d575760405162461bcd60e51b815260206004820152602760248201527f4d61737465723a2055524920717565727920666f72206e6f6e6578697374656e6044820152663a103a37b5b2b760c91b6064820152608401610920565b6000828152610c84602052604081208054612d7190613b96565b80601f0160208091040260200160405190810160405280929190818152602001828054612d9d90613b96565b8015612dea5780601f10612dbf57610100808354040283529160200191612dea565b820191906000526020600020905b815481529060010190602001808311612dcd57829003601f168201915b505050505090506000612dfb613213565b9050805160001415612e0e575092915050565b815115612e40578082604051602001612e28929190614130565b60405160208183030381529060405292505050919050565b80612e4a8561321d565b604051602001612e28929190614130565b60006108528261331b565b336000908152610c8260209081526040808320848452610c849092529182902091519091612e939161415f565b908152604051908190036020019020805460ff19169055610f3c8161335b565b6001600160a01b038216612f095760405162461bcd60e51b815260206004820181905260248201527f4552433732313a206d696e7420746f20746865207a65726f20616464726573736044820152606401610920565b612f1281611d03565b15612f5f5760405162461bcd60e51b815260206004820152601c60248201527f4552433732313a20746f6b656e20616c7265616479206d696e746564000000006044820152606401610920565b6001600160a01b038216600090815261086a60205260408120805460019290612f89908490613d94565b90915550506000818152610869602052604080822080546001600160a01b0319166001600160a01b03861690811790915590518392907fddf252ad1be2c89b69c2b068fc378daa952ba7f163c4a11628f55a4df523b3ef908290a45050565b60008082516041141561301f5760208301516040840151606085015160001a61301387828585613381565b94509450505050613051565b825160401415613049576020830151604084015161303e86838361346e565b935093505050613051565b506000905060025b9250929050565b600081600481111561306c5761306c6141fb565b14156130755750565b6001816004811115613089576130896141fb565b14156130d75760405162461bcd60e51b815260206004820152601860248201527f45434453413a20696e76616c6964207369676e617475726500000000000000006044820152606401610920565b60028160048111156130eb576130eb6141fb565b14156131395760405162461bcd60e51b815260206004820152601f60248201527f45434453413a20696e76616c6964207369676e6174757265206c656e677468006044820152606401610920565b600381600481111561314d5761314d6141fb565b14156131a65760405162461bcd60e51b815260206004820152602260248201527f45434453413a20696e76616c6964207369676e6174757265202773272076616c604482015261756560f01b6064820152608401610920565b60048160048111156131ba576131ba6141fb565b1415610f3c5760405162461bcd60e51b815260206004820152602260248201527f45434453413a20696e76616c6964207369676e6174757265202776272076616c604482015261756560f01b6064820152608401610920565b6060611065610d89565b6060816132415750506040805180820190915260018152600360fc1b602082015290565b8160005b811561326b578061325581613d62565b91506132649050600a83613f46565b9150613245565b60008167ffffffffffffffff811115613286576132866136a6565b6040519080825280601f01601f1916602001820160405280156132b0576020820181803683370190505b5090505b8415611e73576132c5600183613d7d565b91506132d2600a866140df565b6132dd906030613d94565b60f81b8183815181106132f2576132f2613d36565b60200101906001600160f81b031916908160001a905350613314600a86613f46565b94506132b4565b60006001600160e01b031982166380ac58cd60e01b148061334c57506001600160e01b03198216635b5e139f60e01b145b8061085257506108528261349d565b60008181526108996020526040902080546001600160a01b0319169055610f3c816134d2565b6000807f7fffffffffffffffffffffffffffffff5d576e7357a4501ddfe92f46681b20a08311156133b85750600090506003613465565b8460ff16601b141580156133d057508460ff16601c14155b156133e15750600090506004613465565b6040805160008082526020820180845289905260ff881692820192909252606081018690526080810185905260019060a0016020604051602081039080840390855afa158015613435573d6000803e3d6000fd5b5050604051601f1901519150506001600160a01b03811661345e57600060019250925050613465565b9150600090505b94509492505050565b6000806001600160ff1b03831660ff84901c601b0161348f87828885613381565b935093505050935093915050565b60006001600160e01b03198216637965db0b60e01b148061085257506301ffc9a760e01b6001600160e01b0319831614610852565b60006134dd82611084565b90506134ea600083611d21565b6001600160a01b038116600090815261086a60205260408120805460019290613514908490613d7d565b90915550506000828152610869602052604080822080546001600160a01b0319169055518391906001600160a01b038416907fddf252ad1be2c89b69c2b068fc378daa952ba7f163c4a11628f55a4df523b3ef908390a45050565b82805461357b90613b96565b90600052602060002090601f01602090048101928261359d57600085556135e3565b82601f106135b657805160ff19168380011785556135e3565b828001600101855582156135e3579182015b828111156135e35782518255916020019190600101906135c8565b506135ef9291506135f3565b5090565b5b808211156135ef57600081556001016135f4565b6001600160e01b031981168114610f3c57600080fd5b60006020828403121561363057600080fd5b813561263581613608565b60005b8381101561365657818101518382015260200161363e565b838111156109785750506000910152565b6000815180845261367f81602086016020860161363b565b601f01601f19169290920160200192915050565b6020815260006126356020830184613667565b634e487b7160e01b600052604160045260246000fd5b600067ffffffffffffffff808411156136d7576136d76136a6565b604051601f8501601f19908116603f011681019082821181831017156136ff576136ff6136a6565b8160405280935085815286868601111561371857600080fd5b858560208301376000602087830101525050509392505050565b600082601f83011261374357600080fd5b612635838335602085016136bc565b6001600160a01b0381168114610f3c57600080fd5b60008060006060848603121561377c57600080fd5b833567ffffffffffffffff8082111561379457600080fd5b6137a087838801613732565b945060208601359150808211156137b657600080fd5b506137c386828701613732565b92505060408401356137d481613752565b809150509250925092565b6000602082840312156137f157600080fd5b5035919050565b6000806040838503121561380b57600080fd5b823561381681613752565b946020939093013593505050565b60006020828403121561383657600080fd5b813561263581613752565b60008060006060848603121561385657600080fd5b833561386181613752565b9250602084013561387181613752565b929592945050506040919091013590565b6000806040838503121561389557600080fd5b8235915060208301356138a781613752565b809150509250929050565b6000602082840312156138c457600080fd5b813567ffffffffffffffff8111156138db57600080fd5b611e7384828501613732565b6000806000606084860312156138fc57600080fd5b833567ffffffffffffffff81111561391357600080fd5b61391f86828701613732565b935050602084013561387181613752565b60008083601f84011261394257600080fd5b50813567ffffffffffffffff81111561395a57600080fd5b6020830191508360208260051b850101111561305157600080fd5b60008060008060008060008060a0898b03121561399157600080fd5b883567ffffffffffffffff808211156139a957600080fd5b6139b58c838d01613930565b909a50985060208b01359150808211156139ce57600080fd5b6139da8c838d01613930565b909850965060408b013591506139ef82613752565b90945060608a013590613a0182613752565b90935060808a01359080821115613a1757600080fd5b818b0191508b601f830112613a2b57600080fd5b813581811115613a3a57600080fd5b8c6020828501011115613a4c57600080fd5b6020830194508093505050509295985092959890939650565b60008060408385031215613a7857600080fd5b8235613a8381613752565b9150602083013567ffffffffffffffff811115613a9f57600080fd5b613aab85828601613732565b9150509250929050565b60008060408385031215613ac857600080fd5b8235613ad381613752565b9150602083013580151581146138a757600080fd5b60008060008060808587031215613afe57600080fd5b8435613b0981613752565b93506020850135613b1981613752565b925060408501359150606085013567ffffffffffffffff811115613b3c57600080fd5b8501601f81018713613b4d57600080fd5b613b5c878235602084016136bc565b91505092959194509250565b60008060408385031215613b7b57600080fd5b8235613b8681613752565b915060208301356138a781613752565b600181811c90821680613baa57607f821691505b60208210811415613bcb57634e487b7160e01b600052602260045260246000fd5b50919050565b6020808252602e908201527f496e697469616c697a61626c653a20636f6e747261637420697320616c72656160408201526d191e481a5b9a5d1a585b1a5e995960921b606082015260800190565b60208082526031908201527f4552433732313a207472616e736665722063616c6c6572206973206e6f74206f6040820152701ddb995c881b9bdc88185c1c1c9bdd9959607a1b606082015260800190565b60208082526030908201527f4d696e746572526f6c653a2063616c6c657220646f6573206e6f74206861766560408201526f20746865204d696e74657220726f6c6560801b606082015260800190565b60008251613cd281846020870161363b565b9190910192915050565b7f4920617574686f72697a65204d696e74656420746f206d696772617465206d7981526b01030b1b1b7bab73a103a37960a51b602082015260008251613d2981602c85016020870161363b565b91909101602c0192915050565b634e487b7160e01b600052603260045260246000fd5b634e487b7160e01b600052601160045260246000fd5b6000600019821415613d7657613d76613d4c565b5060010190565b600082821015613d8f57613d8f613d4c565b500390565b60008219821115613da757613da7613d4c565b500190565b7f416363657373436f6e74726f6c3a206163636f756e7420000000000000000000815260008351613de481601785016020880161363b565b7001034b99036b4b9b9b4b733903937b6329607d1b6017918401918201528351613e1581602884016020880161363b565b01602801949350505050565b6000816000190483118215151615613e3b57613e3b613d4c565b500290565b600181815b80851115613e7b578160001904821115613e6157613e61613d4c565b80851615613e6e57918102915b93841c9390800290613e45565b509250929050565b600082613e9257506001610852565b81613e9f57506000610852565b8160018114613eb55760028114613ebf57613edb565b6001915050610852565b60ff841115613ed057613ed0613d4c565b50506001821b610852565b5060208310610133831016604e8410600b8410161715613efe575081810a610852565b613f088383613e40565b8060001904821115613f1c57613f1c613d4c565b029392505050565b60006126358383613e83565b634e487b7160e01b600052601260045260246000fd5b600082613f5557613f55613f30565b500490565b600060ff831680613f6d57613f6d613f30565b8060ff84160491505092915050565b600060ff821660ff84168160ff0481118215151615613f1c57613f1c613d4c565b600060ff821660ff841680821015613fb757613fb7613d4c565b90039392505050565b7f19457468657265756d205369676e6564204d6573736167653a0a000000000000815260008351613ff881601a85016020880161363b565b83519083019061400f81601a84016020880161363b565b01601a01949350505050565b828152604060208201526000611e736040830184613667565b60006020828403121561404657600080fd5b815161263581613608565b60208082526032908201527f4552433732313a207472616e7366657220746f206e6f6e20455243373231526560408201527131b2b4bb32b91034b6b83632b6b2b73a32b960711b606082015260800190565b6000816140b2576140b2613d4c565b506000190190565b600060ff821660ff84168060ff038211156140d7576140d7613d4c565b019392505050565b6000826140ee576140ee613f30565b500690565b6001600160a01b038581168252841660208201526040810183905260806060820181905260009061412690830184613667565b9695505050505050565b6000835161414281846020880161363b565b83519083019061415681836020880161363b565b01949350505050565b600080835481600182811c91508083168061417b57607f831692505b602080841082141561419b57634e487b7160e01b86526022600452602486fd5b8180156141af57600181146141c0576141ed565b60ff198616895284890196506141ed565b60008a81526020902060005b868110156141e55781548b8201529085019083016141cc565b505084890196505b509498975050505050505050565b634e487b7160e01b600052602160045260246000fdfe97667070c54ef182b0f5858b034beac1b6f3089aa2d3188bb1e8929f4fa9b9299f2df0fed2c77648de5860a4cc508cd0818c85b8b8a1ab4ceeef8d981c8956a6a264697066735822122005b730b51bf74eabeea68545706ba967c5b25233eb7d732424adcf2bbd33602664736f6c63430008090033",
  "immutableReferences": {},
  "source": "/*\r\n::::    :::::  :::::::::  ::::    :::  :::::::::  :::::::::  :::::::::  \r\n+:+:+: :+:+:+     :+:     :+:+:   :+:     :+:     :+:        :+:    :+: \r\n+:+ +:+:+ +:+     +:+     :+:+:+  +:+     +:+     +:+        +:+    +:+ \r\n+#+  +:+  +#+     +#+     +#+ +:+ +#+     +#+     +#++:++#   +#+    +:+ \r\n+#+       +#+     +#+     +#+  +#+#+#     +#+     +#+        +#+    +#+ \r\n#+#       #+#     #+#     #+#   #+#+#     #+#     #+#        #+#    #+# \r\n###       ###  #########  ###    ####     ###     #########  #########  \r\n*/\r\n// SPDX-License-Identifier: Non-Licensed\r\npragma solidity ^0.8.0;\r\n\r\nimport \"@openzeppelin/contracts-upgradeable/token/ERC721/ERC721Upgradeable.sol\";\r\n\r\nimport \"./mixins/roles/AdminRole.sol\";\r\nimport \"./mixins/roles/OperatorRole.sol\";\r\nimport \"./mixins/NFT721Core.sol\";\r\nimport \"./mixins/NFT721Creator.sol\";\r\nimport \"./mixins/NFT721Metadata.sol\";\r\nimport \"./mixins/NFT721Mint.sol\";\r\nimport \"./mixins/AccountMigration.sol\";\r\n\r\n/**\r\n * @title Minted NFTs implemented using the ERC-721 standard.\r\n * @dev This top level file holds no data directly to ease future upgrades.\r\n */\r\n \r\ncontract MintedNFT721 is\r\n  AdminRole,\r\n  OperatorRole,\r\n  AccountMigration,\r\n  ERC721Upgradeable,\r\n  NFT721Creator,\r\n  NFT721Metadata,\r\n  NFT721Core,\r\n  NFT721Mint  \r\n{\r\n  /**\r\n   * @notice Called once to configure the contract after the initial deployment.\r\n   * @dev This farms the initialize call out to inherited contracts as needed.\r\n   */\r\n  function initialize(\r\n    string memory name,\r\n    string memory symbol,\r\n    address admin\r\n  ) public initializer {\r\n    ERC721Upgradeable.__ERC721_init(name, symbol);\r\n    NFT721Mint._initializeNFT721Mint();\r\n    AdminRole._initializeAdminRole(admin);\r\n  }\r\n\r\n  function _baseURI() internal view virtual override(ERC721Upgradeable, NFT721Metadata, NFT721Mint) returns (string memory) {\r\n    return GetBaseURI();\r\n  }\r\n\r\n  /**\r\n   * @notice Allows a Minted admin to update NFT config variables.\r\n   * @dev This must be called right after the initial call to `initialize`.\r\n   */\r\n  function adminUpdateConfig(\r\n    string memory baseURI\r\n  ) public onlyAdmin {\r\n    _updateBaseURI(baseURI);\r\n  }\r\n\r\n  /**\r\n   * @dev This is a no-op, just an explicit override to address compile errors due to inheritance.\r\n   */\r\n  function _burn(uint256 tokenId) internal override(ERC721Upgradeable, NFT721Creator, NFT721Metadata, NFT721Mint) {\r\n    super._burn(tokenId);\r\n  }\r\n\r\n   function tokenURI(uint256 tokenId) public view virtual override(ERC721Upgradeable, NFT721Metadata, NFT721Mint) returns (string memory) {\r\n     return super.tokenURI(tokenId);\r\n   }\r\n  \r\n  function supportsInterface(bytes4 interfaceId) public view virtual override( ERC721Upgradeable, NFT721Mint, NFT721Metadata, AccessControlUpgradeable, NFT721Creator) returns (bool) {\r\n    return super.supportsInterface(interfaceId);\r\n  }\r\n}",
  "sourcePath": "C:\\alex\\nft\\openZeppelin\\mintedBasic\\contracts\\minted\\MintedNFT721.sol",
  "compiler": {
    "name": "solc",
    "version": "0.8.9+commit.e5eed63a.Emscripten.clang"
  },
  "schemaVersion": "3.4.3",
  "updatedAt": "2021-11-22T14:52:10.329Z",
  "networkType": "ethereum",
  "devdoc": {
    "details": "This top level file holds no data directly to ease future upgrades.",
    "kind": "dev",
    "methods": {
      "adminAccountMigration(uint256[],uint256[],address,address,bytes)": {
        "details": "This will gracefully skip any NFTs that have been burned or transferred.",
        "params": {
          "signature": "Message `I authorize Minted to migrate my account to ${newAccount.address.toLowerCase()}` signed by the original account."
        }
      },
      "adminUpdateConfig(string)": {
        "details": "This must be called right after the initial call to `initialize`."
      },
      "approve(address,uint256)": {
        "details": "See {IERC721-approve}."
      },
      "balanceOf(address)": {
        "details": "See {IERC721-balanceOf}."
      },
      "getApproved(uint256)": {
        "details": "See {IERC721-getApproved}."
      },
      "getRoleAdmin(bytes32)": {
        "details": "Returns the admin role that controls `role`. See {grantRole} and {revokeRole}. To change a role's admin, use {_setRoleAdmin}."
      },
      "getTokenCreatorPaymentAddress(uint256)": {
        "details": "If an alternate address was not defined, the creator is returned instead."
      },
      "grantRole(bytes32,address)": {
        "details": "Grants `role` to `account`. If `account` had not been already granted `role`, emits a {RoleGranted} event. Requirements: - the caller must have ``role``'s admin role."
      },
      "hasRole(bytes32,address)": {
        "details": "Returns `true` if `account` has been granted `role`."
      },
      "initialize(string,string,address)": {
        "details": "This farms the initialize call out to inherited contracts as needed."
      },
      "isApprovedForAll(address,address)": {
        "details": "See {IERC721-isApprovedForAll}."
      },
      "name()": {
        "details": "See {IERC721Metadata-name}."
      },
      "ownerOf(uint256)": {
        "details": "See {IERC721-ownerOf}."
      },
      "renounceRole(bytes32,address)": {
        "details": "Revokes `role` from the calling account. Roles are often managed via {grantRole} and {revokeRole}: this function's purpose is to provide a mechanism for accounts to lose their privileges if they are compromised (such as when a trusted device is misplaced). If the calling account had been granted `role`, emits a {RoleRevoked} event. Requirements: - the caller must be `account`."
      },
      "revokeRole(bytes32,address)": {
        "details": "Revokes `role` from `account`. If `account` had been granted `role`, emits a {RoleRevoked} event. Requirements: - the caller must have ``role``'s admin role."
      },
      "safeTransferFrom(address,address,uint256)": {
        "details": "See {IERC721-safeTransferFrom}."
      },
      "safeTransferFrom(address,address,uint256,bytes)": {
        "details": "See {IERC721-safeTransferFrom}."
      },
      "setApprovalForAll(address,bool)": {
        "details": "See {IERC721-setApprovalForAll}."
      },
      "symbol()": {
        "details": "See {IERC721Metadata-symbol}."
      },
      "transferFrom(address,address,uint256)": {
        "details": "See {IERC721-transferFrom}."
      }
    },
    "title": "Minted NFTs implemented using the ERC-721 standard.",
    "version": 1
  },
  "userdoc": {
    "kind": "user",
    "methods": {
      "adminAccountMigration(uint256[],uint256[],address,address,bytes)": {
        "notice": "Allows an NFT owner or creator and Minted to work together in order to update the creator to a new account and/or transfer NFTs to that account."
      },
      "adminUpdateConfig(string)": {
        "notice": "Allows a Minted admin to update NFT config variables."
      },
      "burn(uint256)": {
        "notice": "Allows the creator to burn if they currently own the NFT."
      },
      "getHasCreatorMintedIPFSHash(address,string)": {
        "notice": "Checks if the creator has already minted a given NFT."
      },
      "getNextTokenId()": {
        "notice": "Gets the tokenId of the next NFT minted."
      },
      "getTokenCreatorPaymentAddress(uint256)": {
        "notice": "Returns the payment address for a given tokenId."
      },
      "getTokenIPFSPath(uint256)": {
        "notice": "Returns the IPFSPath to the metadata JSON file for a given NFT."
      },
      "initialize(string,string,address)": {
        "notice": "Called once to configure the contract after the initial deployment."
      },
      "mint(string)": {
        "notice": "Allows a creator to mint an NFT."
      },
      "tokenCreator(uint256)": {
        "notice": "Returns the creator's address for a given tokenId."
      }
    },
    "version": 1
  }
}