{
  "contractName": "MintedTreasury",
  "abi": [
    {
      "anonymous": false,
      "inputs": [
        {
          "indexed": false,
          "internalType": "address",
          "name": "admin",
          "type": "address"
        }
      ],
      "name": "AdminGranted",
      "type": "event"
    },
    {
      "anonymous": false,
      "inputs": [
        {
          "indexed": false,
          "internalType": "address",
          "name": "admin",
          "type": "address"
        }
      ],
      "name": "AdminInitiated",
      "type": "event"
    },
    {
      "anonymous": false,
      "inputs": [
        {
          "indexed": false,
          "internalType": "address",
          "name": "admin",
          "type": "address"
        }
      ],
      "name": "AdminRevoked",
      "type": "event"
    },
    {
      "anonymous": false,
      "inputs": [
        {
          "indexed": true,
          "internalType": "address",
          "name": "to",
          "type": "address"
        },
        {
          "indexed": false,
          "internalType": "uint256",
          "name": "amount",
          "type": "uint256"
        }
      ],
      "name": "FundsWithdrawn",
      "type": "event"
    },
    {
      "anonymous": false,
      "inputs": [
        {
          "indexed": true,
          "internalType": "bytes32",
          "name": "role",
          "type": "bytes32"
        },
        {
          "indexed": true,
          "internalType": "bytes32",
          "name": "previousAdminRole",
          "type": "bytes32"
        },
        {
          "indexed": true,
          "internalType": "bytes32",
          "name": "newAdminRole",
          "type": "bytes32"
        }
      ],
      "name": "RoleAdminChanged",
      "type": "event"
    },
    {
      "anonymous": false,
      "inputs": [
        {
          "indexed": true,
          "internalType": "bytes32",
          "name": "role",
          "type": "bytes32"
        },
        {
          "indexed": true,
          "internalType": "address",
          "name": "account",
          "type": "address"
        },
        {
          "indexed": true,
          "internalType": "address",
          "name": "sender",
          "type": "address"
        }
      ],
      "name": "RoleGranted",
      "type": "event"
    },
    {
      "anonymous": false,
      "inputs": [
        {
          "indexed": true,
          "internalType": "bytes32",
          "name": "role",
          "type": "bytes32"
        },
        {
          "indexed": true,
          "internalType": "address",
          "name": "account",
          "type": "address"
        },
        {
          "indexed": true,
          "internalType": "address",
          "name": "sender",
          "type": "address"
        }
      ],
      "name": "RoleRevoked",
      "type": "event"
    },
    {
      "inputs": [],
      "name": "DEFAULT_ADMIN_ROLE",
      "outputs": [
        {
          "internalType": "bytes32",
          "name": "",
          "type": "bytes32"
        }
      ],
      "stateMutability": "view",
      "type": "function"
    },
    {
      "inputs": [
        {
          "internalType": "bytes32",
          "name": "role",
          "type": "bytes32"
        }
      ],
      "name": "getRoleAdmin",
      "outputs": [
        {
          "internalType": "bytes32",
          "name": "",
          "type": "bytes32"
        }
      ],
      "stateMutability": "view",
      "type": "function"
    },
    {
      "inputs": [
        {
          "internalType": "address",
          "name": "account",
          "type": "address"
        }
      ],
      "name": "grantAdmin",
      "outputs": [],
      "stateMutability": "nonpayable",
      "type": "function"
    },
    {
      "inputs": [
        {
          "internalType": "bytes32",
          "name": "role",
          "type": "bytes32"
        },
        {
          "internalType": "address",
          "name": "account",
          "type": "address"
        }
      ],
      "name": "grantRole",
      "outputs": [],
      "stateMutability": "nonpayable",
      "type": "function"
    },
    {
      "inputs": [
        {
          "internalType": "bytes32",
          "name": "role",
          "type": "bytes32"
        },
        {
          "internalType": "address",
          "name": "account",
          "type": "address"
        }
      ],
      "name": "hasRole",
      "outputs": [
        {
          "internalType": "bool",
          "name": "",
          "type": "bool"
        }
      ],
      "stateMutability": "view",
      "type": "function"
    },
    {
      "inputs": [],
      "name": "isAdmin",
      "outputs": [
        {
          "internalType": "bool",
          "name": "",
          "type": "bool"
        }
      ],
      "stateMutability": "view",
      "type": "function"
    },
    {
      "inputs": [
        {
          "internalType": "bytes32",
          "name": "role",
          "type": "bytes32"
        },
        {
          "internalType": "address",
          "name": "account",
          "type": "address"
        }
      ],
      "name": "renounceRole",
      "outputs": [],
      "stateMutability": "nonpayable",
      "type": "function"
    },
    {
      "inputs": [
        {
          "internalType": "address",
          "name": "account",
          "type": "address"
        }
      ],
      "name": "revokeAdmin",
      "outputs": [],
      "stateMutability": "nonpayable",
      "type": "function"
    },
    {
      "inputs": [
        {
          "internalType": "bytes32",
          "name": "role",
          "type": "bytes32"
        },
        {
          "internalType": "address",
          "name": "account",
          "type": "address"
        }
      ],
      "name": "revokeRole",
      "outputs": [],
      "stateMutability": "nonpayable",
      "type": "function"
    },
    {
      "inputs": [
        {
          "internalType": "bytes4",
          "name": "interfaceId",
          "type": "bytes4"
        }
      ],
      "name": "supportsInterface",
      "outputs": [
        {
          "internalType": "bool",
          "name": "",
          "type": "bool"
        }
      ],
      "stateMutability": "view",
      "type": "function"
    },
    {
      "inputs": [
        {
          "internalType": "contract ISendValueWithFallbackWithdraw",
          "name": "market",
          "type": "address"
        }
      ],
      "name": "withdrawFromEscrow",
      "outputs": [],
      "stateMutability": "nonpayable",
      "type": "function"
    },
    {
      "inputs": [
        {
          "internalType": "address payable",
          "name": "to",
          "type": "address"
        },
        {
          "internalType": "uint256",
          "name": "amount",
          "type": "uint256"
        }
      ],
      "name": "withdrawFunds",
      "outputs": [],
      "stateMutability": "nonpayable",
      "type": "function"
    },
    {
      "stateMutability": "payable",
      "type": "receive"
    },
    {
      "inputs": [
        {
          "internalType": "address",
          "name": "admin",
          "type": "address"
        }
      ],
      "name": "initialize",
      "outputs": [],
      "stateMutability": "nonpayable",
      "type": "function"
    }
  ],
  "bytecode": "0x608060405234801561001057600080fd5b50610ead806100206000396000f3fe6080604052600436106100c65760003560e01c806391d148541161007f578063b6db75a011610059578063b6db75a01461021c578063c107532914610231578063c4d66de814610251578063d547741f1461027157600080fd5b806391d14854146101c7578063924ab158146101e7578063a217fddf1461020757600080fd5b806301ffc9a7146100d2578063248a9ca3146101075780632d345670146101455780632f2ff15d1461016757806335bb3e161461018757806336568abe146101a757600080fd5b366100cd57005b600080fd5b3480156100de57600080fd5b506100f26100ed366004610ba2565b610291565b60405190151581526020015b60405180910390f35b34801561011357600080fd5b50610137610122366004610bcc565b60009081526065602052604090206001015490565b6040519081526020016100fe565b34801561015157600080fd5b50610165610160366004610bfa565b6102c8565b005b34801561017357600080fd5b50610165610182366004610c17565b610313565b34801561019357600080fd5b506101656101a2366004610bfa565b61033e565b3480156101b357600080fd5b506101656101c2366004610c17565b610382565b3480156101d357600080fd5b506100f26101e2366004610c17565b610405565b3480156101f357600080fd5b50610165610202366004610bfa565b610430565b34801561021357600080fd5b50610137600081565b34801561022857600080fd5b506100f26104ad565b34801561023d57600080fd5b5061016561024c366004610c47565b6104be565b34801561025d57600080fd5b5061016561026c366004610bfa565b610547565b34801561027d57600080fd5b5061016561028c366004610c17565b6105bc565b60006001600160e01b03198216637965db0b60e01b14806102c257506301ffc9a760e01b6001600160e01b03198316145b92915050565b6102d36000826105bc565b6040516001600160a01b03821681527f631ff1c4e1a02c54b480a34b810e03bcee61fe38efcb243930a7f820914923e2906020015b60405180910390a150565b60008281526065602052604090206001015461032f81336105e2565b6103398383610646565b505050565b610349600082610313565b6040516001600160a01b03821681527f1c4e23de8d72c94b22992bd4d7b6786b215ba876af214ff63e6a0ca38fc97af490602001610308565b6001600160a01b03811633146103f75760405162461bcd60e51b815260206004820152602f60248201527f416363657373436f6e74726f6c3a2063616e206f6e6c792072656e6f756e636560448201526e103937b632b9903337b91039b2b63360891b60648201526084015b60405180910390fd5b61040182826106cc565b5050565b60009182526065602090815260408084206001600160a01b0393909316845291905290205460ff1690565b61043b600033610405565b6104575760405162461bcd60e51b81526004016103ee90610c73565b806001600160a01b0316633ccfd60b6040518163ffffffff1660e01b8152600401600060405180830381600087803b15801561049257600080fd5b505af11580156104a6573d6000803e3d6000fd5b5050505050565b60006104b98133610405565b905090565b6104c9600033610405565b6104e55760405162461bcd60e51b81526004016103ee90610c73565b806104ed5750475b6105006001600160a01b03831682610733565b816001600160a01b03167feaff4b37086828766ad3268786972c0cd24259d4c87a80f9d3963a3c3d999b0d8260405161053b91815260200190565b60405180910390a25050565b600054610100900460ff1680610560575060005460ff16155b61057c5760405162461bcd60e51b81526004016103ee90610cc1565b600054610100900460ff1615801561059e576000805461ffff19166101011790555b6105a78261084c565b8015610401576000805461ff00191690555050565b6000828152606560205260409020600101546105d881336105e2565b61033983836106cc565b6105ec8282610405565b61040157610604816001600160a01b03166014610907565b61060f836020610907565b604051602001610620929190610d3f565b60408051601f198184030181529082905262461bcd60e51b82526103ee91600401610db4565b6106508282610405565b6104015760008281526065602090815260408083206001600160a01b03851684529091529020805460ff191660011790556106883390565b6001600160a01b0316816001600160a01b0316837f2f8788117e7eff1d82e926ec794901d17c78024a50270940304540a733656f0d60405160405180910390a45050565b6106d68282610405565b156104015760008281526065602090815260408083206001600160a01b0385168085529252808320805460ff1916905551339285917ff6391f5c32d9c69d2a47ea670b442974b53935d1edc7fd64eb21e047a839171b9190a45050565b804710156107835760405162461bcd60e51b815260206004820152601d60248201527f416464726573733a20696e73756666696369656e742062616c616e636500000060448201526064016103ee565b6000826001600160a01b03168260405160006040518083038185875af1925050503d80600081146107d0576040519150601f19603f3d011682016040523d82523d6000602084013e6107d5565b606091505b50509050806103395760405162461bcd60e51b815260206004820152603a60248201527f416464726573733a20756e61626c6520746f2073656e642076616c75652c207260448201527f6563697069656e74206d6179206861766520726576657274656400000000000060648201526084016103ee565b600054610100900460ff1680610865575060005460ff16155b6108815760405162461bcd60e51b81526004016103ee90610cc1565b600054610100900460ff161580156108a3576000805461ffff19166101011790555b6108ab610aaa565b6108b6600083610b2e565b6040516001600160a01b03831681527f75ef91bb959d6f13ca6b596857395ef84913b9db7adbc407d3bf97af614722d29060200160405180910390a18015610401576000805461ff00191690555050565b60606000610916836002610dfd565b610921906002610e1c565b67ffffffffffffffff81111561093957610939610e34565b6040519080825280601f01601f191660200182016040528015610963576020820181803683370190505b509050600360fc1b8160008151811061097e5761097e610e4a565b60200101906001600160f81b031916908160001a905350600f60fb1b816001815181106109ad576109ad610e4a565b60200101906001600160f81b031916908160001a90535060006109d1846002610dfd565b6109dc906001610e1c565b90505b6001811115610a54576f181899199a1a9b1b9c1cb0b131b232b360811b85600f1660108110610a1057610a10610e4a565b1a60f81b828281518110610a2657610a26610e4a565b60200101906001600160f81b031916908160001a90535060049490941c93610a4d81610e60565b90506109df565b508315610aa35760405162461bcd60e51b815260206004820181905260248201527f537472696e67733a20686578206c656e67746820696e73756666696369656e7460448201526064016103ee565b9392505050565b600054610100900460ff1680610ac3575060005460ff16155b610adf5760405162461bcd60e51b81526004016103ee90610cc1565b600054610100900460ff16158015610b01576000805461ffff19166101011790555b610b09610b38565b610b11610b38565b610b19610b38565b8015610b2b576000805461ff00191690555b50565b6104018282610646565b600054610100900460ff1680610b51575060005460ff16155b610b6d5760405162461bcd60e51b81526004016103ee90610cc1565b600054610100900460ff16158015610b19576000805461ffff19166101011790558015610b2b576000805461ff001916905550565b600060208284031215610bb457600080fd5b81356001600160e01b031981168114610aa357600080fd5b600060208284031215610bde57600080fd5b5035919050565b6001600160a01b0381168114610b2b57600080fd5b600060208284031215610c0c57600080fd5b8135610aa381610be5565b60008060408385031215610c2a57600080fd5b823591506020830135610c3c81610be5565b809150509250929050565b60008060408385031215610c5a57600080fd5b8235610c6581610be5565b946020939093013593505050565b6020808252602e908201527f41646d696e526f6c653a2063616c6c657220646f6573206e6f7420686176652060408201526d7468652041646d696e20726f6c6560901b606082015260800190565b6020808252602e908201527f496e697469616c697a61626c653a20636f6e747261637420697320616c72656160408201526d191e481a5b9a5d1a585b1a5e995960921b606082015260800190565b60005b83811015610d2a578181015183820152602001610d12565b83811115610d39576000848401525b50505050565b7f416363657373436f6e74726f6c3a206163636f756e7420000000000000000000815260008351610d77816017850160208801610d0f565b7001034b99036b4b9b9b4b733903937b6329607d1b6017918401918201528351610da8816028840160208801610d0f565b01602801949350505050565b6020815260008251806020840152610dd3816040850160208701610d0f565b601f01601f19169190910160400192915050565b634e487b7160e01b600052601160045260246000fd5b6000816000190483118215151615610e1757610e17610de7565b500290565b60008219821115610e2f57610e2f610de7565b500190565b634e487b7160e01b600052604160045260246000fd5b634e487b7160e01b600052603260045260246000fd5b600081610e6f57610e6f610de7565b50600019019056fea26469706673582212208c973f9aeaeecf74c5bb2c02b8b9631bb94546e3a735c86ecdd99317e69e5a8a64736f6c63430008090033",
  "immutableReferences": {},
  "source": "/*\r\n::::    :::::  :::::::::  ::::    :::  :::::::::  :::::::::  :::::::::  \r\n+:+:+: :+:+:+     :+:     :+:+:   :+:     :+:     :+:        :+:    :+: \r\n+:+ +:+:+ +:+     +:+     :+:+:+  +:+     +:+     +:+        +:+    +:+ \r\n+#+  +:+  +#+     +#+     +#+ +:+ +#+     +#+     +#++:++#   +#+    +:+ \r\n+#+       +#+     +#+     +#+  +#+#+#     +#+     +#+        +#+    +#+ \r\n#+#       #+#     #+#     #+#   #+#+#     #+#     #+#        #+#    #+# \r\n###       ###  #########  ###    ####     ###     #########  #########  \r\n*/\r\n\r\n// SPDX-License-Identifier: MIT OR Apache-2.0\r\n\r\npragma solidity ^0.8.0;\r\n\r\nimport \"@openzeppelin/contracts-upgradeable/proxy/utils/Initializable.sol\";\r\n\r\nimport \"./mixins/roles/AdminTreasuryRole.sol\";\r\nimport \"./mixins/CollateralManagement.sol\";\r\nimport \"./mixins/WithdrawFromEscrow.sol\";\r\n\r\n/**\r\n * @notice The Minted treasury which collects fees generated by the market.\r\n * @dev The core responsibility of this contract is collecting fees.\r\n */\r\ncontract MintedTreasury is AdminTreasuryRole, CollateralManagement, WithdrawFromEscrow {\r\n\r\n  function initialize(address admin) public initializer {\r\n    AdminTreasuryRole._initializeAdminRole(admin);\r\n    // emit AdminInitiated(admin);\r\n  }\r\n}",
  "sourcePath": "C:\\alex\\nft\\openZeppelin\\mintedBasic\\contracts\\minted\\MintedTreasury.sol",
  "compiler": {
    "name": "solc",
    "version": "0.8.9+commit.e5eed63a.Emscripten.clang"
  },
  "schemaVersion": "3.4.3",
  "updatedAt": "2022-03-24T15:32:37.097Z",
  "devdoc": {
    "details": "The core responsibility of this contract is collecting fees.",
    "kind": "dev",
    "methods": {
      "getRoleAdmin(bytes32)": {
        "details": "Returns the admin role that controls `role`. See {grantRole} and {revokeRole}. To change a role's admin, use {_setRoleAdmin}."
      },
      "grantRole(bytes32,address)": {
        "details": "Grants `role` to `account`. If `account` had not been already granted `role`, emits a {RoleGranted} event. Requirements: - the caller must have ``role``'s admin role."
      },
      "hasRole(bytes32,address)": {
        "details": "Returns `true` if `account` has been granted `role`."
      },
      "renounceRole(bytes32,address)": {
        "details": "Revokes `role` from the calling account. Roles are often managed via {grantRole} and {revokeRole}: this function's purpose is to provide a mechanism for accounts to lose their privileges if they are compromised (such as when a trusted device is misplaced). If the calling account had been granted `role`, emits a {RoleRevoked} event. Requirements: - the caller must be `account`."
      },
      "revokeRole(bytes32,address)": {
        "details": "Revokes `role` from `account`. If `account` had been granted `role`, emits a {RoleRevoked} event. Requirements: - the caller must have ``role``'s admin role."
      },
      "supportsInterface(bytes4)": {
        "details": "See {IERC165-supportsInterface}."
      },
      "withdrawFunds(address,uint256)": {
        "details": "In normal operation only ETH is required, but this allows access to any         ERC-20 funds sent to the contract as well.",
        "params": {
          "amount": "Amount to withdrawal or 0 to withdraw all available funds",
          "to": "Address to receive the withdrawn funds"
        }
      }
    },
    "version": 1
  },
  "userdoc": {
    "kind": "user",
    "methods": {
      "withdrawFunds(address,uint256)": {
        "notice": "Allows an admin to withdraw funds."
      }
    },
    "notice": "The Minted treasury which collects fees generated by the market.",
    "version": 1
  }
}