{
  "contractName": "NftoonRegeleCollection",
  "abi": [
    {
      "anonymous": false,
      "inputs": [
        {
          "indexed": false,
          "internalType": "address",
          "name": "admin",
          "type": "address"
        }
      ],
      "name": "AdminGranted",
      "type": "event"
    },
    {
      "anonymous": false,
      "inputs": [
        {
          "indexed": false,
          "internalType": "address",
          "name": "admin",
          "type": "address"
        }
      ],
      "name": "AdminInitiated",
      "type": "event"
    },
    {
      "anonymous": false,
      "inputs": [
        {
          "indexed": false,
          "internalType": "address",
          "name": "admin",
          "type": "address"
        }
      ],
      "name": "AdminRevoked",
      "type": "event"
    },
    {
      "anonymous": false,
      "inputs": [
        {
          "indexed": false,
          "internalType": "address",
          "name": "toAddress",
          "type": "address"
        },
        {
          "indexed": false,
          "internalType": "address",
          "name": "fromAddress",
          "type": "address"
        },
        {
          "indexed": false,
          "internalType": "uint256",
          "name": "amount",
          "type": "uint256"
        }
      ],
      "name": "AmountTransferred",
      "type": "event"
    },
    {
      "anonymous": false,
      "inputs": [
        {
          "indexed": true,
          "internalType": "address",
          "name": "owner",
          "type": "address"
        },
        {
          "indexed": true,
          "internalType": "address",
          "name": "approved",
          "type": "address"
        },
        {
          "indexed": true,
          "internalType": "uint256",
          "name": "tokenId",
          "type": "uint256"
        }
      ],
      "name": "Approval",
      "type": "event"
    },
    {
      "anonymous": false,
      "inputs": [
        {
          "indexed": true,
          "internalType": "address",
          "name": "owner",
          "type": "address"
        },
        {
          "indexed": true,
          "internalType": "address",
          "name": "operator",
          "type": "address"
        },
        {
          "indexed": false,
          "internalType": "bool",
          "name": "approved",
          "type": "bool"
        }
      ],
      "name": "ApprovalForAll",
      "type": "event"
    },
    {
      "anonymous": false,
      "inputs": [
        {
          "indexed": false,
          "internalType": "string",
          "name": "baseURI",
          "type": "string"
        }
      ],
      "name": "BaseURIUpdated",
      "type": "event"
    },
    {
      "anonymous": false,
      "inputs": [
        {
          "indexed": true,
          "internalType": "address",
          "name": "creator",
          "type": "address"
        },
        {
          "indexed": true,
          "internalType": "uint256",
          "name": "tokenId",
          "type": "uint256"
        },
        {
          "indexed": true,
          "internalType": "string",
          "name": "indexedTokenIPFSPath",
          "type": "string"
        },
        {
          "indexed": false,
          "internalType": "string",
          "name": "tokenIPFSPath",
          "type": "string"
        }
      ],
      "name": "Minted",
      "type": "event"
    },
    {
      "anonymous": false,
      "inputs": [
        {
          "indexed": false,
          "internalType": "address",
          "name": "admin",
          "type": "address"
        }
      ],
      "name": "MinterGranted",
      "type": "event"
    },
    {
      "anonymous": false,
      "inputs": [
        {
          "indexed": false,
          "internalType": "address",
          "name": "admin",
          "type": "address"
        }
      ],
      "name": "MinterRevoked",
      "type": "event"
    },
    {
      "anonymous": false,
      "inputs": [
        {
          "indexed": true,
          "internalType": "uint256",
          "name": "tokenId",
          "type": "uint256"
        },
        {
          "indexed": true,
          "internalType": "address",
          "name": "originalAddress",
          "type": "address"
        },
        {
          "indexed": true,
          "internalType": "address",
          "name": "newAddress",
          "type": "address"
        }
      ],
      "name": "NFTCreatorMigrated",
      "type": "event"
    },
    {
      "anonymous": false,
      "inputs": [
        {
          "indexed": true,
          "internalType": "address",
          "name": "nftMarket",
          "type": "address"
        }
      ],
      "name": "NFTMarketUpdated",
      "type": "event"
    },
    {
      "anonymous": false,
      "inputs": [
        {
          "indexed": false,
          "internalType": "string",
          "name": "name",
          "type": "string"
        },
        {
          "indexed": false,
          "internalType": "string",
          "name": "symbol",
          "type": "string"
        },
        {
          "indexed": false,
          "internalType": "string",
          "name": "baseURI",
          "type": "string"
        }
      ],
      "name": "NFTMetadataUpdated",
      "type": "event"
    },
    {
      "anonymous": false,
      "inputs": [
        {
          "indexed": true,
          "internalType": "uint256",
          "name": "tokenId",
          "type": "uint256"
        },
        {
          "indexed": true,
          "internalType": "address",
          "name": "originalAddress",
          "type": "address"
        },
        {
          "indexed": true,
          "internalType": "address",
          "name": "newAddress",
          "type": "address"
        }
      ],
      "name": "NFTOwnerMigrated",
      "type": "event"
    },
    {
      "anonymous": false,
      "inputs": [
        {
          "indexed": false,
          "internalType": "address",
          "name": "admin",
          "type": "address"
        }
      ],
      "name": "OperatoRevoked",
      "type": "event"
    },
    {
      "anonymous": false,
      "inputs": [
        {
          "indexed": false,
          "internalType": "address",
          "name": "admin",
          "type": "address"
        }
      ],
      "name": "OperatorGranted",
      "type": "event"
    },
    {
      "anonymous": false,
      "inputs": [
        {
          "indexed": true,
          "internalType": "uint256",
          "name": "tokenId",
          "type": "uint256"
        },
        {
          "indexed": true,
          "internalType": "address",
          "name": "originalAddress",
          "type": "address"
        },
        {
          "indexed": true,
          "internalType": "address",
          "name": "newAddress",
          "type": "address"
        },
        {
          "indexed": false,
          "internalType": "address",
          "name": "originalPaymentAddress",
          "type": "address"
        },
        {
          "indexed": false,
          "internalType": "address",
          "name": "newPaymentAddress",
          "type": "address"
        }
      ],
      "name": "PaymentAddressMigrated",
      "type": "event"
    },
    {
      "anonymous": false,
      "inputs": [
        {
          "indexed": true,
          "internalType": "bytes32",
          "name": "role",
          "type": "bytes32"
        },
        {
          "indexed": true,
          "internalType": "bytes32",
          "name": "previousAdminRole",
          "type": "bytes32"
        },
        {
          "indexed": true,
          "internalType": "bytes32",
          "name": "newAdminRole",
          "type": "bytes32"
        }
      ],
      "name": "RoleAdminChanged",
      "type": "event"
    },
    {
      "anonymous": false,
      "inputs": [
        {
          "indexed": true,
          "internalType": "bytes32",
          "name": "role",
          "type": "bytes32"
        },
        {
          "indexed": true,
          "internalType": "address",
          "name": "account",
          "type": "address"
        },
        {
          "indexed": true,
          "internalType": "address",
          "name": "sender",
          "type": "address"
        }
      ],
      "name": "RoleGranted",
      "type": "event"
    },
    {
      "anonymous": false,
      "inputs": [
        {
          "indexed": true,
          "internalType": "bytes32",
          "name": "role",
          "type": "bytes32"
        },
        {
          "indexed": true,
          "internalType": "address",
          "name": "account",
          "type": "address"
        },
        {
          "indexed": true,
          "internalType": "address",
          "name": "sender",
          "type": "address"
        }
      ],
      "name": "RoleRevoked",
      "type": "event"
    },
    {
      "anonymous": false,
      "inputs": [
        {
          "indexed": true,
          "internalType": "address",
          "name": "fromPaymentAddress",
          "type": "address"
        },
        {
          "indexed": true,
          "internalType": "address",
          "name": "toPaymentAddress",
          "type": "address"
        },
        {
          "indexed": true,
          "internalType": "uint256",
          "name": "tokenId",
          "type": "uint256"
        }
      ],
      "name": "TokenCreatorPaymentAddressSet",
      "type": "event"
    },
    {
      "anonymous": false,
      "inputs": [
        {
          "indexed": true,
          "internalType": "address",
          "name": "fromCreator",
          "type": "address"
        },
        {
          "indexed": true,
          "internalType": "address",
          "name": "toCreator",
          "type": "address"
        },
        {
          "indexed": true,
          "internalType": "uint256",
          "name": "tokenId",
          "type": "uint256"
        }
      ],
      "name": "TokenCreatorUpdated",
      "type": "event"
    },
    {
      "anonymous": false,
      "inputs": [
        {
          "indexed": true,
          "internalType": "uint256",
          "name": "tokenId",
          "type": "uint256"
        },
        {
          "indexed": true,
          "internalType": "string",
          "name": "indexedTokenIPFSPath",
          "type": "string"
        },
        {
          "indexed": false,
          "internalType": "string",
          "name": "tokenIPFSPath",
          "type": "string"
        }
      ],
      "name": "TokenIPFSPathUpdated",
      "type": "event"
    },
    {
      "anonymous": false,
      "inputs": [
        {
          "indexed": false,
          "internalType": "address",
          "name": "from",
          "type": "address"
        },
        {
          "indexed": false,
          "internalType": "address",
          "name": "to",
          "type": "address"
        },
        {
          "indexed": false,
          "internalType": "uint256",
          "name": "tokenId",
          "type": "uint256"
        }
      ],
      "name": "TokenTransfered",
      "type": "event"
    },
    {
      "anonymous": false,
      "inputs": [
        {
          "indexed": true,
          "internalType": "address",
          "name": "from",
          "type": "address"
        },
        {
          "indexed": true,
          "internalType": "address",
          "name": "to",
          "type": "address"
        },
        {
          "indexed": true,
          "internalType": "uint256",
          "name": "tokenId",
          "type": "uint256"
        }
      ],
      "name": "Transfer",
      "type": "event"
    },
    {
      "inputs": [],
      "name": "DEFAULT_ADMIN_ROLE",
      "outputs": [
        {
          "internalType": "bytes32",
          "name": "",
          "type": "bytes32"
        }
      ],
      "stateMutability": "view",
      "type": "function"
    },
    {
      "inputs": [],
      "name": "GetBaseURI",
      "outputs": [
        {
          "internalType": "string",
          "name": "",
          "type": "string"
        }
      ],
      "stateMutability": "view",
      "type": "function"
    },
    {
      "inputs": [],
      "name": "MINTER_ROLE",
      "outputs": [
        {
          "internalType": "bytes32",
          "name": "",
          "type": "bytes32"
        }
      ],
      "stateMutability": "view",
      "type": "function"
    },
    {
      "inputs": [],
      "name": "OPERATOR_ROLE",
      "outputs": [
        {
          "internalType": "bytes32",
          "name": "",
          "type": "bytes32"
        }
      ],
      "stateMutability": "view",
      "type": "function"
    },
    {
      "inputs": [
        {
          "internalType": "uint256[]",
          "name": "createdTokenIds",
          "type": "uint256[]"
        },
        {
          "internalType": "uint256[]",
          "name": "ownedTokenIds",
          "type": "uint256[]"
        },
        {
          "internalType": "address",
          "name": "originalAddress",
          "type": "address"
        },
        {
          "internalType": "address payable",
          "name": "newAddress",
          "type": "address"
        },
        {
          "internalType": "bytes",
          "name": "signature",
          "type": "bytes"
        }
      ],
      "name": "adminAccountMigration",
      "outputs": [],
      "stateMutability": "nonpayable",
      "type": "function"
    },
    {
      "inputs": [
        {
          "internalType": "address",
          "name": "to",
          "type": "address"
        },
        {
          "internalType": "uint256",
          "name": "tokenId",
          "type": "uint256"
        }
      ],
      "name": "approve",
      "outputs": [],
      "stateMutability": "nonpayable",
      "type": "function"
    },
    {
      "inputs": [
        {
          "internalType": "address",
          "name": "owner",
          "type": "address"
        }
      ],
      "name": "balanceOf",
      "outputs": [
        {
          "internalType": "uint256",
          "name": "",
          "type": "uint256"
        }
      ],
      "stateMutability": "view",
      "type": "function"
    },
    {
      "inputs": [
        {
          "internalType": "uint256",
          "name": "tokenId",
          "type": "uint256"
        }
      ],
      "name": "burn",
      "outputs": [],
      "stateMutability": "nonpayable",
      "type": "function"
    },
    {
      "inputs": [
        {
          "internalType": "uint256",
          "name": "tokenId",
          "type": "uint256"
        }
      ],
      "name": "getApproved",
      "outputs": [
        {
          "internalType": "address",
          "name": "",
          "type": "address"
        }
      ],
      "stateMutability": "view",
      "type": "function"
    },
    {
      "inputs": [
        {
          "internalType": "uint256",
          "name": "",
          "type": "uint256"
        }
      ],
      "name": "getFeeBps",
      "outputs": [
        {
          "internalType": "uint256[]",
          "name": "",
          "type": "uint256[]"
        }
      ],
      "stateMutability": "view",
      "type": "function"
    },
    {
      "inputs": [
        {
          "internalType": "uint256",
          "name": "id",
          "type": "uint256"
        }
      ],
      "name": "getFeeRecipients",
      "outputs": [
        {
          "internalType": "address payable[]",
          "name": "",
          "type": "address[]"
        }
      ],
      "stateMutability": "view",
      "type": "function"
    },
    {
      "inputs": [
        {
          "internalType": "address",
          "name": "creator",
          "type": "address"
        },
        {
          "internalType": "string",
          "name": "tokenIPFSPath",
          "type": "string"
        }
      ],
      "name": "getHasCreatorMintedIPFSHash",
      "outputs": [
        {
          "internalType": "bool",
          "name": "",
          "type": "bool"
        }
      ],
      "stateMutability": "view",
      "type": "function"
    },
    {
      "inputs": [],
      "name": "getMintedTreasury",
      "outputs": [
        {
          "internalType": "address payable",
          "name": "",
          "type": "address"
        }
      ],
      "stateMutability": "view",
      "type": "function"
    },
    {
      "inputs": [],
      "name": "getNFTMarket",
      "outputs": [
        {
          "internalType": "address",
          "name": "",
          "type": "address"
        }
      ],
      "stateMutability": "view",
      "type": "function"
    },
    {
      "inputs": [],
      "name": "getNextTokenId",
      "outputs": [
        {
          "internalType": "uint256",
          "name": "",
          "type": "uint256"
        }
      ],
      "stateMutability": "view",
      "type": "function"
    },
    {
      "inputs": [
        {
          "internalType": "bytes32",
          "name": "role",
          "type": "bytes32"
        }
      ],
      "name": "getRoleAdmin",
      "outputs": [
        {
          "internalType": "bytes32",
          "name": "",
          "type": "bytes32"
        }
      ],
      "stateMutability": "view",
      "type": "function"
    },
    {
      "inputs": [
        {
          "internalType": "uint256",
          "name": "tokenId",
          "type": "uint256"
        }
      ],
      "name": "getRoyalties",
      "outputs": [
        {
          "internalType": "address payable[2]",
          "name": "recipients",
          "type": "address[2]"
        },
        {
          "internalType": "uint256[2]",
          "name": "feesInBasisPoints",
          "type": "uint256[2]"
        }
      ],
      "stateMutability": "view",
      "type": "function"
    },
    {
      "inputs": [
        {
          "internalType": "uint256",
          "name": "tokenId",
          "type": "uint256"
        }
      ],
      "name": "getTokenCreatorPaymentAddress",
      "outputs": [
        {
          "internalType": "address payable",
          "name": "tokenCreatorPaymentAddress",
          "type": "address"
        }
      ],
      "stateMutability": "view",
      "type": "function"
    },
    {
      "inputs": [
        {
          "internalType": "uint256",
          "name": "tokenId",
          "type": "uint256"
        }
      ],
      "name": "getTokenIPFSPath",
      "outputs": [
        {
          "internalType": "string",
          "name": "",
          "type": "string"
        }
      ],
      "stateMutability": "view",
      "type": "function"
    },
    {
      "inputs": [
        {
          "internalType": "address",
          "name": "account",
          "type": "address"
        }
      ],
      "name": "grantAdmin",
      "outputs": [],
      "stateMutability": "nonpayable",
      "type": "function"
    },
    {
      "inputs": [
        {
          "internalType": "address",
          "name": "account",
          "type": "address"
        }
      ],
      "name": "grantMinter",
      "outputs": [],
      "stateMutability": "nonpayable",
      "type": "function"
    },
    {
      "inputs": [
        {
          "internalType": "address",
          "name": "account",
          "type": "address"
        }
      ],
      "name": "grantOperator",
      "outputs": [],
      "stateMutability": "nonpayable",
      "type": "function"
    },
    {
      "inputs": [
        {
          "internalType": "bytes32",
          "name": "role",
          "type": "bytes32"
        },
        {
          "internalType": "address",
          "name": "account",
          "type": "address"
        }
      ],
      "name": "grantRole",
      "outputs": [],
      "stateMutability": "nonpayable",
      "type": "function"
    },
    {
      "inputs": [
        {
          "internalType": "bytes32",
          "name": "role",
          "type": "bytes32"
        },
        {
          "internalType": "address",
          "name": "account",
          "type": "address"
        }
      ],
      "name": "hasRole",
      "outputs": [
        {
          "internalType": "bool",
          "name": "",
          "type": "bool"
        }
      ],
      "stateMutability": "view",
      "type": "function"
    },
    {
      "inputs": [],
      "name": "isAdmin",
      "outputs": [
        {
          "internalType": "bool",
          "name": "",
          "type": "bool"
        }
      ],
      "stateMutability": "view",
      "type": "function"
    },
    {
      "inputs": [
        {
          "internalType": "address",
          "name": "owner",
          "type": "address"
        },
        {
          "internalType": "address",
          "name": "operator",
          "type": "address"
        }
      ],
      "name": "isApprovedForAll",
      "outputs": [
        {
          "internalType": "bool",
          "name": "",
          "type": "bool"
        }
      ],
      "stateMutability": "view",
      "type": "function"
    },
    {
      "inputs": [],
      "name": "isMinter",
      "outputs": [
        {
          "internalType": "bool",
          "name": "",
          "type": "bool"
        }
      ],
      "stateMutability": "view",
      "type": "function"
    },
    {
      "inputs": [],
      "name": "isOperator",
      "outputs": [
        {
          "internalType": "bool",
          "name": "",
          "type": "bool"
        }
      ],
      "stateMutability": "view",
      "type": "function"
    },
    {
      "inputs": [],
      "name": "name",
      "outputs": [
        {
          "internalType": "string",
          "name": "",
          "type": "string"
        }
      ],
      "stateMutability": "view",
      "type": "function"
    },
    {
      "inputs": [
        {
          "internalType": "uint256",
          "name": "tokenId",
          "type": "uint256"
        }
      ],
      "name": "ownerOf",
      "outputs": [
        {
          "internalType": "address",
          "name": "",
          "type": "address"
        }
      ],
      "stateMutability": "view",
      "type": "function"
    },
    {
      "inputs": [
        {
          "internalType": "bytes32",
          "name": "role",
          "type": "bytes32"
        },
        {
          "internalType": "address",
          "name": "account",
          "type": "address"
        }
      ],
      "name": "renounceRole",
      "outputs": [],
      "stateMutability": "nonpayable",
      "type": "function"
    },
    {
      "inputs": [
        {
          "internalType": "address",
          "name": "account",
          "type": "address"
        }
      ],
      "name": "revokeAdmin",
      "outputs": [],
      "stateMutability": "nonpayable",
      "type": "function"
    },
    {
      "inputs": [
        {
          "internalType": "address",
          "name": "account",
          "type": "address"
        }
      ],
      "name": "revokeMinter",
      "outputs": [],
      "stateMutability": "nonpayable",
      "type": "function"
    },
    {
      "inputs": [
        {
          "internalType": "address",
          "name": "account",
          "type": "address"
        }
      ],
      "name": "revokeOperator",
      "outputs": [],
      "stateMutability": "nonpayable",
      "type": "function"
    },
    {
      "inputs": [
        {
          "internalType": "bytes32",
          "name": "role",
          "type": "bytes32"
        },
        {
          "internalType": "address",
          "name": "account",
          "type": "address"
        }
      ],
      "name": "revokeRole",
      "outputs": [],
      "stateMutability": "nonpayable",
      "type": "function"
    },
    {
      "inputs": [
        {
          "internalType": "address",
          "name": "from",
          "type": "address"
        },
        {
          "internalType": "address",
          "name": "to",
          "type": "address"
        },
        {
          "internalType": "uint256",
          "name": "tokenId",
          "type": "uint256"
        }
      ],
      "name": "safeTransferFrom",
      "outputs": [],
      "stateMutability": "nonpayable",
      "type": "function"
    },
    {
      "inputs": [
        {
          "internalType": "address",
          "name": "from",
          "type": "address"
        },
        {
          "internalType": "address",
          "name": "to",
          "type": "address"
        },
        {
          "internalType": "uint256",
          "name": "tokenId",
          "type": "uint256"
        },
        {
          "internalType": "bytes",
          "name": "_data",
          "type": "bytes"
        }
      ],
      "name": "safeTransferFrom",
      "outputs": [],
      "stateMutability": "nonpayable",
      "type": "function"
    },
    {
      "inputs": [
        {
          "internalType": "address",
          "name": "operator",
          "type": "address"
        },
        {
          "internalType": "bool",
          "name": "approved",
          "type": "bool"
        }
      ],
      "name": "setApprovalForAll",
      "outputs": [],
      "stateMutability": "nonpayable",
      "type": "function"
    },
    {
      "inputs": [],
      "name": "symbol",
      "outputs": [
        {
          "internalType": "string",
          "name": "",
          "type": "string"
        }
      ],
      "stateMutability": "view",
      "type": "function"
    },
    {
      "inputs": [
        {
          "internalType": "uint256",
          "name": "tokenId",
          "type": "uint256"
        }
      ],
      "name": "tokenCreator",
      "outputs": [
        {
          "internalType": "address payable",
          "name": "",
          "type": "address"
        }
      ],
      "stateMutability": "view",
      "type": "function"
    },
    {
      "inputs": [],
      "name": "totalOfMintedTokens",
      "outputs": [
        {
          "internalType": "uint256",
          "name": "",
          "type": "uint256"
        }
      ],
      "stateMutability": "view",
      "type": "function"
    },
    {
      "inputs": [
        {
          "internalType": "address",
          "name": "from",
          "type": "address"
        },
        {
          "internalType": "address",
          "name": "to",
          "type": "address"
        },
        {
          "internalType": "uint256",
          "name": "tokenId",
          "type": "uint256"
        }
      ],
      "name": "transferFrom",
      "outputs": [],
      "stateMutability": "nonpayable",
      "type": "function"
    },
    {
      "inputs": [
        {
          "internalType": "address",
          "name": "receiverUserAddress",
          "type": "address"
        }
      ],
      "name": "transferToWallet",
      "outputs": [],
      "stateMutability": "payable",
      "type": "function"
    },
    {
      "inputs": [
        {
          "internalType": "address",
          "name": "newAddress",
          "type": "address"
        },
        {
          "internalType": "uint256",
          "name": "tokenId",
          "type": "uint256"
        }
      ],
      "name": "transferToken",
      "outputs": [],
      "stateMutability": "nonpayable",
      "type": "function"
    },
    {
      "inputs": [
        {
          "internalType": "string",
          "name": "name",
          "type": "string"
        },
        {
          "internalType": "string",
          "name": "symbol",
          "type": "string"
        },
        {
          "internalType": "address",
          "name": "admin",
          "type": "address"
        }
      ],
      "name": "initialize",
      "outputs": [],
      "stateMutability": "nonpayable",
      "type": "function"
    },
    {
      "inputs": [
        {
          "internalType": "address",
          "name": "_nftMarket",
          "type": "address"
        },
        {
          "internalType": "string",
          "name": "baseURI",
          "type": "string"
        },
        {
          "internalType": "string",
          "name": "tempURI",
          "type": "string"
        },
        {
          "internalType": "uint256",
          "name": "maxTokens",
          "type": "uint256"
        }
      ],
      "name": "adminUpdateConfig",
      "outputs": [],
      "stateMutability": "nonpayable",
      "type": "function"
    },
    {
      "inputs": [
        {
          "internalType": "uint256",
          "name": "tokenId",
          "type": "uint256"
        }
      ],
      "name": "tokenURI",
      "outputs": [
        {
          "internalType": "string",
          "name": "",
          "type": "string"
        }
      ],
      "stateMutability": "view",
      "type": "function"
    },
    {
      "inputs": [
        {
          "internalType": "string",
          "name": "tokenIPFSPath",
          "type": "string"
        },
        {
          "internalType": "address",
          "name": "to",
          "type": "address"
        },
        {
          "internalType": "uint256",
          "name": "tokenId",
          "type": "uint256"
        }
      ],
      "name": "mint",
      "outputs": [],
      "stateMutability": "nonpayable",
      "type": "function"
    },
    {
      "inputs": [
        {
          "internalType": "string",
          "name": "tokenIPFSPath",
          "type": "string"
        }
      ],
      "name": "mint",
      "outputs": [
        {
          "internalType": "uint256",
          "name": "tokenId",
          "type": "uint256"
        }
      ],
      "stateMutability": "nonpayable",
      "type": "function"
    },
    {
      "inputs": [
        {
          "internalType": "bytes4",
          "name": "interfaceId",
          "type": "bytes4"
        }
      ],
      "name": "supportsInterface",
      "outputs": [
        {
          "internalType": "bool",
          "name": "",
          "type": "bool"
        }
      ],
      "stateMutability": "view",
      "type": "function"
    }
  ],
  "bytecode": "0x608060405234801561001057600080fd5b50614a7c806100206000396000f3fe6080604052600436106102c95760003560e01c8063753af00e11610175578063c87b56dd116100dc578063dac28cce11610095578063e985e9c51161006f578063e985e9c5146108be578063ec5f752e14610908578063f5b541a614610928578063fad8b32a1461094a57600080fd5b8063dac28cce14610869578063e348da1314610889578063e7ec78e3146108a957600080fd5b8063c87b56dd146107b1578063caa0f92a146107d1578063cfbd4885146107e7578063d539139314610807578063d547741f14610829578063d85d3d271461084957600080fd5b8063a217fddf1161012e578063a217fddf146106ec578063a22cb46514610701578063b6db75a014610721578063b88d4fde14610736578063b9c4d9fb14610756578063bb3bafd61461078357600080fd5b8063753af00e146106335780637e8816b91461065757806384f4e5c01461067757806389ca8b711461069757806391d14854146106b757806395d89b41146106d757600080fd5b806329b79a671161023457806340c1a064116101ed5780634456eda2116101c75780634456eda2146105c957806350e59eb3146105de5780636352211e146105f357806370a082311461061357600080fd5b806340c1a0641461055257806342842e0e1461058957806342966c68146105a957600080fd5b806329b79a671461049e5780632d345670146104b35780632f2ff15d146104d357806335bb3e16146104f357806336568abe146105135780633fd7ca411461053357600080fd5b80631072cbea116102865780631072cbea146103cc578063180afb07146103ec5780631f31c0ae146103ff57806323b872dd1461041f578063248a9ca31461043f578063261707fa1461047e57600080fd5b806301ffc9a7146102ce57806306fdde0314610303578063077f224a14610325578063081812fc14610347578063095ea7b31461037f5780630ebd4c7f1461039f575b600080fd5b3480156102da57600080fd5b506102ee6102e9366004613c32565b61096a565b60405190151581526020015b60405180910390f35b34801561030f57600080fd5b5061031861097b565b6040516102fa9190613ca7565b34801561033157600080fd5b50610345610340366004613d7b565b610a0e565b005b34801561035357600080fd5b50610367610362366004613df3565b610aa7565b6040516001600160a01b0390911681526020016102fa565b34801561038b57600080fd5b5061034561039a366004613e0c565b610b30565b3480156103ab57600080fd5b506103bf6103ba366004613df3565b610c46565b6040516102fa9190613e38565b3480156103d857600080fd5b506103456103e7366004613e0c565b610d45565b6103456103fa366004613e7c565b610e5a565b34801561040b57600080fd5b5061034561041a366004613e99565b610f2f565b34801561042b57600080fd5b5061034561043a366004613f17565b610fc2565b34801561044b57600080fd5b5061047061045a366004613df3565b6000908152610835602052604090206001015490565b6040519081526020016102fa565b34801561048a57600080fd5b50610345610499366004613e7c565b610ff3565b3480156104aa57600080fd5b50610318611044565b3480156104bf57600080fd5b506103456104ce366004613e7c565b611054565b3480156104df57600080fd5b506103456104ee366004613f58565b611098565b3480156104ff57600080fd5b5061034561050e366004613e7c565b6110bf565b34801561051f57600080fd5b5061034561052e366004613f58565b611103565b34801561053f57600080fd5b50611452546001600160a01b0316610367565b34801561055e57600080fd5b5061036761056d366004613df3565b600090815261106960205260409020546001600160a01b031690565b34801561059557600080fd5b506103456105a4366004613f17565b611181565b3480156105b557600080fd5b506103456105c4366004613df3565b61119c565b3480156105d557600080fd5b506102ee61128d565b3480156105ea57600080fd5b506102ee6112ac565b3480156105ff57600080fd5b5061036761060e366004613df3565b6112c6565b34801561061f57600080fd5b5061047061062e366004613e7c565b61133e565b34801561063f57600080fd5b506000546201000090046001600160a01b0316610367565b34801561066357600080fd5b50610345610672366004613f88565b6113c6565b34801561068357600080fd5b50610345610692366004614016565b611546565b3480156106a357600080fd5b506102ee6106b2366004614106565b61191e565b3480156106c357600080fd5b506102ee6106d2366004613f58565b611960565b3480156106e357600080fd5b5061031861198c565b3480156106f857600080fd5b50610470600081565b34801561070d57600080fd5b5061034561071c366004614156565b61199c565b34801561072d57600080fd5b506102ee611a62565b34801561074257600080fd5b50610345610751366004614189565b611a6e565b34801561076257600080fd5b50610776610771366004613df3565b611aa0565b6040516102fa9190614209565b34801561078f57600080fd5b506107a361079e366004613df3565b611b68565b6040516102fa92919061424a565b3480156107bd57600080fd5b506103186107cc366004613df3565b611c56565b3480156107dd57600080fd5b5061239254610470565b3480156107f357600080fd5b50610345610802366004613e7c565b611d35565b34801561081357600080fd5b50610470600080516020614a2783398151915281565b34801561083557600080fd5b50610345610844366004613f58565b611d86565b34801561085557600080fd5b506104706108643660046142af565b611dad565b34801561087557600080fd5b50610318610884366004613df3565b611e65565b34801561089557600080fd5b506103456108a4366004613e7c565b611e83565b3480156108b557600080fd5b50610470611ed4565b3480156108ca57600080fd5b506102ee6108d93660046142e4565b6001600160a01b03918216600090815261103c6020908152604080832093909416825291909152205460ff1690565b34801561091457600080fd5b50610367610923366004613df3565b611ee0565b34801561093457600080fd5b50610470600080516020614a0783398151915281565b34801561095657600080fd5b50610345610965366004613e7c565b611f1b565b600061097582611f6c565b92915050565b6060611037805461098b90614312565b80601f01602080910402602001604051908101604052809291908181526020018280546109b790614312565b8015610a045780601f106109d957610100808354040283529160200191610a04565b820191906000526020600020905b8154815290600101906020018083116109e757829003601f168201915b5050505050905090565b600054610100900460ff1680610a27575060005460ff16155b610a4c5760405162461bcd60e51b8152600401610a439061434d565b60405180910390fd5b600054610100900460ff16158015610a6e576000805461ffff19166101011790555b600061277c55610a7e8484611f77565b610a86611ffe565b610a8f82612070565b8015610aa1576000805461ff00191690555b50505050565b6000610ab28261212b565b610b135760405162461bcd60e51b815260206004820152602c60248201527f4552433732313a20617070726f76656420717565727920666f72206e6f6e657860448201526b34b9ba32b73a103a37b5b2b760a11b6064820152608401610a43565b50600090815261103b60205260409020546001600160a01b031690565b6000610b3b826112c6565b9050806001600160a01b0316836001600160a01b03161415610ba95760405162461bcd60e51b815260206004820152602160248201527f4552433732313a20617070726f76616c20746f2063757272656e74206f776e656044820152603960f91b6064820152608401610a43565b336001600160a01b0382161480610bc55750610bc581336108d9565b610c375760405162461bcd60e51b815260206004820152603860248201527f4552433732313a20617070726f76652063616c6c6572206973206e6f74206f7760448201527f6e6572206e6f7220617070726f76656420666f7220616c6c00000000000000006064820152608401610a43565b610c418383612149565b505050565b606060008061145260009054906101000a90046001600160a01b03166001600160a01b0316635fbbc0d26040518163ffffffff1660e01b815260040160606040518083038186803b158015610c9a57600080fd5b505afa158015610cae573d6000803e3d6000fd5b505050506040513d601f19601f82011682018060405250810190610cd2919061439b565b60408051600280825260608201909252929550909350600092508160200160208202803683370190505090508281600081518110610d1257610d126143c9565b6020026020010181815250508181600181518110610d3257610d326143c9565b6020908102919091010152949350505050565b610d4e8161212b565b610d8f5760405162461bcd60e51b8152602060048201526012602482015271151bdad95b9251081b5d5cdd08195e1a5cdd60721b6044820152606401610a43565b33610d99826112c6565b6001600160a01b031614610e025760405162461bcd60e51b815260206004820152602a60248201527f5472616e736665722063616e20626520646f6e65206f6e6c79206279207468656044820152691027232a1037bbb732b960b11b6064820152608401610a43565b610e0d338383611181565b604080513381526001600160a01b03841660208201529081018290527fec61728879a33aa50b55e1f4789dcfc1c680f30a24d7b8694a9f874e242a97b49060600160405180910390a15050565b60003411610eaa5760405162461bcd60e51b815260206004820152601d60248201527f416d6f756e74206d7573742062652067726561746572207468616e20300000006044820152606401610a43565b6040516001600160a01b038216903480156108fc02916000818181858888f19350505050158015610edf573d6000803e3d6000fd5b50604080516001600160a01b038316815233602082015234918101919091527f8760fef165fbacea4256b4fe8e74018a3a597d74281e4142ace323cab292d897906060015b60405180910390a150565b610f3a600033611960565b610f9d5760405162461bcd60e51b815260206004820152602e60248201527f41646d696e526f6c653a2063616c6c657220646f6573206e6f7420686176652060448201526d7468652041646d696e20726f6c6560901b6064820152608401610a43565b610fa6846121b8565b610faf83612271565b610fb8826122b5565b610aa18161277e55565b610fcc33826122c9565b610fe85760405162461bcd60e51b8152600401610a43906143df565b610c418383836123b4565b61100b600080516020614a2783398151915282611098565b6040516001600160a01b03821681527f93e15a6550ecfc8e6edd98132363907de724eed6c5d89ce96917f4d4ff4da1f390602001610f24565b606061183c805461098b90614312565b61105f600082611d86565b6040516001600160a01b03821681527f631ff1c4e1a02c54b480a34b810e03bcee61fe38efcb243930a7f820914923e290602001610f24565b600082815261083560205260409020600101546110b58133612557565b610c4183836125bb565b6110ca600082611098565b6040516001600160a01b03821681527f1c4e23de8d72c94b22992bd4d7b6786b215ba876af214ff63e6a0ca38fc97af490602001610f24565b6001600160a01b03811633146111735760405162461bcd60e51b815260206004820152602f60248201527f416363657373436f6e74726f6c3a2063616e206f6e6c792072656e6f756e636560448201526e103937b632b9903337b91039b2b63360891b6064820152608401610a43565b61117d8282612642565b5050565b610c4183838360405180602001604052806000815250611a6e565b6000818152611069602052604090205481906001600160a01b031633146112115760405162461bcd60e51b8152602060048201526024808201527f4e465437323143726561746f723a2043616c6c6572206973206e6f742063726560448201526330ba37b960e11b6064820152608401610a43565b3361121b826112c6565b6001600160a01b0316146112845760405162461bcd60e51b815260206004820152602a60248201527f4e465437323143726561746f723a2043616c6c657220646f6573206e6f74206f6044820152691ddb881d1a194813919560b21b6064820152608401610a43565b61117d826126aa565b60006112a7600080516020614a0783398151915233611960565b905090565b60006112a7600080516020614a2783398151915233611960565b600081815261103960205260408120546001600160a01b0316806109755760405162461bcd60e51b815260206004820152602960248201527f4552433732313a206f776e657220717565727920666f72206e6f6e657869737460448201526832b73a103a37b5b2b760b91b6064820152608401610a43565b60006001600160a01b0382166113a95760405162461bcd60e51b815260206004820152602a60248201527f4552433732313a2062616c616e636520717565727920666f7220746865207a65604482015269726f206164647265737360b01b6064820152608401610a43565b506001600160a01b0316600090815261103a602052604090205490565b6113de600080516020614a2783398151915233611960565b6113fa5760405162461bcd60e51b8152600401610a4390614430565b6298967f81116114665760405162461bcd60e51b815260206004820152603160248201527f4d696e743a20437573746f6d20546f6b656e4944206d757374206265206869676044820152700686572207468616e20313030303030303607c1b6064820152608401610a43565b61146f8161212b565b156114bc5760405162461bcd60e51b815260206004820152601e60248201527f4d696e743a20546f6b656e496420616c7265616479206578697374656e7400006044820152606401610a43565b6114cb61239380546001019055565b6114d582826126b3565b6114df81836126cd565b6114e98184612743565b826040516114f79190614480565b604051809103902081836001600160a01b03167fe2406cfd356cfbe4e42d452bde96d27f48c423e5f02b5d78695893308399519d866040516115399190613ca7565b60405180910390a4505050565b838383838080601f016020809104026020016040519081016040528093929190818152602001838380828437600092019190915250611588925061128d915050565b6115e85760405162461bcd60e51b815260206004820152602b60248201527f4163636f756e744d6967726174696f6e3a2043616c6c6572206973206e6f742060448201526a30b71037b832b930ba37b960a91b6064820152608401610a43565b816001600160a01b0316836001600160a01b031614156116675760405162461bcd60e51b815260206004820152603460248201527f4163636f756e744d6967726174696f6e3a2043616e6e6f74206d696772617465604482015273081d1bc81d1a19481cd85b59481858d8dbdd5b9d60621b6064820152608401610a43565b60006116996116758461287b565b604051602001611685919061449c565b604051602081830303815290604052612a2b565b90506116a6848284612a66565b6117185760405162461bcd60e51b815260206004820152603d60248201527f4163636f756e744d6967726174696f6e3a205369676e6174757265206d75737460448201527f2062652066726f6d20746865206f726967696e616c206163636f756e740000006064820152608401610a43565b60005b898110156117d35760008b8b83818110611737576117376143c9565b9050602002013590506117498161212b565b801561176e5750896001600160a01b0316611763826112c6565b6001600160a01b0316145b156117c05761177e8a8a836123b4565b886001600160a01b03168a6001600160a01b0316827fde55f075ebd46256cd6bd57d8fb53e0406f687db372e90ae8c18e72be46f5c1660405160405180910390a45b50806117cb8161450c565b91505061171b565b5060005b8b81101561190f5760008d8d838181106117f3576117f36143c9565b602090810292909201356000818152611069909352604090922054919250506001600160a01b0316156118fc57600081815261106960205260409020546001600160a01b038b81169116146118b05760405162461bcd60e51b815260206004820152603960248201527f4e465437323143726561746f723a20546f6b656e20776173206e6f742063726560448201527f617465642062792074686520676976656e2061646472657373000000000000006064820152608401610a43565b6118ba818a6126cd565b886001600160a01b03168a6001600160a01b0316827f58120fb31972ff9fad76eb87119474a58fc38d6b9b842bb3067a4a329eaa64f660405160405180910390a45b50806119078161450c565b9150506117d7565b50505050505050505050505050565b6001600160a01b038216600090815261183b60205260408082209051611945908490614480565b9081526040519081900360200190205460ff16905092915050565b6000918252610835602090815260408084206001600160a01b0393909316845291905290205460ff1690565b6060611038805461098b90614312565b6001600160a01b0382163314156119f55760405162461bcd60e51b815260206004820152601960248201527f4552433732313a20617070726f766520746f2063616c6c6572000000000000006044820152606401610a43565b33600081815261103c602090815260408083206001600160a01b03871680855290835292819020805460ff191686151590811790915590519081529192917f17307eab39ab6107e8899845ad3d59bd9653f200f220920489ca2b5937696c31910160405180910390a35050565b60006112a78133611960565b611a7833836122c9565b611a945760405162461bcd60e51b8152600401610a43906143df565b610aa184848484612b31565b6060611aab8261212b565b611ac75760405162461bcd60e51b8152600401610a4390614527565b604080516002808252606082018352600092602083019080368337019050506000549091506201000090046001600160a01b031681600081518110611b0e57611b0e6143c9565b60200260200101906001600160a01b031690816001600160a01b031681525050611b3783611ee0565b81600181518110611b4a57611b4a6143c9565b6001600160a01b039092166020928302919091019091015292915050565b611b70613b65565b611b78613b65565b611b818361212b565b611b9d5760405162461bcd60e51b8152600401610a4390614527565b6000546201000090046001600160a01b03168252611bba83611ee0565b6001600160a01b0390811660208401526114525460408051632fdde06960e11b8152905160009384931691635fbbc0d2916004808301926060929190829003018186803b158015611c0a57600080fd5b505afa158015611c1e573d6000803e3d6000fd5b505050506040513d601f19601f82011682018060405250810190611c42919061439b565b908552602085015250929491935090915050565b606061277c54600014611ca257600061277c5483611c749190614572565b905061277e54811115611c925761277e54611c8f908261458a565b90505b611c9b81612b64565b9392505050565b61277d8054611cb090614312565b80601f0160208091040260200160405190810160405280929190818152602001828054611cdc90614312565b8015611d295780601f10611cfe57610100808354040283529160200191611d29565b820191906000526020600020905b815481529060010190602001808311611d0c57829003601f168201915b50505050509050919050565b611d4d600080516020614a2783398151915282611d86565b6040516001600160a01b03821681527f44f4322f8daa225d5f4877ad0f7d3dfba248a774396f3ca99405ed40a044fe8190602001610f24565b60008281526108356020526040902060010154611da38133612557565b610c418383612642565b6000611dc7600080516020614a2783398151915233611960565b611de35760405162461bcd60e51b8152600401610a4390614430565b61277c5415611e345760405162461bcd60e51b815260206004820152601760248201527f4d696e743a204d6178206c696d697420726561636865640000000000000000006044820152606401610a43565b611e3d82612b6f565b905061277e54611e4d6123925490565b1115611e6057611e5b612c46565b61277c555b919050565b600081815261183d60205260409020805460609190611cb090614312565b611e9b600080516020614a0783398151915282611098565b6040516001600160a01b03821681527f5b6a420b639feabfb011a07742a6ae14ef72f35d1a330ed65f42216c95bc6c2e90602001610f24565b60006112a76123935490565b600081815261106a60205260409020546001600160a01b031680611e605750600090815261106960205260409020546001600160a01b031690565b611f33600080516020614a0783398151915282611d86565b6040516001600160a01b03821681527fe672f512db5cb061756ab0b7654938a4293bbc42bc91f74bd0ade5f540a35c8090602001610f24565b600061097582612c65565b600054610100900460ff1680611f90575060005460ff16155b611fac5760405162461bcd60e51b8152600401610a439061434d565b600054610100900460ff16158015611fce576000805461ffff19166101011790555b611fd6612c70565b611fde612c70565b611fe88383612cdb565b8015610c41576000805461ff0019169055505050565b600054610100900460ff1680612017575060005460ff16155b6120335760405162461bcd60e51b8152600401610a439061434d565b600054610100900460ff16158015612055576000805461ffff19166101011790555b600161239255801561206d576000805461ff00191690555b50565b600054610100900460ff1680612089575060005460ff16155b6120a55760405162461bcd60e51b8152600401610a439061434d565b600054610100900460ff161580156120c7576000805461ffff19166101011790555b6120cf612d72565b6120da600083612de1565b6040516001600160a01b03831681527f75ef91bb959d6f13ca6b596857395ef84913b9db7adbc407d3bf97af614722d29060200160405180910390a1801561117d576000805461ff00191690555050565b600090815261103960205260409020546001600160a01b0316151590565b600081815261103b6020526040902080546001600160a01b0319166001600160a01b038416908117909155819061217f826112c6565b6001600160a01b03167f8c5be1e5ebec7d5bd14f71427d1e84f3dd0314c0f7b2291e5b200ac8c7c3b92560405160405180910390a45050565b6001600160a01b0381163b6122265760405162461bcd60e51b815260206004820152602e60248201527f4e46543732314d61726b65743a204d61726b657420616464726573732069732060448201526d1b9bdd08184818dbdb9d1c9858dd60921b6064820152608401610a43565b61145280546001600160a01b0319166001600160a01b0383169081179091556040517f07e7630580d612127ff5f3bd98a1ef992bb87b379fef3b98f2e2ca1ad8e27dd890600090a250565b80516122859061183c906020840190613b83565b507f6741b2fc379fad678116fe3d4d4b9a1a184ab53ba36b86ad0fa66340b1ab41ad81604051610f249190613ca7565b805161117d9061277d906020840190613b83565b60006122d48261212b565b6123355760405162461bcd60e51b815260206004820152602c60248201527f4552433732313a206f70657261746f7220717565727920666f72206e6f6e657860448201526b34b9ba32b73a103a37b5b2b760a11b6064820152608401610a43565b6000612340836112c6565b9050806001600160a01b0316846001600160a01b0316148061237b5750836001600160a01b031661237084610aa7565b6001600160a01b0316145b806123ac57506001600160a01b03808216600090815261103c602090815260408083209388168352929052205460ff165b949350505050565b826001600160a01b03166123c7826112c6565b6001600160a01b03161461242f5760405162461bcd60e51b815260206004820152602960248201527f4552433732313a207472616e73666572206f6620746f6b656e2074686174206960448201526839903737ba1037bbb760b91b6064820152608401610a43565b6001600160a01b0382166124915760405162461bcd60e51b8152602060048201526024808201527f4552433732313a207472616e7366657220746f20746865207a65726f206164646044820152637265737360e01b6064820152608401610a43565b61249c600082612149565b6001600160a01b038316600090815261103a602052604081208054600192906124c690849061458a565b90915550506001600160a01b038216600090815261103a602052604081208054600192906124f5908490614572565b90915550506000818152611039602052604080822080546001600160a01b0319166001600160a01b0386811691821790925591518493918716917fddf252ad1be2c89b69c2b068fc378daa952ba7f163c4a11628f55a4df523b3ef91a4505050565b6125618282611960565b61117d57612579816001600160a01b03166014612deb565b612584836020612deb565b6040516020016125959291906145a1565b60408051601f198184030181529082905262461bcd60e51b8252610a4391600401613ca7565b6125c58282611960565b61117d576000828152610835602090815260408083206001600160a01b03851684529091529020805460ff191660011790556125fe3390565b6001600160a01b0316816001600160a01b0316837f2f8788117e7eff1d82e926ec794901d17c78024a50270940304540a733656f0d60405160405180910390a45050565b61264c8282611960565b1561117d576000828152610835602090815260408083206001600160a01b0385168085529252808320805460ff1916905551339285917ff6391f5c32d9c69d2a47ea670b442974b53935d1edc7fd64eb21e047a839171b9190a45050565b61206d81612f87565b61117d828260405180602001604052806000815250612f90565b6000828152611069602052604080822054905184926001600160a01b038086169316917febd529444fe852bfccb40075e8f8cae7612ea20edebdf5143c72718ccb157f759190a46000918252611069602052604090912080546001600160a01b0319166001600160a01b03909216919091179055565b602e8151101561279f5760405162461bcd60e51b815260206004820152602160248201527f4e46543732314d657461646174613a20496e76616c69642049504653207061746044820152600d60fb1b6064820152608401610a43565b33600090815261183b60205260409081902090516127be908390614480565b9081526040519081900360200190205460ff161561282d5760405162461bcd60e51b815260206004820152602660248201527f4e46543732314d657461646174613a204e46542077617320616c7265616479206044820152651b5a5b9d195960d21b6064820152608401610a43565b33600090815261183b602052604090819020905160019190612850908490614480565b908152604051908190036020019020805491151560ff1990921691909117905561117d828233612fc3565b60408051602a808252606082810190935260009190602082018180368337019050509050600360fc1b816000815181106128b7576128b76143c9565b60200101906001600160f81b031916908160001a905350600f60fb1b816001815181106128e6576128e66143c9565b60200101906001600160f81b031916908160001a90535060005b6014811015612a2457600061291682601361458a565b612921906008614616565b61292c906002614719565b61293f906001600160a01b03871661473b565b60f81b9050600060108260f81c612956919061474f565b60f81b905060008160f81c601061296d9190614771565b8360f81c61297b9190614792565b60f81b905061298982613076565b85612995866002614616565b6129a0906002614572565b815181106129b0576129b06143c9565b60200101906001600160f81b031916908160001a9053506129d081613076565b856129dc866002614616565b6129e7906003614572565b815181106129f7576129f76143c9565b60200101906001600160f81b031916908160001a9053505050508080612a1c9061450c565b915050612900565b5092915050565b6000612a3782516130ac565b82604051602001612a499291906147b5565b604051602081830303815290604052805190602001209050919050565b6000833b15612b0b57604051630b135d3f60e11b81526001600160a01b03851690631626ba7e90612a9d9086908690600401614810565b60206040518083038186803b158015612ab557600080fd5b505afa925050508015612ae5575060408051601f3d908101601f19168201909252612ae291810190614829565b60015b612af157506000611c9b565b6001600160e01b031916630b135d3f60e11b149050611c9b565b836001600160a01b0316612b1f84846131aa565b6001600160a01b031614949350505050565b612b3c8484846123b4565b612b48848484846131ce565b610aa15760405162461bcd60e51b8152600401610a4390614846565b6060610975826132db565b6000612b89600080516020614a2783398151915233611960565b612ba55760405162461bcd60e51b8152600401610a4390614430565b612bb461239380546001019055565b6123928054906000612bc58361450c565b919050559050612bd533826126b3565b612bdf81336126cd565b612be98183612743565b81604051612bf79190614480565b604051809103902081336001600160a01b03167fe2406cfd356cfbe4e42d452bde96d27f48c423e5f02b5d78695893308399519d85604051612c399190613ca7565b60405180910390a4919050565b600061277e5443612c579190614898565b905080612c62575060015b90565b600061097582613446565b600054610100900460ff1680612c89575060005460ff16155b612ca55760405162461bcd60e51b8152600401610a439061434d565b600054610100900460ff16158015612cc7576000805461ffff19166101011790555b801561206d576000805461ff001916905550565b600054610100900460ff1680612cf4575060005460ff16155b612d105760405162461bcd60e51b8152600401610a439061434d565b600054610100900460ff16158015612d32576000805461ffff19166101011790555b8251612d4690611037906020860190613b83565b508151612d5b90611038906020850190613b83565b508015610c41576000805461ff0019169055505050565b600054610100900460ff1680612d8b575060005460ff16155b612da75760405162461bcd60e51b8152600401610a439061434d565b600054610100900460ff16158015612dc9576000805461ffff19166101011790555b612dd1612c70565b612dd9612c70565b612cc7612c70565b61117d82826125bb565b60606000612dfa836002614616565b612e05906002614572565b67ffffffffffffffff811115612e1d57612e1d613cba565b6040519080825280601f01601f191660200182016040528015612e47576020820181803683370190505b509050600360fc1b81600081518110612e6257612e626143c9565b60200101906001600160f81b031916908160001a905350600f60fb1b81600181518110612e9157612e916143c9565b60200101906001600160f81b031916908160001a9053506000612eb5846002614616565b612ec0906001614572565b90505b6001811115612f38576f181899199a1a9b1b9c1cb0b131b232b360811b85600f1660108110612ef457612ef46143c9565b1a60f81b828281518110612f0a57612f0a6143c9565b60200101906001600160f81b031916908160001a90535060049490941c93612f31816148ac565b9050612ec3565b508315611c9b5760405162461bcd60e51b815260206004820181905260248201527f537472696e67733a20686578206c656e67746820696e73756666696369656e746044820152606401610a43565b61206d81613451565b612f9a838361349e565b612fa760008484846131ce565b610c415760405162461bcd60e51b8152600401610a4390614846565b612fcc8361212b565b6130245760405162461bcd60e51b8152602060048201526024808201527f4d61737465723a2055524920736574206f66206e6f6e6578697374656e74207460448201526337b5b2b760e11b6064820152608401610a43565b600083815261183d60209081526040909120835161304492850190613b83565b50600092835261183e602052604090922080546001600160a01b0319166001600160a01b039093169290921790915550565b6000600a60f883901c101561309d5761309460f883901c60306148c3565b60f81b92915050565b61309460f883901c60576148c3565b6060816130d05750506040805180820190915260018152600360fc1b602082015290565b8160005b81156130fa57806130e48161450c565b91506130f39050600a8361473b565b91506130d4565b60008167ffffffffffffffff81111561311557613115613cba565b6040519080825280601f01601f19166020018201604052801561313f576020820181803683370190505b5090505b84156123ac5761315460018361458a565b9150613161600a86614898565b61316c906030614572565b60f81b818381518110613181576131816143c9565b60200101906001600160f81b031916908160001a9053506131a3600a8661473b565b9450613143565b60008060006131b985856135d3565b915091506131c681613643565b509392505050565b60006001600160a01b0384163b156132d057604051630a85bd0160e11b81526001600160a01b0385169063150b7a02906132129033908990889088906004016148e8565b602060405180830381600087803b15801561322c57600080fd5b505af192505050801561325c575060408051601f3d908101601f1916820190925261325991810190614829565b60015b6132b6573d80801561328a576040519150601f19603f3d011682016040523d82523d6000602084013e61328f565b606091505b5080516132ae5760405162461bcd60e51b8152600401610a4390614846565b805181602001fd5b6001600160e01b031916630a85bd0160e11b1490506123ac565b506001949350505050565b60606132e68261212b565b6133425760405162461bcd60e51b815260206004820152602760248201527f4d61737465723a2055524920717565727920666f72206e6f6e6578697374656e6044820152663a103a37b5b2b760c91b6064820152608401610a43565b600082815261183d60205260408120805461335c90614312565b80601f016020809104026020016040519081016040528092919081815260200182805461338890614312565b80156133d55780601f106133aa576101008083540402835291602001916133d5565b820191906000526020600020905b8154815290600101906020018083116133b857829003601f168201915b5050505050905060006133e66137fe565b90508051600014156133f9575092915050565b81511561342b578082604051602001613413929190614925565b60405160208183030381529060405292505050919050565b8061343585613808565b604051602001613413929190614925565b600061097582613906565b33600090815261183b6020908152604080832084845261183d909252918290209151909161347e91614954565b908152604051908190036020019020805460ff1916905561206d81613911565b6001600160a01b0382166134f45760405162461bcd60e51b815260206004820181905260248201527f4552433732313a206d696e7420746f20746865207a65726f20616464726573736044820152606401610a43565b6134fd8161212b565b1561354a5760405162461bcd60e51b815260206004820152601c60248201527f4552433732313a20746f6b656e20616c7265616479206d696e746564000000006044820152606401610a43565b6001600160a01b038216600090815261103a60205260408120805460019290613574908490614572565b90915550506000818152611039602052604080822080546001600160a01b0319166001600160a01b03861690811790915590518392907fddf252ad1be2c89b69c2b068fc378daa952ba7f163c4a11628f55a4df523b3ef908290a45050565b60008082516041141561360a5760208301516040840151606085015160001a6135fe87828585613937565b9450945050505061363c565b8251604014156136345760208301516040840151613629868383613a24565b93509350505061363c565b506000905060025b9250929050565b6000816004811115613657576136576149f0565b14156136605750565b6001816004811115613674576136746149f0565b14156136c25760405162461bcd60e51b815260206004820152601860248201527f45434453413a20696e76616c6964207369676e617475726500000000000000006044820152606401610a43565b60028160048111156136d6576136d66149f0565b14156137245760405162461bcd60e51b815260206004820152601f60248201527f45434453413a20696e76616c6964207369676e6174757265206c656e677468006044820152606401610a43565b6003816004811115613738576137386149f0565b14156137915760405162461bcd60e51b815260206004820152602260248201527f45434453413a20696e76616c6964207369676e6174757265202773272076616c604482015261756560f01b6064820152608401610a43565b60048160048111156137a5576137a56149f0565b141561206d5760405162461bcd60e51b815260206004820152602260248201527f45434453413a20696e76616c6964207369676e6174757265202776272076616c604482015261756560f01b6064820152608401610a43565b60606112a7611044565b60608161382c5750506040805180820190915260018152600360fc1b602082015290565b8160005b811561385657806138408161450c565b915061384f9050600a8361473b565b9150613830565b60008167ffffffffffffffff81111561387157613871613cba565b6040519080825280601f01601f19166020018201604052801561389b576020820181803683370190505b5090505b84156123ac576138b060018361458a565b91506138bd600a86614898565b6138c8906030614572565b60f81b8183815181106138dd576138dd6143c9565b60200101906001600160f81b031916908160001a9053506138ff600a8661473b565b945061389f565b600061097582613a53565b60008181526110696020526040902080546001600160a01b031916905561206d81613a93565b6000807f7fffffffffffffffffffffffffffffff5d576e7357a4501ddfe92f46681b20a083111561396e5750600090506003613a1b565b8460ff16601b1415801561398657508460ff16601c14155b156139975750600090506004613a1b565b6040805160008082526020820180845289905260ff881692820192909252606081018690526080810185905260019060a0016020604051602081039080840390855afa1580156139eb573d6000803e3d6000fd5b5050604051601f1901519150506001600160a01b038116613a1457600060019250925050613a1b565b9150600090505b94509492505050565b6000806001600160ff1b03831660ff84901c601b01613a4587828885613937565b935093505050935093915050565b60006001600160e01b031982166380ac58cd60e01b1480613a8457506001600160e01b03198216635b5e139f60e01b145b80610975575061097582613b30565b6000613a9e826112c6565b9050613aab600083612149565b6001600160a01b038116600090815261103a60205260408120805460019290613ad590849061458a565b90915550506000828152611039602052604080822080546001600160a01b0319169055518391906001600160a01b038416907fddf252ad1be2c89b69c2b068fc378daa952ba7f163c4a11628f55a4df523b3ef908390a45050565b60006001600160e01b03198216637965db0b60e01b148061097557506301ffc9a760e01b6001600160e01b0319831614610975565b60405180604001604052806002906020820280368337509192915050565b828054613b8f90614312565b90600052602060002090601f016020900481019282613bb15760008555613bf7565b82601f10613bca57805160ff1916838001178555613bf7565b82800160010185558215613bf7579182015b82811115613bf7578251825591602001919060010190613bdc565b50613c03929150613c07565b5090565b5b80821115613c035760008155600101613c08565b6001600160e01b03198116811461206d57600080fd5b600060208284031215613c4457600080fd5b8135611c9b81613c1c565b60005b83811015613c6a578181015183820152602001613c52565b83811115610aa15750506000910152565b60008151808452613c93816020860160208601613c4f565b601f01601f19169290920160200192915050565b602081526000611c9b6020830184613c7b565b634e487b7160e01b600052604160045260246000fd5b600067ffffffffffffffff80841115613ceb57613ceb613cba565b604051601f8501601f19908116603f01168101908282118183101715613d1357613d13613cba565b81604052809350858152868686011115613d2c57600080fd5b858560208301376000602087830101525050509392505050565b600082601f830112613d5757600080fd5b611c9b83833560208501613cd0565b6001600160a01b038116811461206d57600080fd5b600080600060608486031215613d9057600080fd5b833567ffffffffffffffff80821115613da857600080fd5b613db487838801613d46565b94506020860135915080821115613dca57600080fd5b50613dd786828701613d46565b9250506040840135613de881613d66565b809150509250925092565b600060208284031215613e0557600080fd5b5035919050565b60008060408385031215613e1f57600080fd5b8235613e2a81613d66565b946020939093013593505050565b6020808252825182820181905260009190848201906040850190845b81811015613e7057835183529284019291840191600101613e54565b50909695505050505050565b600060208284031215613e8e57600080fd5b8135611c9b81613d66565b60008060008060808587031215613eaf57600080fd5b8435613eba81613d66565b9350602085013567ffffffffffffffff80821115613ed757600080fd5b613ee388838901613d46565b94506040870135915080821115613ef957600080fd5b50613f0687828801613d46565b949793965093946060013593505050565b600080600060608486031215613f2c57600080fd5b8335613f3781613d66565b92506020840135613f4781613d66565b929592945050506040919091013590565b60008060408385031215613f6b57600080fd5b823591506020830135613f7d81613d66565b809150509250929050565b600080600060608486031215613f9d57600080fd5b833567ffffffffffffffff811115613fb457600080fd5b613fc086828701613d46565b9350506020840135613f4781613d66565b60008083601f840112613fe357600080fd5b50813567ffffffffffffffff811115613ffb57600080fd5b6020830191508360208260051b850101111561363c57600080fd5b60008060008060008060008060a0898b03121561403257600080fd5b883567ffffffffffffffff8082111561404a57600080fd5b6140568c838d01613fd1565b909a50985060208b013591508082111561406f57600080fd5b61407b8c838d01613fd1565b909850965060408b0135915061409082613d66565b90945060608a0135906140a282613d66565b90935060808a013590808211156140b857600080fd5b818b0191508b601f8301126140cc57600080fd5b8135818111156140db57600080fd5b8c60208285010111156140ed57600080fd5b6020830194508093505050509295985092959890939650565b6000806040838503121561411957600080fd5b823561412481613d66565b9150602083013567ffffffffffffffff81111561414057600080fd5b61414c85828601613d46565b9150509250929050565b6000806040838503121561416957600080fd5b823561417481613d66565b915060208301358015158114613f7d57600080fd5b6000806000806080858703121561419f57600080fd5b84356141aa81613d66565b935060208501356141ba81613d66565b925060408501359150606085013567ffffffffffffffff8111156141dd57600080fd5b8501601f810187136141ee57600080fd5b6141fd87823560208401613cd0565b91505092959194509250565b6020808252825182820181905260009190848201906040850190845b81811015613e705783516001600160a01b031683529284019291840191600101614225565b60808101818460005b600281101561427b5781516001600160a01b0316835260209283019290910190600101614253565b505050604082018360005b60028110156142a5578151835260209283019290910190600101614286565b5050509392505050565b6000602082840312156142c157600080fd5b813567ffffffffffffffff8111156142d857600080fd5b6123ac84828501613d46565b600080604083850312156142f757600080fd5b823561430281613d66565b91506020830135613f7d81613d66565b600181811c9082168061432657607f821691505b6020821081141561434757634e487b7160e01b600052602260045260246000fd5b50919050565b6020808252602e908201527f496e697469616c697a61626c653a20636f6e747261637420697320616c72656160408201526d191e481a5b9a5d1a585b1a5e995960921b606082015260800190565b6000806000606084860312156143b057600080fd5b8351925060208401519150604084015190509250925092565b634e487b7160e01b600052603260045260246000fd5b60208082526031908201527f4552433732313a207472616e736665722063616c6c6572206973206e6f74206f6040820152701ddb995c881b9bdc88185c1c1c9bdd9959607a1b606082015260800190565b60208082526030908201527f4d696e746572526f6c653a2063616c6c657220646f6573206e6f74206861766560408201526f20746865204d696e74657220726f6c6560801b606082015260800190565b60008251614492818460208701613c4f565b9190910192915050565b7f4920617574686f72697a65204d696e74656420746f206d696772617465206d7981526b01030b1b1b7bab73a103a37960a51b6020820152600082516144e981602c850160208701613c4f565b91909101602c0192915050565b634e487b7160e01b600052601160045260246000fd5b6000600019821415614520576145206144f6565b5060010190565b6020808252602b908201527f4552433732314d657461646174613a20517565727920666f72206e6f6e65786960408201526a39ba32b73a103a37b5b2b760a91b606082015260800190565b60008219821115614585576145856144f6565b500190565b60008282101561459c5761459c6144f6565b500390565b7f416363657373436f6e74726f6c3a206163636f756e74200000000000000000008152600083516145d9816017850160208801613c4f565b7001034b99036b4b9b9b4b733903937b6329607d1b601791840191820152835161460a816028840160208801613c4f565b01602801949350505050565b6000816000190483118215151615614630576146306144f6565b500290565b600181815b80851115614670578160001904821115614656576146566144f6565b8085161561466357918102915b93841c939080029061463a565b509250929050565b60008261468757506001610975565b8161469457506000610975565b81600181146146aa57600281146146b4576146d0565b6001915050610975565b60ff8411156146c5576146c56144f6565b50506001821b610975565b5060208310610133831016604e8410600b84101617156146f3575081810a610975565b6146fd8383614635565b8060001904821115614711576147116144f6565b029392505050565b6000611c9b8383614678565b634e487b7160e01b600052601260045260246000fd5b60008261474a5761474a614725565b500490565b600060ff83168061476257614762614725565b8060ff84160491505092915050565b600060ff821660ff84168160ff0481118215151615614711576147116144f6565b600060ff821660ff8416808210156147ac576147ac6144f6565b90039392505050565b7f19457468657265756d205369676e6564204d6573736167653a0a0000000000008152600083516147ed81601a850160208801613c4f565b83519083019061480481601a840160208801613c4f565b01601a01949350505050565b8281526040602082015260006123ac6040830184613c7b565b60006020828403121561483b57600080fd5b8151611c9b81613c1c565b60208082526032908201527f4552433732313a207472616e7366657220746f206e6f6e20455243373231526560408201527131b2b4bb32b91034b6b83632b6b2b73a32b960711b606082015260800190565b6000826148a7576148a7614725565b500690565b6000816148bb576148bb6144f6565b506000190190565b600060ff821660ff84168060ff038211156148e0576148e06144f6565b019392505050565b6001600160a01b038581168252841660208201526040810183905260806060820181905260009061491b90830184613c7b565b9695505050505050565b60008351614937818460208801613c4f565b83519083019061494b818360208801613c4f565b01949350505050565b600080835481600182811c91508083168061497057607f831692505b602080841082141561499057634e487b7160e01b86526022600452602486fd5b8180156149a457600181146149b5576149e2565b60ff198616895284890196506149e2565b60008a81526020902060005b868110156149da5781548b8201529085019083016149c1565b505084890196505b509498975050505050505050565b634e487b7160e01b600052602160045260246000fdfe97667070c54ef182b0f5858b034beac1b6f3089aa2d3188bb1e8929f4fa9b9299f2df0fed2c77648de5860a4cc508cd0818c85b8b8a1ab4ceeef8d981c8956a6a2646970667358221220c823ae63a1a32c8ffaadeebd3ca8dd7a1b7f842465f0e9d7dfd6a485500fae6564736f6c63430008090033",
  "immutableReferences": {},
  "source": "/*\r\n::::    :::::  :::::::::  ::::    :::  :::::::::  :::::::::  :::::::::  \r\n+:+:+: :+:+:+     :+:     :+:+:   :+:     :+:     :+:        :+:    :+: \r\n+:+ +:+:+ +:+     +:+     :+:+:+  +:+     +:+     +:+        +:+    +:+ \r\n+#+  +:+  +#+     +#+     +#+ +:+ +#+     +#+     +#++:++#   +#+    +:+ \r\n+#+       +#+     +#+     +#+  +#+#+#     +#+     +#+        +#+    +#+ \r\n#+#       #+#     #+#     #+#   #+#+#     #+#     #+#        #+#    #+# \r\n###       ###  #########  ###    ####     ###     #########  #########  \r\n*/\r\n// SPDX-License-Identifier: Non-Licensed\r\npragma solidity ^0.8.0;\r\n\r\nimport \"@openzeppelin/contracts-upgradeable/token/ERC721/ERC721Upgradeable.sol\";\r\n\r\nimport \"./mixins/roles/AdminRole.sol\";\r\nimport \"./mixins/roles/OperatorRole.sol\";\r\nimport \"./mixins/NFT721Core.sol\";\r\nimport \"./mixins/NFT721Creator.sol\";\r\nimport \"./mixins/NFT721Metadata.sol\";\r\nimport \"./mixins/NFT721Mint.sol\";\r\nimport \"./mixins/NFT721Market.sol\";\r\nimport \"./mixins/AccountMigration.sol\";\r\n\r\n/**\r\n * @title Minted NFTs implemented using the ERC-721 standard.\r\n * @dev This top level file holds no data directly to ease future upgrades.\r\n */\r\n \r\ncontract NftoonRegeleCollection is\r\n  AdminRole,\r\n  OperatorRole,\r\n  AccountMigration,\r\n  ERC721Upgradeable,\r\n  NFT721Creator,\r\n  NFT721Market,\r\n  NFT721Metadata,\r\n  NFT721Core,\r\n  NFT721Mint  \r\n{\r\n  using Counters for Counters.Counter;\r\n\r\n  uint256 private startingIndex;\r\n  string _tempURI;\r\n  uint256 _maxTokens;\r\n\r\n\r\n  /**\r\n   * @notice Called once to configure the contract after the initial deployment.\r\n   * @dev This farms the initialize call out to inherited contracts as needed.\r\n   */\r\n  function initialize(\r\n    string memory name,\r\n    string memory symbol,\r\n    address admin\r\n  ) public initializer {\r\n    startingIndex = 0;\r\n    ERC721Upgradeable.__ERC721_init(name, symbol);\r\n    NFT721Mint._initializeNFT721Mint();\r\n    AdminRole._initializeAdminRole(admin);\r\n  }\r\n\r\n  function _baseURI() internal view virtual override(ERC721Upgradeable, NFT721Metadata, NFT721Mint) returns (string memory) {\r\n    return GetBaseURI();\r\n  }\r\n\r\n  /**\r\n   * @notice Allows a Minted admin to update NFT config variables.\r\n   * @dev This must be called right after the initial call to `initialize`.\r\n   */\r\n   function adminUpdateConfig(\r\n    address _nftMarket,\r\n    string memory baseURI,\r\n    string memory tempURI,\r\n    uint256 maxTokens\r\n  ) public onlyAdmin {\r\n    _updateNFTMarket(_nftMarket);\r\n    _updateBaseURI(baseURI);\r\n    _updateTempURI(tempURI);\r\n    _updateMaxTokens(maxTokens);\r\n  }\r\n\r\n  /**\r\n   * @dev This is a no-op, just an explicit override to address compile errors due to inheritance.\r\n   */\r\n  function _burn(uint256 tokenId) internal override(ERC721Upgradeable, NFT721Creator, NFT721Metadata, NFT721Mint) {\r\n    super._burn(tokenId);\r\n  }\r\n\r\n   function tokenURI(uint256 tokenId) public view virtual override(ERC721Upgradeable, NFT721Metadata, NFT721Mint) returns (string memory) {\r\n     if(startingIndex != 0){\r\n       uint256 id = tokenId + startingIndex;\r\n       if( id > _maxTokens){\r\n         id = id - _maxTokens;\r\n       }\r\n       return super.tokenURI(id);\r\n     }\r\n     return _tempURI;\r\n   }\r\n\r\n   //mint\r\n   function mint(string memory tokenIPFSPath) public virtual override onlyMinter returns (uint256 tokenId) {\r\n      require(startingIndex == 0, \"Mint: Max limit reached\");\r\n\r\n      tokenId = super.mint(tokenIPFSPath);\r\n\r\n      if(getNextTokenId() > _maxTokens){\r\n        startingIndex = _calculateStartingIndex();\r\n      }\r\n\r\n      return tokenId;\r\n  }\r\n\r\n  function _calculateStartingIndex() internal view returns (uint256 index){\r\n    index = block.number % _maxTokens;\r\n    if (index == 0){\r\n      index = 1;\r\n    }\r\n    return index;\r\n  }\r\n\r\n  function _updateTempURI(string memory tempURI) internal {\r\n    _tempURI = tempURI;\r\n  }\r\n\r\n  function _updateMaxTokens(uint256 maxTokens) internal {\r\n    _maxTokens = maxTokens;\r\n  }\r\n  \r\n  function supportsInterface(bytes4 interfaceId) public view virtual override( ERC721Upgradeable, NFT721Mint, NFT721Market, NFT721Metadata, AccessControlUpgradeable, NFT721Creator) returns (bool) {\r\n    return super.supportsInterface(interfaceId);\r\n  }\r\n}",
  "sourcePath": "C:\\alex\\nft\\openZeppelin\\mintedBasic\\contracts\\minted\\NftoonRegeleCollection.sol",
  "compiler": {
    "name": "solc",
    "version": "0.8.9+commit.e5eed63a.Emscripten.clang"
  },
  "schemaVersion": "3.4.3",
  "updatedAt": "2022-03-13T18:25:04.473Z",
  "devdoc": {
    "details": "This top level file holds no data directly to ease future upgrades.",
    "kind": "dev",
    "methods": {
      "adminAccountMigration(uint256[],uint256[],address,address,bytes)": {
        "details": "This will gracefully skip any NFTs that have been burned or transferred.",
        "params": {
          "signature": "Message `I authorize Minted to migrate my account to ${newAccount.address.toLowerCase()}` signed by the original account."
        }
      },
      "adminUpdateConfig(address,string,string,uint256)": {
        "details": "This must be called right after the initial call to `initialize`."
      },
      "approve(address,uint256)": {
        "details": "See {IERC721-approve}."
      },
      "balanceOf(address)": {
        "details": "See {IERC721-balanceOf}."
      },
      "getApproved(uint256)": {
        "details": "See {IERC721-getApproved}."
      },
      "getRoleAdmin(bytes32)": {
        "details": "Returns the admin role that controls `role`. See {grantRole} and {revokeRole}. To change a role's admin, use {_setRoleAdmin}."
      },
      "getTokenCreatorPaymentAddress(uint256)": {
        "details": "If an alternate address was not defined, the creator is returned instead."
      },
      "grantRole(bytes32,address)": {
        "details": "Grants `role` to `account`. If `account` had not been already granted `role`, emits a {RoleGranted} event. Requirements: - the caller must have ``role``'s admin role."
      },
      "hasRole(bytes32,address)": {
        "details": "Returns `true` if `account` has been granted `role`."
      },
      "initialize(string,string,address)": {
        "details": "This farms the initialize call out to inherited contracts as needed."
      },
      "isApprovedForAll(address,address)": {
        "details": "See {IERC721-isApprovedForAll}."
      },
      "name()": {
        "details": "See {IERC721Metadata-name}."
      },
      "ownerOf(uint256)": {
        "details": "See {IERC721-ownerOf}."
      },
      "renounceRole(bytes32,address)": {
        "details": "Revokes `role` from the calling account. Roles are often managed via {grantRole} and {revokeRole}: this function's purpose is to provide a mechanism for accounts to lose their privileges if they are compromised (such as when a trusted device is misplaced). If the calling account had been granted `role`, emits a {RoleRevoked} event. Requirements: - the caller must be `account`."
      },
      "revokeRole(bytes32,address)": {
        "details": "Revokes `role` from `account`. If `account` had been granted `role`, emits a {RoleRevoked} event. Requirements: - the caller must have ``role``'s admin role."
      },
      "safeTransferFrom(address,address,uint256)": {
        "details": "See {IERC721-safeTransferFrom}."
      },
      "safeTransferFrom(address,address,uint256,bytes)": {
        "details": "See {IERC721-safeTransferFrom}."
      },
      "setApprovalForAll(address,bool)": {
        "details": "See {IERC721-setApprovalForAll}."
      },
      "symbol()": {
        "details": "See {IERC721Metadata-symbol}."
      },
      "transferFrom(address,address,uint256)": {
        "details": "See {IERC721-transferFrom}."
      }
    },
    "title": "Minted NFTs implemented using the ERC-721 standard.",
    "version": 1
  },
  "userdoc": {
    "kind": "user",
    "methods": {
      "adminAccountMigration(uint256[],uint256[],address,address,bytes)": {
        "notice": "Allows an NFT owner or creator and Minted to work together in order to update the creator to a new account and/or transfer NFTs to that account."
      },
      "adminUpdateConfig(address,string,string,uint256)": {
        "notice": "Allows a Minted admin to update NFT config variables."
      },
      "burn(uint256)": {
        "notice": "Allows the creator to burn if they currently own the NFT."
      },
      "getFeeBps(uint256)": {
        "notice": "Returns an array of fees in basis points. The expected recipients is communicated with `getFeeRecipients`."
      },
      "getFeeRecipients(uint256)": {
        "notice": "Returns an array of recipient addresses to which fees should be sent. The expected fee amount is communicated with `getFeeBps`."
      },
      "getHasCreatorMintedIPFSHash(address,string)": {
        "notice": "Checks if the creator has already minted a given NFT."
      },
      "getMintedTreasury()": {
        "notice": "Returns the address of the Minted treasury."
      },
      "getNFTMarket()": {
        "notice": "Returns the address of the Minted NFTMarket contract."
      },
      "getNextTokenId()": {
        "notice": "Gets the tokenId of the next NFT minted."
      },
      "getRoyalties(uint256)": {
        "notice": "Get fee recipients and fees in a single call. The data is the same as when calling getFeeRecipients and getFeeBps separately."
      },
      "getTokenCreatorPaymentAddress(uint256)": {
        "notice": "Returns the payment address for a given tokenId."
      },
      "getTokenIPFSPath(uint256)": {
        "notice": "Returns the IPFSPath to the metadata JSON file for a given NFT."
      },
      "initialize(string,string,address)": {
        "notice": "Called once to configure the contract after the initial deployment."
      },
      "mint(string)": {
        "notice": "Allows a creator to mint an NFT."
      },
      "tokenCreator(uint256)": {
        "notice": "Returns the creator's address for a given tokenId."
      }
    },
    "version": 1
  }
}