{
  "contractName": "NftoonRegeleCollection",
  "abi": [
    {
      "anonymous": false,
      "inputs": [
        {
          "indexed": false,
          "internalType": "address",
          "name": "admin",
          "type": "address"
        }
      ],
      "name": "AdminGranted",
      "type": "event"
    },
    {
      "anonymous": false,
      "inputs": [
        {
          "indexed": false,
          "internalType": "address",
          "name": "admin",
          "type": "address"
        }
      ],
      "name": "AdminInitiated",
      "type": "event"
    },
    {
      "anonymous": false,
      "inputs": [
        {
          "indexed": false,
          "internalType": "address",
          "name": "admin",
          "type": "address"
        }
      ],
      "name": "AdminRevoked",
      "type": "event"
    },
    {
      "anonymous": false,
      "inputs": [
        {
          "indexed": false,
          "internalType": "address",
          "name": "toAddress",
          "type": "address"
        },
        {
          "indexed": false,
          "internalType": "address",
          "name": "fromAddress",
          "type": "address"
        },
        {
          "indexed": false,
          "internalType": "uint256",
          "name": "amount",
          "type": "uint256"
        }
      ],
      "name": "AmountTransferred",
      "type": "event"
    },
    {
      "anonymous": false,
      "inputs": [
        {
          "indexed": true,
          "internalType": "address",
          "name": "owner",
          "type": "address"
        },
        {
          "indexed": true,
          "internalType": "address",
          "name": "approved",
          "type": "address"
        },
        {
          "indexed": true,
          "internalType": "uint256",
          "name": "tokenId",
          "type": "uint256"
        }
      ],
      "name": "Approval",
      "type": "event"
    },
    {
      "anonymous": false,
      "inputs": [
        {
          "indexed": true,
          "internalType": "address",
          "name": "owner",
          "type": "address"
        },
        {
          "indexed": true,
          "internalType": "address",
          "name": "operator",
          "type": "address"
        },
        {
          "indexed": false,
          "internalType": "bool",
          "name": "approved",
          "type": "bool"
        }
      ],
      "name": "ApprovalForAll",
      "type": "event"
    },
    {
      "anonymous": false,
      "inputs": [
        {
          "indexed": false,
          "internalType": "string",
          "name": "baseURI",
          "type": "string"
        }
      ],
      "name": "BaseURIUpdated",
      "type": "event"
    },
    {
      "anonymous": false,
      "inputs": [
        {
          "indexed": true,
          "internalType": "address",
          "name": "creator",
          "type": "address"
        },
        {
          "indexed": true,
          "internalType": "uint256",
          "name": "tokenId",
          "type": "uint256"
        },
        {
          "indexed": true,
          "internalType": "string",
          "name": "indexedTokenIPFSPath",
          "type": "string"
        },
        {
          "indexed": false,
          "internalType": "string",
          "name": "tokenIPFSPath",
          "type": "string"
        }
      ],
      "name": "Minted",
      "type": "event"
    },
    {
      "anonymous": false,
      "inputs": [
        {
          "indexed": true,
          "internalType": "address",
          "name": "creator",
          "type": "address"
        },
        {
          "indexed": true,
          "internalType": "uint256",
          "name": "tokenId",
          "type": "uint256"
        }
      ],
      "name": "Minted",
      "type": "event"
    },
    {
      "anonymous": false,
      "inputs": [
        {
          "indexed": false,
          "internalType": "address",
          "name": "admin",
          "type": "address"
        }
      ],
      "name": "MinterGranted",
      "type": "event"
    },
    {
      "anonymous": false,
      "inputs": [
        {
          "indexed": false,
          "internalType": "address",
          "name": "admin",
          "type": "address"
        }
      ],
      "name": "MinterRevoked",
      "type": "event"
    },
    {
      "anonymous": false,
      "inputs": [
        {
          "indexed": true,
          "internalType": "uint256",
          "name": "tokenId",
          "type": "uint256"
        },
        {
          "indexed": true,
          "internalType": "address",
          "name": "originalAddress",
          "type": "address"
        },
        {
          "indexed": true,
          "internalType": "address",
          "name": "newAddress",
          "type": "address"
        }
      ],
      "name": "NFTCreatorMigrated",
      "type": "event"
    },
    {
      "anonymous": false,
      "inputs": [
        {
          "indexed": true,
          "internalType": "address",
          "name": "nftMarket",
          "type": "address"
        }
      ],
      "name": "NFTMarketUpdated",
      "type": "event"
    },
    {
      "anonymous": false,
      "inputs": [
        {
          "indexed": false,
          "internalType": "string",
          "name": "name",
          "type": "string"
        },
        {
          "indexed": false,
          "internalType": "string",
          "name": "symbol",
          "type": "string"
        },
        {
          "indexed": false,
          "internalType": "string",
          "name": "baseURI",
          "type": "string"
        }
      ],
      "name": "NFTMetadataUpdated",
      "type": "event"
    },
    {
      "anonymous": false,
      "inputs": [
        {
          "indexed": true,
          "internalType": "uint256",
          "name": "tokenId",
          "type": "uint256"
        },
        {
          "indexed": true,
          "internalType": "address",
          "name": "originalAddress",
          "type": "address"
        },
        {
          "indexed": true,
          "internalType": "address",
          "name": "newAddress",
          "type": "address"
        }
      ],
      "name": "NFTOwnerMigrated",
      "type": "event"
    },
    {
      "anonymous": false,
      "inputs": [
        {
          "indexed": false,
          "internalType": "address",
          "name": "admin",
          "type": "address"
        }
      ],
      "name": "OperatoRevoked",
      "type": "event"
    },
    {
      "anonymous": false,
      "inputs": [
        {
          "indexed": false,
          "internalType": "address",
          "name": "admin",
          "type": "address"
        }
      ],
      "name": "OperatorGranted",
      "type": "event"
    },
    {
      "anonymous": false,
      "inputs": [
        {
          "indexed": true,
          "internalType": "uint256",
          "name": "tokenId",
          "type": "uint256"
        },
        {
          "indexed": true,
          "internalType": "address",
          "name": "originalAddress",
          "type": "address"
        },
        {
          "indexed": true,
          "internalType": "address",
          "name": "newAddress",
          "type": "address"
        },
        {
          "indexed": false,
          "internalType": "address",
          "name": "originalPaymentAddress",
          "type": "address"
        },
        {
          "indexed": false,
          "internalType": "address",
          "name": "newPaymentAddress",
          "type": "address"
        }
      ],
      "name": "PaymentAddressMigrated",
      "type": "event"
    },
    {
      "anonymous": false,
      "inputs": [
        {
          "indexed": true,
          "internalType": "bytes32",
          "name": "role",
          "type": "bytes32"
        },
        {
          "indexed": true,
          "internalType": "bytes32",
          "name": "previousAdminRole",
          "type": "bytes32"
        },
        {
          "indexed": true,
          "internalType": "bytes32",
          "name": "newAdminRole",
          "type": "bytes32"
        }
      ],
      "name": "RoleAdminChanged",
      "type": "event"
    },
    {
      "anonymous": false,
      "inputs": [
        {
          "indexed": true,
          "internalType": "bytes32",
          "name": "role",
          "type": "bytes32"
        },
        {
          "indexed": true,
          "internalType": "address",
          "name": "account",
          "type": "address"
        },
        {
          "indexed": true,
          "internalType": "address",
          "name": "sender",
          "type": "address"
        }
      ],
      "name": "RoleGranted",
      "type": "event"
    },
    {
      "anonymous": false,
      "inputs": [
        {
          "indexed": true,
          "internalType": "bytes32",
          "name": "role",
          "type": "bytes32"
        },
        {
          "indexed": true,
          "internalType": "address",
          "name": "account",
          "type": "address"
        },
        {
          "indexed": true,
          "internalType": "address",
          "name": "sender",
          "type": "address"
        }
      ],
      "name": "RoleRevoked",
      "type": "event"
    },
    {
      "anonymous": false,
      "inputs": [
        {
          "indexed": true,
          "internalType": "address",
          "name": "fromPaymentAddress",
          "type": "address"
        },
        {
          "indexed": true,
          "internalType": "address",
          "name": "toPaymentAddress",
          "type": "address"
        },
        {
          "indexed": true,
          "internalType": "uint256",
          "name": "tokenId",
          "type": "uint256"
        }
      ],
      "name": "TokenCreatorPaymentAddressSet",
      "type": "event"
    },
    {
      "anonymous": false,
      "inputs": [
        {
          "indexed": true,
          "internalType": "address",
          "name": "fromCreator",
          "type": "address"
        },
        {
          "indexed": true,
          "internalType": "address",
          "name": "toCreator",
          "type": "address"
        },
        {
          "indexed": true,
          "internalType": "uint256",
          "name": "tokenId",
          "type": "uint256"
        }
      ],
      "name": "TokenCreatorUpdated",
      "type": "event"
    },
    {
      "anonymous": false,
      "inputs": [
        {
          "indexed": true,
          "internalType": "uint256",
          "name": "tokenId",
          "type": "uint256"
        },
        {
          "indexed": true,
          "internalType": "string",
          "name": "indexedTokenIPFSPath",
          "type": "string"
        },
        {
          "indexed": false,
          "internalType": "string",
          "name": "tokenIPFSPath",
          "type": "string"
        }
      ],
      "name": "TokenIPFSPathUpdated",
      "type": "event"
    },
    {
      "anonymous": false,
      "inputs": [
        {
          "indexed": false,
          "internalType": "address",
          "name": "from",
          "type": "address"
        },
        {
          "indexed": false,
          "internalType": "address",
          "name": "to",
          "type": "address"
        },
        {
          "indexed": false,
          "internalType": "uint256",
          "name": "tokenId",
          "type": "uint256"
        }
      ],
      "name": "TokenTransfered",
      "type": "event"
    },
    {
      "anonymous": false,
      "inputs": [
        {
          "indexed": true,
          "internalType": "address",
          "name": "from",
          "type": "address"
        },
        {
          "indexed": true,
          "internalType": "address",
          "name": "to",
          "type": "address"
        },
        {
          "indexed": true,
          "internalType": "uint256",
          "name": "tokenId",
          "type": "uint256"
        }
      ],
      "name": "Transfer",
      "type": "event"
    },
    {
      "inputs": [],
      "name": "DEFAULT_ADMIN_ROLE",
      "outputs": [
        {
          "internalType": "bytes32",
          "name": "",
          "type": "bytes32"
        }
      ],
      "stateMutability": "view",
      "type": "function"
    },
    {
      "inputs": [],
      "name": "GetBaseURI",
      "outputs": [
        {
          "internalType": "string",
          "name": "",
          "type": "string"
        }
      ],
      "stateMutability": "view",
      "type": "function"
    },
    {
      "inputs": [],
      "name": "MINTER_ROLE",
      "outputs": [
        {
          "internalType": "bytes32",
          "name": "",
          "type": "bytes32"
        }
      ],
      "stateMutability": "view",
      "type": "function"
    },
    {
      "inputs": [],
      "name": "OPERATOR_ROLE",
      "outputs": [
        {
          "internalType": "bytes32",
          "name": "",
          "type": "bytes32"
        }
      ],
      "stateMutability": "view",
      "type": "function"
    },
    {
      "inputs": [
        {
          "internalType": "uint256[]",
          "name": "createdTokenIds",
          "type": "uint256[]"
        },
        {
          "internalType": "uint256[]",
          "name": "ownedTokenIds",
          "type": "uint256[]"
        },
        {
          "internalType": "address",
          "name": "originalAddress",
          "type": "address"
        },
        {
          "internalType": "address payable",
          "name": "newAddress",
          "type": "address"
        },
        {
          "internalType": "bytes",
          "name": "signature",
          "type": "bytes"
        }
      ],
      "name": "adminAccountMigration",
      "outputs": [],
      "stateMutability": "nonpayable",
      "type": "function"
    },
    {
      "inputs": [
        {
          "internalType": "address",
          "name": "to",
          "type": "address"
        },
        {
          "internalType": "uint256",
          "name": "tokenId",
          "type": "uint256"
        }
      ],
      "name": "approve",
      "outputs": [],
      "stateMutability": "nonpayable",
      "type": "function"
    },
    {
      "inputs": [
        {
          "internalType": "address",
          "name": "owner",
          "type": "address"
        }
      ],
      "name": "balanceOf",
      "outputs": [
        {
          "internalType": "uint256",
          "name": "",
          "type": "uint256"
        }
      ],
      "stateMutability": "view",
      "type": "function"
    },
    {
      "inputs": [
        {
          "internalType": "uint256",
          "name": "tokenId",
          "type": "uint256"
        }
      ],
      "name": "burn",
      "outputs": [],
      "stateMutability": "nonpayable",
      "type": "function"
    },
    {
      "inputs": [
        {
          "internalType": "uint256",
          "name": "tokenId",
          "type": "uint256"
        }
      ],
      "name": "getApproved",
      "outputs": [
        {
          "internalType": "address",
          "name": "",
          "type": "address"
        }
      ],
      "stateMutability": "view",
      "type": "function"
    },
    {
      "inputs": [
        {
          "internalType": "uint256",
          "name": "",
          "type": "uint256"
        }
      ],
      "name": "getFeeBps",
      "outputs": [
        {
          "internalType": "uint256[]",
          "name": "",
          "type": "uint256[]"
        }
      ],
      "stateMutability": "view",
      "type": "function"
    },
    {
      "inputs": [
        {
          "internalType": "uint256",
          "name": "id",
          "type": "uint256"
        }
      ],
      "name": "getFeeRecipients",
      "outputs": [
        {
          "internalType": "address payable[]",
          "name": "",
          "type": "address[]"
        }
      ],
      "stateMutability": "view",
      "type": "function"
    },
    {
      "inputs": [
        {
          "internalType": "address",
          "name": "creator",
          "type": "address"
        },
        {
          "internalType": "string",
          "name": "tokenIPFSPath",
          "type": "string"
        }
      ],
      "name": "getHasCreatorMintedIPFSHash",
      "outputs": [
        {
          "internalType": "bool",
          "name": "",
          "type": "bool"
        }
      ],
      "stateMutability": "view",
      "type": "function"
    },
    {
      "inputs": [],
      "name": "getMintedTreasury",
      "outputs": [
        {
          "internalType": "address payable",
          "name": "",
          "type": "address"
        }
      ],
      "stateMutability": "view",
      "type": "function"
    },
    {
      "inputs": [],
      "name": "getNFTMarket",
      "outputs": [
        {
          "internalType": "address",
          "name": "",
          "type": "address"
        }
      ],
      "stateMutability": "view",
      "type": "function"
    },
    {
      "inputs": [],
      "name": "getNextTokenId",
      "outputs": [
        {
          "internalType": "uint256",
          "name": "",
          "type": "uint256"
        }
      ],
      "stateMutability": "view",
      "type": "function"
    },
    {
      "inputs": [
        {
          "internalType": "bytes32",
          "name": "role",
          "type": "bytes32"
        }
      ],
      "name": "getRoleAdmin",
      "outputs": [
        {
          "internalType": "bytes32",
          "name": "",
          "type": "bytes32"
        }
      ],
      "stateMutability": "view",
      "type": "function"
    },
    {
      "inputs": [
        {
          "internalType": "uint256",
          "name": "tokenId",
          "type": "uint256"
        }
      ],
      "name": "getRoyalties",
      "outputs": [
        {
          "internalType": "address payable[2]",
          "name": "recipients",
          "type": "address[2]"
        },
        {
          "internalType": "uint256[2]",
          "name": "feesInBasisPoints",
          "type": "uint256[2]"
        }
      ],
      "stateMutability": "view",
      "type": "function"
    },
    {
      "inputs": [
        {
          "internalType": "uint256",
          "name": "tokenId",
          "type": "uint256"
        }
      ],
      "name": "getTokenCreatorPaymentAddress",
      "outputs": [
        {
          "internalType": "address payable",
          "name": "tokenCreatorPaymentAddress",
          "type": "address"
        }
      ],
      "stateMutability": "view",
      "type": "function"
    },
    {
      "inputs": [
        {
          "internalType": "uint256",
          "name": "tokenId",
          "type": "uint256"
        }
      ],
      "name": "getTokenIPFSPath",
      "outputs": [
        {
          "internalType": "string",
          "name": "",
          "type": "string"
        }
      ],
      "stateMutability": "view",
      "type": "function"
    },
    {
      "inputs": [
        {
          "internalType": "address",
          "name": "account",
          "type": "address"
        }
      ],
      "name": "grantAdmin",
      "outputs": [],
      "stateMutability": "nonpayable",
      "type": "function"
    },
    {
      "inputs": [
        {
          "internalType": "address",
          "name": "account",
          "type": "address"
        }
      ],
      "name": "grantMinter",
      "outputs": [],
      "stateMutability": "nonpayable",
      "type": "function"
    },
    {
      "inputs": [
        {
          "internalType": "address",
          "name": "account",
          "type": "address"
        }
      ],
      "name": "grantOperator",
      "outputs": [],
      "stateMutability": "nonpayable",
      "type": "function"
    },
    {
      "inputs": [
        {
          "internalType": "bytes32",
          "name": "role",
          "type": "bytes32"
        },
        {
          "internalType": "address",
          "name": "account",
          "type": "address"
        }
      ],
      "name": "grantRole",
      "outputs": [],
      "stateMutability": "nonpayable",
      "type": "function"
    },
    {
      "inputs": [
        {
          "internalType": "bytes32",
          "name": "role",
          "type": "bytes32"
        },
        {
          "internalType": "address",
          "name": "account",
          "type": "address"
        }
      ],
      "name": "hasRole",
      "outputs": [
        {
          "internalType": "bool",
          "name": "",
          "type": "bool"
        }
      ],
      "stateMutability": "view",
      "type": "function"
    },
    {
      "inputs": [],
      "name": "isAdmin",
      "outputs": [
        {
          "internalType": "bool",
          "name": "",
          "type": "bool"
        }
      ],
      "stateMutability": "view",
      "type": "function"
    },
    {
      "inputs": [
        {
          "internalType": "address",
          "name": "owner",
          "type": "address"
        },
        {
          "internalType": "address",
          "name": "operator",
          "type": "address"
        }
      ],
      "name": "isApprovedForAll",
      "outputs": [
        {
          "internalType": "bool",
          "name": "",
          "type": "bool"
        }
      ],
      "stateMutability": "view",
      "type": "function"
    },
    {
      "inputs": [],
      "name": "isMinter",
      "outputs": [
        {
          "internalType": "bool",
          "name": "",
          "type": "bool"
        }
      ],
      "stateMutability": "view",
      "type": "function"
    },
    {
      "inputs": [],
      "name": "isOperator",
      "outputs": [
        {
          "internalType": "bool",
          "name": "",
          "type": "bool"
        }
      ],
      "stateMutability": "view",
      "type": "function"
    },
    {
      "inputs": [],
      "name": "name",
      "outputs": [
        {
          "internalType": "string",
          "name": "",
          "type": "string"
        }
      ],
      "stateMutability": "view",
      "type": "function"
    },
    {
      "inputs": [
        {
          "internalType": "uint256",
          "name": "tokenId",
          "type": "uint256"
        }
      ],
      "name": "ownerOf",
      "outputs": [
        {
          "internalType": "address",
          "name": "",
          "type": "address"
        }
      ],
      "stateMutability": "view",
      "type": "function"
    },
    {
      "inputs": [
        {
          "internalType": "bytes32",
          "name": "role",
          "type": "bytes32"
        },
        {
          "internalType": "address",
          "name": "account",
          "type": "address"
        }
      ],
      "name": "renounceRole",
      "outputs": [],
      "stateMutability": "nonpayable",
      "type": "function"
    },
    {
      "inputs": [
        {
          "internalType": "address",
          "name": "account",
          "type": "address"
        }
      ],
      "name": "revokeAdmin",
      "outputs": [],
      "stateMutability": "nonpayable",
      "type": "function"
    },
    {
      "inputs": [
        {
          "internalType": "address",
          "name": "account",
          "type": "address"
        }
      ],
      "name": "revokeMinter",
      "outputs": [],
      "stateMutability": "nonpayable",
      "type": "function"
    },
    {
      "inputs": [
        {
          "internalType": "address",
          "name": "account",
          "type": "address"
        }
      ],
      "name": "revokeOperator",
      "outputs": [],
      "stateMutability": "nonpayable",
      "type": "function"
    },
    {
      "inputs": [
        {
          "internalType": "bytes32",
          "name": "role",
          "type": "bytes32"
        },
        {
          "internalType": "address",
          "name": "account",
          "type": "address"
        }
      ],
      "name": "revokeRole",
      "outputs": [],
      "stateMutability": "nonpayable",
      "type": "function"
    },
    {
      "inputs": [
        {
          "internalType": "address",
          "name": "from",
          "type": "address"
        },
        {
          "internalType": "address",
          "name": "to",
          "type": "address"
        },
        {
          "internalType": "uint256",
          "name": "tokenId",
          "type": "uint256"
        }
      ],
      "name": "safeTransferFrom",
      "outputs": [],
      "stateMutability": "nonpayable",
      "type": "function"
    },
    {
      "inputs": [
        {
          "internalType": "address",
          "name": "from",
          "type": "address"
        },
        {
          "internalType": "address",
          "name": "to",
          "type": "address"
        },
        {
          "internalType": "uint256",
          "name": "tokenId",
          "type": "uint256"
        },
        {
          "internalType": "bytes",
          "name": "_data",
          "type": "bytes"
        }
      ],
      "name": "safeTransferFrom",
      "outputs": [],
      "stateMutability": "nonpayable",
      "type": "function"
    },
    {
      "inputs": [
        {
          "internalType": "address",
          "name": "operator",
          "type": "address"
        },
        {
          "internalType": "bool",
          "name": "approved",
          "type": "bool"
        }
      ],
      "name": "setApprovalForAll",
      "outputs": [],
      "stateMutability": "nonpayable",
      "type": "function"
    },
    {
      "inputs": [],
      "name": "symbol",
      "outputs": [
        {
          "internalType": "string",
          "name": "",
          "type": "string"
        }
      ],
      "stateMutability": "view",
      "type": "function"
    },
    {
      "inputs": [
        {
          "internalType": "uint256",
          "name": "tokenId",
          "type": "uint256"
        }
      ],
      "name": "tokenCreator",
      "outputs": [
        {
          "internalType": "address payable",
          "name": "",
          "type": "address"
        }
      ],
      "stateMutability": "view",
      "type": "function"
    },
    {
      "inputs": [],
      "name": "totalOfMintedTokens",
      "outputs": [
        {
          "internalType": "uint256",
          "name": "",
          "type": "uint256"
        }
      ],
      "stateMutability": "view",
      "type": "function"
    },
    {
      "inputs": [
        {
          "internalType": "address",
          "name": "from",
          "type": "address"
        },
        {
          "internalType": "address",
          "name": "to",
          "type": "address"
        },
        {
          "internalType": "uint256",
          "name": "tokenId",
          "type": "uint256"
        }
      ],
      "name": "transferFrom",
      "outputs": [],
      "stateMutability": "nonpayable",
      "type": "function"
    },
    {
      "inputs": [
        {
          "internalType": "address",
          "name": "receiverUserAddress",
          "type": "address"
        }
      ],
      "name": "transferToWallet",
      "outputs": [],
      "stateMutability": "payable",
      "type": "function"
    },
    {
      "inputs": [
        {
          "internalType": "address",
          "name": "newAddress",
          "type": "address"
        },
        {
          "internalType": "uint256",
          "name": "tokenId",
          "type": "uint256"
        }
      ],
      "name": "transferToken",
      "outputs": [],
      "stateMutability": "nonpayable",
      "type": "function"
    },
    {
      "inputs": [
        {
          "internalType": "string",
          "name": "name",
          "type": "string"
        },
        {
          "internalType": "string",
          "name": "symbol",
          "type": "string"
        },
        {
          "internalType": "address",
          "name": "admin",
          "type": "address"
        }
      ],
      "name": "initialize",
      "outputs": [],
      "stateMutability": "nonpayable",
      "type": "function"
    },
    {
      "inputs": [
        {
          "internalType": "address",
          "name": "_nftMarket",
          "type": "address"
        },
        {
          "internalType": "string",
          "name": "baseURI",
          "type": "string"
        },
        {
          "internalType": "string",
          "name": "tempURI",
          "type": "string"
        },
        {
          "internalType": "uint256",
          "name": "maxTokens",
          "type": "uint256"
        }
      ],
      "name": "adminUpdateConfig",
      "outputs": [],
      "stateMutability": "nonpayable",
      "type": "function"
    },
    {
      "inputs": [
        {
          "internalType": "uint256",
          "name": "tokenId",
          "type": "uint256"
        }
      ],
      "name": "tokenURI",
      "outputs": [
        {
          "internalType": "string",
          "name": "",
          "type": "string"
        }
      ],
      "stateMutability": "view",
      "type": "function"
    },
    {
      "inputs": [],
      "name": "mint",
      "outputs": [
        {
          "internalType": "uint256",
          "name": "tokenId",
          "type": "uint256"
        }
      ],
      "stateMutability": "nonpayable",
      "type": "function"
    },
    {
      "inputs": [
        {
          "internalType": "string",
          "name": "tokenIPFSPath",
          "type": "string"
        },
        {
          "internalType": "address",
          "name": "to",
          "type": "address"
        },
        {
          "internalType": "uint256",
          "name": "tokenId",
          "type": "uint256"
        }
      ],
      "name": "mint",
      "outputs": [],
      "stateMutability": "nonpayable",
      "type": "function"
    },
    {
      "inputs": [
        {
          "internalType": "string",
          "name": "tokenIPFSPath",
          "type": "string"
        }
      ],
      "name": "mint",
      "outputs": [
        {
          "internalType": "uint256",
          "name": "tokenId",
          "type": "uint256"
        }
      ],
      "stateMutability": "nonpayable",
      "type": "function"
    },
    {
      "inputs": [
        {
          "internalType": "bytes4",
          "name": "interfaceId",
          "type": "bytes4"
        }
      ],
      "name": "supportsInterface",
      "outputs": [
        {
          "internalType": "bool",
          "name": "",
          "type": "bool"
        }
      ],
      "stateMutability": "view",
      "type": "function"
    }
  ],
  "bytecode": "0x608060405234801561001057600080fd5b50614b4c806100206000396000f3fe6080604052600436106102e45760003560e01c806370a0823111610190578063c87b56dd116100dc578063dac28cce11610095578063e985e9c51161006f578063e985e9c5146108ee578063ec5f752e14610938578063f5b541a614610958578063fad8b32a1461097a57600080fd5b8063dac28cce14610899578063e348da13146108b9578063e7ec78e3146108d957600080fd5b8063c87b56dd146107e1578063caa0f92a14610801578063cfbd488514610817578063d539139314610837578063d547741f14610859578063d85d3d271461087957600080fd5b806395d89b4111610149578063b6db75a011610123578063b6db75a014610751578063b88d4fde14610766578063b9c4d9fb14610786578063bb3bafd6146107b357600080fd5b806395d89b4114610707578063a217fddf1461071c578063a22cb4651461073157600080fd5b806370a0823114610643578063753af00e146106635780637e8816b91461068757806384f4e5c0146106a757806389ca8b71146106c757806391d14854146106e757600080fd5b8063261707fa1161024f5780633fd7ca411161020857806342966c68116101e257806342966c68146105d95780634456eda2146105f957806350e59eb31461060e5780636352211e1461062357600080fd5b80633fd7ca411461056357806340c1a0641461058257806342842e0e146105b957600080fd5b8063261707fa146104ae57806329b79a67146104ce5780632d345670146104e35780632f2ff15d1461050357806335bb3e161461052357806336568abe1461054357600080fd5b80631072cbea116102a15780631072cbea146103e75780631249c58b14610407578063180afb071461042a5780631f31c0ae1461043d57806323b872dd1461045d578063248a9ca31461047d57600080fd5b806301ffc9a7146102e957806306fdde031461031e578063077f224a14610340578063081812fc14610362578063095ea7b31461039a5780630ebd4c7f146103ba575b600080fd5b3480156102f557600080fd5b50610309610304366004613d02565b61099a565b60405190151581526020015b60405180910390f35b34801561032a57600080fd5b506103336109ab565b6040516103159190613d77565b34801561034c57600080fd5b5061036061035b366004613e4b565b610a3e565b005b34801561036e57600080fd5b5061038261037d366004613ec3565b610ad7565b6040516001600160a01b039091168152602001610315565b3480156103a657600080fd5b506103606103b5366004613edc565b610b60565b3480156103c657600080fd5b506103da6103d5366004613ec3565b610c76565b6040516103159190613f08565b3480156103f357600080fd5b50610360610402366004613edc565b610d75565b34801561041357600080fd5b5061041c610e8a565b604051908152602001610315565b610360610438366004613f4c565b610f2a565b34801561044957600080fd5b50610360610458366004613f69565b610fff565b34801561046957600080fd5b50610360610478366004613fe7565b611092565b34801561048957600080fd5b5061041c610498366004613ec3565b6000908152610835602052604090206001015490565b3480156104ba57600080fd5b506103606104c9366004613f4c565b6110c3565b3480156104da57600080fd5b50610333611114565b3480156104ef57600080fd5b506103606104fe366004613f4c565b611124565b34801561050f57600080fd5b5061036061051e366004614028565b611168565b34801561052f57600080fd5b5061036061053e366004613f4c565b61118f565b34801561054f57600080fd5b5061036061055e366004614028565b6111d3565b34801561056f57600080fd5b50611452546001600160a01b0316610382565b34801561058e57600080fd5b5061038261059d366004613ec3565b600090815261106960205260409020546001600160a01b031690565b3480156105c557600080fd5b506103606105d4366004613fe7565b611251565b3480156105e557600080fd5b506103606105f4366004613ec3565b61126c565b34801561060557600080fd5b5061030961135d565b34801561061a57600080fd5b5061030961137c565b34801561062f57600080fd5b5061038261063e366004613ec3565b611396565b34801561064f57600080fd5b5061041c61065e366004613f4c565b61140e565b34801561066f57600080fd5b506000546201000090046001600160a01b0316610382565b34801561069357600080fd5b506103606106a2366004614058565b611496565b3480156106b357600080fd5b506103606106c23660046140e6565b611616565b3480156106d357600080fd5b506103096106e23660046141d6565b6119ee565b3480156106f357600080fd5b50610309610702366004614028565b611a30565b34801561071357600080fd5b50610333611a5c565b34801561072857600080fd5b5061041c600081565b34801561073d57600080fd5b5061036061074c366004614226565b611a6c565b34801561075d57600080fd5b50610309611b32565b34801561077257600080fd5b50610360610781366004614259565b611b3e565b34801561079257600080fd5b506107a66107a1366004613ec3565b611b70565b60405161031591906142d9565b3480156107bf57600080fd5b506107d36107ce366004613ec3565b611c38565b60405161031592919061431a565b3480156107ed57600080fd5b506103336107fc366004613ec3565b611d26565b34801561080d57600080fd5b506123925461041c565b34801561082357600080fd5b50610360610832366004613f4c565b611e05565b34801561084357600080fd5b5061041c600080516020614af783398151915281565b34801561086557600080fd5b50610360610874366004614028565b611e56565b34801561088557600080fd5b5061041c61089436600461437f565b611e7d565b3480156108a557600080fd5b506103336108b4366004613ec3565b611f35565b3480156108c557600080fd5b506103606108d4366004613f4c565b611f53565b3480156108e557600080fd5b5061041c611fa4565b3480156108fa57600080fd5b506103096109093660046143b4565b6001600160a01b03918216600090815261103c6020908152604080832093909416825291909152205460ff1690565b34801561094457600080fd5b50610382610953366004613ec3565b611fb0565b34801561096457600080fd5b5061041c600080516020614ad783398151915281565b34801561098657600080fd5b50610360610995366004613f4c565b611feb565b60006109a58261203c565b92915050565b606061103780546109bb906143e2565b80601f01602080910402602001604051908101604052809291908181526020018280546109e7906143e2565b8015610a345780601f10610a0957610100808354040283529160200191610a34565b820191906000526020600020905b815481529060010190602001808311610a1757829003601f168201915b5050505050905090565b600054610100900460ff1680610a57575060005460ff16155b610a7c5760405162461bcd60e51b8152600401610a739061441d565b60405180910390fd5b600054610100900460ff16158015610a9e576000805461ffff19166101011790555b600061277c55610aae8484612047565b610ab66120ce565b610abf82612140565b8015610ad1576000805461ff00191690555b50505050565b6000610ae2826121fb565b610b435760405162461bcd60e51b815260206004820152602c60248201527f4552433732313a20617070726f76656420717565727920666f72206e6f6e657860448201526b34b9ba32b73a103a37b5b2b760a11b6064820152608401610a73565b50600090815261103b60205260409020546001600160a01b031690565b6000610b6b82611396565b9050806001600160a01b0316836001600160a01b03161415610bd95760405162461bcd60e51b815260206004820152602160248201527f4552433732313a20617070726f76616c20746f2063757272656e74206f776e656044820152603960f91b6064820152608401610a73565b336001600160a01b0382161480610bf55750610bf58133610909565b610c675760405162461bcd60e51b815260206004820152603860248201527f4552433732313a20617070726f76652063616c6c6572206973206e6f74206f7760448201527f6e6572206e6f7220617070726f76656420666f7220616c6c00000000000000006064820152608401610a73565b610c718383612219565b505050565b606060008061145260009054906101000a90046001600160a01b03166001600160a01b0316635fbbc0d26040518163ffffffff1660e01b815260040160606040518083038186803b158015610cca57600080fd5b505afa158015610cde573d6000803e3d6000fd5b505050506040513d601f19601f82011682018060405250810190610d02919061446b565b60408051600280825260608201909252929550909350600092508160200160208202803683370190505090508281600081518110610d4257610d42614499565b6020026020010181815250508181600181518110610d6257610d62614499565b6020908102919091010152949350505050565b610d7e816121fb565b610dbf5760405162461bcd60e51b8152602060048201526012602482015271151bdad95b9251081b5d5cdd08195e1a5cdd60721b6044820152606401610a73565b33610dc982611396565b6001600160a01b031614610e325760405162461bcd60e51b815260206004820152602a60248201527f5472616e736665722063616e20626520646f6e65206f6e6c79206279207468656044820152691027232a1037bbb732b960b11b6064820152608401610a73565b610e3d338383611251565b604080513381526001600160a01b03841660208201529081018290527fec61728879a33aa50b55e1f4789dcfc1c680f30a24d7b8694a9f874e242a97b49060600160405180910390a15050565b6000610ea4600080516020614af783398151915233611a30565b610ec05760405162461bcd60e51b8152600401610a73906144af565b610ecf61239380546001019055565b6123928054906000610ee083614515565b919050559050610ef03382612288565b610efa81336122a2565b604051819033907f30385c845b448a36257a6a1716e6ad2e1bc2cbe333cde1e69fe849ad6511adfe90600090a390565b60003411610f7a5760405162461bcd60e51b815260206004820152601d60248201527f416d6f756e74206d7573742062652067726561746572207468616e20300000006044820152606401610a73565b6040516001600160a01b038216903480156108fc02916000818181858888f19350505050158015610faf573d6000803e3d6000fd5b50604080516001600160a01b038316815233602082015234918101919091527f8760fef165fbacea4256b4fe8e74018a3a597d74281e4142ace323cab292d897906060015b60405180910390a150565b61100a600033611a30565b61106d5760405162461bcd60e51b815260206004820152602e60248201527f41646d696e526f6c653a2063616c6c657220646f6573206e6f7420686176652060448201526d7468652041646d696e20726f6c6560901b6064820152608401610a73565b61107684612318565b61107f836123d1565b61108882612415565b610ad18161277e55565b61109c3382612429565b6110b85760405162461bcd60e51b8152600401610a7390614530565b610c71838383612514565b6110db600080516020614af783398151915282611168565b6040516001600160a01b03821681527f93e15a6550ecfc8e6edd98132363907de724eed6c5d89ce96917f4d4ff4da1f390602001610ff4565b606061183c80546109bb906143e2565b61112f600082611e56565b6040516001600160a01b03821681527f631ff1c4e1a02c54b480a34b810e03bcee61fe38efcb243930a7f820914923e290602001610ff4565b6000828152610835602052604090206001015461118581336126b7565b610c71838361271b565b61119a600082611168565b6040516001600160a01b03821681527f1c4e23de8d72c94b22992bd4d7b6786b215ba876af214ff63e6a0ca38fc97af490602001610ff4565b6001600160a01b03811633146112435760405162461bcd60e51b815260206004820152602f60248201527f416363657373436f6e74726f6c3a2063616e206f6e6c792072656e6f756e636560448201526e103937b632b9903337b91039b2b63360891b6064820152608401610a73565b61124d82826127a2565b5050565b610c7183838360405180602001604052806000815250611b3e565b6000818152611069602052604090205481906001600160a01b031633146112e15760405162461bcd60e51b8152602060048201526024808201527f4e465437323143726561746f723a2043616c6c6572206973206e6f742063726560448201526330ba37b960e11b6064820152608401610a73565b336112eb82611396565b6001600160a01b0316146113545760405162461bcd60e51b815260206004820152602a60248201527f4e465437323143726561746f723a2043616c6c657220646f6573206e6f74206f6044820152691ddb881d1a194813919560b21b6064820152608401610a73565b61124d8261280a565b6000611377600080516020614ad783398151915233611a30565b905090565b6000611377600080516020614af783398151915233611a30565b600081815261103960205260408120546001600160a01b0316806109a55760405162461bcd60e51b815260206004820152602960248201527f4552433732313a206f776e657220717565727920666f72206e6f6e657869737460448201526832b73a103a37b5b2b760b91b6064820152608401610a73565b60006001600160a01b0382166114795760405162461bcd60e51b815260206004820152602a60248201527f4552433732313a2062616c616e636520717565727920666f7220746865207a65604482015269726f206164647265737360b01b6064820152608401610a73565b506001600160a01b0316600090815261103a602052604090205490565b6114ae600080516020614af783398151915233611a30565b6114ca5760405162461bcd60e51b8152600401610a73906144af565b6298967f81116115365760405162461bcd60e51b815260206004820152603160248201527f4d696e743a20437573746f6d20546f6b656e4944206d757374206265206869676044820152700686572207468616e20313030303030303607c1b6064820152608401610a73565b61153f816121fb565b1561158c5760405162461bcd60e51b815260206004820152601e60248201527f4d696e743a20546f6b656e496420616c7265616479206578697374656e7400006044820152606401610a73565b61159b61239380546001019055565b6115a58282612288565b6115af81836122a2565b6115b98184612813565b826040516115c79190614581565b604051809103902081836001600160a01b03167fe2406cfd356cfbe4e42d452bde96d27f48c423e5f02b5d78695893308399519d866040516116099190613d77565b60405180910390a4505050565b838383838080601f016020809104026020016040519081016040528093929190818152602001838380828437600092019190915250611658925061135d915050565b6116b85760405162461bcd60e51b815260206004820152602b60248201527f4163636f756e744d6967726174696f6e3a2043616c6c6572206973206e6f742060448201526a30b71037b832b930ba37b960a91b6064820152608401610a73565b816001600160a01b0316836001600160a01b031614156117375760405162461bcd60e51b815260206004820152603460248201527f4163636f756e744d6967726174696f6e3a2043616e6e6f74206d696772617465604482015273081d1bc81d1a19481cd85b59481858d8dbdd5b9d60621b6064820152608401610a73565b60006117696117458461294b565b604051602001611755919061459d565b604051602081830303815290604052612afb565b9050611776848284612b36565b6117e85760405162461bcd60e51b815260206004820152603d60248201527f4163636f756e744d6967726174696f6e3a205369676e6174757265206d75737460448201527f2062652066726f6d20746865206f726967696e616c206163636f756e740000006064820152608401610a73565b60005b898110156118a35760008b8b8381811061180757611807614499565b905060200201359050611819816121fb565b801561183e5750896001600160a01b031661183382611396565b6001600160a01b0316145b156118905761184e8a8a83612514565b886001600160a01b03168a6001600160a01b0316827fde55f075ebd46256cd6bd57d8fb53e0406f687db372e90ae8c18e72be46f5c1660405160405180910390a45b508061189b81614515565b9150506117eb565b5060005b8b8110156119df5760008d8d838181106118c3576118c3614499565b602090810292909201356000818152611069909352604090922054919250506001600160a01b0316156119cc57600081815261106960205260409020546001600160a01b038b81169116146119805760405162461bcd60e51b815260206004820152603960248201527f4e465437323143726561746f723a20546f6b656e20776173206e6f742063726560448201527f617465642062792074686520676976656e2061646472657373000000000000006064820152608401610a73565b61198a818a6122a2565b886001600160a01b03168a6001600160a01b0316827f58120fb31972ff9fad76eb87119474a58fc38d6b9b842bb3067a4a329eaa64f660405160405180910390a45b50806119d781614515565b9150506118a7565b50505050505050505050505050565b6001600160a01b038216600090815261183b60205260408082209051611a15908490614581565b9081526040519081900360200190205460ff16905092915050565b6000918252610835602090815260408084206001600160a01b0393909316845291905290205460ff1690565b606061103880546109bb906143e2565b6001600160a01b038216331415611ac55760405162461bcd60e51b815260206004820152601960248201527f4552433732313a20617070726f766520746f2063616c6c6572000000000000006044820152606401610a73565b33600081815261103c602090815260408083206001600160a01b03871680855290835292819020805460ff191686151590811790915590519081529192917f17307eab39ab6107e8899845ad3d59bd9653f200f220920489ca2b5937696c31910160405180910390a35050565b60006113778133611a30565b611b483383612429565b611b645760405162461bcd60e51b8152600401610a7390614530565b610ad184848484612c01565b6060611b7b826121fb565b611b975760405162461bcd60e51b8152600401610a73906145f7565b604080516002808252606082018352600092602083019080368337019050506000549091506201000090046001600160a01b031681600081518110611bde57611bde614499565b60200260200101906001600160a01b031690816001600160a01b031681525050611c0783611fb0565b81600181518110611c1a57611c1a614499565b6001600160a01b039092166020928302919091019091015292915050565b611c40613c35565b611c48613c35565b611c51836121fb565b611c6d5760405162461bcd60e51b8152600401610a73906145f7565b6000546201000090046001600160a01b03168252611c8a83611fb0565b6001600160a01b0390811660208401526114525460408051632fdde06960e11b8152905160009384931691635fbbc0d2916004808301926060929190829003018186803b158015611cda57600080fd5b505afa158015611cee573d6000803e3d6000fd5b505050506040513d601f19601f82011682018060405250810190611d12919061446b565b908552602085015250929491935090915050565b606061277c54600014611d7257600061277c5483611d449190614642565b905061277e54811115611d625761277e54611d5f908261465a565b90505b611d6b81612c34565b9392505050565b61277d8054611d80906143e2565b80601f0160208091040260200160405190810160405280929190818152602001828054611dac906143e2565b8015611df95780601f10611dce57610100808354040283529160200191611df9565b820191906000526020600020905b815481529060010190602001808311611ddc57829003601f168201915b50505050509050919050565b611e1d600080516020614af783398151915282611e56565b6040516001600160a01b03821681527f44f4322f8daa225d5f4877ad0f7d3dfba248a774396f3ca99405ed40a044fe8190602001610ff4565b60008281526108356020526040902060010154611e7381336126b7565b610c7183836127a2565b6000611e97600080516020614af783398151915233611a30565b611eb35760405162461bcd60e51b8152600401610a73906144af565b61277c5415611f045760405162461bcd60e51b815260206004820152601760248201527f4d696e743a204d6178206c696d697420726561636865640000000000000000006044820152606401610a73565b611f0d82612c3f565b905061277e54611f1d6123925490565b1115611f3057611f2b612d16565b61277c555b919050565b600081815261183d60205260409020805460609190611d80906143e2565b611f6b600080516020614ad783398151915282611168565b6040516001600160a01b03821681527f5b6a420b639feabfb011a07742a6ae14ef72f35d1a330ed65f42216c95bc6c2e90602001610ff4565b60006113776123935490565b600081815261106a60205260409020546001600160a01b031680611f305750600090815261106960205260409020546001600160a01b031690565b612003600080516020614ad783398151915282611e56565b6040516001600160a01b03821681527fe672f512db5cb061756ab0b7654938a4293bbc42bc91f74bd0ade5f540a35c8090602001610ff4565b60006109a582612d35565b600054610100900460ff1680612060575060005460ff16155b61207c5760405162461bcd60e51b8152600401610a739061441d565b600054610100900460ff1615801561209e576000805461ffff19166101011790555b6120a6612d40565b6120ae612d40565b6120b88383612dab565b8015610c71576000805461ff0019169055505050565b600054610100900460ff16806120e7575060005460ff16155b6121035760405162461bcd60e51b8152600401610a739061441d565b600054610100900460ff16158015612125576000805461ffff19166101011790555b600161239255801561213d576000805461ff00191690555b50565b600054610100900460ff1680612159575060005460ff16155b6121755760405162461bcd60e51b8152600401610a739061441d565b600054610100900460ff16158015612197576000805461ffff19166101011790555b61219f612e42565b6121aa600083612eb1565b6040516001600160a01b03831681527f75ef91bb959d6f13ca6b596857395ef84913b9db7adbc407d3bf97af614722d29060200160405180910390a1801561124d576000805461ff00191690555050565b600090815261103960205260409020546001600160a01b0316151590565b600081815261103b6020526040902080546001600160a01b0319166001600160a01b038416908117909155819061224f82611396565b6001600160a01b03167f8c5be1e5ebec7d5bd14f71427d1e84f3dd0314c0f7b2291e5b200ac8c7c3b92560405160405180910390a45050565b61124d828260405180602001604052806000815250612ebb565b6000828152611069602052604080822054905184926001600160a01b038086169316917febd529444fe852bfccb40075e8f8cae7612ea20edebdf5143c72718ccb157f759190a46000918252611069602052604090912080546001600160a01b0319166001600160a01b03909216919091179055565b6001600160a01b0381163b6123865760405162461bcd60e51b815260206004820152602e60248201527f4e46543732314d61726b65743a204d61726b657420616464726573732069732060448201526d1b9bdd08184818dbdb9d1c9858dd60921b6064820152608401610a73565b61145280546001600160a01b0319166001600160a01b0383169081179091556040517f07e7630580d612127ff5f3bd98a1ef992bb87b379fef3b98f2e2ca1ad8e27dd890600090a250565b80516123e59061183c906020840190613c53565b507f6741b2fc379fad678116fe3d4d4b9a1a184ab53ba36b86ad0fa66340b1ab41ad81604051610ff49190613d77565b805161124d9061277d906020840190613c53565b6000612434826121fb565b6124955760405162461bcd60e51b815260206004820152602c60248201527f4552433732313a206f70657261746f7220717565727920666f72206e6f6e657860448201526b34b9ba32b73a103a37b5b2b760a11b6064820152608401610a73565b60006124a083611396565b9050806001600160a01b0316846001600160a01b031614806124db5750836001600160a01b03166124d084610ad7565b6001600160a01b0316145b8061250c57506001600160a01b03808216600090815261103c602090815260408083209388168352929052205460ff165b949350505050565b826001600160a01b031661252782611396565b6001600160a01b03161461258f5760405162461bcd60e51b815260206004820152602960248201527f4552433732313a207472616e73666572206f6620746f6b656e2074686174206960448201526839903737ba1037bbb760b91b6064820152608401610a73565b6001600160a01b0382166125f15760405162461bcd60e51b8152602060048201526024808201527f4552433732313a207472616e7366657220746f20746865207a65726f206164646044820152637265737360e01b6064820152608401610a73565b6125fc600082612219565b6001600160a01b038316600090815261103a6020526040812080546001929061262690849061465a565b90915550506001600160a01b038216600090815261103a60205260408120805460019290612655908490614642565b90915550506000818152611039602052604080822080546001600160a01b0319166001600160a01b0386811691821790925591518493918716917fddf252ad1be2c89b69c2b068fc378daa952ba7f163c4a11628f55a4df523b3ef91a4505050565b6126c18282611a30565b61124d576126d9816001600160a01b03166014612eee565b6126e4836020612eee565b6040516020016126f5929190614671565b60408051601f198184030181529082905262461bcd60e51b8252610a7391600401613d77565b6127258282611a30565b61124d576000828152610835602090815260408083206001600160a01b03851684529091529020805460ff1916600117905561275e3390565b6001600160a01b0316816001600160a01b0316837f2f8788117e7eff1d82e926ec794901d17c78024a50270940304540a733656f0d60405160405180910390a45050565b6127ac8282611a30565b1561124d576000828152610835602090815260408083206001600160a01b0385168085529252808320805460ff1916905551339285917ff6391f5c32d9c69d2a47ea670b442974b53935d1edc7fd64eb21e047a839171b9190a45050565b61213d8161308a565b602e8151101561286f5760405162461bcd60e51b815260206004820152602160248201527f4e46543732314d657461646174613a20496e76616c69642049504653207061746044820152600d60fb1b6064820152608401610a73565b33600090815261183b602052604090819020905161288e908390614581565b9081526040519081900360200190205460ff16156128fd5760405162461bcd60e51b815260206004820152602660248201527f4e46543732314d657461646174613a204e46542077617320616c7265616479206044820152651b5a5b9d195960d21b6064820152608401610a73565b33600090815261183b602052604090819020905160019190612920908490614581565b908152604051908190036020019020805491151560ff1990921691909117905561124d828233613093565b60408051602a808252606082810190935260009190602082018180368337019050509050600360fc1b8160008151811061298757612987614499565b60200101906001600160f81b031916908160001a905350600f60fb1b816001815181106129b6576129b6614499565b60200101906001600160f81b031916908160001a90535060005b6014811015612af45760006129e682601361465a565b6129f19060086146e6565b6129fc9060026147e9565b612a0f906001600160a01b03871661480b565b60f81b9050600060108260f81c612a26919061481f565b60f81b905060008160f81c6010612a3d9190614841565b8360f81c612a4b9190614862565b60f81b9050612a5982613146565b85612a658660026146e6565b612a70906002614642565b81518110612a8057612a80614499565b60200101906001600160f81b031916908160001a905350612aa081613146565b85612aac8660026146e6565b612ab7906003614642565b81518110612ac757612ac7614499565b60200101906001600160f81b031916908160001a9053505050508080612aec90614515565b9150506129d0565b5092915050565b6000612b07825161317c565b82604051602001612b19929190614885565b604051602081830303815290604052805190602001209050919050565b6000833b15612bdb57604051630b135d3f60e11b81526001600160a01b03851690631626ba7e90612b6d90869086906004016148e0565b60206040518083038186803b158015612b8557600080fd5b505afa925050508015612bb5575060408051601f3d908101601f19168201909252612bb2918101906148f9565b60015b612bc157506000611d6b565b6001600160e01b031916630b135d3f60e11b149050611d6b565b836001600160a01b0316612bef848461327a565b6001600160a01b031614949350505050565b612c0c848484612514565b612c188484848461329e565b610ad15760405162461bcd60e51b8152600401610a7390614916565b60606109a5826133ab565b6000612c59600080516020614af783398151915233611a30565b612c755760405162461bcd60e51b8152600401610a73906144af565b612c8461239380546001019055565b6123928054906000612c9583614515565b919050559050612ca53382612288565b612caf81336122a2565b612cb98183612813565b81604051612cc79190614581565b604051809103902081336001600160a01b03167fe2406cfd356cfbe4e42d452bde96d27f48c423e5f02b5d78695893308399519d85604051612d099190613d77565b60405180910390a4919050565b600061277e5443612d279190614968565b905080612d32575060015b90565b60006109a582613516565b600054610100900460ff1680612d59575060005460ff16155b612d755760405162461bcd60e51b8152600401610a739061441d565b600054610100900460ff16158015612d97576000805461ffff19166101011790555b801561213d576000805461ff001916905550565b600054610100900460ff1680612dc4575060005460ff16155b612de05760405162461bcd60e51b8152600401610a739061441d565b600054610100900460ff16158015612e02576000805461ffff19166101011790555b8251612e1690611037906020860190613c53565b508151612e2b90611038906020850190613c53565b508015610c71576000805461ff0019169055505050565b600054610100900460ff1680612e5b575060005460ff16155b612e775760405162461bcd60e51b8152600401610a739061441d565b600054610100900460ff16158015612e99576000805461ffff19166101011790555b612ea1612d40565b612ea9612d40565b612d97612d40565b61124d828261271b565b612ec58383613521565b612ed2600084848461329e565b610c715760405162461bcd60e51b8152600401610a7390614916565b60606000612efd8360026146e6565b612f08906002614642565b67ffffffffffffffff811115612f2057612f20613d8a565b6040519080825280601f01601f191660200182016040528015612f4a576020820181803683370190505b509050600360fc1b81600081518110612f6557612f65614499565b60200101906001600160f81b031916908160001a905350600f60fb1b81600181518110612f9457612f94614499565b60200101906001600160f81b031916908160001a9053506000612fb88460026146e6565b612fc3906001614642565b90505b600181111561303b576f181899199a1a9b1b9c1cb0b131b232b360811b85600f1660108110612ff757612ff7614499565b1a60f81b82828151811061300d5761300d614499565b60200101906001600160f81b031916908160001a90535060049490941c936130348161497c565b9050612fc6565b508315611d6b5760405162461bcd60e51b815260206004820181905260248201527f537472696e67733a20686578206c656e67746820696e73756666696369656e746044820152606401610a73565b61213d81613656565b61309c836121fb565b6130f45760405162461bcd60e51b8152602060048201526024808201527f4d61737465723a2055524920736574206f66206e6f6e6578697374656e74207460448201526337b5b2b760e11b6064820152608401610a73565b600083815261183d60209081526040909120835161311492850190613c53565b50600092835261183e602052604090922080546001600160a01b0319166001600160a01b039093169290921790915550565b6000600a60f883901c101561316d5761316460f883901c6030614993565b60f81b92915050565b61316460f883901c6057614993565b6060816131a05750506040805180820190915260018152600360fc1b602082015290565b8160005b81156131ca57806131b481614515565b91506131c39050600a8361480b565b91506131a4565b60008167ffffffffffffffff8111156131e5576131e5613d8a565b6040519080825280601f01601f19166020018201604052801561320f576020820181803683370190505b5090505b841561250c5761322460018361465a565b9150613231600a86614968565b61323c906030614642565b60f81b81838151811061325157613251614499565b60200101906001600160f81b031916908160001a905350613273600a8661480b565b9450613213565b600080600061328985856136a3565b9150915061329681613713565b509392505050565b60006001600160a01b0384163b156133a057604051630a85bd0160e11b81526001600160a01b0385169063150b7a02906132e29033908990889088906004016149b8565b602060405180830381600087803b1580156132fc57600080fd5b505af192505050801561332c575060408051601f3d908101601f19168201909252613329918101906148f9565b60015b613386573d80801561335a576040519150601f19603f3d011682016040523d82523d6000602084013e61335f565b606091505b50805161337e5760405162461bcd60e51b8152600401610a7390614916565b805181602001fd5b6001600160e01b031916630a85bd0160e11b14905061250c565b506001949350505050565b60606133b6826121fb565b6134125760405162461bcd60e51b815260206004820152602760248201527f4d61737465723a2055524920717565727920666f72206e6f6e6578697374656e6044820152663a103a37b5b2b760c91b6064820152608401610a73565b600082815261183d60205260408120805461342c906143e2565b80601f0160208091040260200160405190810160405280929190818152602001828054613458906143e2565b80156134a55780601f1061347a576101008083540402835291602001916134a5565b820191906000526020600020905b81548152906001019060200180831161348857829003601f168201915b5050505050905060006134b66138ce565b90508051600014156134c9575092915050565b8151156134fb5780826040516020016134e39291906149f5565b60405160208183030381529060405292505050919050565b80613505856138d8565b6040516020016134e39291906149f5565b60006109a5826139d6565b6001600160a01b0382166135775760405162461bcd60e51b815260206004820181905260248201527f4552433732313a206d696e7420746f20746865207a65726f20616464726573736044820152606401610a73565b613580816121fb565b156135cd5760405162461bcd60e51b815260206004820152601c60248201527f4552433732313a20746f6b656e20616c7265616479206d696e746564000000006044820152606401610a73565b6001600160a01b038216600090815261103a602052604081208054600192906135f7908490614642565b90915550506000818152611039602052604080822080546001600160a01b0319166001600160a01b03861690811790915590518392907fddf252ad1be2c89b69c2b068fc378daa952ba7f163c4a11628f55a4df523b3ef908290a45050565b33600090815261183b6020908152604080832084845261183d909252918290209151909161368391614a24565b908152604051908190036020019020805460ff1916905561213d816139e1565b6000808251604114156136da5760208301516040840151606085015160001a6136ce87828585613a07565b9450945050505061370c565b82516040141561370457602083015160408401516136f9868383613af4565b93509350505061370c565b506000905060025b9250929050565b600081600481111561372757613727614ac0565b14156137305750565b600181600481111561374457613744614ac0565b14156137925760405162461bcd60e51b815260206004820152601860248201527f45434453413a20696e76616c6964207369676e617475726500000000000000006044820152606401610a73565b60028160048111156137a6576137a6614ac0565b14156137f45760405162461bcd60e51b815260206004820152601f60248201527f45434453413a20696e76616c6964207369676e6174757265206c656e677468006044820152606401610a73565b600381600481111561380857613808614ac0565b14156138615760405162461bcd60e51b815260206004820152602260248201527f45434453413a20696e76616c6964207369676e6174757265202773272076616c604482015261756560f01b6064820152608401610a73565b600481600481111561387557613875614ac0565b141561213d5760405162461bcd60e51b815260206004820152602260248201527f45434453413a20696e76616c6964207369676e6174757265202776272076616c604482015261756560f01b6064820152608401610a73565b6060611377611114565b6060816138fc5750506040805180820190915260018152600360fc1b602082015290565b8160005b8115613926578061391081614515565b915061391f9050600a8361480b565b9150613900565b60008167ffffffffffffffff81111561394157613941613d8a565b6040519080825280601f01601f19166020018201604052801561396b576020820181803683370190505b5090505b841561250c5761398060018361465a565b915061398d600a86614968565b613998906030614642565b60f81b8183815181106139ad576139ad614499565b60200101906001600160f81b031916908160001a9053506139cf600a8661480b565b945061396f565b60006109a582613b23565b60008181526110696020526040902080546001600160a01b031916905561213d81613b63565b6000807f7fffffffffffffffffffffffffffffff5d576e7357a4501ddfe92f46681b20a0831115613a3e5750600090506003613aeb565b8460ff16601b14158015613a5657508460ff16601c14155b15613a675750600090506004613aeb565b6040805160008082526020820180845289905260ff881692820192909252606081018690526080810185905260019060a0016020604051602081039080840390855afa158015613abb573d6000803e3d6000fd5b5050604051601f1901519150506001600160a01b038116613ae457600060019250925050613aeb565b9150600090505b94509492505050565b6000806001600160ff1b03831660ff84901c601b01613b1587828885613a07565b935093505050935093915050565b60006001600160e01b031982166380ac58cd60e01b1480613b5457506001600160e01b03198216635b5e139f60e01b145b806109a557506109a582613c00565b6000613b6e82611396565b9050613b7b600083612219565b6001600160a01b038116600090815261103a60205260408120805460019290613ba590849061465a565b90915550506000828152611039602052604080822080546001600160a01b0319169055518391906001600160a01b038416907fddf252ad1be2c89b69c2b068fc378daa952ba7f163c4a11628f55a4df523b3ef908390a45050565b60006001600160e01b03198216637965db0b60e01b14806109a557506301ffc9a760e01b6001600160e01b03198316146109a5565b60405180604001604052806002906020820280368337509192915050565b828054613c5f906143e2565b90600052602060002090601f016020900481019282613c815760008555613cc7565b82601f10613c9a57805160ff1916838001178555613cc7565b82800160010185558215613cc7579182015b82811115613cc7578251825591602001919060010190613cac565b50613cd3929150613cd7565b5090565b5b80821115613cd35760008155600101613cd8565b6001600160e01b03198116811461213d57600080fd5b600060208284031215613d1457600080fd5b8135611d6b81613cec565b60005b83811015613d3a578181015183820152602001613d22565b83811115610ad15750506000910152565b60008151808452613d63816020860160208601613d1f565b601f01601f19169290920160200192915050565b602081526000611d6b6020830184613d4b565b634e487b7160e01b600052604160045260246000fd5b600067ffffffffffffffff80841115613dbb57613dbb613d8a565b604051601f8501601f19908116603f01168101908282118183101715613de357613de3613d8a565b81604052809350858152868686011115613dfc57600080fd5b858560208301376000602087830101525050509392505050565b600082601f830112613e2757600080fd5b611d6b83833560208501613da0565b6001600160a01b038116811461213d57600080fd5b600080600060608486031215613e6057600080fd5b833567ffffffffffffffff80821115613e7857600080fd5b613e8487838801613e16565b94506020860135915080821115613e9a57600080fd5b50613ea786828701613e16565b9250506040840135613eb881613e36565b809150509250925092565b600060208284031215613ed557600080fd5b5035919050565b60008060408385031215613eef57600080fd5b8235613efa81613e36565b946020939093013593505050565b6020808252825182820181905260009190848201906040850190845b81811015613f4057835183529284019291840191600101613f24565b50909695505050505050565b600060208284031215613f5e57600080fd5b8135611d6b81613e36565b60008060008060808587031215613f7f57600080fd5b8435613f8a81613e36565b9350602085013567ffffffffffffffff80821115613fa757600080fd5b613fb388838901613e16565b94506040870135915080821115613fc957600080fd5b50613fd687828801613e16565b949793965093946060013593505050565b600080600060608486031215613ffc57600080fd5b833561400781613e36565b9250602084013561401781613e36565b929592945050506040919091013590565b6000806040838503121561403b57600080fd5b82359150602083013561404d81613e36565b809150509250929050565b60008060006060848603121561406d57600080fd5b833567ffffffffffffffff81111561408457600080fd5b61409086828701613e16565b935050602084013561401781613e36565b60008083601f8401126140b357600080fd5b50813567ffffffffffffffff8111156140cb57600080fd5b6020830191508360208260051b850101111561370c57600080fd5b60008060008060008060008060a0898b03121561410257600080fd5b883567ffffffffffffffff8082111561411a57600080fd5b6141268c838d016140a1565b909a50985060208b013591508082111561413f57600080fd5b61414b8c838d016140a1565b909850965060408b0135915061416082613e36565b90945060608a01359061417282613e36565b90935060808a0135908082111561418857600080fd5b818b0191508b601f83011261419c57600080fd5b8135818111156141ab57600080fd5b8c60208285010111156141bd57600080fd5b6020830194508093505050509295985092959890939650565b600080604083850312156141e957600080fd5b82356141f481613e36565b9150602083013567ffffffffffffffff81111561421057600080fd5b61421c85828601613e16565b9150509250929050565b6000806040838503121561423957600080fd5b823561424481613e36565b91506020830135801515811461404d57600080fd5b6000806000806080858703121561426f57600080fd5b843561427a81613e36565b9350602085013561428a81613e36565b925060408501359150606085013567ffffffffffffffff8111156142ad57600080fd5b8501601f810187136142be57600080fd5b6142cd87823560208401613da0565b91505092959194509250565b6020808252825182820181905260009190848201906040850190845b81811015613f405783516001600160a01b0316835292840192918401916001016142f5565b60808101818460005b600281101561434b5781516001600160a01b0316835260209283019290910190600101614323565b505050604082018360005b6002811015614375578151835260209283019290910190600101614356565b5050509392505050565b60006020828403121561439157600080fd5b813567ffffffffffffffff8111156143a857600080fd5b61250c84828501613e16565b600080604083850312156143c757600080fd5b82356143d281613e36565b9150602083013561404d81613e36565b600181811c908216806143f657607f821691505b6020821081141561441757634e487b7160e01b600052602260045260246000fd5b50919050565b6020808252602e908201527f496e697469616c697a61626c653a20636f6e747261637420697320616c72656160408201526d191e481a5b9a5d1a585b1a5e995960921b606082015260800190565b60008060006060848603121561448057600080fd5b8351925060208401519150604084015190509250925092565b634e487b7160e01b600052603260045260246000fd5b60208082526030908201527f4d696e746572526f6c653a2063616c6c657220646f6573206e6f74206861766560408201526f20746865204d696e74657220726f6c6560801b606082015260800190565b634e487b7160e01b600052601160045260246000fd5b6000600019821415614529576145296144ff565b5060010190565b60208082526031908201527f4552433732313a207472616e736665722063616c6c6572206973206e6f74206f6040820152701ddb995c881b9bdc88185c1c1c9bdd9959607a1b606082015260800190565b60008251614593818460208701613d1f565b9190910192915050565b7f4920617574686f72697a65204d696e74656420746f206d696772617465206d7981526b01030b1b1b7bab73a103a37960a51b6020820152600082516145ea81602c850160208701613d1f565b91909101602c0192915050565b6020808252602b908201527f4552433732314d657461646174613a20517565727920666f72206e6f6e65786960408201526a39ba32b73a103a37b5b2b760a91b606082015260800190565b60008219821115614655576146556144ff565b500190565b60008282101561466c5761466c6144ff565b500390565b7f416363657373436f6e74726f6c3a206163636f756e74200000000000000000008152600083516146a9816017850160208801613d1f565b7001034b99036b4b9b9b4b733903937b6329607d1b60179184019182015283516146da816028840160208801613d1f565b01602801949350505050565b6000816000190483118215151615614700576147006144ff565b500290565b600181815b80851115614740578160001904821115614726576147266144ff565b8085161561473357918102915b93841c939080029061470a565b509250929050565b600082614757575060016109a5565b81614764575060006109a5565b816001811461477a5760028114614784576147a0565b60019150506109a5565b60ff841115614795576147956144ff565b50506001821b6109a5565b5060208310610133831016604e8410600b84101617156147c3575081810a6109a5565b6147cd8383614705565b80600019048211156147e1576147e16144ff565b029392505050565b6000611d6b8383614748565b634e487b7160e01b600052601260045260246000fd5b60008261481a5761481a6147f5565b500490565b600060ff831680614832576148326147f5565b8060ff84160491505092915050565b600060ff821660ff84168160ff04811182151516156147e1576147e16144ff565b600060ff821660ff84168082101561487c5761487c6144ff565b90039392505050565b7f19457468657265756d205369676e6564204d6573736167653a0a0000000000008152600083516148bd81601a850160208801613d1f565b8351908301906148d481601a840160208801613d1f565b01601a01949350505050565b82815260406020820152600061250c6040830184613d4b565b60006020828403121561490b57600080fd5b8151611d6b81613cec565b60208082526032908201527f4552433732313a207472616e7366657220746f206e6f6e20455243373231526560408201527131b2b4bb32b91034b6b83632b6b2b73a32b960711b606082015260800190565b600082614977576149776147f5565b500690565b60008161498b5761498b6144ff565b506000190190565b600060ff821660ff84168060ff038211156149b0576149b06144ff565b019392505050565b6001600160a01b03858116825284166020820152604081018390526080606082018190526000906149eb90830184613d4b565b9695505050505050565b60008351614a07818460208801613d1f565b835190830190614a1b818360208801613d1f565b01949350505050565b600080835481600182811c915080831680614a4057607f831692505b6020808410821415614a6057634e487b7160e01b86526022600452602486fd5b818015614a745760018114614a8557614ab2565b60ff19861689528489019650614ab2565b60008a81526020902060005b86811015614aaa5781548b820152908501908301614a91565b505084890196505b509498975050505050505050565b634e487b7160e01b600052602160045260246000fdfe97667070c54ef182b0f5858b034beac1b6f3089aa2d3188bb1e8929f4fa9b9299f2df0fed2c77648de5860a4cc508cd0818c85b8b8a1ab4ceeef8d981c8956a6a264697066735822122064234a376ffb665608060a3e0b83431fa506698617323d1020412fade9f2247764736f6c63430008090033",
  "immutableReferences": {},
  "source": "/*\r\n::::    :::::  :::::::::  ::::    :::  :::::::::  :::::::::  :::::::::  \r\n+:+:+: :+:+:+     :+:     :+:+:   :+:     :+:     :+:        :+:    :+: \r\n+:+ +:+:+ +:+     +:+     :+:+:+  +:+     +:+     +:+        +:+    +:+ \r\n+#+  +:+  +#+     +#+     +#+ +:+ +#+     +#+     +#++:++#   +#+    +:+ \r\n+#+       +#+     +#+     +#+  +#+#+#     +#+     +#+        +#+    +#+ \r\n#+#       #+#     #+#     #+#   #+#+#     #+#     #+#        #+#    #+# \r\n###       ###  #########  ###    ####     ###     #########  #########  \r\n*/\r\n// SPDX-License-Identifier: Non-Licensed\r\npragma solidity ^0.8.0;\r\n\r\nimport \"@openzeppelin/contracts-upgradeable/token/ERC721/ERC721Upgradeable.sol\";\r\n\r\nimport \"./mixins/roles/AdminRole.sol\";\r\nimport \"./mixins/roles/OperatorRole.sol\";\r\nimport \"./mixins/NFT721Core.sol\";\r\nimport \"./mixins/NFT721Creator.sol\";\r\nimport \"./mixins/NFT721Metadata.sol\";\r\nimport \"./mixins/NFT721Mint.sol\";\r\nimport \"./mixins/NFT721Market.sol\";\r\nimport \"./mixins/AccountMigration.sol\";\r\n\r\n/**\r\n * @title Minted NFTs implemented using the ERC-721 standard.\r\n * @dev This top level file holds no data directly to ease future upgrades.\r\n */\r\n \r\ncontract NftoonRegeleCollection is\r\n  AdminRole,\r\n  OperatorRole,\r\n  AccountMigration,\r\n  ERC721Upgradeable,\r\n  NFT721Creator,\r\n  NFT721Market,\r\n  NFT721Metadata,\r\n  NFT721Core,\r\n  NFT721Mint  \r\n{\r\n  using Counters for Counters.Counter;\r\n\r\n  uint256 private startingIndex;\r\n  string _tempURI;\r\n  uint256 _maxTokens;\r\n\r\n\r\n  /**\r\n   * @notice Called once to configure the contract after the initial deployment.\r\n   * @dev This farms the initialize call out to inherited contracts as needed.\r\n   */\r\n  function initialize(\r\n    string memory name,\r\n    string memory symbol,\r\n    address admin\r\n  ) public initializer {\r\n    startingIndex = 0;\r\n    ERC721Upgradeable.__ERC721_init(name, symbol);\r\n    NFT721Mint._initializeNFT721Mint();\r\n    AdminRole._initializeAdminRole(admin);\r\n  }\r\n\r\n  function _baseURI() internal view virtual override(ERC721Upgradeable, NFT721Metadata, NFT721Mint) returns (string memory) {\r\n    return GetBaseURI();\r\n  }\r\n\r\n  /**\r\n   * @notice Allows a Minted admin to update NFT config variables.\r\n   * @dev This must be called right after the initial call to `initialize`.\r\n   */\r\n   function adminUpdateConfig(\r\n    address _nftMarket,\r\n    string memory baseURI,\r\n    string memory tempURI,\r\n    uint256 maxTokens\r\n  ) public onlyAdmin {\r\n    _updateNFTMarket(_nftMarket);\r\n    _updateBaseURI(baseURI);\r\n    _updateTempURI(tempURI);\r\n    _updateMaxTokens(maxTokens);\r\n  }\r\n\r\n  /**\r\n   * @dev This is a no-op, just an explicit override to address compile errors due to inheritance.\r\n   */\r\n  function _burn(uint256 tokenId) internal override(ERC721Upgradeable, NFT721Creator, NFT721Metadata, NFT721Mint) {\r\n    super._burn(tokenId);\r\n  }\r\n\r\n   function tokenURI(uint256 tokenId) public view virtual override(ERC721Upgradeable, NFT721Metadata, NFT721Mint) returns (string memory) {\r\n     if(startingIndex != 0){\r\n       uint256 id = tokenId + startingIndex;\r\n       if( id > _maxTokens){\r\n         id = id - _maxTokens;\r\n       }\r\n       return super.tokenURI(id);\r\n     }\r\n     return _tempURI;\r\n   }\r\n\r\n   //mint\r\n   function mint(string memory tokenIPFSPath) public virtual override onlyMinter returns (uint256 tokenId) {\r\n      require(startingIndex == 0, \"Mint: Max limit reached\");\r\n\r\n      tokenId = super.mint(tokenIPFSPath);\r\n\r\n      if(getNextTokenId() > _maxTokens){\r\n        startingIndex = _calculateStartingIndex();\r\n      }\r\n\r\n      return tokenId;\r\n  }\r\n\r\n  function _calculateStartingIndex() internal view returns (uint256 index){\r\n    index = block.number % _maxTokens;\r\n    if (index == 0){\r\n      index = 1;\r\n    }\r\n    return index;\r\n  }\r\n\r\n  function _updateTempURI(string memory tempURI) internal {\r\n    _tempURI = tempURI;\r\n  }\r\n\r\n  function _updateMaxTokens(uint256 maxTokens) internal {\r\n    _maxTokens = maxTokens;\r\n  }\r\n  \r\n  function supportsInterface(bytes4 interfaceId) public view virtual override( ERC721Upgradeable, NFT721Mint, NFT721Market, NFT721Metadata, AccessControlUpgradeable, NFT721Creator) returns (bool) {\r\n    return super.supportsInterface(interfaceId);\r\n  }\r\n}",
  "sourcePath": "C:\\alex\\nft\\openZeppelin\\mintedBasic\\contracts\\minted\\NftoonRegeleCollection.sol",
  "compiler": {
    "name": "solc",
    "version": "0.8.9+commit.e5eed63a.Emscripten.clang"
  },
  "schemaVersion": "3.4.3",
  "updatedAt": "2022-03-24T15:32:37.202Z",
  "devdoc": {
    "details": "This top level file holds no data directly to ease future upgrades.",
    "kind": "dev",
    "methods": {
      "adminAccountMigration(uint256[],uint256[],address,address,bytes)": {
        "details": "This will gracefully skip any NFTs that have been burned or transferred.",
        "params": {
          "signature": "Message `I authorize Minted to migrate my account to ${newAccount.address.toLowerCase()}` signed by the original account."
        }
      },
      "adminUpdateConfig(address,string,string,uint256)": {
        "details": "This must be called right after the initial call to `initialize`."
      },
      "approve(address,uint256)": {
        "details": "See {IERC721-approve}."
      },
      "balanceOf(address)": {
        "details": "See {IERC721-balanceOf}."
      },
      "getApproved(uint256)": {
        "details": "See {IERC721-getApproved}."
      },
      "getRoleAdmin(bytes32)": {
        "details": "Returns the admin role that controls `role`. See {grantRole} and {revokeRole}. To change a role's admin, use {_setRoleAdmin}."
      },
      "getTokenCreatorPaymentAddress(uint256)": {
        "details": "If an alternate address was not defined, the creator is returned instead."
      },
      "grantRole(bytes32,address)": {
        "details": "Grants `role` to `account`. If `account` had not been already granted `role`, emits a {RoleGranted} event. Requirements: - the caller must have ``role``'s admin role."
      },
      "hasRole(bytes32,address)": {
        "details": "Returns `true` if `account` has been granted `role`."
      },
      "initialize(string,string,address)": {
        "details": "This farms the initialize call out to inherited contracts as needed."
      },
      "isApprovedForAll(address,address)": {
        "details": "See {IERC721-isApprovedForAll}."
      },
      "name()": {
        "details": "See {IERC721Metadata-name}."
      },
      "ownerOf(uint256)": {
        "details": "See {IERC721-ownerOf}."
      },
      "renounceRole(bytes32,address)": {
        "details": "Revokes `role` from the calling account. Roles are often managed via {grantRole} and {revokeRole}: this function's purpose is to provide a mechanism for accounts to lose their privileges if they are compromised (such as when a trusted device is misplaced). If the calling account had been granted `role`, emits a {RoleRevoked} event. Requirements: - the caller must be `account`."
      },
      "revokeRole(bytes32,address)": {
        "details": "Revokes `role` from `account`. If `account` had been granted `role`, emits a {RoleRevoked} event. Requirements: - the caller must have ``role``'s admin role."
      },
      "safeTransferFrom(address,address,uint256)": {
        "details": "See {IERC721-safeTransferFrom}."
      },
      "safeTransferFrom(address,address,uint256,bytes)": {
        "details": "See {IERC721-safeTransferFrom}."
      },
      "setApprovalForAll(address,bool)": {
        "details": "See {IERC721-setApprovalForAll}."
      },
      "symbol()": {
        "details": "See {IERC721Metadata-symbol}."
      },
      "transferFrom(address,address,uint256)": {
        "details": "See {IERC721-transferFrom}."
      }
    },
    "title": "Minted NFTs implemented using the ERC-721 standard.",
    "version": 1
  },
  "userdoc": {
    "kind": "user",
    "methods": {
      "adminAccountMigration(uint256[],uint256[],address,address,bytes)": {
        "notice": "Allows an NFT owner or creator and Minted to work together in order to update the creator to a new account and/or transfer NFTs to that account."
      },
      "adminUpdateConfig(address,string,string,uint256)": {
        "notice": "Allows a Minted admin to update NFT config variables."
      },
      "burn(uint256)": {
        "notice": "Allows the creator to burn if they currently own the NFT."
      },
      "getFeeBps(uint256)": {
        "notice": "Returns an array of fees in basis points. The expected recipients is communicated with `getFeeRecipients`."
      },
      "getFeeRecipients(uint256)": {
        "notice": "Returns an array of recipient addresses to which fees should be sent. The expected fee amount is communicated with `getFeeBps`."
      },
      "getHasCreatorMintedIPFSHash(address,string)": {
        "notice": "Checks if the creator has already minted a given NFT."
      },
      "getMintedTreasury()": {
        "notice": "Returns the address of the Minted treasury."
      },
      "getNFTMarket()": {
        "notice": "Returns the address of the Minted NFTMarket contract."
      },
      "getNextTokenId()": {
        "notice": "Gets the tokenId of the next NFT minted."
      },
      "getRoyalties(uint256)": {
        "notice": "Get fee recipients and fees in a single call. The data is the same as when calling getFeeRecipients and getFeeBps separately."
      },
      "getTokenCreatorPaymentAddress(uint256)": {
        "notice": "Returns the payment address for a given tokenId."
      },
      "getTokenIPFSPath(uint256)": {
        "notice": "Returns the IPFSPath to the metadata JSON file for a given NFT."
      },
      "initialize(string,string,address)": {
        "notice": "Called once to configure the contract after the initial deployment."
      },
      "mint()": {
        "notice": "Allows a creator to mint an NFT."
      },
      "tokenCreator(uint256)": {
        "notice": "Returns the creator's address for a given tokenId."
      }
    },
    "version": 1
  }
}