{
  "contractName": "NftoonRegeleV4",
  "abi": [
    {
      "anonymous": false,
      "inputs": [
        {
          "indexed": false,
          "internalType": "address",
          "name": "admin",
          "type": "address"
        }
      ],
      "name": "AdminGranted",
      "type": "event"
    },
    {
      "anonymous": false,
      "inputs": [
        {
          "indexed": false,
          "internalType": "address",
          "name": "admin",
          "type": "address"
        }
      ],
      "name": "AdminInitiated",
      "type": "event"
    },
    {
      "anonymous": false,
      "inputs": [
        {
          "indexed": false,
          "internalType": "address",
          "name": "admin",
          "type": "address"
        }
      ],
      "name": "AdminRevoked",
      "type": "event"
    },
    {
      "anonymous": false,
      "inputs": [
        {
          "indexed": false,
          "internalType": "address",
          "name": "toAddress",
          "type": "address"
        },
        {
          "indexed": false,
          "internalType": "address",
          "name": "fromAddress",
          "type": "address"
        },
        {
          "indexed": false,
          "internalType": "uint256",
          "name": "amount",
          "type": "uint256"
        }
      ],
      "name": "AmountTransferred",
      "type": "event"
    },
    {
      "anonymous": false,
      "inputs": [
        {
          "indexed": true,
          "internalType": "address",
          "name": "owner",
          "type": "address"
        },
        {
          "indexed": true,
          "internalType": "address",
          "name": "approved",
          "type": "address"
        },
        {
          "indexed": true,
          "internalType": "uint256",
          "name": "tokenId",
          "type": "uint256"
        }
      ],
      "name": "Approval",
      "type": "event"
    },
    {
      "anonymous": false,
      "inputs": [
        {
          "indexed": true,
          "internalType": "address",
          "name": "owner",
          "type": "address"
        },
        {
          "indexed": true,
          "internalType": "address",
          "name": "operator",
          "type": "address"
        },
        {
          "indexed": false,
          "internalType": "bool",
          "name": "approved",
          "type": "bool"
        }
      ],
      "name": "ApprovalForAll",
      "type": "event"
    },
    {
      "anonymous": false,
      "inputs": [
        {
          "indexed": false,
          "internalType": "string",
          "name": "baseURI",
          "type": "string"
        }
      ],
      "name": "BaseURIUpdated",
      "type": "event"
    },
    {
      "anonymous": false,
      "inputs": [
        {
          "indexed": true,
          "internalType": "address",
          "name": "creator",
          "type": "address"
        },
        {
          "indexed": true,
          "internalType": "uint256",
          "name": "tokenId",
          "type": "uint256"
        },
        {
          "indexed": true,
          "internalType": "string",
          "name": "indexedTokenIPFSPath",
          "type": "string"
        },
        {
          "indexed": false,
          "internalType": "string",
          "name": "tokenIPFSPath",
          "type": "string"
        }
      ],
      "name": "Minted",
      "type": "event"
    },
    {
      "anonymous": false,
      "inputs": [
        {
          "indexed": true,
          "internalType": "address",
          "name": "creator",
          "type": "address"
        },
        {
          "indexed": true,
          "internalType": "uint256",
          "name": "tokenId",
          "type": "uint256"
        }
      ],
      "name": "Minted",
      "type": "event"
    },
    {
      "anonymous": false,
      "inputs": [
        {
          "indexed": false,
          "internalType": "address",
          "name": "admin",
          "type": "address"
        }
      ],
      "name": "MinterGranted",
      "type": "event"
    },
    {
      "anonymous": false,
      "inputs": [
        {
          "indexed": false,
          "internalType": "address",
          "name": "admin",
          "type": "address"
        }
      ],
      "name": "MinterRevoked",
      "type": "event"
    },
    {
      "anonymous": false,
      "inputs": [
        {
          "indexed": true,
          "internalType": "uint256",
          "name": "tokenId",
          "type": "uint256"
        },
        {
          "indexed": true,
          "internalType": "address",
          "name": "originalAddress",
          "type": "address"
        },
        {
          "indexed": true,
          "internalType": "address",
          "name": "newAddress",
          "type": "address"
        }
      ],
      "name": "NFTCreatorMigrated",
      "type": "event"
    },
    {
      "anonymous": false,
      "inputs": [
        {
          "indexed": true,
          "internalType": "address",
          "name": "nftMarket",
          "type": "address"
        }
      ],
      "name": "NFTMarketUpdated",
      "type": "event"
    },
    {
      "anonymous": false,
      "inputs": [
        {
          "indexed": false,
          "internalType": "string",
          "name": "name",
          "type": "string"
        },
        {
          "indexed": false,
          "internalType": "string",
          "name": "symbol",
          "type": "string"
        },
        {
          "indexed": false,
          "internalType": "string",
          "name": "baseURI",
          "type": "string"
        }
      ],
      "name": "NFTMetadataUpdated",
      "type": "event"
    },
    {
      "anonymous": false,
      "inputs": [
        {
          "indexed": true,
          "internalType": "uint256",
          "name": "tokenId",
          "type": "uint256"
        },
        {
          "indexed": true,
          "internalType": "address",
          "name": "originalAddress",
          "type": "address"
        },
        {
          "indexed": true,
          "internalType": "address",
          "name": "newAddress",
          "type": "address"
        }
      ],
      "name": "NFTOwnerMigrated",
      "type": "event"
    },
    {
      "anonymous": false,
      "inputs": [
        {
          "indexed": false,
          "internalType": "address",
          "name": "admin",
          "type": "address"
        }
      ],
      "name": "OperatoRevoked",
      "type": "event"
    },
    {
      "anonymous": false,
      "inputs": [
        {
          "indexed": false,
          "internalType": "address",
          "name": "admin",
          "type": "address"
        }
      ],
      "name": "OperatorGranted",
      "type": "event"
    },
    {
      "anonymous": false,
      "inputs": [
        {
          "indexed": true,
          "internalType": "uint256",
          "name": "tokenId",
          "type": "uint256"
        },
        {
          "indexed": true,
          "internalType": "address",
          "name": "originalAddress",
          "type": "address"
        },
        {
          "indexed": true,
          "internalType": "address",
          "name": "newAddress",
          "type": "address"
        },
        {
          "indexed": false,
          "internalType": "address",
          "name": "originalPaymentAddress",
          "type": "address"
        },
        {
          "indexed": false,
          "internalType": "address",
          "name": "newPaymentAddress",
          "type": "address"
        }
      ],
      "name": "PaymentAddressMigrated",
      "type": "event"
    },
    {
      "anonymous": false,
      "inputs": [
        {
          "indexed": true,
          "internalType": "bytes32",
          "name": "role",
          "type": "bytes32"
        },
        {
          "indexed": true,
          "internalType": "bytes32",
          "name": "previousAdminRole",
          "type": "bytes32"
        },
        {
          "indexed": true,
          "internalType": "bytes32",
          "name": "newAdminRole",
          "type": "bytes32"
        }
      ],
      "name": "RoleAdminChanged",
      "type": "event"
    },
    {
      "anonymous": false,
      "inputs": [
        {
          "indexed": true,
          "internalType": "bytes32",
          "name": "role",
          "type": "bytes32"
        },
        {
          "indexed": true,
          "internalType": "address",
          "name": "account",
          "type": "address"
        },
        {
          "indexed": true,
          "internalType": "address",
          "name": "sender",
          "type": "address"
        }
      ],
      "name": "RoleGranted",
      "type": "event"
    },
    {
      "anonymous": false,
      "inputs": [
        {
          "indexed": true,
          "internalType": "bytes32",
          "name": "role",
          "type": "bytes32"
        },
        {
          "indexed": true,
          "internalType": "address",
          "name": "account",
          "type": "address"
        },
        {
          "indexed": true,
          "internalType": "address",
          "name": "sender",
          "type": "address"
        }
      ],
      "name": "RoleRevoked",
      "type": "event"
    },
    {
      "anonymous": false,
      "inputs": [
        {
          "indexed": true,
          "internalType": "address",
          "name": "fromPaymentAddress",
          "type": "address"
        },
        {
          "indexed": true,
          "internalType": "address",
          "name": "toPaymentAddress",
          "type": "address"
        },
        {
          "indexed": true,
          "internalType": "uint256",
          "name": "tokenId",
          "type": "uint256"
        }
      ],
      "name": "TokenCreatorPaymentAddressSet",
      "type": "event"
    },
    {
      "anonymous": false,
      "inputs": [
        {
          "indexed": true,
          "internalType": "address",
          "name": "fromCreator",
          "type": "address"
        },
        {
          "indexed": true,
          "internalType": "address",
          "name": "toCreator",
          "type": "address"
        },
        {
          "indexed": true,
          "internalType": "uint256",
          "name": "tokenId",
          "type": "uint256"
        }
      ],
      "name": "TokenCreatorUpdated",
      "type": "event"
    },
    {
      "anonymous": false,
      "inputs": [
        {
          "indexed": true,
          "internalType": "uint256",
          "name": "tokenId",
          "type": "uint256"
        },
        {
          "indexed": true,
          "internalType": "string",
          "name": "indexedTokenIPFSPath",
          "type": "string"
        },
        {
          "indexed": false,
          "internalType": "string",
          "name": "tokenIPFSPath",
          "type": "string"
        }
      ],
      "name": "TokenIPFSPathUpdated",
      "type": "event"
    },
    {
      "anonymous": false,
      "inputs": [
        {
          "indexed": false,
          "internalType": "address",
          "name": "from",
          "type": "address"
        },
        {
          "indexed": false,
          "internalType": "address",
          "name": "to",
          "type": "address"
        },
        {
          "indexed": false,
          "internalType": "uint256",
          "name": "tokenId",
          "type": "uint256"
        }
      ],
      "name": "TokenTransfered",
      "type": "event"
    },
    {
      "anonymous": false,
      "inputs": [
        {
          "indexed": true,
          "internalType": "address",
          "name": "from",
          "type": "address"
        },
        {
          "indexed": true,
          "internalType": "address",
          "name": "to",
          "type": "address"
        },
        {
          "indexed": true,
          "internalType": "uint256",
          "name": "tokenId",
          "type": "uint256"
        }
      ],
      "name": "Transfer",
      "type": "event"
    },
    {
      "inputs": [],
      "name": "DEFAULT_ADMIN_ROLE",
      "outputs": [
        {
          "internalType": "bytes32",
          "name": "",
          "type": "bytes32"
        }
      ],
      "stateMutability": "view",
      "type": "function"
    },
    {
      "inputs": [],
      "name": "GetBaseURI",
      "outputs": [
        {
          "internalType": "string",
          "name": "",
          "type": "string"
        }
      ],
      "stateMutability": "view",
      "type": "function"
    },
    {
      "inputs": [],
      "name": "MINTER_ROLE",
      "outputs": [
        {
          "internalType": "bytes32",
          "name": "",
          "type": "bytes32"
        }
      ],
      "stateMutability": "view",
      "type": "function"
    },
    {
      "inputs": [],
      "name": "OPERATOR_ROLE",
      "outputs": [
        {
          "internalType": "bytes32",
          "name": "",
          "type": "bytes32"
        }
      ],
      "stateMutability": "view",
      "type": "function"
    },
    {
      "inputs": [
        {
          "internalType": "uint256[]",
          "name": "createdTokenIds",
          "type": "uint256[]"
        },
        {
          "internalType": "uint256[]",
          "name": "ownedTokenIds",
          "type": "uint256[]"
        },
        {
          "internalType": "address",
          "name": "originalAddress",
          "type": "address"
        },
        {
          "internalType": "address payable",
          "name": "newAddress",
          "type": "address"
        },
        {
          "internalType": "bytes",
          "name": "signature",
          "type": "bytes"
        }
      ],
      "name": "adminAccountMigration",
      "outputs": [],
      "stateMutability": "nonpayable",
      "type": "function"
    },
    {
      "inputs": [
        {
          "internalType": "address",
          "name": "to",
          "type": "address"
        },
        {
          "internalType": "uint256",
          "name": "tokenId",
          "type": "uint256"
        }
      ],
      "name": "approve",
      "outputs": [],
      "stateMutability": "nonpayable",
      "type": "function"
    },
    {
      "inputs": [
        {
          "internalType": "address",
          "name": "owner",
          "type": "address"
        }
      ],
      "name": "balanceOf",
      "outputs": [
        {
          "internalType": "uint256",
          "name": "",
          "type": "uint256"
        }
      ],
      "stateMutability": "view",
      "type": "function"
    },
    {
      "inputs": [
        {
          "internalType": "uint256",
          "name": "tokenId",
          "type": "uint256"
        }
      ],
      "name": "burn",
      "outputs": [],
      "stateMutability": "nonpayable",
      "type": "function"
    },
    {
      "inputs": [
        {
          "internalType": "uint256",
          "name": "tokenId",
          "type": "uint256"
        }
      ],
      "name": "getApproved",
      "outputs": [
        {
          "internalType": "address",
          "name": "",
          "type": "address"
        }
      ],
      "stateMutability": "view",
      "type": "function"
    },
    {
      "inputs": [
        {
          "internalType": "uint256",
          "name": "",
          "type": "uint256"
        }
      ],
      "name": "getFeeBps",
      "outputs": [
        {
          "internalType": "uint256[]",
          "name": "",
          "type": "uint256[]"
        }
      ],
      "stateMutability": "view",
      "type": "function"
    },
    {
      "inputs": [
        {
          "internalType": "uint256",
          "name": "id",
          "type": "uint256"
        }
      ],
      "name": "getFeeRecipients",
      "outputs": [
        {
          "internalType": "address payable[]",
          "name": "",
          "type": "address[]"
        }
      ],
      "stateMutability": "view",
      "type": "function"
    },
    {
      "inputs": [
        {
          "internalType": "address",
          "name": "creator",
          "type": "address"
        },
        {
          "internalType": "string",
          "name": "tokenIPFSPath",
          "type": "string"
        }
      ],
      "name": "getHasCreatorMintedIPFSHash",
      "outputs": [
        {
          "internalType": "bool",
          "name": "",
          "type": "bool"
        }
      ],
      "stateMutability": "view",
      "type": "function"
    },
    {
      "inputs": [],
      "name": "getMintedTreasury",
      "outputs": [
        {
          "internalType": "address payable",
          "name": "",
          "type": "address"
        }
      ],
      "stateMutability": "view",
      "type": "function"
    },
    {
      "inputs": [],
      "name": "getNFTMarket",
      "outputs": [
        {
          "internalType": "address",
          "name": "",
          "type": "address"
        }
      ],
      "stateMutability": "view",
      "type": "function"
    },
    {
      "inputs": [],
      "name": "getNextTokenId",
      "outputs": [
        {
          "internalType": "uint256",
          "name": "",
          "type": "uint256"
        }
      ],
      "stateMutability": "view",
      "type": "function"
    },
    {
      "inputs": [
        {
          "internalType": "bytes32",
          "name": "role",
          "type": "bytes32"
        }
      ],
      "name": "getRoleAdmin",
      "outputs": [
        {
          "internalType": "bytes32",
          "name": "",
          "type": "bytes32"
        }
      ],
      "stateMutability": "view",
      "type": "function"
    },
    {
      "inputs": [
        {
          "internalType": "uint256",
          "name": "tokenId",
          "type": "uint256"
        }
      ],
      "name": "getRoyalties",
      "outputs": [
        {
          "internalType": "address payable[2]",
          "name": "recipients",
          "type": "address[2]"
        },
        {
          "internalType": "uint256[2]",
          "name": "feesInBasisPoints",
          "type": "uint256[2]"
        }
      ],
      "stateMutability": "view",
      "type": "function"
    },
    {
      "inputs": [
        {
          "internalType": "uint256",
          "name": "tokenId",
          "type": "uint256"
        }
      ],
      "name": "getTokenCreatorPaymentAddress",
      "outputs": [
        {
          "internalType": "address payable",
          "name": "tokenCreatorPaymentAddress",
          "type": "address"
        }
      ],
      "stateMutability": "view",
      "type": "function"
    },
    {
      "inputs": [
        {
          "internalType": "uint256",
          "name": "tokenId",
          "type": "uint256"
        }
      ],
      "name": "getTokenIPFSPath",
      "outputs": [
        {
          "internalType": "string",
          "name": "",
          "type": "string"
        }
      ],
      "stateMutability": "view",
      "type": "function"
    },
    {
      "inputs": [
        {
          "internalType": "address",
          "name": "account",
          "type": "address"
        }
      ],
      "name": "grantAdmin",
      "outputs": [],
      "stateMutability": "nonpayable",
      "type": "function"
    },
    {
      "inputs": [
        {
          "internalType": "address",
          "name": "account",
          "type": "address"
        }
      ],
      "name": "grantMinter",
      "outputs": [],
      "stateMutability": "nonpayable",
      "type": "function"
    },
    {
      "inputs": [
        {
          "internalType": "address",
          "name": "account",
          "type": "address"
        }
      ],
      "name": "grantOperator",
      "outputs": [],
      "stateMutability": "nonpayable",
      "type": "function"
    },
    {
      "inputs": [
        {
          "internalType": "bytes32",
          "name": "role",
          "type": "bytes32"
        },
        {
          "internalType": "address",
          "name": "account",
          "type": "address"
        }
      ],
      "name": "grantRole",
      "outputs": [],
      "stateMutability": "nonpayable",
      "type": "function"
    },
    {
      "inputs": [
        {
          "internalType": "bytes32",
          "name": "role",
          "type": "bytes32"
        },
        {
          "internalType": "address",
          "name": "account",
          "type": "address"
        }
      ],
      "name": "hasRole",
      "outputs": [
        {
          "internalType": "bool",
          "name": "",
          "type": "bool"
        }
      ],
      "stateMutability": "view",
      "type": "function"
    },
    {
      "inputs": [],
      "name": "isAdmin",
      "outputs": [
        {
          "internalType": "bool",
          "name": "",
          "type": "bool"
        }
      ],
      "stateMutability": "view",
      "type": "function"
    },
    {
      "inputs": [
        {
          "internalType": "address",
          "name": "owner",
          "type": "address"
        },
        {
          "internalType": "address",
          "name": "operator",
          "type": "address"
        }
      ],
      "name": "isApprovedForAll",
      "outputs": [
        {
          "internalType": "bool",
          "name": "",
          "type": "bool"
        }
      ],
      "stateMutability": "view",
      "type": "function"
    },
    {
      "inputs": [],
      "name": "isMinter",
      "outputs": [
        {
          "internalType": "bool",
          "name": "",
          "type": "bool"
        }
      ],
      "stateMutability": "view",
      "type": "function"
    },
    {
      "inputs": [],
      "name": "isOperator",
      "outputs": [
        {
          "internalType": "bool",
          "name": "",
          "type": "bool"
        }
      ],
      "stateMutability": "view",
      "type": "function"
    },
    {
      "inputs": [],
      "name": "name",
      "outputs": [
        {
          "internalType": "string",
          "name": "",
          "type": "string"
        }
      ],
      "stateMutability": "view",
      "type": "function"
    },
    {
      "inputs": [
        {
          "internalType": "uint256",
          "name": "tokenId",
          "type": "uint256"
        }
      ],
      "name": "ownerOf",
      "outputs": [
        {
          "internalType": "address",
          "name": "",
          "type": "address"
        }
      ],
      "stateMutability": "view",
      "type": "function"
    },
    {
      "inputs": [
        {
          "internalType": "bytes32",
          "name": "role",
          "type": "bytes32"
        },
        {
          "internalType": "address",
          "name": "account",
          "type": "address"
        }
      ],
      "name": "renounceRole",
      "outputs": [],
      "stateMutability": "nonpayable",
      "type": "function"
    },
    {
      "inputs": [
        {
          "internalType": "address",
          "name": "account",
          "type": "address"
        }
      ],
      "name": "revokeAdmin",
      "outputs": [],
      "stateMutability": "nonpayable",
      "type": "function"
    },
    {
      "inputs": [
        {
          "internalType": "address",
          "name": "account",
          "type": "address"
        }
      ],
      "name": "revokeMinter",
      "outputs": [],
      "stateMutability": "nonpayable",
      "type": "function"
    },
    {
      "inputs": [
        {
          "internalType": "address",
          "name": "account",
          "type": "address"
        }
      ],
      "name": "revokeOperator",
      "outputs": [],
      "stateMutability": "nonpayable",
      "type": "function"
    },
    {
      "inputs": [
        {
          "internalType": "bytes32",
          "name": "role",
          "type": "bytes32"
        },
        {
          "internalType": "address",
          "name": "account",
          "type": "address"
        }
      ],
      "name": "revokeRole",
      "outputs": [],
      "stateMutability": "nonpayable",
      "type": "function"
    },
    {
      "inputs": [
        {
          "internalType": "address",
          "name": "from",
          "type": "address"
        },
        {
          "internalType": "address",
          "name": "to",
          "type": "address"
        },
        {
          "internalType": "uint256",
          "name": "tokenId",
          "type": "uint256"
        }
      ],
      "name": "safeTransferFrom",
      "outputs": [],
      "stateMutability": "nonpayable",
      "type": "function"
    },
    {
      "inputs": [
        {
          "internalType": "address",
          "name": "from",
          "type": "address"
        },
        {
          "internalType": "address",
          "name": "to",
          "type": "address"
        },
        {
          "internalType": "uint256",
          "name": "tokenId",
          "type": "uint256"
        },
        {
          "internalType": "bytes",
          "name": "_data",
          "type": "bytes"
        }
      ],
      "name": "safeTransferFrom",
      "outputs": [],
      "stateMutability": "nonpayable",
      "type": "function"
    },
    {
      "inputs": [
        {
          "internalType": "address",
          "name": "operator",
          "type": "address"
        },
        {
          "internalType": "bool",
          "name": "approved",
          "type": "bool"
        }
      ],
      "name": "setApprovalForAll",
      "outputs": [],
      "stateMutability": "nonpayable",
      "type": "function"
    },
    {
      "inputs": [],
      "name": "symbol",
      "outputs": [
        {
          "internalType": "string",
          "name": "",
          "type": "string"
        }
      ],
      "stateMutability": "view",
      "type": "function"
    },
    {
      "inputs": [
        {
          "internalType": "uint256",
          "name": "tokenId",
          "type": "uint256"
        }
      ],
      "name": "tokenCreator",
      "outputs": [
        {
          "internalType": "address payable",
          "name": "",
          "type": "address"
        }
      ],
      "stateMutability": "view",
      "type": "function"
    },
    {
      "inputs": [],
      "name": "totalOfMintedTokens",
      "outputs": [
        {
          "internalType": "uint256",
          "name": "",
          "type": "uint256"
        }
      ],
      "stateMutability": "view",
      "type": "function"
    },
    {
      "inputs": [
        {
          "internalType": "address",
          "name": "from",
          "type": "address"
        },
        {
          "internalType": "address",
          "name": "to",
          "type": "address"
        },
        {
          "internalType": "uint256",
          "name": "tokenId",
          "type": "uint256"
        }
      ],
      "name": "transferFrom",
      "outputs": [],
      "stateMutability": "nonpayable",
      "type": "function"
    },
    {
      "inputs": [
        {
          "internalType": "address",
          "name": "receiverUserAddress",
          "type": "address"
        }
      ],
      "name": "transferToWallet",
      "outputs": [],
      "stateMutability": "payable",
      "type": "function"
    },
    {
      "inputs": [
        {
          "internalType": "address",
          "name": "newAddress",
          "type": "address"
        },
        {
          "internalType": "uint256",
          "name": "tokenId",
          "type": "uint256"
        }
      ],
      "name": "transferToken",
      "outputs": [],
      "stateMutability": "nonpayable",
      "type": "function"
    },
    {
      "inputs": [
        {
          "internalType": "string",
          "name": "name",
          "type": "string"
        },
        {
          "internalType": "string",
          "name": "symbol",
          "type": "string"
        },
        {
          "internalType": "address",
          "name": "admin",
          "type": "address"
        }
      ],
      "name": "initialize",
      "outputs": [],
      "stateMutability": "nonpayable",
      "type": "function"
    },
    {
      "inputs": [
        {
          "internalType": "address",
          "name": "_nftMarket",
          "type": "address"
        },
        {
          "internalType": "string",
          "name": "baseURI",
          "type": "string"
        },
        {
          "internalType": "string",
          "name": "tempURI",
          "type": "string"
        },
        {
          "internalType": "uint256",
          "name": "maxTokens",
          "type": "uint256"
        }
      ],
      "name": "adminUpdateConfig",
      "outputs": [],
      "stateMutability": "nonpayable",
      "type": "function"
    },
    {
      "inputs": [
        {
          "internalType": "uint256",
          "name": "tokenId",
          "type": "uint256"
        }
      ],
      "name": "tokenURI",
      "outputs": [
        {
          "internalType": "string",
          "name": "",
          "type": "string"
        }
      ],
      "stateMutability": "view",
      "type": "function"
    },
    {
      "inputs": [],
      "name": "mint",
      "outputs": [
        {
          "internalType": "uint256",
          "name": "tokenId",
          "type": "uint256"
        }
      ],
      "stateMutability": "nonpayable",
      "type": "function"
    },
    {
      "inputs": [
        {
          "internalType": "string",
          "name": "tokenIPFSPath",
          "type": "string"
        },
        {
          "internalType": "address",
          "name": "to",
          "type": "address"
        },
        {
          "internalType": "uint256",
          "name": "tokenId",
          "type": "uint256"
        }
      ],
      "name": "mint",
      "outputs": [],
      "stateMutability": "nonpayable",
      "type": "function"
    },
    {
      "inputs": [
        {
          "internalType": "string",
          "name": "tokenIPFSPath",
          "type": "string"
        }
      ],
      "name": "mint",
      "outputs": [
        {
          "internalType": "uint256",
          "name": "tokenId",
          "type": "uint256"
        }
      ],
      "stateMutability": "nonpayable",
      "type": "function"
    },
    {
      "inputs": [
        {
          "internalType": "bytes4",
          "name": "interfaceId",
          "type": "bytes4"
        }
      ],
      "name": "supportsInterface",
      "outputs": [
        {
          "internalType": "bool",
          "name": "",
          "type": "bool"
        }
      ],
      "stateMutability": "view",
      "type": "function"
    }
  ],
  "bytecode": "0x608060405234801561001057600080fd5b50614b4b806100206000396000f3fe6080604052600436106102e45760003560e01c806370a0823111610190578063c87b56dd116100dc578063dac28cce11610095578063e985e9c51161006f578063e985e9c5146108ee578063ec5f752e14610938578063f5b541a614610958578063fad8b32a1461097a57600080fd5b8063dac28cce14610899578063e348da13146108b9578063e7ec78e3146108d957600080fd5b8063c87b56dd146107e1578063caa0f92a14610801578063cfbd488514610817578063d539139314610837578063d547741f14610859578063d85d3d271461087957600080fd5b806395d89b4111610149578063b6db75a011610123578063b6db75a014610751578063b88d4fde14610766578063b9c4d9fb14610786578063bb3bafd6146107b357600080fd5b806395d89b4114610707578063a217fddf1461071c578063a22cb4651461073157600080fd5b806370a0823114610643578063753af00e146106635780637e8816b91461068757806384f4e5c0146106a757806389ca8b71146106c757806391d14854146106e757600080fd5b8063261707fa1161024f5780633fd7ca411161020857806342966c68116101e257806342966c68146105d95780634456eda2146105f957806350e59eb31461060e5780636352211e1461062357600080fd5b80633fd7ca411461056357806340c1a0641461058257806342842e0e146105b957600080fd5b8063261707fa146104ae57806329b79a67146104ce5780632d345670146104e35780632f2ff15d1461050357806335bb3e161461052357806336568abe1461054357600080fd5b80631072cbea116102a15780631072cbea146103e75780631249c58b14610407578063180afb071461042a5780631f31c0ae1461043d57806323b872dd1461045d578063248a9ca31461047d57600080fd5b806301ffc9a7146102e957806306fdde031461031e578063077f224a14610340578063081812fc14610362578063095ea7b31461039a5780630ebd4c7f146103ba575b600080fd5b3480156102f557600080fd5b50610309610304366004613d01565b61099a565b60405190151581526020015b60405180910390f35b34801561032a57600080fd5b506103336109ab565b6040516103159190613d76565b34801561034c57600080fd5b5061036061035b366004613e4a565b610a3e565b005b34801561036e57600080fd5b5061038261037d366004613ec2565b610ad7565b6040516001600160a01b039091168152602001610315565b3480156103a657600080fd5b506103606103b5366004613edb565b610b60565b3480156103c657600080fd5b506103da6103d5366004613ec2565b610c76565b6040516103159190613f07565b3480156103f357600080fd5b50610360610402366004613edb565b610d75565b34801561041357600080fd5b5061041c610e8a565b604051908152602001610315565b610360610438366004613f4b565b610f3f565b34801561044957600080fd5b50610360610458366004613f68565b611014565b34801561046957600080fd5b50610360610478366004613fe6565b6110a7565b34801561048957600080fd5b5061041c610498366004613ec2565b6000908152610835602052604090206001015490565b3480156104ba57600080fd5b506103606104c9366004613f4b565b6110d8565b3480156104da57600080fd5b50610333611129565b3480156104ef57600080fd5b506103606104fe366004613f4b565b611139565b34801561050f57600080fd5b5061036061051e366004614027565b61117d565b34801561052f57600080fd5b5061036061053e366004613f4b565b6111a4565b34801561054f57600080fd5b5061036061055e366004614027565b6111e8565b34801561056f57600080fd5b50611452546001600160a01b0316610382565b34801561058e57600080fd5b5061038261059d366004613ec2565b600090815261106960205260409020546001600160a01b031690565b3480156105c557600080fd5b506103606105d4366004613fe6565b611266565b3480156105e557600080fd5b506103606105f4366004613ec2565b611281565b34801561060557600080fd5b50610309611372565b34801561061a57600080fd5b50610309611391565b34801561062f57600080fd5b5061038261063e366004613ec2565b6113ab565b34801561064f57600080fd5b5061041c61065e366004613f4b565b611423565b34801561066f57600080fd5b506000546201000090046001600160a01b0316610382565b34801561069357600080fd5b506103606106a2366004614057565b6114ab565b3480156106b357600080fd5b506103606106c23660046140e5565b61162b565b3480156106d357600080fd5b506103096106e23660046141d5565b611a03565b3480156106f357600080fd5b50610309610702366004614027565b611a45565b34801561071357600080fd5b50610333611a71565b34801561072857600080fd5b5061041c600081565b34801561073d57600080fd5b5061036061074c366004614225565b611a81565b34801561075d57600080fd5b50610309611b47565b34801561077257600080fd5b50610360610781366004614258565b611b53565b34801561079257600080fd5b506107a66107a1366004613ec2565b611b85565b60405161031591906142d8565b3480156107bf57600080fd5b506107d36107ce366004613ec2565b611c4d565b604051610315929190614319565b3480156107ed57600080fd5b506103336107fc366004613ec2565b611d3b565b34801561080d57600080fd5b506123925461041c565b34801561082357600080fd5b50610360610832366004613f4b565b611e1a565b34801561084357600080fd5b5061041c600080516020614af683398151915281565b34801561086557600080fd5b50610360610874366004614027565b611e6b565b34801561088557600080fd5b5061041c61089436600461437e565b611e92565b3480156108a557600080fd5b506103336108b4366004613ec2565b611f69565b3480156108c557600080fd5b506103606108d4366004613f4b565b611f87565b3480156108e557600080fd5b5061041c611fd8565b3480156108fa57600080fd5b506103096109093660046143b3565b6001600160a01b03918216600090815261103c6020908152604080832093909416825291909152205460ff1690565b34801561094457600080fd5b50610382610953366004613ec2565b611fe4565b34801561096457600080fd5b5061041c600080516020614ad683398151915281565b34801561098657600080fd5b50610360610995366004613f4b565b612022565b60006109a582612073565b92915050565b606061103780546109bb906143e1565b80601f01602080910402602001604051908101604052809291908181526020018280546109e7906143e1565b8015610a345780601f10610a0957610100808354040283529160200191610a34565b820191906000526020600020905b815481529060010190602001808311610a1757829003601f168201915b5050505050905090565b600054610100900460ff1680610a57575060005460ff16155b610a7c5760405162461bcd60e51b8152600401610a739061441c565b60405180910390fd5b600054610100900460ff16158015610a9e576000805461ffff19166101011790555b600061277c55610aae848461207e565b610ab6612105565b610abf82612177565b8015610ad1576000805461ff00191690555b50505050565b6000610ae282612232565b610b435760405162461bcd60e51b815260206004820152602c60248201527f4552433732313a20617070726f76656420717565727920666f72206e6f6e657860448201526b34b9ba32b73a103a37b5b2b760a11b6064820152608401610a73565b50600090815261103b60205260409020546001600160a01b031690565b6000610b6b826113ab565b9050806001600160a01b0316836001600160a01b03161415610bd95760405162461bcd60e51b815260206004820152602160248201527f4552433732313a20617070726f76616c20746f2063757272656e74206f776e656044820152603960f91b6064820152608401610a73565b336001600160a01b0382161480610bf55750610bf58133610909565b610c675760405162461bcd60e51b815260206004820152603860248201527f4552433732313a20617070726f76652063616c6c6572206973206e6f74206f7760448201527f6e6572206e6f7220617070726f76656420666f7220616c6c00000000000000006064820152608401610a73565b610c718383612250565b505050565b606060008061145260009054906101000a90046001600160a01b03166001600160a01b0316635fbbc0d26040518163ffffffff1660e01b815260040160606040518083038186803b158015610cca57600080fd5b505afa158015610cde573d6000803e3d6000fd5b505050506040513d601f19601f82011682018060405250810190610d02919061446a565b60408051600280825260608201909252929550909350600092508160200160208202803683370190505090508281600081518110610d4257610d42614498565b6020026020010181815250508181600181518110610d6257610d62614498565b6020908102919091010152949350505050565b610d7e81612232565b610dbf5760405162461bcd60e51b8152602060048201526012602482015271151bdad95b9251081b5d5cdd08195e1a5cdd60721b6044820152606401610a73565b33610dc9826113ab565b6001600160a01b031614610e325760405162461bcd60e51b815260206004820152602a60248201527f5472616e736665722063616e20626520646f6e65206f6e6c79206279207468656044820152691027232a1037bbb732b960b11b6064820152608401610a73565b610e3d338383611266565b604080513381526001600160a01b03841660208201529081018290527fec61728879a33aa50b55e1f4789dcfc1c680f30a24d7b8694a9f874e242a97b49060600160405180910390a15050565b6000610ea4600080516020614af683398151915233611a45565b610ec05760405162461bcd60e51b8152600401610a73906144ae565b61277c5415610f115760405162461bcd60e51b815260206004820152601760248201527f4d696e743a204d6178206c696d697420726561636865640000000000000000006044820152606401610a73565b610f196122bf565b905061277e54610f296123925490565b1115610f3c57610f3761235f565b61277c555b90565b60003411610f8f5760405162461bcd60e51b815260206004820152601d60248201527f416d6f756e74206d7573742062652067726561746572207468616e20300000006044820152606401610a73565b6040516001600160a01b038216903480156108fc02916000818181858888f19350505050158015610fc4573d6000803e3d6000fd5b50604080516001600160a01b038316815233602082015234918101919091527f8760fef165fbacea4256b4fe8e74018a3a597d74281e4142ace323cab292d897906060015b60405180910390a150565b61101f600033611a45565b6110825760405162461bcd60e51b815260206004820152602e60248201527f41646d696e526f6c653a2063616c6c657220646f6573206e6f7420686176652060448201526d7468652041646d696e20726f6c6560901b6064820152608401610a73565b61108b8461237d565b61109483612436565b61109d8261247a565b610ad18161277e55565b6110b1338261248e565b6110cd5760405162461bcd60e51b8152600401610a73906144fe565b610c71838383612579565b6110f0600080516020614af68339815191528261117d565b6040516001600160a01b03821681527f93e15a6550ecfc8e6edd98132363907de724eed6c5d89ce96917f4d4ff4da1f390602001611009565b606061183c80546109bb906143e1565b611144600082611e6b565b6040516001600160a01b03821681527f631ff1c4e1a02c54b480a34b810e03bcee61fe38efcb243930a7f820914923e290602001611009565b6000828152610835602052604090206001015461119a813361271c565b610c718383612780565b6111af60008261117d565b6040516001600160a01b03821681527f1c4e23de8d72c94b22992bd4d7b6786b215ba876af214ff63e6a0ca38fc97af490602001611009565b6001600160a01b03811633146112585760405162461bcd60e51b815260206004820152602f60248201527f416363657373436f6e74726f6c3a2063616e206f6e6c792072656e6f756e636560448201526e103937b632b9903337b91039b2b63360891b6064820152608401610a73565b6112628282612807565b5050565b610c7183838360405180602001604052806000815250611b53565b6000818152611069602052604090205481906001600160a01b031633146112f65760405162461bcd60e51b8152602060048201526024808201527f4e465437323143726561746f723a2043616c6c6572206973206e6f742063726560448201526330ba37b960e11b6064820152608401610a73565b33611300826113ab565b6001600160a01b0316146113695760405162461bcd60e51b815260206004820152602a60248201527f4e465437323143726561746f723a2043616c6c657220646f6573206e6f74206f6044820152691ddb881d1a194813919560b21b6064820152608401610a73565b6112628261286f565b600061138c600080516020614ad683398151915233611a45565b905090565b600061138c600080516020614af683398151915233611a45565b600081815261103960205260408120546001600160a01b0316806109a55760405162461bcd60e51b815260206004820152602960248201527f4552433732313a206f776e657220717565727920666f72206e6f6e657869737460448201526832b73a103a37b5b2b760b91b6064820152608401610a73565b60006001600160a01b03821661148e5760405162461bcd60e51b815260206004820152602a60248201527f4552433732313a2062616c616e636520717565727920666f7220746865207a65604482015269726f206164647265737360b01b6064820152608401610a73565b506001600160a01b0316600090815261103a602052604090205490565b6114c3600080516020614af683398151915233611a45565b6114df5760405162461bcd60e51b8152600401610a73906144ae565b6298967f811161154b5760405162461bcd60e51b815260206004820152603160248201527f4d696e743a20437573746f6d20546f6b656e4944206d757374206265206869676044820152700686572207468616e20313030303030303607c1b6064820152608401610a73565b61155481612232565b156115a15760405162461bcd60e51b815260206004820152601e60248201527f4d696e743a20546f6b656e496420616c7265616479206578697374656e7400006044820152606401610a73565b6115b061239380546001019055565b6115ba8282612878565b6115c48183612892565b6115ce8184612908565b826040516115dc919061454f565b604051809103902081836001600160a01b03167fe2406cfd356cfbe4e42d452bde96d27f48c423e5f02b5d78695893308399519d8660405161161e9190613d76565b60405180910390a4505050565b838383838080601f01602080910402602001604051908101604052809392919081815260200183838082843760009201919091525061166d9250611372915050565b6116cd5760405162461bcd60e51b815260206004820152602b60248201527f4163636f756e744d6967726174696f6e3a2043616c6c6572206973206e6f742060448201526a30b71037b832b930ba37b960a91b6064820152608401610a73565b816001600160a01b0316836001600160a01b0316141561174c5760405162461bcd60e51b815260206004820152603460248201527f4163636f756e744d6967726174696f6e3a2043616e6e6f74206d696772617465604482015273081d1bc81d1a19481cd85b59481858d8dbdd5b9d60621b6064820152608401610a73565b600061177e61175a84612a40565b60405160200161176a919061456b565b604051602081830303815290604052612bf0565b905061178b848284612c2b565b6117fd5760405162461bcd60e51b815260206004820152603d60248201527f4163636f756e744d6967726174696f6e3a205369676e6174757265206d75737460448201527f2062652066726f6d20746865206f726967696e616c206163636f756e740000006064820152608401610a73565b60005b898110156118b85760008b8b8381811061181c5761181c614498565b90506020020135905061182e81612232565b80156118535750896001600160a01b0316611848826113ab565b6001600160a01b0316145b156118a5576118638a8a83612579565b886001600160a01b03168a6001600160a01b0316827fde55f075ebd46256cd6bd57d8fb53e0406f687db372e90ae8c18e72be46f5c1660405160405180910390a45b50806118b0816145db565b915050611800565b5060005b8b8110156119f45760008d8d838181106118d8576118d8614498565b602090810292909201356000818152611069909352604090922054919250506001600160a01b0316156119e157600081815261106960205260409020546001600160a01b038b81169116146119955760405162461bcd60e51b815260206004820152603960248201527f4e465437323143726561746f723a20546f6b656e20776173206e6f742063726560448201527f617465642062792074686520676976656e2061646472657373000000000000006064820152608401610a73565b61199f818a612892565b886001600160a01b03168a6001600160a01b0316827f58120fb31972ff9fad76eb87119474a58fc38d6b9b842bb3067a4a329eaa64f660405160405180910390a45b50806119ec816145db565b9150506118bc565b50505050505050505050505050565b6001600160a01b038216600090815261183b60205260408082209051611a2a90849061454f565b9081526040519081900360200190205460ff16905092915050565b6000918252610835602090815260408084206001600160a01b0393909316845291905290205460ff1690565b606061103880546109bb906143e1565b6001600160a01b038216331415611ada5760405162461bcd60e51b815260206004820152601960248201527f4552433732313a20617070726f766520746f2063616c6c6572000000000000006044820152606401610a73565b33600081815261103c602090815260408083206001600160a01b03871680855290835292819020805460ff191686151590811790915590519081529192917f17307eab39ab6107e8899845ad3d59bd9653f200f220920489ca2b5937696c31910160405180910390a35050565b600061138c8133611a45565b611b5d338361248e565b611b795760405162461bcd60e51b8152600401610a73906144fe565b610ad184848484612cf6565b6060611b9082612232565b611bac5760405162461bcd60e51b8152600401610a73906145f6565b604080516002808252606082018352600092602083019080368337019050506000549091506201000090046001600160a01b031681600081518110611bf357611bf3614498565b60200260200101906001600160a01b031690816001600160a01b031681525050611c1c83611fe4565b81600181518110611c2f57611c2f614498565b6001600160a01b039092166020928302919091019091015292915050565b611c55613c34565b611c5d613c34565b611c6683612232565b611c825760405162461bcd60e51b8152600401610a73906145f6565b6000546201000090046001600160a01b03168252611c9f83611fe4565b6001600160a01b0390811660208401526114525460408051632fdde06960e11b8152905160009384931691635fbbc0d2916004808301926060929190829003018186803b158015611cef57600080fd5b505afa158015611d03573d6000803e3d6000fd5b505050506040513d601f19601f82011682018060405250810190611d27919061446a565b908552602085015250929491935090915050565b606061277c54600014611d8757600061277c5483611d599190614641565b905061277e54811115611d775761277e54611d749082614659565b90505b611d8081612d29565b9392505050565b61277d8054611d95906143e1565b80601f0160208091040260200160405190810160405280929190818152602001828054611dc1906143e1565b8015611e0e5780601f10611de357610100808354040283529160200191611e0e565b820191906000526020600020905b815481529060010190602001808311611df157829003601f168201915b50505050509050919050565b611e32600080516020614af683398151915282611e6b565b6040516001600160a01b03821681527f44f4322f8daa225d5f4877ad0f7d3dfba248a774396f3ca99405ed40a044fe8190602001611009565b60008281526108356020526040902060010154611e88813361271c565b610c718383612807565b6000611eac600080516020614af683398151915233611a45565b611ec85760405162461bcd60e51b8152600401610a73906144ae565b611ed761239380546001019055565b6123928054906000611ee8836145db565b919050559050611ef83382612878565b611f028133612892565b611f0c8183612908565b81604051611f1a919061454f565b604051809103902081336001600160a01b03167fe2406cfd356cfbe4e42d452bde96d27f48c423e5f02b5d78695893308399519d85604051611f5c9190613d76565b60405180910390a4919050565b600081815261183d60205260409020805460609190611d95906143e1565b611f9f600080516020614ad68339815191528261117d565b6040516001600160a01b03821681527f5b6a420b639feabfb011a07742a6ae14ef72f35d1a330ed65f42216c95bc6c2e90602001611009565b600061138c6123935490565b600081815261106a60205260409020546001600160a01b03168061201d5750600081815261106960205260409020546001600160a01b03165b919050565b61203a600080516020614ad683398151915282611e6b565b6040516001600160a01b03821681527fe672f512db5cb061756ab0b7654938a4293bbc42bc91f74bd0ade5f540a35c8090602001611009565b60006109a582612d34565b600054610100900460ff1680612097575060005460ff16155b6120b35760405162461bcd60e51b8152600401610a739061441c565b600054610100900460ff161580156120d5576000805461ffff19166101011790555b6120dd612d3f565b6120e5612d3f565b6120ef8383612daa565b8015610c71576000805461ff0019169055505050565b600054610100900460ff168061211e575060005460ff16155b61213a5760405162461bcd60e51b8152600401610a739061441c565b600054610100900460ff1615801561215c576000805461ffff19166101011790555b6001612392558015612174576000805461ff00191690555b50565b600054610100900460ff1680612190575060005460ff16155b6121ac5760405162461bcd60e51b8152600401610a739061441c565b600054610100900460ff161580156121ce576000805461ffff19166101011790555b6121d6612e41565b6121e1600083612eb0565b6040516001600160a01b03831681527f75ef91bb959d6f13ca6b596857395ef84913b9db7adbc407d3bf97af614722d29060200160405180910390a18015611262576000805461ff00191690555050565b600090815261103960205260409020546001600160a01b0316151590565b600081815261103b6020526040902080546001600160a01b0319166001600160a01b0384169081179091558190612286826113ab565b6001600160a01b03167f8c5be1e5ebec7d5bd14f71427d1e84f3dd0314c0f7b2291e5b200ac8c7c3b92560405160405180910390a45050565b60006122d9600080516020614af683398151915233611a45565b6122f55760405162461bcd60e51b8152600401610a73906144ae565b61230461239380546001019055565b6123928054906000612315836145db565b9190505590506123253382612878565b61232f8133612892565b604051819033907f30385c845b448a36257a6a1716e6ad2e1bc2cbe333cde1e69fe849ad6511adfe90600090a390565b600061277e54436123709190614686565b905080610f3c5750600190565b6001600160a01b0381163b6123eb5760405162461bcd60e51b815260206004820152602e60248201527f4e46543732314d61726b65743a204d61726b657420616464726573732069732060448201526d1b9bdd08184818dbdb9d1c9858dd60921b6064820152608401610a73565b61145280546001600160a01b0319166001600160a01b0383169081179091556040517f07e7630580d612127ff5f3bd98a1ef992bb87b379fef3b98f2e2ca1ad8e27dd890600090a250565b805161244a9061183c906020840190613c52565b507f6741b2fc379fad678116fe3d4d4b9a1a184ab53ba36b86ad0fa66340b1ab41ad816040516110099190613d76565b80516112629061277d906020840190613c52565b600061249982612232565b6124fa5760405162461bcd60e51b815260206004820152602c60248201527f4552433732313a206f70657261746f7220717565727920666f72206e6f6e657860448201526b34b9ba32b73a103a37b5b2b760a11b6064820152608401610a73565b6000612505836113ab565b9050806001600160a01b0316846001600160a01b031614806125405750836001600160a01b031661253584610ad7565b6001600160a01b0316145b8061257157506001600160a01b03808216600090815261103c602090815260408083209388168352929052205460ff165b949350505050565b826001600160a01b031661258c826113ab565b6001600160a01b0316146125f45760405162461bcd60e51b815260206004820152602960248201527f4552433732313a207472616e73666572206f6620746f6b656e2074686174206960448201526839903737ba1037bbb760b91b6064820152608401610a73565b6001600160a01b0382166126565760405162461bcd60e51b8152602060048201526024808201527f4552433732313a207472616e7366657220746f20746865207a65726f206164646044820152637265737360e01b6064820152608401610a73565b612661600082612250565b6001600160a01b038316600090815261103a6020526040812080546001929061268b908490614659565b90915550506001600160a01b038216600090815261103a602052604081208054600192906126ba908490614641565b90915550506000818152611039602052604080822080546001600160a01b0319166001600160a01b0386811691821790925591518493918716917fddf252ad1be2c89b69c2b068fc378daa952ba7f163c4a11628f55a4df523b3ef91a4505050565b6127268282611a45565b6112625761273e816001600160a01b03166014612eba565b612749836020612eba565b60405160200161275a92919061469a565b60408051601f198184030181529082905262461bcd60e51b8252610a7391600401613d76565b61278a8282611a45565b611262576000828152610835602090815260408083206001600160a01b03851684529091529020805460ff191660011790556127c33390565b6001600160a01b0316816001600160a01b0316837f2f8788117e7eff1d82e926ec794901d17c78024a50270940304540a733656f0d60405160405180910390a45050565b6128118282611a45565b15611262576000828152610835602090815260408083206001600160a01b0385168085529252808320805460ff1916905551339285917ff6391f5c32d9c69d2a47ea670b442974b53935d1edc7fd64eb21e047a839171b9190a45050565b61217481613056565b61126282826040518060200160405280600081525061305f565b6000828152611069602052604080822054905184926001600160a01b038086169316917febd529444fe852bfccb40075e8f8cae7612ea20edebdf5143c72718ccb157f759190a46000918252611069602052604090912080546001600160a01b0319166001600160a01b03909216919091179055565b602e815110156129645760405162461bcd60e51b815260206004820152602160248201527f4e46543732314d657461646174613a20496e76616c69642049504653207061746044820152600d60fb1b6064820152608401610a73565b33600090815261183b602052604090819020905161298390839061454f565b9081526040519081900360200190205460ff16156129f25760405162461bcd60e51b815260206004820152602660248201527f4e46543732314d657461646174613a204e46542077617320616c7265616479206044820152651b5a5b9d195960d21b6064820152608401610a73565b33600090815261183b602052604090819020905160019190612a1590849061454f565b908152604051908190036020019020805491151560ff19909216919091179055611262828233613092565b60408051602a808252606082810190935260009190602082018180368337019050509050600360fc1b81600081518110612a7c57612a7c614498565b60200101906001600160f81b031916908160001a905350600f60fb1b81600181518110612aab57612aab614498565b60200101906001600160f81b031916908160001a90535060005b6014811015612be9576000612adb826013614659565b612ae690600861470f565b612af1906002614812565b612b04906001600160a01b03871661481e565b60f81b9050600060108260f81c612b1b9190614832565b60f81b905060008160f81c6010612b329190614854565b8360f81c612b409190614875565b60f81b9050612b4e82613145565b85612b5a86600261470f565b612b65906002614641565b81518110612b7557612b75614498565b60200101906001600160f81b031916908160001a905350612b9581613145565b85612ba186600261470f565b612bac906003614641565b81518110612bbc57612bbc614498565b60200101906001600160f81b031916908160001a9053505050508080612be1906145db565b915050612ac5565b5092915050565b6000612bfc825161317b565b82604051602001612c0e929190614898565b604051602081830303815290604052805190602001209050919050565b6000833b15612cd057604051630b135d3f60e11b81526001600160a01b03851690631626ba7e90612c6290869086906004016148f3565b60206040518083038186803b158015612c7a57600080fd5b505afa925050508015612caa575060408051601f3d908101601f19168201909252612ca79181019061490c565b60015b612cb657506000611d80565b6001600160e01b031916630b135d3f60e11b149050611d80565b836001600160a01b0316612ce48484613279565b6001600160a01b031614949350505050565b612d01848484612579565b612d0d8484848461329d565b610ad15760405162461bcd60e51b8152600401610a7390614929565b60606109a5826133aa565b60006109a582613515565b600054610100900460ff1680612d58575060005460ff16155b612d745760405162461bcd60e51b8152600401610a739061441c565b600054610100900460ff16158015612d96576000805461ffff19166101011790555b8015612174576000805461ff001916905550565b600054610100900460ff1680612dc3575060005460ff16155b612ddf5760405162461bcd60e51b8152600401610a739061441c565b600054610100900460ff16158015612e01576000805461ffff19166101011790555b8251612e1590611037906020860190613c52565b508151612e2a90611038906020850190613c52565b508015610c71576000805461ff0019169055505050565b600054610100900460ff1680612e5a575060005460ff16155b612e765760405162461bcd60e51b8152600401610a739061441c565b600054610100900460ff16158015612e98576000805461ffff19166101011790555b612ea0612d3f565b612ea8612d3f565b612d96612d3f565b6112628282612780565b60606000612ec983600261470f565b612ed4906002614641565b67ffffffffffffffff811115612eec57612eec613d89565b6040519080825280601f01601f191660200182016040528015612f16576020820181803683370190505b509050600360fc1b81600081518110612f3157612f31614498565b60200101906001600160f81b031916908160001a905350600f60fb1b81600181518110612f6057612f60614498565b60200101906001600160f81b031916908160001a9053506000612f8484600261470f565b612f8f906001614641565b90505b6001811115613007576f181899199a1a9b1b9c1cb0b131b232b360811b85600f1660108110612fc357612fc3614498565b1a60f81b828281518110612fd957612fd9614498565b60200101906001600160f81b031916908160001a90535060049490941c936130008161497b565b9050612f92565b508315611d805760405162461bcd60e51b815260206004820181905260248201527f537472696e67733a20686578206c656e67746820696e73756666696369656e746044820152606401610a73565b61217481613520565b613069838361356d565b613076600084848461329d565b610c715760405162461bcd60e51b8152600401610a7390614929565b61309b83612232565b6130f35760405162461bcd60e51b8152602060048201526024808201527f4d61737465723a2055524920736574206f66206e6f6e6578697374656e74207460448201526337b5b2b760e11b6064820152608401610a73565b600083815261183d60209081526040909120835161311392850190613c52565b50600092835261183e602052604090922080546001600160a01b0319166001600160a01b039093169290921790915550565b6000600a60f883901c101561316c5761316360f883901c6030614992565b60f81b92915050565b61316360f883901c6057614992565b60608161319f5750506040805180820190915260018152600360fc1b602082015290565b8160005b81156131c957806131b3816145db565b91506131c29050600a8361481e565b91506131a3565b60008167ffffffffffffffff8111156131e4576131e4613d89565b6040519080825280601f01601f19166020018201604052801561320e576020820181803683370190505b5090505b841561257157613223600183614659565b9150613230600a86614686565b61323b906030614641565b60f81b81838151811061325057613250614498565b60200101906001600160f81b031916908160001a905350613272600a8661481e565b9450613212565b600080600061328885856136a2565b9150915061329581613712565b509392505050565b60006001600160a01b0384163b1561339f57604051630a85bd0160e11b81526001600160a01b0385169063150b7a02906132e19033908990889088906004016149b7565b602060405180830381600087803b1580156132fb57600080fd5b505af192505050801561332b575060408051601f3d908101601f191682019092526133289181019061490c565b60015b613385573d808015613359576040519150601f19603f3d011682016040523d82523d6000602084013e61335e565b606091505b50805161337d5760405162461bcd60e51b8152600401610a7390614929565b805181602001fd5b6001600160e01b031916630a85bd0160e11b149050612571565b506001949350505050565b60606133b582612232565b6134115760405162461bcd60e51b815260206004820152602760248201527f4d61737465723a2055524920717565727920666f72206e6f6e6578697374656e6044820152663a103a37b5b2b760c91b6064820152608401610a73565b600082815261183d60205260408120805461342b906143e1565b80601f0160208091040260200160405190810160405280929190818152602001828054613457906143e1565b80156134a45780601f10613479576101008083540402835291602001916134a4565b820191906000526020600020905b81548152906001019060200180831161348757829003601f168201915b5050505050905060006134b56138cd565b90508051600014156134c8575092915050565b8151156134fa5780826040516020016134e29291906149f4565b60405160208183030381529060405292505050919050565b80613504856138d7565b6040516020016134e29291906149f4565b60006109a5826139d5565b33600090815261183b6020908152604080832084845261183d909252918290209151909161354d91614a23565b908152604051908190036020019020805460ff19169055612174816139e0565b6001600160a01b0382166135c35760405162461bcd60e51b815260206004820181905260248201527f4552433732313a206d696e7420746f20746865207a65726f20616464726573736044820152606401610a73565b6135cc81612232565b156136195760405162461bcd60e51b815260206004820152601c60248201527f4552433732313a20746f6b656e20616c7265616479206d696e746564000000006044820152606401610a73565b6001600160a01b038216600090815261103a60205260408120805460019290613643908490614641565b90915550506000818152611039602052604080822080546001600160a01b0319166001600160a01b03861690811790915590518392907fddf252ad1be2c89b69c2b068fc378daa952ba7f163c4a11628f55a4df523b3ef908290a45050565b6000808251604114156136d95760208301516040840151606085015160001a6136cd87828585613a06565b9450945050505061370b565b82516040141561370357602083015160408401516136f8868383613af3565b93509350505061370b565b506000905060025b9250929050565b600081600481111561372657613726614abf565b141561372f5750565b600181600481111561374357613743614abf565b14156137915760405162461bcd60e51b815260206004820152601860248201527f45434453413a20696e76616c6964207369676e617475726500000000000000006044820152606401610a73565b60028160048111156137a5576137a5614abf565b14156137f35760405162461bcd60e51b815260206004820152601f60248201527f45434453413a20696e76616c6964207369676e6174757265206c656e677468006044820152606401610a73565b600381600481111561380757613807614abf565b14156138605760405162461bcd60e51b815260206004820152602260248201527f45434453413a20696e76616c6964207369676e6174757265202773272076616c604482015261756560f01b6064820152608401610a73565b600481600481111561387457613874614abf565b14156121745760405162461bcd60e51b815260206004820152602260248201527f45434453413a20696e76616c6964207369676e6174757265202776272076616c604482015261756560f01b6064820152608401610a73565b606061138c611129565b6060816138fb5750506040805180820190915260018152600360fc1b602082015290565b8160005b8115613925578061390f816145db565b915061391e9050600a8361481e565b91506138ff565b60008167ffffffffffffffff81111561394057613940613d89565b6040519080825280601f01601f19166020018201604052801561396a576020820181803683370190505b5090505b84156125715761397f600183614659565b915061398c600a86614686565b613997906030614641565b60f81b8183815181106139ac576139ac614498565b60200101906001600160f81b031916908160001a9053506139ce600a8661481e565b945061396e565b60006109a582613b22565b60008181526110696020526040902080546001600160a01b031916905561217481613b62565b6000807f7fffffffffffffffffffffffffffffff5d576e7357a4501ddfe92f46681b20a0831115613a3d5750600090506003613aea565b8460ff16601b14158015613a5557508460ff16601c14155b15613a665750600090506004613aea565b6040805160008082526020820180845289905260ff881692820192909252606081018690526080810185905260019060a0016020604051602081039080840390855afa158015613aba573d6000803e3d6000fd5b5050604051601f1901519150506001600160a01b038116613ae357600060019250925050613aea565b9150600090505b94509492505050565b6000806001600160ff1b03831660ff84901c601b01613b1487828885613a06565b935093505050935093915050565b60006001600160e01b031982166380ac58cd60e01b1480613b5357506001600160e01b03198216635b5e139f60e01b145b806109a557506109a582613bff565b6000613b6d826113ab565b9050613b7a600083612250565b6001600160a01b038116600090815261103a60205260408120805460019290613ba4908490614659565b90915550506000828152611039602052604080822080546001600160a01b0319169055518391906001600160a01b038416907fddf252ad1be2c89b69c2b068fc378daa952ba7f163c4a11628f55a4df523b3ef908390a45050565b60006001600160e01b03198216637965db0b60e01b14806109a557506301ffc9a760e01b6001600160e01b03198316146109a5565b60405180604001604052806002906020820280368337509192915050565b828054613c5e906143e1565b90600052602060002090601f016020900481019282613c805760008555613cc6565b82601f10613c9957805160ff1916838001178555613cc6565b82800160010185558215613cc6579182015b82811115613cc6578251825591602001919060010190613cab565b50613cd2929150613cd6565b5090565b5b80821115613cd25760008155600101613cd7565b6001600160e01b03198116811461217457600080fd5b600060208284031215613d1357600080fd5b8135611d8081613ceb565b60005b83811015613d39578181015183820152602001613d21565b83811115610ad15750506000910152565b60008151808452613d62816020860160208601613d1e565b601f01601f19169290920160200192915050565b602081526000611d806020830184613d4a565b634e487b7160e01b600052604160045260246000fd5b600067ffffffffffffffff80841115613dba57613dba613d89565b604051601f8501601f19908116603f01168101908282118183101715613de257613de2613d89565b81604052809350858152868686011115613dfb57600080fd5b858560208301376000602087830101525050509392505050565b600082601f830112613e2657600080fd5b611d8083833560208501613d9f565b6001600160a01b038116811461217457600080fd5b600080600060608486031215613e5f57600080fd5b833567ffffffffffffffff80821115613e7757600080fd5b613e8387838801613e15565b94506020860135915080821115613e9957600080fd5b50613ea686828701613e15565b9250506040840135613eb781613e35565b809150509250925092565b600060208284031215613ed457600080fd5b5035919050565b60008060408385031215613eee57600080fd5b8235613ef981613e35565b946020939093013593505050565b6020808252825182820181905260009190848201906040850190845b81811015613f3f57835183529284019291840191600101613f23565b50909695505050505050565b600060208284031215613f5d57600080fd5b8135611d8081613e35565b60008060008060808587031215613f7e57600080fd5b8435613f8981613e35565b9350602085013567ffffffffffffffff80821115613fa657600080fd5b613fb288838901613e15565b94506040870135915080821115613fc857600080fd5b50613fd587828801613e15565b949793965093946060013593505050565b600080600060608486031215613ffb57600080fd5b833561400681613e35565b9250602084013561401681613e35565b929592945050506040919091013590565b6000806040838503121561403a57600080fd5b82359150602083013561404c81613e35565b809150509250929050565b60008060006060848603121561406c57600080fd5b833567ffffffffffffffff81111561408357600080fd5b61408f86828701613e15565b935050602084013561401681613e35565b60008083601f8401126140b257600080fd5b50813567ffffffffffffffff8111156140ca57600080fd5b6020830191508360208260051b850101111561370b57600080fd5b60008060008060008060008060a0898b03121561410157600080fd5b883567ffffffffffffffff8082111561411957600080fd5b6141258c838d016140a0565b909a50985060208b013591508082111561413e57600080fd5b61414a8c838d016140a0565b909850965060408b0135915061415f82613e35565b90945060608a01359061417182613e35565b90935060808a0135908082111561418757600080fd5b818b0191508b601f83011261419b57600080fd5b8135818111156141aa57600080fd5b8c60208285010111156141bc57600080fd5b6020830194508093505050509295985092959890939650565b600080604083850312156141e857600080fd5b82356141f381613e35565b9150602083013567ffffffffffffffff81111561420f57600080fd5b61421b85828601613e15565b9150509250929050565b6000806040838503121561423857600080fd5b823561424381613e35565b91506020830135801515811461404c57600080fd5b6000806000806080858703121561426e57600080fd5b843561427981613e35565b9350602085013561428981613e35565b925060408501359150606085013567ffffffffffffffff8111156142ac57600080fd5b8501601f810187136142bd57600080fd5b6142cc87823560208401613d9f565b91505092959194509250565b6020808252825182820181905260009190848201906040850190845b81811015613f3f5783516001600160a01b0316835292840192918401916001016142f4565b60808101818460005b600281101561434a5781516001600160a01b0316835260209283019290910190600101614322565b505050604082018360005b6002811015614374578151835260209283019290910190600101614355565b5050509392505050565b60006020828403121561439057600080fd5b813567ffffffffffffffff8111156143a757600080fd5b61257184828501613e15565b600080604083850312156143c657600080fd5b82356143d181613e35565b9150602083013561404c81613e35565b600181811c908216806143f557607f821691505b6020821081141561441657634e487b7160e01b600052602260045260246000fd5b50919050565b6020808252602e908201527f496e697469616c697a61626c653a20636f6e747261637420697320616c72656160408201526d191e481a5b9a5d1a585b1a5e995960921b606082015260800190565b60008060006060848603121561447f57600080fd5b8351925060208401519150604084015190509250925092565b634e487b7160e01b600052603260045260246000fd5b60208082526030908201527f4d696e746572526f6c653a2063616c6c657220646f6573206e6f74206861766560408201526f20746865204d696e74657220726f6c6560801b606082015260800190565b60208082526031908201527f4552433732313a207472616e736665722063616c6c6572206973206e6f74206f6040820152701ddb995c881b9bdc88185c1c1c9bdd9959607a1b606082015260800190565b60008251614561818460208701613d1e565b9190910192915050565b7f4920617574686f72697a65204d696e74656420746f206d696772617465206d7981526b01030b1b1b7bab73a103a37960a51b6020820152600082516145b881602c850160208701613d1e565b91909101602c0192915050565b634e487b7160e01b600052601160045260246000fd5b60006000198214156145ef576145ef6145c5565b5060010190565b6020808252602b908201527f4552433732314d657461646174613a20517565727920666f72206e6f6e65786960408201526a39ba32b73a103a37b5b2b760a91b606082015260800190565b60008219821115614654576146546145c5565b500190565b60008282101561466b5761466b6145c5565b500390565b634e487b7160e01b600052601260045260246000fd5b60008261469557614695614670565b500690565b7f416363657373436f6e74726f6c3a206163636f756e74200000000000000000008152600083516146d2816017850160208801613d1e565b7001034b99036b4b9b9b4b733903937b6329607d1b6017918401918201528351614703816028840160208801613d1e565b01602801949350505050565b6000816000190483118215151615614729576147296145c5565b500290565b600181815b8085111561476957816000190482111561474f5761474f6145c5565b8085161561475c57918102915b93841c9390800290614733565b509250929050565b600082614780575060016109a5565b8161478d575060006109a5565b81600181146147a357600281146147ad576147c9565b60019150506109a5565b60ff8411156147be576147be6145c5565b50506001821b6109a5565b5060208310610133831016604e8410600b84101617156147ec575081810a6109a5565b6147f6838361472e565b806000190482111561480a5761480a6145c5565b029392505050565b6000611d808383614771565b60008261482d5761482d614670565b500490565b600060ff83168061484557614845614670565b8060ff84160491505092915050565b600060ff821660ff84168160ff048111821515161561480a5761480a6145c5565b600060ff821660ff84168082101561488f5761488f6145c5565b90039392505050565b7f19457468657265756d205369676e6564204d6573736167653a0a0000000000008152600083516148d081601a850160208801613d1e565b8351908301906148e781601a840160208801613d1e565b01601a01949350505050565b8281526040602082015260006125716040830184613d4a565b60006020828403121561491e57600080fd5b8151611d8081613ceb565b60208082526032908201527f4552433732313a207472616e7366657220746f206e6f6e20455243373231526560408201527131b2b4bb32b91034b6b83632b6b2b73a32b960711b606082015260800190565b60008161498a5761498a6145c5565b506000190190565b600060ff821660ff84168060ff038211156149af576149af6145c5565b019392505050565b6001600160a01b03858116825284166020820152604081018390526080606082018190526000906149ea90830184613d4a565b9695505050505050565b60008351614a06818460208801613d1e565b835190830190614a1a818360208801613d1e565b01949350505050565b600080835481600182811c915080831680614a3f57607f831692505b6020808410821415614a5f57634e487b7160e01b86526022600452602486fd5b818015614a735760018114614a8457614ab1565b60ff19861689528489019650614ab1565b60008a81526020902060005b86811015614aa95781548b820152908501908301614a90565b505084890196505b509498975050505050505050565b634e487b7160e01b600052602160045260246000fdfe97667070c54ef182b0f5858b034beac1b6f3089aa2d3188bb1e8929f4fa9b9299f2df0fed2c77648de5860a4cc508cd0818c85b8b8a1ab4ceeef8d981c8956a6a26469706673582212206db6d71f014932a7881d9a6d007a639068d9f7ae1e8d649f7135bcab519261f764736f6c63430008090033",
  "immutableReferences": {},
  "source": "/*\r\n::::    :::::  :::::::::  ::::    :::  :::::::::  :::::::::  :::::::::  \r\n+:+:+: :+:+:+     :+:     :+:+:   :+:     :+:     :+:        :+:    :+: \r\n+:+ +:+:+ +:+     +:+     :+:+:+  +:+     +:+     +:+        +:+    +:+ \r\n+#+  +:+  +#+     +#+     +#+ +:+ +#+     +#+     +#++:++#   +#+    +:+ \r\n+#+       +#+     +#+     +#+  +#+#+#     +#+     +#+        +#+    +#+ \r\n#+#       #+#     #+#     #+#   #+#+#     #+#     #+#        #+#    #+# \r\n###       ###  #########  ###    ####     ###     #########  #########  \r\n*/\r\n// SPDX-License-Identifier: Non-Licensed\r\npragma solidity ^0.8.0;\r\n\r\nimport \"@openzeppelin/contracts-upgradeable/token/ERC721/ERC721Upgradeable.sol\";\r\n\r\nimport \"./mixins/roles/AdminRole.sol\";\r\nimport \"./mixins/roles/OperatorRole.sol\";\r\nimport \"./mixins/NFT721Core.sol\";\r\nimport \"./mixins/NFT721Creator.sol\";\r\nimport \"./mixins/NFT721Metadata.sol\";\r\nimport \"./mixins/NFT721Mint.sol\";\r\nimport \"./mixins/NFT721Market.sol\";\r\nimport \"./mixins/AccountMigration.sol\";\r\n\r\n/**\r\n * @title Minted NFTs implemented using the ERC-721 standard.\r\n * @dev This top level file holds no data directly to ease future upgrades.\r\n */\r\n \r\ncontract NftoonRegeleV4 is\r\n  AdminRole,\r\n  OperatorRole,\r\n  AccountMigration,\r\n  ERC721Upgradeable,\r\n  NFT721Creator,\r\n  NFT721Market,\r\n  NFT721Metadata,\r\n  NFT721Core,\r\n  NFT721Mint  \r\n{\r\n  using Counters for Counters.Counter;\r\n\r\n  uint256 private startingIndex;\r\n  string _tempURI;\r\n  uint256 _maxTokens;\r\n\r\n\r\n  /**\r\n   * @notice Called once to configure the contract after the initial deployment.\r\n   * @dev This farms the initialize call out to inherited contracts as needed.\r\n   */\r\n  function initialize(\r\n    string memory name,\r\n    string memory symbol,\r\n    address admin\r\n  ) public initializer {\r\n    startingIndex = 0;\r\n    ERC721Upgradeable.__ERC721_init(name, symbol);\r\n    NFT721Mint._initializeNFT721Mint();\r\n    AdminRole._initializeAdminRole(admin);\r\n  }\r\n\r\n  function _baseURI() internal view virtual override(ERC721Upgradeable, NFT721Metadata, NFT721Mint) returns (string memory) {\r\n    return GetBaseURI();\r\n  }\r\n\r\n  /**\r\n   * @notice Allows a Minted admin to update NFT config variables.\r\n   * @dev This must be called right after the initial call to `initialize`.\r\n   */\r\n   function adminUpdateConfig(\r\n    address _nftMarket,\r\n    string memory baseURI,\r\n    string memory tempURI,\r\n    uint256 maxTokens\r\n  ) public onlyAdmin {\r\n    _updateNFTMarket(_nftMarket);\r\n    _updateBaseURI(baseURI);\r\n    _updateTempURI(tempURI);\r\n    _updateMaxTokens(maxTokens);\r\n  }\r\n\r\n  /**\r\n   * @dev This is a no-op, just an explicit override to address compile errors due to inheritance.\r\n   */\r\n  function _burn(uint256 tokenId) internal override(ERC721Upgradeable, NFT721Creator, NFT721Metadata, NFT721Mint) {\r\n    super._burn(tokenId);\r\n  }\r\n\r\n   function tokenURI(uint256 tokenId) public view virtual override(ERC721Upgradeable, NFT721Metadata, NFT721Mint) returns (string memory) {\r\n     if(startingIndex != 0){\r\n       uint256 id = tokenId + startingIndex;\r\n       if( id > _maxTokens){\r\n         id = id - _maxTokens;\r\n       }\r\n       return super.tokenURI(id);\r\n     }\r\n     return _tempURI;\r\n   }\r\n\r\n   //mint\r\n   function mint() public virtual override onlyMinter returns (uint256 tokenId) {\r\n      require(startingIndex == 0, \"Mint: Max limit reached\");\r\n\r\n      tokenId = super.mint();\r\n\r\n      if(getNextTokenId() > _maxTokens){\r\n        startingIndex = _calculateStartingIndex();\r\n      }\r\n\r\n      return tokenId;\r\n  }\r\n\r\n  function _calculateStartingIndex() internal view returns (uint256 index){\r\n    index = block.number % _maxTokens;\r\n    if (index == 0){\r\n      index = 1;\r\n    }\r\n    return index;\r\n  }\r\n\r\n  function _updateTempURI(string memory tempURI) internal {\r\n    _tempURI = tempURI;\r\n  }\r\n\r\n  function _updateMaxTokens(uint256 maxTokens) internal {\r\n    _maxTokens = maxTokens;\r\n  }\r\n  \r\n  function supportsInterface(bytes4 interfaceId) public view virtual override( ERC721Upgradeable, NFT721Mint, NFT721Market, NFT721Metadata, AccessControlUpgradeable, NFT721Creator) returns (bool) {\r\n    return super.supportsInterface(interfaceId);\r\n  }\r\n}",
  "sourcePath": "C:\\alex\\nft\\openZeppelin\\mintedBasic\\contracts\\minted\\NftoonRegeleV4.sol",
  "compiler": {
    "name": "solc",
    "version": "0.8.9+commit.e5eed63a.Emscripten.clang"
  },
  "schemaVersion": "3.4.3",
  "updatedAt": "2022-03-24T15:32:37.311Z",
  "devdoc": {
    "details": "This top level file holds no data directly to ease future upgrades.",
    "kind": "dev",
    "methods": {
      "adminAccountMigration(uint256[],uint256[],address,address,bytes)": {
        "details": "This will gracefully skip any NFTs that have been burned or transferred.",
        "params": {
          "signature": "Message `I authorize Minted to migrate my account to ${newAccount.address.toLowerCase()}` signed by the original account."
        }
      },
      "adminUpdateConfig(address,string,string,uint256)": {
        "details": "This must be called right after the initial call to `initialize`."
      },
      "approve(address,uint256)": {
        "details": "See {IERC721-approve}."
      },
      "balanceOf(address)": {
        "details": "See {IERC721-balanceOf}."
      },
      "getApproved(uint256)": {
        "details": "See {IERC721-getApproved}."
      },
      "getRoleAdmin(bytes32)": {
        "details": "Returns the admin role that controls `role`. See {grantRole} and {revokeRole}. To change a role's admin, use {_setRoleAdmin}."
      },
      "getTokenCreatorPaymentAddress(uint256)": {
        "details": "If an alternate address was not defined, the creator is returned instead."
      },
      "grantRole(bytes32,address)": {
        "details": "Grants `role` to `account`. If `account` had not been already granted `role`, emits a {RoleGranted} event. Requirements: - the caller must have ``role``'s admin role."
      },
      "hasRole(bytes32,address)": {
        "details": "Returns `true` if `account` has been granted `role`."
      },
      "initialize(string,string,address)": {
        "details": "This farms the initialize call out to inherited contracts as needed."
      },
      "isApprovedForAll(address,address)": {
        "details": "See {IERC721-isApprovedForAll}."
      },
      "name()": {
        "details": "See {IERC721Metadata-name}."
      },
      "ownerOf(uint256)": {
        "details": "See {IERC721-ownerOf}."
      },
      "renounceRole(bytes32,address)": {
        "details": "Revokes `role` from the calling account. Roles are often managed via {grantRole} and {revokeRole}: this function's purpose is to provide a mechanism for accounts to lose their privileges if they are compromised (such as when a trusted device is misplaced). If the calling account had been granted `role`, emits a {RoleRevoked} event. Requirements: - the caller must be `account`."
      },
      "revokeRole(bytes32,address)": {
        "details": "Revokes `role` from `account`. If `account` had been granted `role`, emits a {RoleRevoked} event. Requirements: - the caller must have ``role``'s admin role."
      },
      "safeTransferFrom(address,address,uint256)": {
        "details": "See {IERC721-safeTransferFrom}."
      },
      "safeTransferFrom(address,address,uint256,bytes)": {
        "details": "See {IERC721-safeTransferFrom}."
      },
      "setApprovalForAll(address,bool)": {
        "details": "See {IERC721-setApprovalForAll}."
      },
      "symbol()": {
        "details": "See {IERC721Metadata-symbol}."
      },
      "transferFrom(address,address,uint256)": {
        "details": "See {IERC721-transferFrom}."
      }
    },
    "title": "Minted NFTs implemented using the ERC-721 standard.",
    "version": 1
  },
  "userdoc": {
    "kind": "user",
    "methods": {
      "adminAccountMigration(uint256[],uint256[],address,address,bytes)": {
        "notice": "Allows an NFT owner or creator and Minted to work together in order to update the creator to a new account and/or transfer NFTs to that account."
      },
      "adminUpdateConfig(address,string,string,uint256)": {
        "notice": "Allows a Minted admin to update NFT config variables."
      },
      "burn(uint256)": {
        "notice": "Allows the creator to burn if they currently own the NFT."
      },
      "getFeeBps(uint256)": {
        "notice": "Returns an array of fees in basis points. The expected recipients is communicated with `getFeeRecipients`."
      },
      "getFeeRecipients(uint256)": {
        "notice": "Returns an array of recipient addresses to which fees should be sent. The expected fee amount is communicated with `getFeeBps`."
      },
      "getHasCreatorMintedIPFSHash(address,string)": {
        "notice": "Checks if the creator has already minted a given NFT."
      },
      "getMintedTreasury()": {
        "notice": "Returns the address of the Minted treasury."
      },
      "getNFTMarket()": {
        "notice": "Returns the address of the Minted NFTMarket contract."
      },
      "getNextTokenId()": {
        "notice": "Gets the tokenId of the next NFT minted."
      },
      "getRoyalties(uint256)": {
        "notice": "Get fee recipients and fees in a single call. The data is the same as when calling getFeeRecipients and getFeeBps separately."
      },
      "getTokenCreatorPaymentAddress(uint256)": {
        "notice": "Returns the payment address for a given tokenId."
      },
      "getTokenIPFSPath(uint256)": {
        "notice": "Returns the IPFSPath to the metadata JSON file for a given NFT."
      },
      "initialize(string,string,address)": {
        "notice": "Called once to configure the contract after the initial deployment."
      },
      "mint()": {
        "notice": "Allows a creator to mint an NFT."
      },
      "tokenCreator(uint256)": {
        "notice": "Returns the creator's address for a given tokenId."
      }
    },
    "version": 1
  }
}