{
  "contractName": "NftoonMainV2",
  "abi": [
    {
      "anonymous": false,
      "inputs": [
        {
          "indexed": false,
          "internalType": "address",
          "name": "admin",
          "type": "address"
        }
      ],
      "name": "AdminGranted",
      "type": "event"
    },
    {
      "anonymous": false,
      "inputs": [
        {
          "indexed": false,
          "internalType": "address",
          "name": "admin",
          "type": "address"
        }
      ],
      "name": "AdminInitiated",
      "type": "event"
    },
    {
      "anonymous": false,
      "inputs": [
        {
          "indexed": false,
          "internalType": "address",
          "name": "admin",
          "type": "address"
        }
      ],
      "name": "AdminRevoked",
      "type": "event"
    },
    {
      "anonymous": false,
      "inputs": [
        {
          "indexed": false,
          "internalType": "address",
          "name": "toAddress",
          "type": "address"
        },
        {
          "indexed": false,
          "internalType": "address",
          "name": "fromAddress",
          "type": "address"
        },
        {
          "indexed": false,
          "internalType": "uint256",
          "name": "amount",
          "type": "uint256"
        }
      ],
      "name": "AmountTransferred",
      "type": "event"
    },
    {
      "anonymous": false,
      "inputs": [
        {
          "indexed": true,
          "internalType": "address",
          "name": "owner",
          "type": "address"
        },
        {
          "indexed": true,
          "internalType": "address",
          "name": "approved",
          "type": "address"
        },
        {
          "indexed": true,
          "internalType": "uint256",
          "name": "tokenId",
          "type": "uint256"
        }
      ],
      "name": "Approval",
      "type": "event"
    },
    {
      "anonymous": false,
      "inputs": [
        {
          "indexed": true,
          "internalType": "address",
          "name": "owner",
          "type": "address"
        },
        {
          "indexed": true,
          "internalType": "address",
          "name": "operator",
          "type": "address"
        },
        {
          "indexed": false,
          "internalType": "bool",
          "name": "approved",
          "type": "bool"
        }
      ],
      "name": "ApprovalForAll",
      "type": "event"
    },
    {
      "anonymous": false,
      "inputs": [
        {
          "indexed": false,
          "internalType": "string",
          "name": "baseURI",
          "type": "string"
        }
      ],
      "name": "BaseURIUpdated",
      "type": "event"
    },
    {
      "anonymous": false,
      "inputs": [
        {
          "indexed": true,
          "internalType": "address",
          "name": "creator",
          "type": "address"
        },
        {
          "indexed": true,
          "internalType": "uint256",
          "name": "tokenId",
          "type": "uint256"
        },
        {
          "indexed": true,
          "internalType": "string",
          "name": "indexedTokenIPFSPath",
          "type": "string"
        },
        {
          "indexed": false,
          "internalType": "string",
          "name": "tokenIPFSPath",
          "type": "string"
        }
      ],
      "name": "Minted",
      "type": "event"
    },
    {
      "anonymous": false,
      "inputs": [
        {
          "indexed": false,
          "internalType": "address",
          "name": "admin",
          "type": "address"
        }
      ],
      "name": "MinterGranted",
      "type": "event"
    },
    {
      "anonymous": false,
      "inputs": [
        {
          "indexed": false,
          "internalType": "address",
          "name": "admin",
          "type": "address"
        }
      ],
      "name": "MinterRevoked",
      "type": "event"
    },
    {
      "anonymous": false,
      "inputs": [
        {
          "indexed": true,
          "internalType": "uint256",
          "name": "tokenId",
          "type": "uint256"
        },
        {
          "indexed": true,
          "internalType": "address",
          "name": "originalAddress",
          "type": "address"
        },
        {
          "indexed": true,
          "internalType": "address",
          "name": "newAddress",
          "type": "address"
        }
      ],
      "name": "NFTCreatorMigrated",
      "type": "event"
    },
    {
      "anonymous": false,
      "inputs": [
        {
          "indexed": true,
          "internalType": "address",
          "name": "nftMarket",
          "type": "address"
        }
      ],
      "name": "NFTMarketUpdated",
      "type": "event"
    },
    {
      "anonymous": false,
      "inputs": [
        {
          "indexed": false,
          "internalType": "string",
          "name": "name",
          "type": "string"
        },
        {
          "indexed": false,
          "internalType": "string",
          "name": "symbol",
          "type": "string"
        },
        {
          "indexed": false,
          "internalType": "string",
          "name": "baseURI",
          "type": "string"
        }
      ],
      "name": "NFTMetadataUpdated",
      "type": "event"
    },
    {
      "anonymous": false,
      "inputs": [
        {
          "indexed": true,
          "internalType": "uint256",
          "name": "tokenId",
          "type": "uint256"
        },
        {
          "indexed": true,
          "internalType": "address",
          "name": "originalAddress",
          "type": "address"
        },
        {
          "indexed": true,
          "internalType": "address",
          "name": "newAddress",
          "type": "address"
        }
      ],
      "name": "NFTOwnerMigrated",
      "type": "event"
    },
    {
      "anonymous": false,
      "inputs": [
        {
          "indexed": false,
          "internalType": "address",
          "name": "admin",
          "type": "address"
        }
      ],
      "name": "OperatoRevoked",
      "type": "event"
    },
    {
      "anonymous": false,
      "inputs": [
        {
          "indexed": false,
          "internalType": "address",
          "name": "admin",
          "type": "address"
        }
      ],
      "name": "OperatorGranted",
      "type": "event"
    },
    {
      "anonymous": false,
      "inputs": [
        {
          "indexed": true,
          "internalType": "uint256",
          "name": "tokenId",
          "type": "uint256"
        },
        {
          "indexed": true,
          "internalType": "address",
          "name": "originalAddress",
          "type": "address"
        },
        {
          "indexed": true,
          "internalType": "address",
          "name": "newAddress",
          "type": "address"
        },
        {
          "indexed": false,
          "internalType": "address",
          "name": "originalPaymentAddress",
          "type": "address"
        },
        {
          "indexed": false,
          "internalType": "address",
          "name": "newPaymentAddress",
          "type": "address"
        }
      ],
      "name": "PaymentAddressMigrated",
      "type": "event"
    },
    {
      "anonymous": false,
      "inputs": [
        {
          "indexed": true,
          "internalType": "bytes32",
          "name": "role",
          "type": "bytes32"
        },
        {
          "indexed": true,
          "internalType": "bytes32",
          "name": "previousAdminRole",
          "type": "bytes32"
        },
        {
          "indexed": true,
          "internalType": "bytes32",
          "name": "newAdminRole",
          "type": "bytes32"
        }
      ],
      "name": "RoleAdminChanged",
      "type": "event"
    },
    {
      "anonymous": false,
      "inputs": [
        {
          "indexed": true,
          "internalType": "bytes32",
          "name": "role",
          "type": "bytes32"
        },
        {
          "indexed": true,
          "internalType": "address",
          "name": "account",
          "type": "address"
        },
        {
          "indexed": true,
          "internalType": "address",
          "name": "sender",
          "type": "address"
        }
      ],
      "name": "RoleGranted",
      "type": "event"
    },
    {
      "anonymous": false,
      "inputs": [
        {
          "indexed": true,
          "internalType": "bytes32",
          "name": "role",
          "type": "bytes32"
        },
        {
          "indexed": true,
          "internalType": "address",
          "name": "account",
          "type": "address"
        },
        {
          "indexed": true,
          "internalType": "address",
          "name": "sender",
          "type": "address"
        }
      ],
      "name": "RoleRevoked",
      "type": "event"
    },
    {
      "anonymous": false,
      "inputs": [
        {
          "indexed": true,
          "internalType": "address",
          "name": "fromPaymentAddress",
          "type": "address"
        },
        {
          "indexed": true,
          "internalType": "address",
          "name": "toPaymentAddress",
          "type": "address"
        },
        {
          "indexed": true,
          "internalType": "uint256",
          "name": "tokenId",
          "type": "uint256"
        }
      ],
      "name": "TokenCreatorPaymentAddressSet",
      "type": "event"
    },
    {
      "anonymous": false,
      "inputs": [
        {
          "indexed": true,
          "internalType": "address",
          "name": "fromCreator",
          "type": "address"
        },
        {
          "indexed": true,
          "internalType": "address",
          "name": "toCreator",
          "type": "address"
        },
        {
          "indexed": true,
          "internalType": "uint256",
          "name": "tokenId",
          "type": "uint256"
        }
      ],
      "name": "TokenCreatorUpdated",
      "type": "event"
    },
    {
      "anonymous": false,
      "inputs": [
        {
          "indexed": true,
          "internalType": "uint256",
          "name": "tokenId",
          "type": "uint256"
        },
        {
          "indexed": true,
          "internalType": "string",
          "name": "indexedTokenIPFSPath",
          "type": "string"
        },
        {
          "indexed": false,
          "internalType": "string",
          "name": "tokenIPFSPath",
          "type": "string"
        }
      ],
      "name": "TokenIPFSPathUpdated",
      "type": "event"
    },
    {
      "anonymous": false,
      "inputs": [
        {
          "indexed": false,
          "internalType": "address",
          "name": "from",
          "type": "address"
        },
        {
          "indexed": false,
          "internalType": "address",
          "name": "to",
          "type": "address"
        },
        {
          "indexed": false,
          "internalType": "uint256",
          "name": "tokenId",
          "type": "uint256"
        }
      ],
      "name": "TokenTransfered",
      "type": "event"
    },
    {
      "anonymous": false,
      "inputs": [
        {
          "indexed": true,
          "internalType": "address",
          "name": "from",
          "type": "address"
        },
        {
          "indexed": true,
          "internalType": "address",
          "name": "to",
          "type": "address"
        },
        {
          "indexed": true,
          "internalType": "uint256",
          "name": "tokenId",
          "type": "uint256"
        }
      ],
      "name": "Transfer",
      "type": "event"
    },
    {
      "inputs": [],
      "name": "DEFAULT_ADMIN_ROLE",
      "outputs": [
        {
          "internalType": "bytes32",
          "name": "",
          "type": "bytes32"
        }
      ],
      "stateMutability": "view",
      "type": "function",
      "constant": true
    },
    {
      "inputs": [],
      "name": "GetBaseURI",
      "outputs": [
        {
          "internalType": "string",
          "name": "",
          "type": "string"
        }
      ],
      "stateMutability": "view",
      "type": "function",
      "constant": true
    },
    {
      "inputs": [],
      "name": "MINTER_ROLE",
      "outputs": [
        {
          "internalType": "bytes32",
          "name": "",
          "type": "bytes32"
        }
      ],
      "stateMutability": "view",
      "type": "function",
      "constant": true
    },
    {
      "inputs": [],
      "name": "OPERATOR_ROLE",
      "outputs": [
        {
          "internalType": "bytes32",
          "name": "",
          "type": "bytes32"
        }
      ],
      "stateMutability": "view",
      "type": "function",
      "constant": true
    },
    {
      "inputs": [
        {
          "internalType": "uint256[]",
          "name": "createdTokenIds",
          "type": "uint256[]"
        },
        {
          "internalType": "uint256[]",
          "name": "ownedTokenIds",
          "type": "uint256[]"
        },
        {
          "internalType": "address",
          "name": "originalAddress",
          "type": "address"
        },
        {
          "internalType": "address payable",
          "name": "newAddress",
          "type": "address"
        },
        {
          "internalType": "bytes",
          "name": "signature",
          "type": "bytes"
        }
      ],
      "name": "adminAccountMigration",
      "outputs": [],
      "stateMutability": "nonpayable",
      "type": "function"
    },
    {
      "inputs": [
        {
          "internalType": "address",
          "name": "to",
          "type": "address"
        },
        {
          "internalType": "uint256",
          "name": "tokenId",
          "type": "uint256"
        }
      ],
      "name": "approve",
      "outputs": [],
      "stateMutability": "nonpayable",
      "type": "function"
    },
    {
      "inputs": [
        {
          "internalType": "address",
          "name": "owner",
          "type": "address"
        }
      ],
      "name": "balanceOf",
      "outputs": [
        {
          "internalType": "uint256",
          "name": "",
          "type": "uint256"
        }
      ],
      "stateMutability": "view",
      "type": "function",
      "constant": true
    },
    {
      "inputs": [
        {
          "internalType": "uint256",
          "name": "tokenId",
          "type": "uint256"
        }
      ],
      "name": "burn",
      "outputs": [],
      "stateMutability": "nonpayable",
      "type": "function"
    },
    {
      "inputs": [
        {
          "internalType": "uint256",
          "name": "tokenId",
          "type": "uint256"
        }
      ],
      "name": "getApproved",
      "outputs": [
        {
          "internalType": "address",
          "name": "",
          "type": "address"
        }
      ],
      "stateMutability": "view",
      "type": "function",
      "constant": true
    },
    {
      "inputs": [
        {
          "internalType": "uint256",
          "name": "",
          "type": "uint256"
        }
      ],
      "name": "getFeeBps",
      "outputs": [
        {
          "internalType": "uint256[]",
          "name": "",
          "type": "uint256[]"
        }
      ],
      "stateMutability": "view",
      "type": "function",
      "constant": true
    },
    {
      "inputs": [
        {
          "internalType": "uint256",
          "name": "id",
          "type": "uint256"
        }
      ],
      "name": "getFeeRecipients",
      "outputs": [
        {
          "internalType": "address payable[]",
          "name": "",
          "type": "address[]"
        }
      ],
      "stateMutability": "view",
      "type": "function",
      "constant": true
    },
    {
      "inputs": [
        {
          "internalType": "address",
          "name": "creator",
          "type": "address"
        },
        {
          "internalType": "string",
          "name": "tokenIPFSPath",
          "type": "string"
        }
      ],
      "name": "getHasCreatorMintedIPFSHash",
      "outputs": [
        {
          "internalType": "bool",
          "name": "",
          "type": "bool"
        }
      ],
      "stateMutability": "view",
      "type": "function",
      "constant": true
    },
    {
      "inputs": [],
      "name": "getMintedTreasury",
      "outputs": [
        {
          "internalType": "address payable",
          "name": "",
          "type": "address"
        }
      ],
      "stateMutability": "view",
      "type": "function",
      "constant": true
    },
    {
      "inputs": [],
      "name": "getNFTMarket",
      "outputs": [
        {
          "internalType": "address",
          "name": "",
          "type": "address"
        }
      ],
      "stateMutability": "view",
      "type": "function",
      "constant": true
    },
    {
      "inputs": [],
      "name": "getNextTokenId",
      "outputs": [
        {
          "internalType": "uint256",
          "name": "",
          "type": "uint256"
        }
      ],
      "stateMutability": "view",
      "type": "function",
      "constant": true
    },
    {
      "inputs": [
        {
          "internalType": "bytes32",
          "name": "role",
          "type": "bytes32"
        }
      ],
      "name": "getRoleAdmin",
      "outputs": [
        {
          "internalType": "bytes32",
          "name": "",
          "type": "bytes32"
        }
      ],
      "stateMutability": "view",
      "type": "function",
      "constant": true
    },
    {
      "inputs": [
        {
          "internalType": "uint256",
          "name": "tokenId",
          "type": "uint256"
        }
      ],
      "name": "getRoyalties",
      "outputs": [
        {
          "internalType": "address payable[2]",
          "name": "recipients",
          "type": "address[2]"
        },
        {
          "internalType": "uint256[2]",
          "name": "feesInBasisPoints",
          "type": "uint256[2]"
        }
      ],
      "stateMutability": "view",
      "type": "function",
      "constant": true
    },
    {
      "inputs": [
        {
          "internalType": "uint256",
          "name": "tokenId",
          "type": "uint256"
        }
      ],
      "name": "getTokenCreatorPaymentAddress",
      "outputs": [
        {
          "internalType": "address payable",
          "name": "tokenCreatorPaymentAddress",
          "type": "address"
        }
      ],
      "stateMutability": "view",
      "type": "function",
      "constant": true
    },
    {
      "inputs": [
        {
          "internalType": "uint256",
          "name": "tokenId",
          "type": "uint256"
        }
      ],
      "name": "getTokenIPFSPath",
      "outputs": [
        {
          "internalType": "string",
          "name": "",
          "type": "string"
        }
      ],
      "stateMutability": "view",
      "type": "function",
      "constant": true
    },
    {
      "inputs": [
        {
          "internalType": "address",
          "name": "account",
          "type": "address"
        }
      ],
      "name": "grantAdmin",
      "outputs": [],
      "stateMutability": "nonpayable",
      "type": "function"
    },
    {
      "inputs": [
        {
          "internalType": "address",
          "name": "account",
          "type": "address"
        }
      ],
      "name": "grantMinter",
      "outputs": [],
      "stateMutability": "nonpayable",
      "type": "function"
    },
    {
      "inputs": [
        {
          "internalType": "address",
          "name": "account",
          "type": "address"
        }
      ],
      "name": "grantOperator",
      "outputs": [],
      "stateMutability": "nonpayable",
      "type": "function"
    },
    {
      "inputs": [
        {
          "internalType": "bytes32",
          "name": "role",
          "type": "bytes32"
        },
        {
          "internalType": "address",
          "name": "account",
          "type": "address"
        }
      ],
      "name": "grantRole",
      "outputs": [],
      "stateMutability": "nonpayable",
      "type": "function"
    },
    {
      "inputs": [
        {
          "internalType": "bytes32",
          "name": "role",
          "type": "bytes32"
        },
        {
          "internalType": "address",
          "name": "account",
          "type": "address"
        }
      ],
      "name": "hasRole",
      "outputs": [
        {
          "internalType": "bool",
          "name": "",
          "type": "bool"
        }
      ],
      "stateMutability": "view",
      "type": "function",
      "constant": true
    },
    {
      "inputs": [],
      "name": "isAdmin",
      "outputs": [
        {
          "internalType": "bool",
          "name": "",
          "type": "bool"
        }
      ],
      "stateMutability": "view",
      "type": "function",
      "constant": true
    },
    {
      "inputs": [
        {
          "internalType": "address",
          "name": "owner",
          "type": "address"
        },
        {
          "internalType": "address",
          "name": "operator",
          "type": "address"
        }
      ],
      "name": "isApprovedForAll",
      "outputs": [
        {
          "internalType": "bool",
          "name": "",
          "type": "bool"
        }
      ],
      "stateMutability": "view",
      "type": "function",
      "constant": true
    },
    {
      "inputs": [],
      "name": "isMinter",
      "outputs": [
        {
          "internalType": "bool",
          "name": "",
          "type": "bool"
        }
      ],
      "stateMutability": "view",
      "type": "function",
      "constant": true
    },
    {
      "inputs": [],
      "name": "isOperator",
      "outputs": [
        {
          "internalType": "bool",
          "name": "",
          "type": "bool"
        }
      ],
      "stateMutability": "view",
      "type": "function",
      "constant": true
    },
    {
      "inputs": [],
      "name": "mint",
      "outputs": [
        {
          "internalType": "uint256",
          "name": "tokenId",
          "type": "uint256"
        }
      ],
      "stateMutability": "nonpayable",
      "type": "function"
    },
    {
      "inputs": [
        {
          "internalType": "string",
          "name": "tokenIPFSPath",
          "type": "string"
        },
        {
          "internalType": "address",
          "name": "to",
          "type": "address"
        },
        {
          "internalType": "uint256",
          "name": "tokenId",
          "type": "uint256"
        }
      ],
      "name": "mint",
      "outputs": [],
      "stateMutability": "nonpayable",
      "type": "function"
    },
    {
      "inputs": [
        {
          "internalType": "string",
          "name": "tokenIPFSPath",
          "type": "string"
        }
      ],
      "name": "mint",
      "outputs": [
        {
          "internalType": "uint256",
          "name": "tokenId",
          "type": "uint256"
        }
      ],
      "stateMutability": "nonpayable",
      "type": "function"
    },
    {
      "inputs": [],
      "name": "name",
      "outputs": [
        {
          "internalType": "string",
          "name": "",
          "type": "string"
        }
      ],
      "stateMutability": "view",
      "type": "function",
      "constant": true
    },
    {
      "inputs": [
        {
          "internalType": "uint256",
          "name": "tokenId",
          "type": "uint256"
        }
      ],
      "name": "ownerOf",
      "outputs": [
        {
          "internalType": "address",
          "name": "",
          "type": "address"
        }
      ],
      "stateMutability": "view",
      "type": "function",
      "constant": true
    },
    {
      "inputs": [
        {
          "internalType": "bytes32",
          "name": "role",
          "type": "bytes32"
        },
        {
          "internalType": "address",
          "name": "account",
          "type": "address"
        }
      ],
      "name": "renounceRole",
      "outputs": [],
      "stateMutability": "nonpayable",
      "type": "function"
    },
    {
      "inputs": [
        {
          "internalType": "address",
          "name": "account",
          "type": "address"
        }
      ],
      "name": "revokeAdmin",
      "outputs": [],
      "stateMutability": "nonpayable",
      "type": "function"
    },
    {
      "inputs": [
        {
          "internalType": "address",
          "name": "account",
          "type": "address"
        }
      ],
      "name": "revokeMinter",
      "outputs": [],
      "stateMutability": "nonpayable",
      "type": "function"
    },
    {
      "inputs": [
        {
          "internalType": "address",
          "name": "account",
          "type": "address"
        }
      ],
      "name": "revokeOperator",
      "outputs": [],
      "stateMutability": "nonpayable",
      "type": "function"
    },
    {
      "inputs": [
        {
          "internalType": "bytes32",
          "name": "role",
          "type": "bytes32"
        },
        {
          "internalType": "address",
          "name": "account",
          "type": "address"
        }
      ],
      "name": "revokeRole",
      "outputs": [],
      "stateMutability": "nonpayable",
      "type": "function"
    },
    {
      "inputs": [
        {
          "internalType": "address",
          "name": "from",
          "type": "address"
        },
        {
          "internalType": "address",
          "name": "to",
          "type": "address"
        },
        {
          "internalType": "uint256",
          "name": "tokenId",
          "type": "uint256"
        }
      ],
      "name": "safeTransferFrom",
      "outputs": [],
      "stateMutability": "nonpayable",
      "type": "function"
    },
    {
      "inputs": [
        {
          "internalType": "address",
          "name": "from",
          "type": "address"
        },
        {
          "internalType": "address",
          "name": "to",
          "type": "address"
        },
        {
          "internalType": "uint256",
          "name": "tokenId",
          "type": "uint256"
        },
        {
          "internalType": "bytes",
          "name": "_data",
          "type": "bytes"
        }
      ],
      "name": "safeTransferFrom",
      "outputs": [],
      "stateMutability": "nonpayable",
      "type": "function"
    },
    {
      "inputs": [
        {
          "internalType": "address",
          "name": "operator",
          "type": "address"
        },
        {
          "internalType": "bool",
          "name": "approved",
          "type": "bool"
        }
      ],
      "name": "setApprovalForAll",
      "outputs": [],
      "stateMutability": "nonpayable",
      "type": "function"
    },
    {
      "inputs": [],
      "name": "symbol",
      "outputs": [
        {
          "internalType": "string",
          "name": "",
          "type": "string"
        }
      ],
      "stateMutability": "view",
      "type": "function",
      "constant": true
    },
    {
      "inputs": [
        {
          "internalType": "uint256",
          "name": "tokenId",
          "type": "uint256"
        }
      ],
      "name": "tokenCreator",
      "outputs": [
        {
          "internalType": "address payable",
          "name": "",
          "type": "address"
        }
      ],
      "stateMutability": "view",
      "type": "function",
      "constant": true
    },
    {
      "inputs": [],
      "name": "totalOfMintedTokens",
      "outputs": [
        {
          "internalType": "uint256",
          "name": "",
          "type": "uint256"
        }
      ],
      "stateMutability": "view",
      "type": "function",
      "constant": true
    },
    {
      "inputs": [
        {
          "internalType": "address",
          "name": "from",
          "type": "address"
        },
        {
          "internalType": "address",
          "name": "to",
          "type": "address"
        },
        {
          "internalType": "uint256",
          "name": "tokenId",
          "type": "uint256"
        }
      ],
      "name": "transferFrom",
      "outputs": [],
      "stateMutability": "nonpayable",
      "type": "function"
    },
    {
      "inputs": [
        {
          "internalType": "address",
          "name": "receiverUserAddress",
          "type": "address"
        }
      ],
      "name": "transferToWallet",
      "outputs": [],
      "stateMutability": "payable",
      "type": "function",
      "payable": true
    },
    {
      "inputs": [
        {
          "internalType": "address",
          "name": "newAddress",
          "type": "address"
        },
        {
          "internalType": "uint256",
          "name": "tokenId",
          "type": "uint256"
        }
      ],
      "name": "transferToken",
      "outputs": [],
      "stateMutability": "nonpayable",
      "type": "function"
    },
    {
      "inputs": [
        {
          "internalType": "string",
          "name": "name",
          "type": "string"
        },
        {
          "internalType": "string",
          "name": "symbol",
          "type": "string"
        },
        {
          "internalType": "address",
          "name": "admin",
          "type": "address"
        }
      ],
      "name": "initialize",
      "outputs": [],
      "stateMutability": "nonpayable",
      "type": "function"
    },
    {
      "inputs": [
        {
          "internalType": "address",
          "name": "_nftMarket",
          "type": "address"
        },
        {
          "internalType": "string",
          "name": "baseURI",
          "type": "string"
        }
      ],
      "name": "adminUpdateConfig",
      "outputs": [],
      "stateMutability": "nonpayable",
      "type": "function"
    },
    {
      "inputs": [
        {
          "internalType": "uint256",
          "name": "tokenId",
          "type": "uint256"
        }
      ],
      "name": "tokenURI",
      "outputs": [
        {
          "internalType": "string",
          "name": "",
          "type": "string"
        }
      ],
      "stateMutability": "view",
      "type": "function",
      "constant": true
    },
    {
      "inputs": [
        {
          "internalType": "bytes4",
          "name": "interfaceId",
          "type": "bytes4"
        }
      ],
      "name": "supportsInterface",
      "outputs": [
        {
          "internalType": "bool",
          "name": "",
          "type": "bool"
        }
      ],
      "stateMutability": "view",
      "type": "function",
      "constant": true
    }
  ],
  "bytecode": "0x608060405234801561001057600080fd5b506149b3806100206000396000f3fe6080604052600436106102e45760003560e01c8063753af00e11610190578063c87b56dd116100dc578063dac28cce11610095578063e985e9c51161006f578063e985e9c5146108ee578063ec5f752e14610938578063f5b541a614610958578063fad8b32a1461097a57600080fd5b8063dac28cce14610899578063e348da13146108b9578063e7ec78e3146108d957600080fd5b8063c87b56dd146107e1578063caa0f92a14610801578063cfbd488514610817578063d539139314610837578063d547741f14610859578063d85d3d271461087957600080fd5b8063a217fddf11610149578063b6db75a011610123578063b6db75a014610751578063b88d4fde14610766578063b9c4d9fb14610786578063bb3bafd6146107b357600080fd5b8063a217fddf146106fc578063a22cb46514610711578063a4b52df11461073157600080fd5b8063753af00e146106435780637e8816b91461066757806384f4e5c01461068757806389ca8b71146106a757806391d14854146106c757806395d89b41146106e757600080fd5b806329b79a671161024f57806340c1a064116102085780634456eda2116101e25780634456eda2146105d957806350e59eb3146105ee5780636352211e1461060357806370a082311461062357600080fd5b806340c1a0641461056257806342842e0e1461059957806342966c68146105b957600080fd5b806329b79a67146104ae5780632d345670146104c35780632f2ff15d146104e357806335bb3e161461050357806336568abe146105235780633fd7ca411461054357600080fd5b80631072cbea116102a15780631072cbea146103e75780631249c58b14610407578063180afb071461042a57806323b872dd1461043d578063248a9ca31461045d578063261707fa1461048e57600080fd5b806301ffc9a7146102e957806306fdde031461031e578063077f224a14610340578063081812fc14610362578063095ea7b31461039a5780630ebd4c7f146103ba575b600080fd5b3480156102f557600080fd5b50610309610304366004613be7565b61099a565b60405190151581526020015b60405180910390f35b34801561032a57600080fd5b506103336109ab565b6040516103159190613c5c565b34801561034c57600080fd5b5061036061035b366004613d30565b610a3e565b005b34801561036e57600080fd5b5061038261037d366004613da8565b610ad1565b6040516001600160a01b039091168152602001610315565b3480156103a657600080fd5b506103606103b5366004613dc1565b610b5a565b3480156103c657600080fd5b506103da6103d5366004613da8565b610c70565b6040516103159190613ded565b3480156103f357600080fd5b50610360610402366004613dc1565b610d6f565b34801561041357600080fd5b5061041c610e84565b604051908152602001610315565b610360610438366004613e31565b610f57565b34801561044957600080fd5b50610360610458366004613e4e565b61102c565b34801561046957600080fd5b5061041c610478366004613da8565b6000908152610835602052604090206001015490565b34801561049a57600080fd5b506103606104a9366004613e31565b61105d565b3480156104ba57600080fd5b506103336110ae565b3480156104cf57600080fd5b506103606104de366004613e31565b6110be565b3480156104ef57600080fd5b506103606104fe366004613e8f565b611102565b34801561050f57600080fd5b5061036061051e366004613e31565b611129565b34801561052f57600080fd5b5061036061053e366004613e8f565b61116d565b34801561054f57600080fd5b50611452546001600160a01b0316610382565b34801561056e57600080fd5b5061038261057d366004613da8565b600090815261106960205260409020546001600160a01b031690565b3480156105a557600080fd5b506103606105b4366004613e4e565b6111eb565b3480156105c557600080fd5b506103606105d4366004613da8565b611206565b3480156105e557600080fd5b506103096112f7565b3480156105fa57600080fd5b50610309611316565b34801561060f57600080fd5b5061038261061e366004613da8565b611330565b34801561062f57600080fd5b5061041c61063e366004613e31565b6113a8565b34801561064f57600080fd5b506000546201000090046001600160a01b0316610382565b34801561067357600080fd5b50610360610682366004613ebf565b611430565b34801561069357600080fd5b506103606106a2366004613f4d565b6115b0565b3480156106b357600080fd5b506103096106c236600461403d565b611988565b3480156106d357600080fd5b506103096106e2366004613e8f565b6119ca565b3480156106f357600080fd5b506103336119f6565b34801561070857600080fd5b5061041c600081565b34801561071d57600080fd5b5061036061072c36600461408d565b611a06565b34801561073d57600080fd5b5061036061074c36600461403d565b611acc565b34801561075d57600080fd5b50610309611b4c565b34801561077257600080fd5b506103606107813660046140c0565b611b58565b34801561079257600080fd5b506107a66107a1366004613da8565b611b8a565b6040516103159190614140565b3480156107bf57600080fd5b506107d36107ce366004613da8565b611c52565b604051610315929190614181565b3480156107ed57600080fd5b506103336107fc366004613da8565b611d40565b34801561080d57600080fd5b506123925461041c565b34801561082357600080fd5b50610360610832366004613e31565b611d4b565b34801561084357600080fd5b5061041c60008051602061495e83398151915281565b34801561086557600080fd5b50610360610874366004613e8f565b611d9c565b34801561088557600080fd5b5061041c6108943660046141e6565b611dc3565b3480156108a557600080fd5b506103336108b4366004613da8565b611e9a565b3480156108c557600080fd5b506103606108d4366004613e31565b611f3d565b3480156108e557600080fd5b5061041c611f8e565b3480156108fa57600080fd5b5061030961090936600461421b565b6001600160a01b03918216600090815261103c6020908152604080832093909416825291909152205460ff1690565b34801561094457600080fd5b50610382610953366004613da8565b611f9a565b34801561096457600080fd5b5061041c60008051602061493e83398151915281565b34801561098657600080fd5b50610360610995366004613e31565b611fd8565b60006109a582612029565b92915050565b606061103780546109bb90614249565b80601f01602080910402602001604051908101604052809291908181526020018280546109e790614249565b8015610a345780601f10610a0957610100808354040283529160200191610a34565b820191906000526020600020905b815481529060010190602001808311610a1757829003601f168201915b5050505050905090565b600054610100900460ff1680610a57575060005460ff16155b610a7c5760405162461bcd60e51b8152600401610a7390614284565b60405180910390fd5b600054610100900460ff16158015610a9e576000805461ffff19166101011790555b610aa88484612034565b610ab06120bb565b610ab98261212d565b8015610acb576000805461ff00191690555b50505050565b6000610adc826121e8565b610b3d5760405162461bcd60e51b815260206004820152602c60248201527f4552433732313a20617070726f76656420717565727920666f72206e6f6e657860448201526b34b9ba32b73a103a37b5b2b760a11b6064820152608401610a73565b50600090815261103b60205260409020546001600160a01b031690565b6000610b6582611330565b9050806001600160a01b0316836001600160a01b03161415610bd35760405162461bcd60e51b815260206004820152602160248201527f4552433732313a20617070726f76616c20746f2063757272656e74206f776e656044820152603960f91b6064820152608401610a73565b336001600160a01b0382161480610bef5750610bef8133610909565b610c615760405162461bcd60e51b815260206004820152603860248201527f4552433732313a20617070726f76652063616c6c6572206973206e6f74206f7760448201527f6e6572206e6f7220617070726f76656420666f7220616c6c00000000000000006064820152608401610a73565b610c6b8383612206565b505050565b606060008061145260009054906101000a90046001600160a01b03166001600160a01b0316635fbbc0d26040518163ffffffff1660e01b815260040160606040518083038186803b158015610cc457600080fd5b505afa158015610cd8573d6000803e3d6000fd5b505050506040513d601f19601f82011682018060405250810190610cfc91906142d2565b60408051600280825260608201909252929550909350600092508160200160208202803683370190505090508281600081518110610d3c57610d3c614300565b6020026020010181815250508181600181518110610d5c57610d5c614300565b6020908102919091010152949350505050565b610d78816121e8565b610db95760405162461bcd60e51b8152602060048201526012602482015271151bdad95b9251081b5d5cdd08195e1a5cdd60721b6044820152606401610a73565b33610dc382611330565b6001600160a01b031614610e2c5760405162461bcd60e51b815260206004820152602a60248201527f5472616e736665722063616e20626520646f6e65206f6e6c79206279207468656044820152691027232a1037bbb732b960b11b6064820152608401610a73565b610e373383836111eb565b604080513381526001600160a01b03841660208201529081018290527fec61728879a33aa50b55e1f4789dcfc1c680f30a24d7b8694a9f874e242a97b49060600160405180910390a15050565b6000610e9e60008051602061495e833981519152336119ca565b610eba5760405162461bcd60e51b8152600401610a7390614316565b610ec961239380546001019055565b6123928054906000610eda8361437c565b919050559050610eea3382612275565b610ef4813361228f565b6040805160208082526000908201527fc5d2460186f7233c927e7db2dcc703c0e500b653ca82273b7bfad8045d85a47091839133917fe2406cfd356cfbe4e42d452bde96d27f48c423e5f02b5d78695893308399519d910160405180910390a490565b60003411610fa75760405162461bcd60e51b815260206004820152601d60248201527f416d6f756e74206d7573742062652067726561746572207468616e20300000006044820152606401610a73565b6040516001600160a01b038216903480156108fc02916000818181858888f19350505050158015610fdc573d6000803e3d6000fd5b50604080516001600160a01b038316815233602082015234918101919091527f8760fef165fbacea4256b4fe8e74018a3a597d74281e4142ace323cab292d897906060015b60405180910390a150565b6110363382612305565b6110525760405162461bcd60e51b8152600401610a7390614397565b610c6b8383836123f0565b61107560008051602061495e83398151915282611102565b6040516001600160a01b03821681527f93e15a6550ecfc8e6edd98132363907de724eed6c5d89ce96917f4d4ff4da1f390602001611021565b606061183c80546109bb90614249565b6110c9600082611d9c565b6040516001600160a01b03821681527f631ff1c4e1a02c54b480a34b810e03bcee61fe38efcb243930a7f820914923e290602001611021565b6000828152610835602052604090206001015461111f8133612593565b610c6b83836125f7565b611134600082611102565b6040516001600160a01b03821681527f1c4e23de8d72c94b22992bd4d7b6786b215ba876af214ff63e6a0ca38fc97af490602001611021565b6001600160a01b03811633146111dd5760405162461bcd60e51b815260206004820152602f60248201527f416363657373436f6e74726f6c3a2063616e206f6e6c792072656e6f756e636560448201526e103937b632b9903337b91039b2b63360891b6064820152608401610a73565b6111e7828261267e565b5050565b610c6b83838360405180602001604052806000815250611b58565b6000818152611069602052604090205481906001600160a01b0316331461127b5760405162461bcd60e51b8152602060048201526024808201527f4e465437323143726561746f723a2043616c6c6572206973206e6f742063726560448201526330ba37b960e11b6064820152608401610a73565b3361128582611330565b6001600160a01b0316146112ee5760405162461bcd60e51b815260206004820152602a60248201527f4e465437323143726561746f723a2043616c6c657220646f6573206e6f74206f6044820152691ddb881d1a194813919560b21b6064820152608401610a73565b6111e7826126e6565b600061131160008051602061493e833981519152336119ca565b905090565b600061131160008051602061495e833981519152336119ca565b600081815261103960205260408120546001600160a01b0316806109a55760405162461bcd60e51b815260206004820152602960248201527f4552433732313a206f776e657220717565727920666f72206e6f6e657869737460448201526832b73a103a37b5b2b760b91b6064820152608401610a73565b60006001600160a01b0382166114135760405162461bcd60e51b815260206004820152602a60248201527f4552433732313a2062616c616e636520717565727920666f7220746865207a65604482015269726f206164647265737360b01b6064820152608401610a73565b506001600160a01b0316600090815261103a602052604090205490565b61144860008051602061495e833981519152336119ca565b6114645760405162461bcd60e51b8152600401610a7390614316565b6298967f81116114d05760405162461bcd60e51b815260206004820152603160248201527f4d696e743a20437573746f6d20546f6b656e4944206d757374206265206869676044820152700686572207468616e20313030303030303607c1b6064820152608401610a73565b6114d9816121e8565b156115265760405162461bcd60e51b815260206004820152601e60248201527f4d696e743a20546f6b656e496420616c7265616479206578697374656e7400006044820152606401610a73565b61153561239380546001019055565b61153f8282612275565b611549818361228f565b61155381846126ef565b8260405161156191906143e8565b604051809103902081836001600160a01b03167fe2406cfd356cfbe4e42d452bde96d27f48c423e5f02b5d78695893308399519d866040516115a39190613c5c565b60405180910390a4505050565b838383838080601f0160208091040260200160405190810160405280939291908181526020018383808284376000920191909152506115f292506112f7915050565b6116525760405162461bcd60e51b815260206004820152602b60248201527f4163636f756e744d6967726174696f6e3a2043616c6c6572206973206e6f742060448201526a30b71037b832b930ba37b960a91b6064820152608401610a73565b816001600160a01b0316836001600160a01b031614156116d15760405162461bcd60e51b815260206004820152603460248201527f4163636f756e744d6967726174696f6e3a2043616e6e6f74206d696772617465604482015273081d1bc81d1a19481cd85b59481858d8dbdd5b9d60621b6064820152608401610a73565b60006117036116df84612827565b6040516020016116ef9190614404565b6040516020818303038152906040526129d7565b9050611710848284612a12565b6117825760405162461bcd60e51b815260206004820152603d60248201527f4163636f756e744d6967726174696f6e3a205369676e6174757265206d75737460448201527f2062652066726f6d20746865206f726967696e616c206163636f756e740000006064820152608401610a73565b60005b8981101561183d5760008b8b838181106117a1576117a1614300565b9050602002013590506117b3816121e8565b80156117d85750896001600160a01b03166117cd82611330565b6001600160a01b0316145b1561182a576117e88a8a836123f0565b886001600160a01b03168a6001600160a01b0316827fde55f075ebd46256cd6bd57d8fb53e0406f687db372e90ae8c18e72be46f5c1660405160405180910390a45b50806118358161437c565b915050611785565b5060005b8b8110156119795760008d8d8381811061185d5761185d614300565b602090810292909201356000818152611069909352604090922054919250506001600160a01b03161561196657600081815261106960205260409020546001600160a01b038b811691161461191a5760405162461bcd60e51b815260206004820152603960248201527f4e465437323143726561746f723a20546f6b656e20776173206e6f742063726560448201527f617465642062792074686520676976656e2061646472657373000000000000006064820152608401610a73565b611924818a61228f565b886001600160a01b03168a6001600160a01b0316827f58120fb31972ff9fad76eb87119474a58fc38d6b9b842bb3067a4a329eaa64f660405160405180910390a45b50806119718161437c565b915050611841565b50505050505050505050505050565b6001600160a01b038216600090815261183b602052604080822090516119af9084906143e8565b9081526040519081900360200190205460ff16905092915050565b6000918252610835602090815260408084206001600160a01b0393909316845291905290205460ff1690565b606061103880546109bb90614249565b6001600160a01b038216331415611a5f5760405162461bcd60e51b815260206004820152601960248201527f4552433732313a20617070726f766520746f2063616c6c6572000000000000006044820152606401610a73565b33600081815261103c602090815260408083206001600160a01b03871680855290835292819020805460ff191686151590811790915590519081529192917f17307eab39ab6107e8899845ad3d59bd9653f200f220920489ca2b5937696c31910160405180910390a35050565b611ad76000336119ca565b611b3a5760405162461bcd60e51b815260206004820152602e60248201527f41646d696e526f6c653a2063616c6c657220646f6573206e6f7420686176652060448201526d7468652041646d696e20726f6c6560901b6064820152608401610a73565b611b4382612adf565b6111e781612b98565b600061131181336119ca565b611b623383612305565b611b7e5760405162461bcd60e51b8152600401610a7390614397565b610acb84848484612bdc565b6060611b95826121e8565b611bb15760405162461bcd60e51b8152600401610a739061445e565b604080516002808252606082018352600092602083019080368337019050506000549091506201000090046001600160a01b031681600081518110611bf857611bf8614300565b60200260200101906001600160a01b031690816001600160a01b031681525050611c2183611f9a565b81600181518110611c3457611c34614300565b6001600160a01b039092166020928302919091019091015292915050565b611c5a613b1a565b611c62613b1a565b611c6b836121e8565b611c875760405162461bcd60e51b8152600401610a739061445e565b6000546201000090046001600160a01b03168252611ca483611f9a565b6001600160a01b0390811660208401526114525460408051632fdde06960e11b8152905160009384931691635fbbc0d2916004808301926060929190829003018186803b158015611cf457600080fd5b505afa158015611d08573d6000803e3d6000fd5b505050506040513d601f19601f82011682018060405250810190611d2c91906142d2565b908552602085015250929491935090915050565b60606109a582612c0f565b611d6360008051602061495e83398151915282611d9c565b6040516001600160a01b03821681527f44f4322f8daa225d5f4877ad0f7d3dfba248a774396f3ca99405ed40a044fe8190602001611021565b60008281526108356020526040902060010154611db98133612593565b610c6b838361267e565b6000611ddd60008051602061495e833981519152336119ca565b611df95760405162461bcd60e51b8152600401610a7390614316565b611e0861239380546001019055565b6123928054906000611e198361437c565b919050559050611e293382612275565b611e33813361228f565b611e3d81836126ef565b81604051611e4b91906143e8565b604051809103902081336001600160a01b03167fe2406cfd356cfbe4e42d452bde96d27f48c423e5f02b5d78695893308399519d85604051611e8d9190613c5c565b60405180910390a4919050565b600081815261183d60205260409020805460609190611eb890614249565b80601f0160208091040260200160405190810160405280929190818152602001828054611ee490614249565b8015611f315780601f10611f0657610100808354040283529160200191611f31565b820191906000526020600020905b815481529060010190602001808311611f1457829003601f168201915b50505050509050919050565b611f5560008051602061493e83398151915282611102565b6040516001600160a01b03821681527f5b6a420b639feabfb011a07742a6ae14ef72f35d1a330ed65f42216c95bc6c2e90602001611021565b60006113116123935490565b600081815261106a60205260409020546001600160a01b031680611fd35750600081815261106960205260409020546001600160a01b03165b919050565b611ff060008051602061493e83398151915282611d9c565b6040516001600160a01b03821681527fe672f512db5cb061756ab0b7654938a4293bbc42bc91f74bd0ade5f540a35c8090602001611021565b60006109a582612c1a565b600054610100900460ff168061204d575060005460ff16155b6120695760405162461bcd60e51b8152600401610a7390614284565b600054610100900460ff1615801561208b576000805461ffff19166101011790555b612093612c25565b61209b612c25565b6120a58383612c90565b8015610c6b576000805461ff0019169055505050565b600054610100900460ff16806120d4575060005460ff16155b6120f05760405162461bcd60e51b8152600401610a7390614284565b600054610100900460ff16158015612112576000805461ffff19166101011790555b600161239255801561212a576000805461ff00191690555b50565b600054610100900460ff1680612146575060005460ff16155b6121625760405162461bcd60e51b8152600401610a7390614284565b600054610100900460ff16158015612184576000805461ffff19166101011790555b61218c612d27565b612197600083612d96565b6040516001600160a01b03831681527f75ef91bb959d6f13ca6b596857395ef84913b9db7adbc407d3bf97af614722d29060200160405180910390a180156111e7576000805461ff00191690555050565b600090815261103960205260409020546001600160a01b0316151590565b600081815261103b6020526040902080546001600160a01b0319166001600160a01b038416908117909155819061223c82611330565b6001600160a01b03167f8c5be1e5ebec7d5bd14f71427d1e84f3dd0314c0f7b2291e5b200ac8c7c3b92560405160405180910390a45050565b6111e7828260405180602001604052806000815250612da0565b6000828152611069602052604080822054905184926001600160a01b038086169316917febd529444fe852bfccb40075e8f8cae7612ea20edebdf5143c72718ccb157f759190a46000918252611069602052604090912080546001600160a01b0319166001600160a01b03909216919091179055565b6000612310826121e8565b6123715760405162461bcd60e51b815260206004820152602c60248201527f4552433732313a206f70657261746f7220717565727920666f72206e6f6e657860448201526b34b9ba32b73a103a37b5b2b760a11b6064820152608401610a73565b600061237c83611330565b9050806001600160a01b0316846001600160a01b031614806123b75750836001600160a01b03166123ac84610ad1565b6001600160a01b0316145b806123e857506001600160a01b03808216600090815261103c602090815260408083209388168352929052205460ff165b949350505050565b826001600160a01b031661240382611330565b6001600160a01b03161461246b5760405162461bcd60e51b815260206004820152602960248201527f4552433732313a207472616e73666572206f6620746f6b656e2074686174206960448201526839903737ba1037bbb760b91b6064820152608401610a73565b6001600160a01b0382166124cd5760405162461bcd60e51b8152602060048201526024808201527f4552433732313a207472616e7366657220746f20746865207a65726f206164646044820152637265737360e01b6064820152608401610a73565b6124d8600082612206565b6001600160a01b038316600090815261103a602052604081208054600192906125029084906144a9565b90915550506001600160a01b038216600090815261103a602052604081208054600192906125319084906144c0565b90915550506000818152611039602052604080822080546001600160a01b0319166001600160a01b0386811691821790925591518493918716917fddf252ad1be2c89b69c2b068fc378daa952ba7f163c4a11628f55a4df523b3ef91a4505050565b61259d82826119ca565b6111e7576125b5816001600160a01b03166014612dd3565b6125c0836020612dd3565b6040516020016125d19291906144d8565b60408051601f198184030181529082905262461bcd60e51b8252610a7391600401613c5c565b61260182826119ca565b6111e7576000828152610835602090815260408083206001600160a01b03851684529091529020805460ff1916600117905561263a3390565b6001600160a01b0316816001600160a01b0316837f2f8788117e7eff1d82e926ec794901d17c78024a50270940304540a733656f0d60405160405180910390a45050565b61268882826119ca565b156111e7576000828152610835602090815260408083206001600160a01b0385168085529252808320805460ff1916905551339285917ff6391f5c32d9c69d2a47ea670b442974b53935d1edc7fd64eb21e047a839171b9190a45050565b61212a81612f6f565b602e8151101561274b5760405162461bcd60e51b815260206004820152602160248201527f4e46543732314d657461646174613a20496e76616c69642049504653207061746044820152600d60fb1b6064820152608401610a73565b33600090815261183b602052604090819020905161276a9083906143e8565b9081526040519081900360200190205460ff16156127d95760405162461bcd60e51b815260206004820152602660248201527f4e46543732314d657461646174613a204e46542077617320616c7265616479206044820152651b5a5b9d195960d21b6064820152608401610a73565b33600090815261183b6020526040908190209051600191906127fc9084906143e8565b908152604051908190036020019020805491151560ff199092169190911790556111e7828233612f78565b60408051602a808252606082810190935260009190602082018180368337019050509050600360fc1b8160008151811061286357612863614300565b60200101906001600160f81b031916908160001a905350600f60fb1b8160018151811061289257612892614300565b60200101906001600160f81b031916908160001a90535060005b60148110156129d05760006128c28260136144a9565b6128cd90600861454d565b6128d8906002614650565b6128eb906001600160a01b038716614672565b60f81b9050600060108260f81c6129029190614686565b60f81b905060008160f81c601061291991906146a8565b8360f81c61292791906146c9565b60f81b90506129358261302b565b8561294186600261454d565b61294c9060026144c0565b8151811061295c5761295c614300565b60200101906001600160f81b031916908160001a90535061297c8161302b565b8561298886600261454d565b6129939060036144c0565b815181106129a3576129a3614300565b60200101906001600160f81b031916908160001a90535050505080806129c89061437c565b9150506128ac565b5092915050565b60006129e38251613061565b826040516020016129f59291906146ec565b604051602081830303815290604052805190602001209050919050565b6000833b15612ab757604051630b135d3f60e11b81526001600160a01b03851690631626ba7e90612a499086908690600401614747565b60206040518083038186803b158015612a6157600080fd5b505afa925050508015612a91575060408051601f3d908101601f19168201909252612a8e91810190614760565b60015b612a9d57506000612ad8565b6001600160e01b031916630b135d3f60e11b149050612ad8565b836001600160a01b0316612acb848461315f565b6001600160a01b03161490505b9392505050565b6001600160a01b0381163b612b4d5760405162461bcd60e51b815260206004820152602e60248201527f4e46543732314d61726b65743a204d61726b657420616464726573732069732060448201526d1b9bdd08184818dbdb9d1c9858dd60921b6064820152608401610a73565b61145280546001600160a01b0319166001600160a01b0383169081179091556040517f07e7630580d612127ff5f3bd98a1ef992bb87b379fef3b98f2e2ca1ad8e27dd890600090a250565b8051612bac9061183c906020840190613b38565b507f6741b2fc379fad678116fe3d4d4b9a1a184ab53ba36b86ad0fa66340b1ab41ad816040516110219190613c5c565b612be78484846123f0565b612bf384848484613183565b610acb5760405162461bcd60e51b8152600401610a739061477d565b60606109a582613290565b60006109a5826133fb565b600054610100900460ff1680612c3e575060005460ff16155b612c5a5760405162461bcd60e51b8152600401610a7390614284565b600054610100900460ff16158015612c7c576000805461ffff19166101011790555b801561212a576000805461ff001916905550565b600054610100900460ff1680612ca9575060005460ff16155b612cc55760405162461bcd60e51b8152600401610a7390614284565b600054610100900460ff16158015612ce7576000805461ffff19166101011790555b8251612cfb90611037906020860190613b38565b508151612d1090611038906020850190613b38565b508015610c6b576000805461ff0019169055505050565b600054610100900460ff1680612d40575060005460ff16155b612d5c5760405162461bcd60e51b8152600401610a7390614284565b600054610100900460ff16158015612d7e576000805461ffff19166101011790555b612d86612c25565b612d8e612c25565b612c7c612c25565b6111e782826125f7565b612daa8383613406565b612db76000848484613183565b610c6b5760405162461bcd60e51b8152600401610a739061477d565b60606000612de283600261454d565b612ded9060026144c0565b67ffffffffffffffff811115612e0557612e05613c6f565b6040519080825280601f01601f191660200182016040528015612e2f576020820181803683370190505b509050600360fc1b81600081518110612e4a57612e4a614300565b60200101906001600160f81b031916908160001a905350600f60fb1b81600181518110612e7957612e79614300565b60200101906001600160f81b031916908160001a9053506000612e9d84600261454d565b612ea89060016144c0565b90505b6001811115612f20576f181899199a1a9b1b9c1cb0b131b232b360811b85600f1660108110612edc57612edc614300565b1a60f81b828281518110612ef257612ef2614300565b60200101906001600160f81b031916908160001a90535060049490941c93612f19816147cf565b9050612eab565b508315612ad85760405162461bcd60e51b815260206004820181905260248201527f537472696e67733a20686578206c656e67746820696e73756666696369656e746044820152606401610a73565b61212a8161353b565b612f81836121e8565b612fd95760405162461bcd60e51b8152602060048201526024808201527f4d61737465723a2055524920736574206f66206e6f6e6578697374656e74207460448201526337b5b2b760e11b6064820152608401610a73565b600083815261183d602090815260409091208351612ff992850190613b38565b50600092835261183e602052604090922080546001600160a01b0319166001600160a01b039093169290921790915550565b6000600a60f883901c10156130525761304960f883901c60306147e6565b60f81b92915050565b61304960f883901c60576147e6565b6060816130855750506040805180820190915260018152600360fc1b602082015290565b8160005b81156130af57806130998161437c565b91506130a89050600a83614672565b9150613089565b60008167ffffffffffffffff8111156130ca576130ca613c6f565b6040519080825280601f01601f1916602001820160405280156130f4576020820181803683370190505b5090505b84156123e8576131096001836144a9565b9150613116600a8661480b565b6131219060306144c0565b60f81b81838151811061313657613136614300565b60200101906001600160f81b031916908160001a905350613158600a86614672565b94506130f8565b600080600061316e8585613588565b9150915061317b816135f8565b509392505050565b60006001600160a01b0384163b1561328557604051630a85bd0160e11b81526001600160a01b0385169063150b7a02906131c790339089908890889060040161481f565b602060405180830381600087803b1580156131e157600080fd5b505af1925050508015613211575060408051601f3d908101601f1916820190925261320e91810190614760565b60015b61326b573d80801561323f576040519150601f19603f3d011682016040523d82523d6000602084013e613244565b606091505b5080516132635760405162461bcd60e51b8152600401610a739061477d565b805181602001fd5b6001600160e01b031916630a85bd0160e11b1490506123e8565b506001949350505050565b606061329b826121e8565b6132f75760405162461bcd60e51b815260206004820152602760248201527f4d61737465723a2055524920717565727920666f72206e6f6e6578697374656e6044820152663a103a37b5b2b760c91b6064820152608401610a73565b600082815261183d60205260408120805461331190614249565b80601f016020809104026020016040519081016040528092919081815260200182805461333d90614249565b801561338a5780601f1061335f5761010080835404028352916020019161338a565b820191906000526020600020905b81548152906001019060200180831161336d57829003601f168201915b50505050509050600061339b6137b3565b90508051600014156133ae575092915050565b8151156133e05780826040516020016133c892919061485c565b60405160208183030381529060405292505050919050565b806133ea856137bd565b6040516020016133c892919061485c565b60006109a5826138bb565b6001600160a01b03821661345c5760405162461bcd60e51b815260206004820181905260248201527f4552433732313a206d696e7420746f20746865207a65726f20616464726573736044820152606401610a73565b613465816121e8565b156134b25760405162461bcd60e51b815260206004820152601c60248201527f4552433732313a20746f6b656e20616c7265616479206d696e746564000000006044820152606401610a73565b6001600160a01b038216600090815261103a602052604081208054600192906134dc9084906144c0565b90915550506000818152611039602052604080822080546001600160a01b0319166001600160a01b03861690811790915590518392907fddf252ad1be2c89b69c2b068fc378daa952ba7f163c4a11628f55a4df523b3ef908290a45050565b33600090815261183b6020908152604080832084845261183d90925291829020915190916135689161488b565b908152604051908190036020019020805460ff1916905561212a816138c6565b6000808251604114156135bf5760208301516040840151606085015160001a6135b3878285856138ec565b945094505050506135f1565b8251604014156135e957602083015160408401516135de8683836139d9565b9350935050506135f1565b506000905060025b9250929050565b600081600481111561360c5761360c614927565b14156136155750565b600181600481111561362957613629614927565b14156136775760405162461bcd60e51b815260206004820152601860248201527f45434453413a20696e76616c6964207369676e617475726500000000000000006044820152606401610a73565b600281600481111561368b5761368b614927565b14156136d95760405162461bcd60e51b815260206004820152601f60248201527f45434453413a20696e76616c6964207369676e6174757265206c656e677468006044820152606401610a73565b60038160048111156136ed576136ed614927565b14156137465760405162461bcd60e51b815260206004820152602260248201527f45434453413a20696e76616c6964207369676e6174757265202773272076616c604482015261756560f01b6064820152608401610a73565b600481600481111561375a5761375a614927565b141561212a5760405162461bcd60e51b815260206004820152602260248201527f45434453413a20696e76616c6964207369676e6174757265202776272076616c604482015261756560f01b6064820152608401610a73565b60606113116110ae565b6060816137e15750506040805180820190915260018152600360fc1b602082015290565b8160005b811561380b57806137f58161437c565b91506138049050600a83614672565b91506137e5565b60008167ffffffffffffffff81111561382657613826613c6f565b6040519080825280601f01601f191660200182016040528015613850576020820181803683370190505b5090505b84156123e8576138656001836144a9565b9150613872600a8661480b565b61387d9060306144c0565b60f81b81838151811061389257613892614300565b60200101906001600160f81b031916908160001a9053506138b4600a86614672565b9450613854565b60006109a582613a08565b60008181526110696020526040902080546001600160a01b031916905561212a81613a48565b6000807f7fffffffffffffffffffffffffffffff5d576e7357a4501ddfe92f46681b20a083111561392357506000905060036139d0565b8460ff16601b1415801561393b57508460ff16601c14155b1561394c57506000905060046139d0565b6040805160008082526020820180845289905260ff881692820192909252606081018690526080810185905260019060a0016020604051602081039080840390855afa1580156139a0573d6000803e3d6000fd5b5050604051601f1901519150506001600160a01b0381166139c9576000600192509250506139d0565b9150600090505b94509492505050565b6000806001600160ff1b03831660ff84901c601b016139fa878288856138ec565b935093505050935093915050565b60006001600160e01b031982166380ac58cd60e01b1480613a3957506001600160e01b03198216635b5e139f60e01b145b806109a557506109a582613ae5565b6000613a5382611330565b9050613a60600083612206565b6001600160a01b038116600090815261103a60205260408120805460019290613a8a9084906144a9565b90915550506000828152611039602052604080822080546001600160a01b0319169055518391906001600160a01b038416907fddf252ad1be2c89b69c2b068fc378daa952ba7f163c4a11628f55a4df523b3ef908390a45050565b60006001600160e01b03198216637965db0b60e01b14806109a557506301ffc9a760e01b6001600160e01b03198316146109a5565b60405180604001604052806002906020820280368337509192915050565b828054613b4490614249565b90600052602060002090601f016020900481019282613b665760008555613bac565b82601f10613b7f57805160ff1916838001178555613bac565b82800160010185558215613bac579182015b82811115613bac578251825591602001919060010190613b91565b50613bb8929150613bbc565b5090565b5b80821115613bb85760008155600101613bbd565b6001600160e01b03198116811461212a57600080fd5b600060208284031215613bf957600080fd5b8135612ad881613bd1565b60005b83811015613c1f578181015183820152602001613c07565b83811115610acb5750506000910152565b60008151808452613c48816020860160208601613c04565b601f01601f19169290920160200192915050565b602081526000612ad86020830184613c30565b634e487b7160e01b600052604160045260246000fd5b600067ffffffffffffffff80841115613ca057613ca0613c6f565b604051601f8501601f19908116603f01168101908282118183101715613cc857613cc8613c6f565b81604052809350858152868686011115613ce157600080fd5b858560208301376000602087830101525050509392505050565b600082601f830112613d0c57600080fd5b612ad883833560208501613c85565b6001600160a01b038116811461212a57600080fd5b600080600060608486031215613d4557600080fd5b833567ffffffffffffffff80821115613d5d57600080fd5b613d6987838801613cfb565b94506020860135915080821115613d7f57600080fd5b50613d8c86828701613cfb565b9250506040840135613d9d81613d1b565b809150509250925092565b600060208284031215613dba57600080fd5b5035919050565b60008060408385031215613dd457600080fd5b8235613ddf81613d1b565b946020939093013593505050565b6020808252825182820181905260009190848201906040850190845b81811015613e2557835183529284019291840191600101613e09565b50909695505050505050565b600060208284031215613e4357600080fd5b8135612ad881613d1b565b600080600060608486031215613e6357600080fd5b8335613e6e81613d1b565b92506020840135613e7e81613d1b565b929592945050506040919091013590565b60008060408385031215613ea257600080fd5b823591506020830135613eb481613d1b565b809150509250929050565b600080600060608486031215613ed457600080fd5b833567ffffffffffffffff811115613eeb57600080fd5b613ef786828701613cfb565b9350506020840135613e7e81613d1b565b60008083601f840112613f1a57600080fd5b50813567ffffffffffffffff811115613f3257600080fd5b6020830191508360208260051b85010111156135f157600080fd5b60008060008060008060008060a0898b031215613f6957600080fd5b883567ffffffffffffffff80821115613f8157600080fd5b613f8d8c838d01613f08565b909a50985060208b0135915080821115613fa657600080fd5b613fb28c838d01613f08565b909850965060408b01359150613fc782613d1b565b90945060608a013590613fd982613d1b565b90935060808a01359080821115613fef57600080fd5b818b0191508b601f83011261400357600080fd5b81358181111561401257600080fd5b8c602082850101111561402457600080fd5b6020830194508093505050509295985092959890939650565b6000806040838503121561405057600080fd5b823561405b81613d1b565b9150602083013567ffffffffffffffff81111561407757600080fd5b61408385828601613cfb565b9150509250929050565b600080604083850312156140a057600080fd5b82356140ab81613d1b565b915060208301358015158114613eb457600080fd5b600080600080608085870312156140d657600080fd5b84356140e181613d1b565b935060208501356140f181613d1b565b925060408501359150606085013567ffffffffffffffff81111561411457600080fd5b8501601f8101871361412557600080fd5b61413487823560208401613c85565b91505092959194509250565b6020808252825182820181905260009190848201906040850190845b81811015613e255783516001600160a01b03168352928401929184019160010161415c565b60808101818460005b60028110156141b25781516001600160a01b031683526020928301929091019060010161418a565b505050604082018360005b60028110156141dc5781518352602092830192909101906001016141bd565b5050509392505050565b6000602082840312156141f857600080fd5b813567ffffffffffffffff81111561420f57600080fd5b6123e884828501613cfb565b6000806040838503121561422e57600080fd5b823561423981613d1b565b91506020830135613eb481613d1b565b600181811c9082168061425d57607f821691505b6020821081141561427e57634e487b7160e01b600052602260045260246000fd5b50919050565b6020808252602e908201527f496e697469616c697a61626c653a20636f6e747261637420697320616c72656160408201526d191e481a5b9a5d1a585b1a5e995960921b606082015260800190565b6000806000606084860312156142e757600080fd5b8351925060208401519150604084015190509250925092565b634e487b7160e01b600052603260045260246000fd5b60208082526030908201527f4d696e746572526f6c653a2063616c6c657220646f6573206e6f74206861766560408201526f20746865204d696e74657220726f6c6560801b606082015260800190565b634e487b7160e01b600052601160045260246000fd5b600060001982141561439057614390614366565b5060010190565b60208082526031908201527f4552433732313a207472616e736665722063616c6c6572206973206e6f74206f6040820152701ddb995c881b9bdc88185c1c1c9bdd9959607a1b606082015260800190565b600082516143fa818460208701613c04565b9190910192915050565b7f4920617574686f72697a65204d696e74656420746f206d696772617465206d7981526b01030b1b1b7bab73a103a37960a51b60208201526000825161445181602c850160208701613c04565b91909101602c0192915050565b6020808252602b908201527f4552433732314d657461646174613a20517565727920666f72206e6f6e65786960408201526a39ba32b73a103a37b5b2b760a91b606082015260800190565b6000828210156144bb576144bb614366565b500390565b600082198211156144d3576144d3614366565b500190565b7f416363657373436f6e74726f6c3a206163636f756e7420000000000000000000815260008351614510816017850160208801613c04565b7001034b99036b4b9b9b4b733903937b6329607d1b6017918401918201528351614541816028840160208801613c04565b01602801949350505050565b600081600019048311821515161561456757614567614366565b500290565b600181815b808511156145a757816000190482111561458d5761458d614366565b8085161561459a57918102915b93841c9390800290614571565b509250929050565b6000826145be575060016109a5565b816145cb575060006109a5565b81600181146145e157600281146145eb57614607565b60019150506109a5565b60ff8411156145fc576145fc614366565b50506001821b6109a5565b5060208310610133831016604e8410600b841016171561462a575081810a6109a5565b614634838361456c565b806000190482111561464857614648614366565b029392505050565b6000612ad883836145af565b634e487b7160e01b600052601260045260246000fd5b6000826146815761468161465c565b500490565b600060ff8316806146995761469961465c565b8060ff84160491505092915050565b600060ff821660ff84168160ff048111821515161561464857614648614366565b600060ff821660ff8416808210156146e3576146e3614366565b90039392505050565b7f19457468657265756d205369676e6564204d6573736167653a0a00000000000081526000835161472481601a850160208801613c04565b83519083019061473b81601a840160208801613c04565b01601a01949350505050565b8281526040602082015260006123e86040830184613c30565b60006020828403121561477257600080fd5b8151612ad881613bd1565b60208082526032908201527f4552433732313a207472616e7366657220746f206e6f6e20455243373231526560408201527131b2b4bb32b91034b6b83632b6b2b73a32b960711b606082015260800190565b6000816147de576147de614366565b506000190190565b600060ff821660ff84168060ff0382111561480357614803614366565b019392505050565b60008261481a5761481a61465c565b500690565b6001600160a01b038581168252841660208201526040810183905260806060820181905260009061485290830184613c30565b9695505050505050565b6000835161486e818460208801613c04565b835190830190614882818360208801613c04565b01949350505050565b600080835481600182811c9150808316806148a757607f831692505b60208084108214156148c757634e487b7160e01b86526022600452602486fd5b8180156148db57600181146148ec57614919565b60ff19861689528489019650614919565b60008a81526020902060005b868110156149115781548b8201529085019083016148f8565b505084890196505b509498975050505050505050565b634e487b7160e01b600052602160045260246000fdfe97667070c54ef182b0f5858b034beac1b6f3089aa2d3188bb1e8929f4fa9b9299f2df0fed2c77648de5860a4cc508cd0818c85b8b8a1ab4ceeef8d981c8956a6a26469706673582212200458e6a9a77c50cbc416a1233c98c1372ca9194da275080acaac5e085209a18b64736f6c63430008090033",
  "immutableReferences": {},
  "source": "/*\r\n::::    :::::  :::::::::  ::::    :::  :::::::::  :::::::::  :::::::::  \r\n+:+:+: :+:+:+     :+:     :+:+:   :+:     :+:     :+:        :+:    :+: \r\n+:+ +:+:+ +:+     +:+     :+:+:+  +:+     +:+     +:+        +:+    +:+ \r\n+#+  +:+  +#+     +#+     +#+ +:+ +#+     +#+     +#++:++#   +#+    +:+ \r\n+#+       +#+     +#+     +#+  +#+#+#     +#+     +#+        +#+    +#+ \r\n#+#       #+#     #+#     #+#   #+#+#     #+#     #+#        #+#    #+# \r\n###       ###  #########  ###    ####     ###     #########  #########  \r\n*/\r\n// SPDX-License-Identifier: Non-Licensed\r\npragma solidity ^0.8.0;\r\n\r\nimport \"@openzeppelin/contracts-upgradeable/token/ERC721/ERC721Upgradeable.sol\";\r\n\r\nimport \"./mixins/roles/AdminRole.sol\";\r\nimport \"./mixins/roles/OperatorRole.sol\";\r\nimport \"./mixins/NFT721Core.sol\";\r\nimport \"./mixins/NFT721Creator.sol\";\r\nimport \"./mixins/NFT721Metadata.sol\";\r\nimport \"./mixins/NFT721Mint.sol\";\r\nimport \"./mixins/NFT721Market.sol\";\r\nimport \"./mixins/AccountMigration.sol\";\r\n\r\n/**\r\n * @title Minted NFTs implemented using the ERC-721 standard.\r\n * @dev This top level file holds no data directly to ease future upgrades.\r\n */\r\n \r\ncontract NftoonMainV2 is\r\n  AdminRole,\r\n  OperatorRole,\r\n  AccountMigration,\r\n  ERC721Upgradeable,\r\n  NFT721Creator,\r\n  NFT721Market,\r\n  NFT721Metadata,\r\n  NFT721Core,\r\n  NFT721Mint  \r\n{\r\n  /**\r\n   * @notice Called once to configure the contract after the initial deployment.\r\n   * @dev This farms the initialize call out to inherited contracts as needed.\r\n   */\r\n  function initialize(\r\n    string memory name,\r\n    string memory symbol,\r\n    address admin\r\n  ) public initializer {\r\n    ERC721Upgradeable.__ERC721_init(name, symbol);\r\n    NFT721Mint._initializeNFT721Mint();\r\n    AdminRole._initializeAdminRole(admin);\r\n  }\r\n\r\n  function _baseURI() internal view virtual override(ERC721Upgradeable, NFT721Metadata, NFT721Mint) returns (string memory) {\r\n    return GetBaseURI();\r\n  }\r\n\r\n  /**\r\n   * @notice Allows a Minted admin to update NFT config variables.\r\n   * @dev This must be called right after the initial call to `initialize`.\r\n   */\r\n   function adminUpdateConfig(\r\n    address _nftMarket,\r\n    string memory baseURI\r\n  ) public onlyAdmin {\r\n    _updateNFTMarket(_nftMarket);\r\n    _updateBaseURI(baseURI);\r\n  }\r\n\r\n  /**\r\n   * @dev This is a no-op, just an explicit override to address compile errors due to inheritance.\r\n   */\r\n  function _burn(uint256 tokenId) internal override(ERC721Upgradeable, NFT721Creator, NFT721Metadata, NFT721Mint) {\r\n    super._burn(tokenId);\r\n  }\r\n\r\n   function tokenURI(uint256 tokenId) public view virtual override(ERC721Upgradeable, NFT721Metadata, NFT721Mint) returns (string memory) {\r\n     return super.tokenURI(tokenId);\r\n   }\r\n  \r\n  function supportsInterface(bytes4 interfaceId) public view virtual override( ERC721Upgradeable, NFT721Mint, NFT721Market, NFT721Metadata, AccessControlUpgradeable, NFT721Creator) returns (bool) {\r\n    return super.supportsInterface(interfaceId);\r\n  }\r\n}",
  "sourcePath": "C:\\alex\\nft\\openZeppelin\\mintedBasic\\contracts\\minted\\NFToonMainV2.sol",
  "compiler": {
    "name": "solc",
    "version": "0.8.9+commit.e5eed63a.Emscripten.clang"
  },
  "schemaVersion": "3.4.5",
  "updatedAt": "2022-03-25T15:14:16.861Z",
  "networkType": "ethereum",
  "devdoc": {
    "details": "This top level file holds no data directly to ease future upgrades.",
    "kind": "dev",
    "methods": {
      "adminAccountMigration(uint256[],uint256[],address,address,bytes)": {
        "details": "This will gracefully skip any NFTs that have been burned or transferred.",
        "params": {
          "signature": "Message `I authorize Minted to migrate my account to ${newAccount.address.toLowerCase()}` signed by the original account."
        }
      },
      "adminUpdateConfig(address,string)": {
        "details": "This must be called right after the initial call to `initialize`."
      },
      "approve(address,uint256)": {
        "details": "See {IERC721-approve}."
      },
      "balanceOf(address)": {
        "details": "See {IERC721-balanceOf}."
      },
      "getApproved(uint256)": {
        "details": "See {IERC721-getApproved}."
      },
      "getRoleAdmin(bytes32)": {
        "details": "Returns the admin role that controls `role`. See {grantRole} and {revokeRole}. To change a role's admin, use {_setRoleAdmin}."
      },
      "getTokenCreatorPaymentAddress(uint256)": {
        "details": "If an alternate address was not defined, the creator is returned instead."
      },
      "grantRole(bytes32,address)": {
        "details": "Grants `role` to `account`. If `account` had not been already granted `role`, emits a {RoleGranted} event. Requirements: - the caller must have ``role``'s admin role."
      },
      "hasRole(bytes32,address)": {
        "details": "Returns `true` if `account` has been granted `role`."
      },
      "initialize(string,string,address)": {
        "details": "This farms the initialize call out to inherited contracts as needed."
      },
      "isApprovedForAll(address,address)": {
        "details": "See {IERC721-isApprovedForAll}."
      },
      "name()": {
        "details": "See {IERC721Metadata-name}."
      },
      "ownerOf(uint256)": {
        "details": "See {IERC721-ownerOf}."
      },
      "renounceRole(bytes32,address)": {
        "details": "Revokes `role` from the calling account. Roles are often managed via {grantRole} and {revokeRole}: this function's purpose is to provide a mechanism for accounts to lose their privileges if they are compromised (such as when a trusted device is misplaced). If the calling account had been granted `role`, emits a {RoleRevoked} event. Requirements: - the caller must be `account`."
      },
      "revokeRole(bytes32,address)": {
        "details": "Revokes `role` from `account`. If `account` had been granted `role`, emits a {RoleRevoked} event. Requirements: - the caller must have ``role``'s admin role."
      },
      "safeTransferFrom(address,address,uint256)": {
        "details": "See {IERC721-safeTransferFrom}."
      },
      "safeTransferFrom(address,address,uint256,bytes)": {
        "details": "See {IERC721-safeTransferFrom}."
      },
      "setApprovalForAll(address,bool)": {
        "details": "See {IERC721-setApprovalForAll}."
      },
      "symbol()": {
        "details": "See {IERC721Metadata-symbol}."
      },
      "transferFrom(address,address,uint256)": {
        "details": "See {IERC721-transferFrom}."
      }
    },
    "title": "Minted NFTs implemented using the ERC-721 standard.",
    "version": 1
  },
  "userdoc": {
    "kind": "user",
    "methods": {
      "adminAccountMigration(uint256[],uint256[],address,address,bytes)": {
        "notice": "Allows an NFT owner or creator and Minted to work together in order to update the creator to a new account and/or transfer NFTs to that account."
      },
      "adminUpdateConfig(address,string)": {
        "notice": "Allows a Minted admin to update NFT config variables."
      },
      "burn(uint256)": {
        "notice": "Allows the creator to burn if they currently own the NFT."
      },
      "getFeeBps(uint256)": {
        "notice": "Returns an array of fees in basis points. The expected recipients is communicated with `getFeeRecipients`."
      },
      "getFeeRecipients(uint256)": {
        "notice": "Returns an array of recipient addresses to which fees should be sent. The expected fee amount is communicated with `getFeeBps`."
      },
      "getHasCreatorMintedIPFSHash(address,string)": {
        "notice": "Checks if the creator has already minted a given NFT."
      },
      "getMintedTreasury()": {
        "notice": "Returns the address of the Minted treasury."
      },
      "getNFTMarket()": {
        "notice": "Returns the address of the Minted NFTMarket contract."
      },
      "getNextTokenId()": {
        "notice": "Gets the tokenId of the next NFT minted."
      },
      "getRoyalties(uint256)": {
        "notice": "Get fee recipients and fees in a single call. The data is the same as when calling getFeeRecipients and getFeeBps separately."
      },
      "getTokenCreatorPaymentAddress(uint256)": {
        "notice": "Returns the payment address for a given tokenId."
      },
      "getTokenIPFSPath(uint256)": {
        "notice": "Returns the IPFSPath to the metadata JSON file for a given NFT."
      },
      "initialize(string,string,address)": {
        "notice": "Called once to configure the contract after the initial deployment."
      },
      "mint()": {
        "notice": "Allows a creator to mint an NFT."
      },
      "tokenCreator(uint256)": {
        "notice": "Returns the creator's address for a given tokenId."
      }
    },
    "version": 1
  }
}