{
  "contractName": "NftoonMain",
  "abi": [
    {
      "anonymous": false,
      "inputs": [
        {
          "indexed": false,
          "internalType": "address",
          "name": "admin",
          "type": "address"
        }
      ],
      "name": "AdminGranted",
      "type": "event"
    },
    {
      "anonymous": false,
      "inputs": [
        {
          "indexed": false,
          "internalType": "address",
          "name": "admin",
          "type": "address"
        }
      ],
      "name": "AdminInitiated",
      "type": "event"
    },
    {
      "anonymous": false,
      "inputs": [
        {
          "indexed": false,
          "internalType": "address",
          "name": "admin",
          "type": "address"
        }
      ],
      "name": "AdminRevoked",
      "type": "event"
    },
    {
      "anonymous": false,
      "inputs": [
        {
          "indexed": false,
          "internalType": "address",
          "name": "toAddress",
          "type": "address"
        },
        {
          "indexed": false,
          "internalType": "address",
          "name": "fromAddress",
          "type": "address"
        },
        {
          "indexed": false,
          "internalType": "uint256",
          "name": "amount",
          "type": "uint256"
        }
      ],
      "name": "AmountTransferred",
      "type": "event"
    },
    {
      "anonymous": false,
      "inputs": [
        {
          "indexed": true,
          "internalType": "address",
          "name": "owner",
          "type": "address"
        },
        {
          "indexed": true,
          "internalType": "address",
          "name": "approved",
          "type": "address"
        },
        {
          "indexed": true,
          "internalType": "uint256",
          "name": "tokenId",
          "type": "uint256"
        }
      ],
      "name": "Approval",
      "type": "event"
    },
    {
      "anonymous": false,
      "inputs": [
        {
          "indexed": true,
          "internalType": "address",
          "name": "owner",
          "type": "address"
        },
        {
          "indexed": true,
          "internalType": "address",
          "name": "operator",
          "type": "address"
        },
        {
          "indexed": false,
          "internalType": "bool",
          "name": "approved",
          "type": "bool"
        }
      ],
      "name": "ApprovalForAll",
      "type": "event"
    },
    {
      "anonymous": false,
      "inputs": [
        {
          "indexed": false,
          "internalType": "string",
          "name": "baseURI",
          "type": "string"
        }
      ],
      "name": "BaseURIUpdated",
      "type": "event"
    },
    {
      "anonymous": false,
      "inputs": [
        {
          "indexed": true,
          "internalType": "address",
          "name": "creator",
          "type": "address"
        },
        {
          "indexed": true,
          "internalType": "uint256",
          "name": "tokenId",
          "type": "uint256"
        },
        {
          "indexed": true,
          "internalType": "string",
          "name": "indexedTokenIPFSPath",
          "type": "string"
        },
        {
          "indexed": false,
          "internalType": "string",
          "name": "tokenIPFSPath",
          "type": "string"
        }
      ],
      "name": "Minted",
      "type": "event"
    },
    {
      "anonymous": false,
      "inputs": [
        {
          "indexed": true,
          "internalType": "address",
          "name": "creator",
          "type": "address"
        },
        {
          "indexed": true,
          "internalType": "uint256",
          "name": "tokenId",
          "type": "uint256"
        }
      ],
      "name": "Minted",
      "type": "event"
    },
    {
      "anonymous": false,
      "inputs": [
        {
          "indexed": false,
          "internalType": "address",
          "name": "admin",
          "type": "address"
        }
      ],
      "name": "MinterGranted",
      "type": "event"
    },
    {
      "anonymous": false,
      "inputs": [
        {
          "indexed": false,
          "internalType": "address",
          "name": "admin",
          "type": "address"
        }
      ],
      "name": "MinterRevoked",
      "type": "event"
    },
    {
      "anonymous": false,
      "inputs": [
        {
          "indexed": true,
          "internalType": "uint256",
          "name": "tokenId",
          "type": "uint256"
        },
        {
          "indexed": true,
          "internalType": "address",
          "name": "originalAddress",
          "type": "address"
        },
        {
          "indexed": true,
          "internalType": "address",
          "name": "newAddress",
          "type": "address"
        }
      ],
      "name": "NFTCreatorMigrated",
      "type": "event"
    },
    {
      "anonymous": false,
      "inputs": [
        {
          "indexed": true,
          "internalType": "address",
          "name": "nftMarket",
          "type": "address"
        }
      ],
      "name": "NFTMarketUpdated",
      "type": "event"
    },
    {
      "anonymous": false,
      "inputs": [
        {
          "indexed": false,
          "internalType": "string",
          "name": "name",
          "type": "string"
        },
        {
          "indexed": false,
          "internalType": "string",
          "name": "symbol",
          "type": "string"
        },
        {
          "indexed": false,
          "internalType": "string",
          "name": "baseURI",
          "type": "string"
        }
      ],
      "name": "NFTMetadataUpdated",
      "type": "event"
    },
    {
      "anonymous": false,
      "inputs": [
        {
          "indexed": true,
          "internalType": "uint256",
          "name": "tokenId",
          "type": "uint256"
        },
        {
          "indexed": true,
          "internalType": "address",
          "name": "originalAddress",
          "type": "address"
        },
        {
          "indexed": true,
          "internalType": "address",
          "name": "newAddress",
          "type": "address"
        }
      ],
      "name": "NFTOwnerMigrated",
      "type": "event"
    },
    {
      "anonymous": false,
      "inputs": [
        {
          "indexed": false,
          "internalType": "address",
          "name": "admin",
          "type": "address"
        }
      ],
      "name": "OperatoRevoked",
      "type": "event"
    },
    {
      "anonymous": false,
      "inputs": [
        {
          "indexed": false,
          "internalType": "address",
          "name": "admin",
          "type": "address"
        }
      ],
      "name": "OperatorGranted",
      "type": "event"
    },
    {
      "anonymous": false,
      "inputs": [
        {
          "indexed": true,
          "internalType": "uint256",
          "name": "tokenId",
          "type": "uint256"
        },
        {
          "indexed": true,
          "internalType": "address",
          "name": "originalAddress",
          "type": "address"
        },
        {
          "indexed": true,
          "internalType": "address",
          "name": "newAddress",
          "type": "address"
        },
        {
          "indexed": false,
          "internalType": "address",
          "name": "originalPaymentAddress",
          "type": "address"
        },
        {
          "indexed": false,
          "internalType": "address",
          "name": "newPaymentAddress",
          "type": "address"
        }
      ],
      "name": "PaymentAddressMigrated",
      "type": "event"
    },
    {
      "anonymous": false,
      "inputs": [
        {
          "indexed": true,
          "internalType": "bytes32",
          "name": "role",
          "type": "bytes32"
        },
        {
          "indexed": true,
          "internalType": "bytes32",
          "name": "previousAdminRole",
          "type": "bytes32"
        },
        {
          "indexed": true,
          "internalType": "bytes32",
          "name": "newAdminRole",
          "type": "bytes32"
        }
      ],
      "name": "RoleAdminChanged",
      "type": "event"
    },
    {
      "anonymous": false,
      "inputs": [
        {
          "indexed": true,
          "internalType": "bytes32",
          "name": "role",
          "type": "bytes32"
        },
        {
          "indexed": true,
          "internalType": "address",
          "name": "account",
          "type": "address"
        },
        {
          "indexed": true,
          "internalType": "address",
          "name": "sender",
          "type": "address"
        }
      ],
      "name": "RoleGranted",
      "type": "event"
    },
    {
      "anonymous": false,
      "inputs": [
        {
          "indexed": true,
          "internalType": "bytes32",
          "name": "role",
          "type": "bytes32"
        },
        {
          "indexed": true,
          "internalType": "address",
          "name": "account",
          "type": "address"
        },
        {
          "indexed": true,
          "internalType": "address",
          "name": "sender",
          "type": "address"
        }
      ],
      "name": "RoleRevoked",
      "type": "event"
    },
    {
      "anonymous": false,
      "inputs": [
        {
          "indexed": true,
          "internalType": "address",
          "name": "fromPaymentAddress",
          "type": "address"
        },
        {
          "indexed": true,
          "internalType": "address",
          "name": "toPaymentAddress",
          "type": "address"
        },
        {
          "indexed": true,
          "internalType": "uint256",
          "name": "tokenId",
          "type": "uint256"
        }
      ],
      "name": "TokenCreatorPaymentAddressSet",
      "type": "event"
    },
    {
      "anonymous": false,
      "inputs": [
        {
          "indexed": true,
          "internalType": "address",
          "name": "fromCreator",
          "type": "address"
        },
        {
          "indexed": true,
          "internalType": "address",
          "name": "toCreator",
          "type": "address"
        },
        {
          "indexed": true,
          "internalType": "uint256",
          "name": "tokenId",
          "type": "uint256"
        }
      ],
      "name": "TokenCreatorUpdated",
      "type": "event"
    },
    {
      "anonymous": false,
      "inputs": [
        {
          "indexed": true,
          "internalType": "uint256",
          "name": "tokenId",
          "type": "uint256"
        },
        {
          "indexed": true,
          "internalType": "string",
          "name": "indexedTokenIPFSPath",
          "type": "string"
        },
        {
          "indexed": false,
          "internalType": "string",
          "name": "tokenIPFSPath",
          "type": "string"
        }
      ],
      "name": "TokenIPFSPathUpdated",
      "type": "event"
    },
    {
      "anonymous": false,
      "inputs": [
        {
          "indexed": false,
          "internalType": "address",
          "name": "from",
          "type": "address"
        },
        {
          "indexed": false,
          "internalType": "address",
          "name": "to",
          "type": "address"
        },
        {
          "indexed": false,
          "internalType": "uint256",
          "name": "tokenId",
          "type": "uint256"
        }
      ],
      "name": "TokenTransfered",
      "type": "event"
    },
    {
      "anonymous": false,
      "inputs": [
        {
          "indexed": true,
          "internalType": "address",
          "name": "from",
          "type": "address"
        },
        {
          "indexed": true,
          "internalType": "address",
          "name": "to",
          "type": "address"
        },
        {
          "indexed": true,
          "internalType": "uint256",
          "name": "tokenId",
          "type": "uint256"
        }
      ],
      "name": "Transfer",
      "type": "event"
    },
    {
      "inputs": [],
      "name": "DEFAULT_ADMIN_ROLE",
      "outputs": [
        {
          "internalType": "bytes32",
          "name": "",
          "type": "bytes32"
        }
      ],
      "stateMutability": "view",
      "type": "function",
      "constant": true
    },
    {
      "inputs": [],
      "name": "GetBaseURI",
      "outputs": [
        {
          "internalType": "string",
          "name": "",
          "type": "string"
        }
      ],
      "stateMutability": "view",
      "type": "function",
      "constant": true
    },
    {
      "inputs": [],
      "name": "MINTER_ROLE",
      "outputs": [
        {
          "internalType": "bytes32",
          "name": "",
          "type": "bytes32"
        }
      ],
      "stateMutability": "view",
      "type": "function",
      "constant": true
    },
    {
      "inputs": [],
      "name": "OPERATOR_ROLE",
      "outputs": [
        {
          "internalType": "bytes32",
          "name": "",
          "type": "bytes32"
        }
      ],
      "stateMutability": "view",
      "type": "function",
      "constant": true
    },
    {
      "inputs": [
        {
          "internalType": "uint256[]",
          "name": "createdTokenIds",
          "type": "uint256[]"
        },
        {
          "internalType": "uint256[]",
          "name": "ownedTokenIds",
          "type": "uint256[]"
        },
        {
          "internalType": "address",
          "name": "originalAddress",
          "type": "address"
        },
        {
          "internalType": "address payable",
          "name": "newAddress",
          "type": "address"
        },
        {
          "internalType": "bytes",
          "name": "signature",
          "type": "bytes"
        }
      ],
      "name": "adminAccountMigration",
      "outputs": [],
      "stateMutability": "nonpayable",
      "type": "function"
    },
    {
      "inputs": [
        {
          "internalType": "address",
          "name": "to",
          "type": "address"
        },
        {
          "internalType": "uint256",
          "name": "tokenId",
          "type": "uint256"
        }
      ],
      "name": "approve",
      "outputs": [],
      "stateMutability": "nonpayable",
      "type": "function"
    },
    {
      "inputs": [
        {
          "internalType": "address",
          "name": "owner",
          "type": "address"
        }
      ],
      "name": "balanceOf",
      "outputs": [
        {
          "internalType": "uint256",
          "name": "",
          "type": "uint256"
        }
      ],
      "stateMutability": "view",
      "type": "function",
      "constant": true
    },
    {
      "inputs": [
        {
          "internalType": "uint256",
          "name": "tokenId",
          "type": "uint256"
        }
      ],
      "name": "burn",
      "outputs": [],
      "stateMutability": "nonpayable",
      "type": "function"
    },
    {
      "inputs": [
        {
          "internalType": "uint256",
          "name": "tokenId",
          "type": "uint256"
        }
      ],
      "name": "getApproved",
      "outputs": [
        {
          "internalType": "address",
          "name": "",
          "type": "address"
        }
      ],
      "stateMutability": "view",
      "type": "function",
      "constant": true
    },
    {
      "inputs": [
        {
          "internalType": "uint256",
          "name": "",
          "type": "uint256"
        }
      ],
      "name": "getFeeBps",
      "outputs": [
        {
          "internalType": "uint256[]",
          "name": "",
          "type": "uint256[]"
        }
      ],
      "stateMutability": "view",
      "type": "function",
      "constant": true
    },
    {
      "inputs": [
        {
          "internalType": "uint256",
          "name": "id",
          "type": "uint256"
        }
      ],
      "name": "getFeeRecipients",
      "outputs": [
        {
          "internalType": "address payable[]",
          "name": "",
          "type": "address[]"
        }
      ],
      "stateMutability": "view",
      "type": "function",
      "constant": true
    },
    {
      "inputs": [
        {
          "internalType": "address",
          "name": "creator",
          "type": "address"
        },
        {
          "internalType": "string",
          "name": "tokenIPFSPath",
          "type": "string"
        }
      ],
      "name": "getHasCreatorMintedIPFSHash",
      "outputs": [
        {
          "internalType": "bool",
          "name": "",
          "type": "bool"
        }
      ],
      "stateMutability": "view",
      "type": "function",
      "constant": true
    },
    {
      "inputs": [],
      "name": "getMintedTreasury",
      "outputs": [
        {
          "internalType": "address payable",
          "name": "",
          "type": "address"
        }
      ],
      "stateMutability": "view",
      "type": "function",
      "constant": true
    },
    {
      "inputs": [],
      "name": "getNFTMarket",
      "outputs": [
        {
          "internalType": "address",
          "name": "",
          "type": "address"
        }
      ],
      "stateMutability": "view",
      "type": "function",
      "constant": true
    },
    {
      "inputs": [],
      "name": "getNextTokenId",
      "outputs": [
        {
          "internalType": "uint256",
          "name": "",
          "type": "uint256"
        }
      ],
      "stateMutability": "view",
      "type": "function",
      "constant": true
    },
    {
      "inputs": [
        {
          "internalType": "bytes32",
          "name": "role",
          "type": "bytes32"
        }
      ],
      "name": "getRoleAdmin",
      "outputs": [
        {
          "internalType": "bytes32",
          "name": "",
          "type": "bytes32"
        }
      ],
      "stateMutability": "view",
      "type": "function",
      "constant": true
    },
    {
      "inputs": [
        {
          "internalType": "uint256",
          "name": "tokenId",
          "type": "uint256"
        }
      ],
      "name": "getRoyalties",
      "outputs": [
        {
          "internalType": "address payable[2]",
          "name": "recipients",
          "type": "address[2]"
        },
        {
          "internalType": "uint256[2]",
          "name": "feesInBasisPoints",
          "type": "uint256[2]"
        }
      ],
      "stateMutability": "view",
      "type": "function",
      "constant": true
    },
    {
      "inputs": [
        {
          "internalType": "uint256",
          "name": "tokenId",
          "type": "uint256"
        }
      ],
      "name": "getTokenCreatorPaymentAddress",
      "outputs": [
        {
          "internalType": "address payable",
          "name": "tokenCreatorPaymentAddress",
          "type": "address"
        }
      ],
      "stateMutability": "view",
      "type": "function",
      "constant": true
    },
    {
      "inputs": [
        {
          "internalType": "uint256",
          "name": "tokenId",
          "type": "uint256"
        }
      ],
      "name": "getTokenIPFSPath",
      "outputs": [
        {
          "internalType": "string",
          "name": "",
          "type": "string"
        }
      ],
      "stateMutability": "view",
      "type": "function",
      "constant": true
    },
    {
      "inputs": [
        {
          "internalType": "address",
          "name": "account",
          "type": "address"
        }
      ],
      "name": "grantAdmin",
      "outputs": [],
      "stateMutability": "nonpayable",
      "type": "function"
    },
    {
      "inputs": [
        {
          "internalType": "address",
          "name": "account",
          "type": "address"
        }
      ],
      "name": "grantMinter",
      "outputs": [],
      "stateMutability": "nonpayable",
      "type": "function"
    },
    {
      "inputs": [
        {
          "internalType": "address",
          "name": "account",
          "type": "address"
        }
      ],
      "name": "grantOperator",
      "outputs": [],
      "stateMutability": "nonpayable",
      "type": "function"
    },
    {
      "inputs": [
        {
          "internalType": "bytes32",
          "name": "role",
          "type": "bytes32"
        },
        {
          "internalType": "address",
          "name": "account",
          "type": "address"
        }
      ],
      "name": "grantRole",
      "outputs": [],
      "stateMutability": "nonpayable",
      "type": "function"
    },
    {
      "inputs": [
        {
          "internalType": "bytes32",
          "name": "role",
          "type": "bytes32"
        },
        {
          "internalType": "address",
          "name": "account",
          "type": "address"
        }
      ],
      "name": "hasRole",
      "outputs": [
        {
          "internalType": "bool",
          "name": "",
          "type": "bool"
        }
      ],
      "stateMutability": "view",
      "type": "function",
      "constant": true
    },
    {
      "inputs": [],
      "name": "isAdmin",
      "outputs": [
        {
          "internalType": "bool",
          "name": "",
          "type": "bool"
        }
      ],
      "stateMutability": "view",
      "type": "function",
      "constant": true
    },
    {
      "inputs": [
        {
          "internalType": "address",
          "name": "owner",
          "type": "address"
        },
        {
          "internalType": "address",
          "name": "operator",
          "type": "address"
        }
      ],
      "name": "isApprovedForAll",
      "outputs": [
        {
          "internalType": "bool",
          "name": "",
          "type": "bool"
        }
      ],
      "stateMutability": "view",
      "type": "function",
      "constant": true
    },
    {
      "inputs": [],
      "name": "isMinter",
      "outputs": [
        {
          "internalType": "bool",
          "name": "",
          "type": "bool"
        }
      ],
      "stateMutability": "view",
      "type": "function",
      "constant": true
    },
    {
      "inputs": [],
      "name": "isOperator",
      "outputs": [
        {
          "internalType": "bool",
          "name": "",
          "type": "bool"
        }
      ],
      "stateMutability": "view",
      "type": "function",
      "constant": true
    },
    {
      "inputs": [],
      "name": "mint",
      "outputs": [
        {
          "internalType": "uint256",
          "name": "tokenId",
          "type": "uint256"
        }
      ],
      "stateMutability": "nonpayable",
      "type": "function"
    },
    {
      "inputs": [
        {
          "internalType": "string",
          "name": "tokenIPFSPath",
          "type": "string"
        },
        {
          "internalType": "address",
          "name": "to",
          "type": "address"
        },
        {
          "internalType": "uint256",
          "name": "tokenId",
          "type": "uint256"
        }
      ],
      "name": "mint",
      "outputs": [],
      "stateMutability": "nonpayable",
      "type": "function"
    },
    {
      "inputs": [
        {
          "internalType": "string",
          "name": "tokenIPFSPath",
          "type": "string"
        }
      ],
      "name": "mint",
      "outputs": [
        {
          "internalType": "uint256",
          "name": "tokenId",
          "type": "uint256"
        }
      ],
      "stateMutability": "nonpayable",
      "type": "function"
    },
    {
      "inputs": [],
      "name": "name",
      "outputs": [
        {
          "internalType": "string",
          "name": "",
          "type": "string"
        }
      ],
      "stateMutability": "view",
      "type": "function",
      "constant": true
    },
    {
      "inputs": [
        {
          "internalType": "uint256",
          "name": "tokenId",
          "type": "uint256"
        }
      ],
      "name": "ownerOf",
      "outputs": [
        {
          "internalType": "address",
          "name": "",
          "type": "address"
        }
      ],
      "stateMutability": "view",
      "type": "function",
      "constant": true
    },
    {
      "inputs": [
        {
          "internalType": "bytes32",
          "name": "role",
          "type": "bytes32"
        },
        {
          "internalType": "address",
          "name": "account",
          "type": "address"
        }
      ],
      "name": "renounceRole",
      "outputs": [],
      "stateMutability": "nonpayable",
      "type": "function"
    },
    {
      "inputs": [
        {
          "internalType": "address",
          "name": "account",
          "type": "address"
        }
      ],
      "name": "revokeAdmin",
      "outputs": [],
      "stateMutability": "nonpayable",
      "type": "function"
    },
    {
      "inputs": [
        {
          "internalType": "address",
          "name": "account",
          "type": "address"
        }
      ],
      "name": "revokeMinter",
      "outputs": [],
      "stateMutability": "nonpayable",
      "type": "function"
    },
    {
      "inputs": [
        {
          "internalType": "address",
          "name": "account",
          "type": "address"
        }
      ],
      "name": "revokeOperator",
      "outputs": [],
      "stateMutability": "nonpayable",
      "type": "function"
    },
    {
      "inputs": [
        {
          "internalType": "bytes32",
          "name": "role",
          "type": "bytes32"
        },
        {
          "internalType": "address",
          "name": "account",
          "type": "address"
        }
      ],
      "name": "revokeRole",
      "outputs": [],
      "stateMutability": "nonpayable",
      "type": "function"
    },
    {
      "inputs": [
        {
          "internalType": "address",
          "name": "from",
          "type": "address"
        },
        {
          "internalType": "address",
          "name": "to",
          "type": "address"
        },
        {
          "internalType": "uint256",
          "name": "tokenId",
          "type": "uint256"
        }
      ],
      "name": "safeTransferFrom",
      "outputs": [],
      "stateMutability": "nonpayable",
      "type": "function"
    },
    {
      "inputs": [
        {
          "internalType": "address",
          "name": "from",
          "type": "address"
        },
        {
          "internalType": "address",
          "name": "to",
          "type": "address"
        },
        {
          "internalType": "uint256",
          "name": "tokenId",
          "type": "uint256"
        },
        {
          "internalType": "bytes",
          "name": "_data",
          "type": "bytes"
        }
      ],
      "name": "safeTransferFrom",
      "outputs": [],
      "stateMutability": "nonpayable",
      "type": "function"
    },
    {
      "inputs": [
        {
          "internalType": "address",
          "name": "operator",
          "type": "address"
        },
        {
          "internalType": "bool",
          "name": "approved",
          "type": "bool"
        }
      ],
      "name": "setApprovalForAll",
      "outputs": [],
      "stateMutability": "nonpayable",
      "type": "function"
    },
    {
      "inputs": [],
      "name": "symbol",
      "outputs": [
        {
          "internalType": "string",
          "name": "",
          "type": "string"
        }
      ],
      "stateMutability": "view",
      "type": "function",
      "constant": true
    },
    {
      "inputs": [
        {
          "internalType": "uint256",
          "name": "tokenId",
          "type": "uint256"
        }
      ],
      "name": "tokenCreator",
      "outputs": [
        {
          "internalType": "address payable",
          "name": "",
          "type": "address"
        }
      ],
      "stateMutability": "view",
      "type": "function",
      "constant": true
    },
    {
      "inputs": [],
      "name": "totalOfMintedTokens",
      "outputs": [
        {
          "internalType": "uint256",
          "name": "",
          "type": "uint256"
        }
      ],
      "stateMutability": "view",
      "type": "function",
      "constant": true
    },
    {
      "inputs": [
        {
          "internalType": "address",
          "name": "from",
          "type": "address"
        },
        {
          "internalType": "address",
          "name": "to",
          "type": "address"
        },
        {
          "internalType": "uint256",
          "name": "tokenId",
          "type": "uint256"
        }
      ],
      "name": "transferFrom",
      "outputs": [],
      "stateMutability": "nonpayable",
      "type": "function"
    },
    {
      "inputs": [
        {
          "internalType": "address",
          "name": "receiverUserAddress",
          "type": "address"
        }
      ],
      "name": "transferToWallet",
      "outputs": [],
      "stateMutability": "payable",
      "type": "function",
      "payable": true
    },
    {
      "inputs": [
        {
          "internalType": "address",
          "name": "newAddress",
          "type": "address"
        },
        {
          "internalType": "uint256",
          "name": "tokenId",
          "type": "uint256"
        }
      ],
      "name": "transferToken",
      "outputs": [],
      "stateMutability": "nonpayable",
      "type": "function"
    },
    {
      "inputs": [
        {
          "internalType": "string",
          "name": "name",
          "type": "string"
        },
        {
          "internalType": "string",
          "name": "symbol",
          "type": "string"
        },
        {
          "internalType": "address",
          "name": "admin",
          "type": "address"
        }
      ],
      "name": "initialize",
      "outputs": [],
      "stateMutability": "nonpayable",
      "type": "function"
    },
    {
      "inputs": [
        {
          "internalType": "address",
          "name": "_nftMarket",
          "type": "address"
        },
        {
          "internalType": "string",
          "name": "baseURI",
          "type": "string"
        }
      ],
      "name": "adminUpdateConfig",
      "outputs": [],
      "stateMutability": "nonpayable",
      "type": "function"
    },
    {
      "inputs": [
        {
          "internalType": "uint256",
          "name": "tokenId",
          "type": "uint256"
        }
      ],
      "name": "tokenURI",
      "outputs": [
        {
          "internalType": "string",
          "name": "",
          "type": "string"
        }
      ],
      "stateMutability": "view",
      "type": "function",
      "constant": true
    },
    {
      "inputs": [
        {
          "internalType": "bytes4",
          "name": "interfaceId",
          "type": "bytes4"
        }
      ],
      "name": "supportsInterface",
      "outputs": [
        {
          "internalType": "bool",
          "name": "",
          "type": "bool"
        }
      ],
      "stateMutability": "view",
      "type": "function",
      "constant": true
    }
  ],
  "bytecode": "0x608060405234801561001057600080fd5b50614980806100206000396000f3fe6080604052600436106102e45760003560e01c8063753af00e11610190578063c87b56dd116100dc578063dac28cce11610095578063e985e9c51161006f578063e985e9c5146108ee578063ec5f752e14610938578063f5b541a614610958578063fad8b32a1461097a57600080fd5b8063dac28cce14610899578063e348da13146108b9578063e7ec78e3146108d957600080fd5b8063c87b56dd146107e1578063caa0f92a14610801578063cfbd488514610817578063d539139314610837578063d547741f14610859578063d85d3d271461087957600080fd5b8063a217fddf11610149578063b6db75a011610123578063b6db75a014610751578063b88d4fde14610766578063b9c4d9fb14610786578063bb3bafd6146107b357600080fd5b8063a217fddf146106fc578063a22cb46514610711578063a4b52df11461073157600080fd5b8063753af00e146106435780637e8816b91461066757806384f4e5c01461068757806389ca8b71146106a757806391d14854146106c757806395d89b41146106e757600080fd5b806329b79a671161024f57806340c1a064116102085780634456eda2116101e25780634456eda2146105d957806350e59eb3146105ee5780636352211e1461060357806370a082311461062357600080fd5b806340c1a0641461056257806342842e0e1461059957806342966c68146105b957600080fd5b806329b79a67146104ae5780632d345670146104c35780632f2ff15d146104e357806335bb3e161461050357806336568abe146105235780633fd7ca411461054357600080fd5b80631072cbea116102a15780631072cbea146103e75780631249c58b14610407578063180afb071461042a57806323b872dd1461043d578063248a9ca31461045d578063261707fa1461048e57600080fd5b806301ffc9a7146102e957806306fdde031461031e578063077f224a14610340578063081812fc14610362578063095ea7b31461039a5780630ebd4c7f146103ba575b600080fd5b3480156102f557600080fd5b50610309610304366004613bb4565b61099a565b60405190151581526020015b60405180910390f35b34801561032a57600080fd5b506103336109ab565b6040516103159190613c29565b34801561034c57600080fd5b5061036061035b366004613cfd565b610a3e565b005b34801561036e57600080fd5b5061038261037d366004613d75565b610ad1565b6040516001600160a01b039091168152602001610315565b3480156103a657600080fd5b506103606103b5366004613d8e565b610b5a565b3480156103c657600080fd5b506103da6103d5366004613d75565b610c70565b6040516103159190613dba565b3480156103f357600080fd5b50610360610402366004613d8e565b610d6f565b34801561041357600080fd5b5061041c610e84565b604051908152602001610315565b610360610438366004613dfe565b610f24565b34801561044957600080fd5b50610360610458366004613e1b565b610ff9565b34801561046957600080fd5b5061041c610478366004613d75565b6000908152610835602052604090206001015490565b34801561049a57600080fd5b506103606104a9366004613dfe565b61102a565b3480156104ba57600080fd5b5061033361107b565b3480156104cf57600080fd5b506103606104de366004613dfe565b61108b565b3480156104ef57600080fd5b506103606104fe366004613e5c565b6110cf565b34801561050f57600080fd5b5061036061051e366004613dfe565b6110f6565b34801561052f57600080fd5b5061036061053e366004613e5c565b61113a565b34801561054f57600080fd5b50611452546001600160a01b0316610382565b34801561056e57600080fd5b5061038261057d366004613d75565b600090815261106960205260409020546001600160a01b031690565b3480156105a557600080fd5b506103606105b4366004613e1b565b6111b8565b3480156105c557600080fd5b506103606105d4366004613d75565b6111d3565b3480156105e557600080fd5b506103096112c4565b3480156105fa57600080fd5b506103096112e3565b34801561060f57600080fd5b5061038261061e366004613d75565b6112fd565b34801561062f57600080fd5b5061041c61063e366004613dfe565b611375565b34801561064f57600080fd5b506000546201000090046001600160a01b0316610382565b34801561067357600080fd5b50610360610682366004613e8c565b6113fd565b34801561069357600080fd5b506103606106a2366004613f1a565b61157d565b3480156106b357600080fd5b506103096106c236600461400a565b611955565b3480156106d357600080fd5b506103096106e2366004613e5c565b611997565b3480156106f357600080fd5b506103336119c3565b34801561070857600080fd5b5061041c600081565b34801561071d57600080fd5b5061036061072c36600461405a565b6119d3565b34801561073d57600080fd5b5061036061074c36600461400a565b611a99565b34801561075d57600080fd5b50610309611b19565b34801561077257600080fd5b5061036061078136600461408d565b611b25565b34801561079257600080fd5b506107a66107a1366004613d75565b611b57565b604051610315919061410d565b3480156107bf57600080fd5b506107d36107ce366004613d75565b611c1f565b60405161031592919061414e565b3480156107ed57600080fd5b506103336107fc366004613d75565b611d0d565b34801561080d57600080fd5b506123925461041c565b34801561082357600080fd5b50610360610832366004613dfe565b611d18565b34801561084357600080fd5b5061041c60008051602061492b83398151915281565b34801561086557600080fd5b50610360610874366004613e5c565b611d69565b34801561088557600080fd5b5061041c6108943660046141b3565b611d90565b3480156108a557600080fd5b506103336108b4366004613d75565b611e67565b3480156108c557600080fd5b506103606108d4366004613dfe565b611f0a565b3480156108e557600080fd5b5061041c611f5b565b3480156108fa57600080fd5b506103096109093660046141e8565b6001600160a01b03918216600090815261103c6020908152604080832093909416825291909152205460ff1690565b34801561094457600080fd5b50610382610953366004613d75565b611f67565b34801561096457600080fd5b5061041c60008051602061490b83398151915281565b34801561098657600080fd5b50610360610995366004613dfe565b611fa5565b60006109a582611ff6565b92915050565b606061103780546109bb90614216565b80601f01602080910402602001604051908101604052809291908181526020018280546109e790614216565b8015610a345780601f10610a0957610100808354040283529160200191610a34565b820191906000526020600020905b815481529060010190602001808311610a1757829003601f168201915b5050505050905090565b600054610100900460ff1680610a57575060005460ff16155b610a7c5760405162461bcd60e51b8152600401610a7390614251565b60405180910390fd5b600054610100900460ff16158015610a9e576000805461ffff19166101011790555b610aa88484612001565b610ab0612088565b610ab9826120fa565b8015610acb576000805461ff00191690555b50505050565b6000610adc826121b5565b610b3d5760405162461bcd60e51b815260206004820152602c60248201527f4552433732313a20617070726f76656420717565727920666f72206e6f6e657860448201526b34b9ba32b73a103a37b5b2b760a11b6064820152608401610a73565b50600090815261103b60205260409020546001600160a01b031690565b6000610b65826112fd565b9050806001600160a01b0316836001600160a01b03161415610bd35760405162461bcd60e51b815260206004820152602160248201527f4552433732313a20617070726f76616c20746f2063757272656e74206f776e656044820152603960f91b6064820152608401610a73565b336001600160a01b0382161480610bef5750610bef8133610909565b610c615760405162461bcd60e51b815260206004820152603860248201527f4552433732313a20617070726f76652063616c6c6572206973206e6f74206f7760448201527f6e6572206e6f7220617070726f76656420666f7220616c6c00000000000000006064820152608401610a73565b610c6b83836121d3565b505050565b606060008061145260009054906101000a90046001600160a01b03166001600160a01b0316635fbbc0d26040518163ffffffff1660e01b815260040160606040518083038186803b158015610cc457600080fd5b505afa158015610cd8573d6000803e3d6000fd5b505050506040513d601f19601f82011682018060405250810190610cfc919061429f565b60408051600280825260608201909252929550909350600092508160200160208202803683370190505090508281600081518110610d3c57610d3c6142cd565b6020026020010181815250508181600181518110610d5c57610d5c6142cd565b6020908102919091010152949350505050565b610d78816121b5565b610db95760405162461bcd60e51b8152602060048201526012602482015271151bdad95b9251081b5d5cdd08195e1a5cdd60721b6044820152606401610a73565b33610dc3826112fd565b6001600160a01b031614610e2c5760405162461bcd60e51b815260206004820152602a60248201527f5472616e736665722063616e20626520646f6e65206f6e6c79206279207468656044820152691027232a1037bbb732b960b11b6064820152608401610a73565b610e373383836111b8565b604080513381526001600160a01b03841660208201529081018290527fec61728879a33aa50b55e1f4789dcfc1c680f30a24d7b8694a9f874e242a97b49060600160405180910390a15050565b6000610e9e60008051602061492b83398151915233611997565b610eba5760405162461bcd60e51b8152600401610a73906142e3565b610ec961239380546001019055565b6123928054906000610eda83614349565b919050559050610eea3382612242565b610ef4813361225c565b604051819033907f30385c845b448a36257a6a1716e6ad2e1bc2cbe333cde1e69fe849ad6511adfe90600090a390565b60003411610f745760405162461bcd60e51b815260206004820152601d60248201527f416d6f756e74206d7573742062652067726561746572207468616e20300000006044820152606401610a73565b6040516001600160a01b038216903480156108fc02916000818181858888f19350505050158015610fa9573d6000803e3d6000fd5b50604080516001600160a01b038316815233602082015234918101919091527f8760fef165fbacea4256b4fe8e74018a3a597d74281e4142ace323cab292d897906060015b60405180910390a150565b61100333826122d2565b61101f5760405162461bcd60e51b8152600401610a7390614364565b610c6b8383836123bd565b61104260008051602061492b833981519152826110cf565b6040516001600160a01b03821681527f93e15a6550ecfc8e6edd98132363907de724eed6c5d89ce96917f4d4ff4da1f390602001610fee565b606061183c80546109bb90614216565b611096600082611d69565b6040516001600160a01b03821681527f631ff1c4e1a02c54b480a34b810e03bcee61fe38efcb243930a7f820914923e290602001610fee565b600082815261083560205260409020600101546110ec8133612560565b610c6b83836125c4565b6111016000826110cf565b6040516001600160a01b03821681527f1c4e23de8d72c94b22992bd4d7b6786b215ba876af214ff63e6a0ca38fc97af490602001610fee565b6001600160a01b03811633146111aa5760405162461bcd60e51b815260206004820152602f60248201527f416363657373436f6e74726f6c3a2063616e206f6e6c792072656e6f756e636560448201526e103937b632b9903337b91039b2b63360891b6064820152608401610a73565b6111b4828261264b565b5050565b610c6b83838360405180602001604052806000815250611b25565b6000818152611069602052604090205481906001600160a01b031633146112485760405162461bcd60e51b8152602060048201526024808201527f4e465437323143726561746f723a2043616c6c6572206973206e6f742063726560448201526330ba37b960e11b6064820152608401610a73565b33611252826112fd565b6001600160a01b0316146112bb5760405162461bcd60e51b815260206004820152602a60248201527f4e465437323143726561746f723a2043616c6c657220646f6573206e6f74206f6044820152691ddb881d1a194813919560b21b6064820152608401610a73565b6111b4826126b3565b60006112de60008051602061490b83398151915233611997565b905090565b60006112de60008051602061492b83398151915233611997565b600081815261103960205260408120546001600160a01b0316806109a55760405162461bcd60e51b815260206004820152602960248201527f4552433732313a206f776e657220717565727920666f72206e6f6e657869737460448201526832b73a103a37b5b2b760b91b6064820152608401610a73565b60006001600160a01b0382166113e05760405162461bcd60e51b815260206004820152602a60248201527f4552433732313a2062616c616e636520717565727920666f7220746865207a65604482015269726f206164647265737360b01b6064820152608401610a73565b506001600160a01b0316600090815261103a602052604090205490565b61141560008051602061492b83398151915233611997565b6114315760405162461bcd60e51b8152600401610a73906142e3565b6298967f811161149d5760405162461bcd60e51b815260206004820152603160248201527f4d696e743a20437573746f6d20546f6b656e4944206d757374206265206869676044820152700686572207468616e20313030303030303607c1b6064820152608401610a73565b6114a6816121b5565b156114f35760405162461bcd60e51b815260206004820152601e60248201527f4d696e743a20546f6b656e496420616c7265616479206578697374656e7400006044820152606401610a73565b61150261239380546001019055565b61150c8282612242565b611516818361225c565b61152081846126bc565b8260405161152e91906143b5565b604051809103902081836001600160a01b03167fe2406cfd356cfbe4e42d452bde96d27f48c423e5f02b5d78695893308399519d866040516115709190613c29565b60405180910390a4505050565b838383838080601f0160208091040260200160405190810160405280939291908181526020018383808284376000920191909152506115bf92506112c4915050565b61161f5760405162461bcd60e51b815260206004820152602b60248201527f4163636f756e744d6967726174696f6e3a2043616c6c6572206973206e6f742060448201526a30b71037b832b930ba37b960a91b6064820152608401610a73565b816001600160a01b0316836001600160a01b0316141561169e5760405162461bcd60e51b815260206004820152603460248201527f4163636f756e744d6967726174696f6e3a2043616e6e6f74206d696772617465604482015273081d1bc81d1a19481cd85b59481858d8dbdd5b9d60621b6064820152608401610a73565b60006116d06116ac846127f4565b6040516020016116bc91906143d1565b6040516020818303038152906040526129a4565b90506116dd8482846129df565b61174f5760405162461bcd60e51b815260206004820152603d60248201527f4163636f756e744d6967726174696f6e3a205369676e6174757265206d75737460448201527f2062652066726f6d20746865206f726967696e616c206163636f756e740000006064820152608401610a73565b60005b8981101561180a5760008b8b8381811061176e5761176e6142cd565b905060200201359050611780816121b5565b80156117a55750896001600160a01b031661179a826112fd565b6001600160a01b0316145b156117f7576117b58a8a836123bd565b886001600160a01b03168a6001600160a01b0316827fde55f075ebd46256cd6bd57d8fb53e0406f687db372e90ae8c18e72be46f5c1660405160405180910390a45b508061180281614349565b915050611752565b5060005b8b8110156119465760008d8d8381811061182a5761182a6142cd565b602090810292909201356000818152611069909352604090922054919250506001600160a01b03161561193357600081815261106960205260409020546001600160a01b038b81169116146118e75760405162461bcd60e51b815260206004820152603960248201527f4e465437323143726561746f723a20546f6b656e20776173206e6f742063726560448201527f617465642062792074686520676976656e2061646472657373000000000000006064820152608401610a73565b6118f1818a61225c565b886001600160a01b03168a6001600160a01b0316827f58120fb31972ff9fad76eb87119474a58fc38d6b9b842bb3067a4a329eaa64f660405160405180910390a45b508061193e81614349565b91505061180e565b50505050505050505050505050565b6001600160a01b038216600090815261183b6020526040808220905161197c9084906143b5565b9081526040519081900360200190205460ff16905092915050565b6000918252610835602090815260408084206001600160a01b0393909316845291905290205460ff1690565b606061103880546109bb90614216565b6001600160a01b038216331415611a2c5760405162461bcd60e51b815260206004820152601960248201527f4552433732313a20617070726f766520746f2063616c6c6572000000000000006044820152606401610a73565b33600081815261103c602090815260408083206001600160a01b03871680855290835292819020805460ff191686151590811790915590519081529192917f17307eab39ab6107e8899845ad3d59bd9653f200f220920489ca2b5937696c31910160405180910390a35050565b611aa4600033611997565b611b075760405162461bcd60e51b815260206004820152602e60248201527f41646d696e526f6c653a2063616c6c657220646f6573206e6f7420686176652060448201526d7468652041646d696e20726f6c6560901b6064820152608401610a73565b611b1082612aac565b6111b481612b65565b60006112de8133611997565b611b2f33836122d2565b611b4b5760405162461bcd60e51b8152600401610a7390614364565b610acb84848484612ba9565b6060611b62826121b5565b611b7e5760405162461bcd60e51b8152600401610a739061442b565b604080516002808252606082018352600092602083019080368337019050506000549091506201000090046001600160a01b031681600081518110611bc557611bc56142cd565b60200260200101906001600160a01b031690816001600160a01b031681525050611bee83611f67565b81600181518110611c0157611c016142cd565b6001600160a01b039092166020928302919091019091015292915050565b611c27613ae7565b611c2f613ae7565b611c38836121b5565b611c545760405162461bcd60e51b8152600401610a739061442b565b6000546201000090046001600160a01b03168252611c7183611f67565b6001600160a01b0390811660208401526114525460408051632fdde06960e11b8152905160009384931691635fbbc0d2916004808301926060929190829003018186803b158015611cc157600080fd5b505afa158015611cd5573d6000803e3d6000fd5b505050506040513d601f19601f82011682018060405250810190611cf9919061429f565b908552602085015250929491935090915050565b60606109a582612bdc565b611d3060008051602061492b83398151915282611d69565b6040516001600160a01b03821681527f44f4322f8daa225d5f4877ad0f7d3dfba248a774396f3ca99405ed40a044fe8190602001610fee565b60008281526108356020526040902060010154611d868133612560565b610c6b838361264b565b6000611daa60008051602061492b83398151915233611997565b611dc65760405162461bcd60e51b8152600401610a73906142e3565b611dd561239380546001019055565b6123928054906000611de683614349565b919050559050611df63382612242565b611e00813361225c565b611e0a81836126bc565b81604051611e1891906143b5565b604051809103902081336001600160a01b03167fe2406cfd356cfbe4e42d452bde96d27f48c423e5f02b5d78695893308399519d85604051611e5a9190613c29565b60405180910390a4919050565b600081815261183d60205260409020805460609190611e8590614216565b80601f0160208091040260200160405190810160405280929190818152602001828054611eb190614216565b8015611efe5780601f10611ed357610100808354040283529160200191611efe565b820191906000526020600020905b815481529060010190602001808311611ee157829003601f168201915b50505050509050919050565b611f2260008051602061490b833981519152826110cf565b6040516001600160a01b03821681527f5b6a420b639feabfb011a07742a6ae14ef72f35d1a330ed65f42216c95bc6c2e90602001610fee565b60006112de6123935490565b600081815261106a60205260409020546001600160a01b031680611fa05750600081815261106960205260409020546001600160a01b03165b919050565b611fbd60008051602061490b83398151915282611d69565b6040516001600160a01b03821681527fe672f512db5cb061756ab0b7654938a4293bbc42bc91f74bd0ade5f540a35c8090602001610fee565b60006109a582612be7565b600054610100900460ff168061201a575060005460ff16155b6120365760405162461bcd60e51b8152600401610a7390614251565b600054610100900460ff16158015612058576000805461ffff19166101011790555b612060612bf2565b612068612bf2565b6120728383612c5d565b8015610c6b576000805461ff0019169055505050565b600054610100900460ff16806120a1575060005460ff16155b6120bd5760405162461bcd60e51b8152600401610a7390614251565b600054610100900460ff161580156120df576000805461ffff19166101011790555b60016123925580156120f7576000805461ff00191690555b50565b600054610100900460ff1680612113575060005460ff16155b61212f5760405162461bcd60e51b8152600401610a7390614251565b600054610100900460ff16158015612151576000805461ffff19166101011790555b612159612cf4565b612164600083612d63565b6040516001600160a01b03831681527f75ef91bb959d6f13ca6b596857395ef84913b9db7adbc407d3bf97af614722d29060200160405180910390a180156111b4576000805461ff00191690555050565b600090815261103960205260409020546001600160a01b0316151590565b600081815261103b6020526040902080546001600160a01b0319166001600160a01b0384169081179091558190612209826112fd565b6001600160a01b03167f8c5be1e5ebec7d5bd14f71427d1e84f3dd0314c0f7b2291e5b200ac8c7c3b92560405160405180910390a45050565b6111b4828260405180602001604052806000815250612d6d565b6000828152611069602052604080822054905184926001600160a01b038086169316917febd529444fe852bfccb40075e8f8cae7612ea20edebdf5143c72718ccb157f759190a46000918252611069602052604090912080546001600160a01b0319166001600160a01b03909216919091179055565b60006122dd826121b5565b61233e5760405162461bcd60e51b815260206004820152602c60248201527f4552433732313a206f70657261746f7220717565727920666f72206e6f6e657860448201526b34b9ba32b73a103a37b5b2b760a11b6064820152608401610a73565b6000612349836112fd565b9050806001600160a01b0316846001600160a01b031614806123845750836001600160a01b031661237984610ad1565b6001600160a01b0316145b806123b557506001600160a01b03808216600090815261103c602090815260408083209388168352929052205460ff165b949350505050565b826001600160a01b03166123d0826112fd565b6001600160a01b0316146124385760405162461bcd60e51b815260206004820152602960248201527f4552433732313a207472616e73666572206f6620746f6b656e2074686174206960448201526839903737ba1037bbb760b91b6064820152608401610a73565b6001600160a01b03821661249a5760405162461bcd60e51b8152602060048201526024808201527f4552433732313a207472616e7366657220746f20746865207a65726f206164646044820152637265737360e01b6064820152608401610a73565b6124a56000826121d3565b6001600160a01b038316600090815261103a602052604081208054600192906124cf908490614476565b90915550506001600160a01b038216600090815261103a602052604081208054600192906124fe90849061448d565b90915550506000818152611039602052604080822080546001600160a01b0319166001600160a01b0386811691821790925591518493918716917fddf252ad1be2c89b69c2b068fc378daa952ba7f163c4a11628f55a4df523b3ef91a4505050565b61256a8282611997565b6111b457612582816001600160a01b03166014612da0565b61258d836020612da0565b60405160200161259e9291906144a5565b60408051601f198184030181529082905262461bcd60e51b8252610a7391600401613c29565b6125ce8282611997565b6111b4576000828152610835602090815260408083206001600160a01b03851684529091529020805460ff191660011790556126073390565b6001600160a01b0316816001600160a01b0316837f2f8788117e7eff1d82e926ec794901d17c78024a50270940304540a733656f0d60405160405180910390a45050565b6126558282611997565b156111b4576000828152610835602090815260408083206001600160a01b0385168085529252808320805460ff1916905551339285917ff6391f5c32d9c69d2a47ea670b442974b53935d1edc7fd64eb21e047a839171b9190a45050565b6120f781612f3c565b602e815110156127185760405162461bcd60e51b815260206004820152602160248201527f4e46543732314d657461646174613a20496e76616c69642049504653207061746044820152600d60fb1b6064820152608401610a73565b33600090815261183b60205260409081902090516127379083906143b5565b9081526040519081900360200190205460ff16156127a65760405162461bcd60e51b815260206004820152602660248201527f4e46543732314d657461646174613a204e46542077617320616c7265616479206044820152651b5a5b9d195960d21b6064820152608401610a73565b33600090815261183b6020526040908190209051600191906127c99084906143b5565b908152604051908190036020019020805491151560ff199092169190911790556111b4828233612f45565b60408051602a808252606082810190935260009190602082018180368337019050509050600360fc1b81600081518110612830576128306142cd565b60200101906001600160f81b031916908160001a905350600f60fb1b8160018151811061285f5761285f6142cd565b60200101906001600160f81b031916908160001a90535060005b601481101561299d57600061288f826013614476565b61289a90600861451a565b6128a590600261461d565b6128b8906001600160a01b03871661463f565b60f81b9050600060108260f81c6128cf9190614653565b60f81b905060008160f81c60106128e69190614675565b8360f81c6128f49190614696565b60f81b905061290282612ff8565b8561290e86600261451a565b61291990600261448d565b81518110612929576129296142cd565b60200101906001600160f81b031916908160001a90535061294981612ff8565b8561295586600261451a565b61296090600361448d565b81518110612970576129706142cd565b60200101906001600160f81b031916908160001a905350505050808061299590614349565b915050612879565b5092915050565b60006129b0825161302e565b826040516020016129c29291906146b9565b604051602081830303815290604052805190602001209050919050565b6000833b15612a8457604051630b135d3f60e11b81526001600160a01b03851690631626ba7e90612a169086908690600401614714565b60206040518083038186803b158015612a2e57600080fd5b505afa925050508015612a5e575060408051601f3d908101601f19168201909252612a5b9181019061472d565b60015b612a6a57506000612aa5565b6001600160e01b031916630b135d3f60e11b149050612aa5565b836001600160a01b0316612a98848461312c565b6001600160a01b03161490505b9392505050565b6001600160a01b0381163b612b1a5760405162461bcd60e51b815260206004820152602e60248201527f4e46543732314d61726b65743a204d61726b657420616464726573732069732060448201526d1b9bdd08184818dbdb9d1c9858dd60921b6064820152608401610a73565b61145280546001600160a01b0319166001600160a01b0383169081179091556040517f07e7630580d612127ff5f3bd98a1ef992bb87b379fef3b98f2e2ca1ad8e27dd890600090a250565b8051612b799061183c906020840190613b05565b507f6741b2fc379fad678116fe3d4d4b9a1a184ab53ba36b86ad0fa66340b1ab41ad81604051610fee9190613c29565b612bb48484846123bd565b612bc084848484613150565b610acb5760405162461bcd60e51b8152600401610a739061474a565b60606109a58261325d565b60006109a5826133c8565b600054610100900460ff1680612c0b575060005460ff16155b612c275760405162461bcd60e51b8152600401610a7390614251565b600054610100900460ff16158015612c49576000805461ffff19166101011790555b80156120f7576000805461ff001916905550565b600054610100900460ff1680612c76575060005460ff16155b612c925760405162461bcd60e51b8152600401610a7390614251565b600054610100900460ff16158015612cb4576000805461ffff19166101011790555b8251612cc890611037906020860190613b05565b508151612cdd90611038906020850190613b05565b508015610c6b576000805461ff0019169055505050565b600054610100900460ff1680612d0d575060005460ff16155b612d295760405162461bcd60e51b8152600401610a7390614251565b600054610100900460ff16158015612d4b576000805461ffff19166101011790555b612d53612bf2565b612d5b612bf2565b612c49612bf2565b6111b482826125c4565b612d7783836133d3565b612d846000848484613150565b610c6b5760405162461bcd60e51b8152600401610a739061474a565b60606000612daf83600261451a565b612dba90600261448d565b67ffffffffffffffff811115612dd257612dd2613c3c565b6040519080825280601f01601f191660200182016040528015612dfc576020820181803683370190505b509050600360fc1b81600081518110612e1757612e176142cd565b60200101906001600160f81b031916908160001a905350600f60fb1b81600181518110612e4657612e466142cd565b60200101906001600160f81b031916908160001a9053506000612e6a84600261451a565b612e7590600161448d565b90505b6001811115612eed576f181899199a1a9b1b9c1cb0b131b232b360811b85600f1660108110612ea957612ea96142cd565b1a60f81b828281518110612ebf57612ebf6142cd565b60200101906001600160f81b031916908160001a90535060049490941c93612ee68161479c565b9050612e78565b508315612aa55760405162461bcd60e51b815260206004820181905260248201527f537472696e67733a20686578206c656e67746820696e73756666696369656e746044820152606401610a73565b6120f781613508565b612f4e836121b5565b612fa65760405162461bcd60e51b8152602060048201526024808201527f4d61737465723a2055524920736574206f66206e6f6e6578697374656e74207460448201526337b5b2b760e11b6064820152608401610a73565b600083815261183d602090815260409091208351612fc692850190613b05565b50600092835261183e602052604090922080546001600160a01b0319166001600160a01b039093169290921790915550565b6000600a60f883901c101561301f5761301660f883901c60306147b3565b60f81b92915050565b61301660f883901c60576147b3565b6060816130525750506040805180820190915260018152600360fc1b602082015290565b8160005b811561307c578061306681614349565b91506130759050600a8361463f565b9150613056565b60008167ffffffffffffffff81111561309757613097613c3c565b6040519080825280601f01601f1916602001820160405280156130c1576020820181803683370190505b5090505b84156123b5576130d6600183614476565b91506130e3600a866147d8565b6130ee90603061448d565b60f81b818381518110613103576131036142cd565b60200101906001600160f81b031916908160001a905350613125600a8661463f565b94506130c5565b600080600061313b8585613555565b91509150613148816135c5565b509392505050565b60006001600160a01b0384163b1561325257604051630a85bd0160e11b81526001600160a01b0385169063150b7a02906131949033908990889088906004016147ec565b602060405180830381600087803b1580156131ae57600080fd5b505af19250505080156131de575060408051601f3d908101601f191682019092526131db9181019061472d565b60015b613238573d80801561320c576040519150601f19603f3d011682016040523d82523d6000602084013e613211565b606091505b5080516132305760405162461bcd60e51b8152600401610a739061474a565b805181602001fd5b6001600160e01b031916630a85bd0160e11b1490506123b5565b506001949350505050565b6060613268826121b5565b6132c45760405162461bcd60e51b815260206004820152602760248201527f4d61737465723a2055524920717565727920666f72206e6f6e6578697374656e6044820152663a103a37b5b2b760c91b6064820152608401610a73565b600082815261183d6020526040812080546132de90614216565b80601f016020809104026020016040519081016040528092919081815260200182805461330a90614216565b80156133575780601f1061332c57610100808354040283529160200191613357565b820191906000526020600020905b81548152906001019060200180831161333a57829003601f168201915b505050505090506000613368613780565b905080516000141561337b575092915050565b8151156133ad578082604051602001613395929190614829565b60405160208183030381529060405292505050919050565b806133b78561378a565b604051602001613395929190614829565b60006109a582613888565b6001600160a01b0382166134295760405162461bcd60e51b815260206004820181905260248201527f4552433732313a206d696e7420746f20746865207a65726f20616464726573736044820152606401610a73565b613432816121b5565b1561347f5760405162461bcd60e51b815260206004820152601c60248201527f4552433732313a20746f6b656e20616c7265616479206d696e746564000000006044820152606401610a73565b6001600160a01b038216600090815261103a602052604081208054600192906134a990849061448d565b90915550506000818152611039602052604080822080546001600160a01b0319166001600160a01b03861690811790915590518392907fddf252ad1be2c89b69c2b068fc378daa952ba7f163c4a11628f55a4df523b3ef908290a45050565b33600090815261183b6020908152604080832084845261183d909252918290209151909161353591614858565b908152604051908190036020019020805460ff191690556120f781613893565b60008082516041141561358c5760208301516040840151606085015160001a613580878285856138b9565b945094505050506135be565b8251604014156135b657602083015160408401516135ab8683836139a6565b9350935050506135be565b506000905060025b9250929050565b60008160048111156135d9576135d96148f4565b14156135e25750565b60018160048111156135f6576135f66148f4565b14156136445760405162461bcd60e51b815260206004820152601860248201527f45434453413a20696e76616c6964207369676e617475726500000000000000006044820152606401610a73565b6002816004811115613658576136586148f4565b14156136a65760405162461bcd60e51b815260206004820152601f60248201527f45434453413a20696e76616c6964207369676e6174757265206c656e677468006044820152606401610a73565b60038160048111156136ba576136ba6148f4565b14156137135760405162461bcd60e51b815260206004820152602260248201527f45434453413a20696e76616c6964207369676e6174757265202773272076616c604482015261756560f01b6064820152608401610a73565b6004816004811115613727576137276148f4565b14156120f75760405162461bcd60e51b815260206004820152602260248201527f45434453413a20696e76616c6964207369676e6174757265202776272076616c604482015261756560f01b6064820152608401610a73565b60606112de61107b565b6060816137ae5750506040805180820190915260018152600360fc1b602082015290565b8160005b81156137d857806137c281614349565b91506137d19050600a8361463f565b91506137b2565b60008167ffffffffffffffff8111156137f3576137f3613c3c565b6040519080825280601f01601f19166020018201604052801561381d576020820181803683370190505b5090505b84156123b557613832600183614476565b915061383f600a866147d8565b61384a90603061448d565b60f81b81838151811061385f5761385f6142cd565b60200101906001600160f81b031916908160001a905350613881600a8661463f565b9450613821565b60006109a5826139d5565b60008181526110696020526040902080546001600160a01b03191690556120f781613a15565b6000807f7fffffffffffffffffffffffffffffff5d576e7357a4501ddfe92f46681b20a08311156138f0575060009050600361399d565b8460ff16601b1415801561390857508460ff16601c14155b15613919575060009050600461399d565b6040805160008082526020820180845289905260ff881692820192909252606081018690526080810185905260019060a0016020604051602081039080840390855afa15801561396d573d6000803e3d6000fd5b5050604051601f1901519150506001600160a01b0381166139965760006001925092505061399d565b9150600090505b94509492505050565b6000806001600160ff1b03831660ff84901c601b016139c7878288856138b9565b935093505050935093915050565b60006001600160e01b031982166380ac58cd60e01b1480613a0657506001600160e01b03198216635b5e139f60e01b145b806109a557506109a582613ab2565b6000613a20826112fd565b9050613a2d6000836121d3565b6001600160a01b038116600090815261103a60205260408120805460019290613a57908490614476565b90915550506000828152611039602052604080822080546001600160a01b0319169055518391906001600160a01b038416907fddf252ad1be2c89b69c2b068fc378daa952ba7f163c4a11628f55a4df523b3ef908390a45050565b60006001600160e01b03198216637965db0b60e01b14806109a557506301ffc9a760e01b6001600160e01b03198316146109a5565b60405180604001604052806002906020820280368337509192915050565b828054613b1190614216565b90600052602060002090601f016020900481019282613b335760008555613b79565b82601f10613b4c57805160ff1916838001178555613b79565b82800160010185558215613b79579182015b82811115613b79578251825591602001919060010190613b5e565b50613b85929150613b89565b5090565b5b80821115613b855760008155600101613b8a565b6001600160e01b0319811681146120f757600080fd5b600060208284031215613bc657600080fd5b8135612aa581613b9e565b60005b83811015613bec578181015183820152602001613bd4565b83811115610acb5750506000910152565b60008151808452613c15816020860160208601613bd1565b601f01601f19169290920160200192915050565b602081526000612aa56020830184613bfd565b634e487b7160e01b600052604160045260246000fd5b600067ffffffffffffffff80841115613c6d57613c6d613c3c565b604051601f8501601f19908116603f01168101908282118183101715613c9557613c95613c3c565b81604052809350858152868686011115613cae57600080fd5b858560208301376000602087830101525050509392505050565b600082601f830112613cd957600080fd5b612aa583833560208501613c52565b6001600160a01b03811681146120f757600080fd5b600080600060608486031215613d1257600080fd5b833567ffffffffffffffff80821115613d2a57600080fd5b613d3687838801613cc8565b94506020860135915080821115613d4c57600080fd5b50613d5986828701613cc8565b9250506040840135613d6a81613ce8565b809150509250925092565b600060208284031215613d8757600080fd5b5035919050565b60008060408385031215613da157600080fd5b8235613dac81613ce8565b946020939093013593505050565b6020808252825182820181905260009190848201906040850190845b81811015613df257835183529284019291840191600101613dd6565b50909695505050505050565b600060208284031215613e1057600080fd5b8135612aa581613ce8565b600080600060608486031215613e3057600080fd5b8335613e3b81613ce8565b92506020840135613e4b81613ce8565b929592945050506040919091013590565b60008060408385031215613e6f57600080fd5b823591506020830135613e8181613ce8565b809150509250929050565b600080600060608486031215613ea157600080fd5b833567ffffffffffffffff811115613eb857600080fd5b613ec486828701613cc8565b9350506020840135613e4b81613ce8565b60008083601f840112613ee757600080fd5b50813567ffffffffffffffff811115613eff57600080fd5b6020830191508360208260051b85010111156135be57600080fd5b60008060008060008060008060a0898b031215613f3657600080fd5b883567ffffffffffffffff80821115613f4e57600080fd5b613f5a8c838d01613ed5565b909a50985060208b0135915080821115613f7357600080fd5b613f7f8c838d01613ed5565b909850965060408b01359150613f9482613ce8565b90945060608a013590613fa682613ce8565b90935060808a01359080821115613fbc57600080fd5b818b0191508b601f830112613fd057600080fd5b813581811115613fdf57600080fd5b8c6020828501011115613ff157600080fd5b6020830194508093505050509295985092959890939650565b6000806040838503121561401d57600080fd5b823561402881613ce8565b9150602083013567ffffffffffffffff81111561404457600080fd5b61405085828601613cc8565b9150509250929050565b6000806040838503121561406d57600080fd5b823561407881613ce8565b915060208301358015158114613e8157600080fd5b600080600080608085870312156140a357600080fd5b84356140ae81613ce8565b935060208501356140be81613ce8565b925060408501359150606085013567ffffffffffffffff8111156140e157600080fd5b8501601f810187136140f257600080fd5b61410187823560208401613c52565b91505092959194509250565b6020808252825182820181905260009190848201906040850190845b81811015613df25783516001600160a01b031683529284019291840191600101614129565b60808101818460005b600281101561417f5781516001600160a01b0316835260209283019290910190600101614157565b505050604082018360005b60028110156141a957815183526020928301929091019060010161418a565b5050509392505050565b6000602082840312156141c557600080fd5b813567ffffffffffffffff8111156141dc57600080fd5b6123b584828501613cc8565b600080604083850312156141fb57600080fd5b823561420681613ce8565b91506020830135613e8181613ce8565b600181811c9082168061422a57607f821691505b6020821081141561424b57634e487b7160e01b600052602260045260246000fd5b50919050565b6020808252602e908201527f496e697469616c697a61626c653a20636f6e747261637420697320616c72656160408201526d191e481a5b9a5d1a585b1a5e995960921b606082015260800190565b6000806000606084860312156142b457600080fd5b8351925060208401519150604084015190509250925092565b634e487b7160e01b600052603260045260246000fd5b60208082526030908201527f4d696e746572526f6c653a2063616c6c657220646f6573206e6f74206861766560408201526f20746865204d696e74657220726f6c6560801b606082015260800190565b634e487b7160e01b600052601160045260246000fd5b600060001982141561435d5761435d614333565b5060010190565b60208082526031908201527f4552433732313a207472616e736665722063616c6c6572206973206e6f74206f6040820152701ddb995c881b9bdc88185c1c1c9bdd9959607a1b606082015260800190565b600082516143c7818460208701613bd1565b9190910192915050565b7f4920617574686f72697a65204d696e74656420746f206d696772617465206d7981526b01030b1b1b7bab73a103a37960a51b60208201526000825161441e81602c850160208701613bd1565b91909101602c0192915050565b6020808252602b908201527f4552433732314d657461646174613a20517565727920666f72206e6f6e65786960408201526a39ba32b73a103a37b5b2b760a91b606082015260800190565b60008282101561448857614488614333565b500390565b600082198211156144a0576144a0614333565b500190565b7f416363657373436f6e74726f6c3a206163636f756e74200000000000000000008152600083516144dd816017850160208801613bd1565b7001034b99036b4b9b9b4b733903937b6329607d1b601791840191820152835161450e816028840160208801613bd1565b01602801949350505050565b600081600019048311821515161561453457614534614333565b500290565b600181815b8085111561457457816000190482111561455a5761455a614333565b8085161561456757918102915b93841c939080029061453e565b509250929050565b60008261458b575060016109a5565b81614598575060006109a5565b81600181146145ae57600281146145b8576145d4565b60019150506109a5565b60ff8411156145c9576145c9614333565b50506001821b6109a5565b5060208310610133831016604e8410600b84101617156145f7575081810a6109a5565b6146018383614539565b806000190482111561461557614615614333565b029392505050565b6000612aa5838361457c565b634e487b7160e01b600052601260045260246000fd5b60008261464e5761464e614629565b500490565b600060ff83168061466657614666614629565b8060ff84160491505092915050565b600060ff821660ff84168160ff048111821515161561461557614615614333565b600060ff821660ff8416808210156146b0576146b0614333565b90039392505050565b7f19457468657265756d205369676e6564204d6573736167653a0a0000000000008152600083516146f181601a850160208801613bd1565b83519083019061470881601a840160208801613bd1565b01601a01949350505050565b8281526040602082015260006123b56040830184613bfd565b60006020828403121561473f57600080fd5b8151612aa581613b9e565b60208082526032908201527f4552433732313a207472616e7366657220746f206e6f6e20455243373231526560408201527131b2b4bb32b91034b6b83632b6b2b73a32b960711b606082015260800190565b6000816147ab576147ab614333565b506000190190565b600060ff821660ff84168060ff038211156147d0576147d0614333565b019392505050565b6000826147e7576147e7614629565b500690565b6001600160a01b038581168252841660208201526040810183905260806060820181905260009061481f90830184613bfd565b9695505050505050565b6000835161483b818460208801613bd1565b83519083019061484f818360208801613bd1565b01949350505050565b600080835481600182811c91508083168061487457607f831692505b602080841082141561489457634e487b7160e01b86526022600452602486fd5b8180156148a857600181146148b9576148e6565b60ff198616895284890196506148e6565b60008a81526020902060005b868110156148de5781548b8201529085019083016148c5565b505084890196505b509498975050505050505050565b634e487b7160e01b600052602160045260246000fdfe97667070c54ef182b0f5858b034beac1b6f3089aa2d3188bb1e8929f4fa9b9299f2df0fed2c77648de5860a4cc508cd0818c85b8b8a1ab4ceeef8d981c8956a6a26469706673582212206a40b25038d984581a35bf4e671b1da8fe57103ee35a18bf3c44928a18e36a8664736f6c63430008090033",
  "immutableReferences": {},
  "source": "/*\r\n::::    :::::  :::::::::  ::::    :::  :::::::::  :::::::::  :::::::::  \r\n+:+:+: :+:+:+     :+:     :+:+:   :+:     :+:     :+:        :+:    :+: \r\n+:+ +:+:+ +:+     +:+     :+:+:+  +:+     +:+     +:+        +:+    +:+ \r\n+#+  +:+  +#+     +#+     +#+ +:+ +#+     +#+     +#++:++#   +#+    +:+ \r\n+#+       +#+     +#+     +#+  +#+#+#     +#+     +#+        +#+    +#+ \r\n#+#       #+#     #+#     #+#   #+#+#     #+#     #+#        #+#    #+# \r\n###       ###  #########  ###    ####     ###     #########  #########  \r\n*/\r\n// SPDX-License-Identifier: Non-Licensed\r\npragma solidity ^0.8.0;\r\n\r\nimport \"@openzeppelin/contracts-upgradeable/token/ERC721/ERC721Upgradeable.sol\";\r\n\r\nimport \"./mixins/roles/AdminRole.sol\";\r\nimport \"./mixins/roles/OperatorRole.sol\";\r\nimport \"./mixins/NFT721Core.sol\";\r\nimport \"./mixins/NFT721Creator.sol\";\r\nimport \"./mixins/NFT721Metadata.sol\";\r\nimport \"./mixins/NFT721Mint.sol\";\r\nimport \"./mixins/NFT721Market.sol\";\r\nimport \"./mixins/AccountMigration.sol\";\r\n\r\n/**\r\n * @title Minted NFTs implemented using the ERC-721 standard.\r\n * @dev This top level file holds no data directly to ease future upgrades.\r\n */\r\n \r\ncontract NftoonMain is\r\n  AdminRole,\r\n  OperatorRole,\r\n  AccountMigration,\r\n  ERC721Upgradeable,\r\n  NFT721Creator,\r\n  NFT721Market,\r\n  NFT721Metadata,\r\n  NFT721Core,\r\n  NFT721Mint  \r\n{\r\n  /**\r\n   * @notice Called once to configure the contract after the initial deployment.\r\n   * @dev This farms the initialize call out to inherited contracts as needed.\r\n   */\r\n  function initialize(\r\n    string memory name,\r\n    string memory symbol,\r\n    address admin\r\n  ) public initializer {\r\n    ERC721Upgradeable.__ERC721_init(name, symbol);\r\n    NFT721Mint._initializeNFT721Mint();\r\n    AdminRole._initializeAdminRole(admin);\r\n  }\r\n\r\n  function _baseURI() internal view virtual override(ERC721Upgradeable, NFT721Metadata, NFT721Mint) returns (string memory) {\r\n    return GetBaseURI();\r\n  }\r\n\r\n  /**\r\n   * @notice Allows a Minted admin to update NFT config variables.\r\n   * @dev This must be called right after the initial call to `initialize`.\r\n   */\r\n   function adminUpdateConfig(\r\n    address _nftMarket,\r\n    string memory baseURI\r\n  ) public onlyAdmin {\r\n    _updateNFTMarket(_nftMarket);\r\n    _updateBaseURI(baseURI);\r\n  }\r\n\r\n  /**\r\n   * @dev This is a no-op, just an explicit override to address compile errors due to inheritance.\r\n   */\r\n  function _burn(uint256 tokenId) internal override(ERC721Upgradeable, NFT721Creator, NFT721Metadata, NFT721Mint) {\r\n    super._burn(tokenId);\r\n  }\r\n\r\n   function tokenURI(uint256 tokenId) public view virtual override(ERC721Upgradeable, NFT721Metadata, NFT721Mint) returns (string memory) {\r\n     return super.tokenURI(tokenId);\r\n   }\r\n  \r\n  function supportsInterface(bytes4 interfaceId) public view virtual override( ERC721Upgradeable, NFT721Mint, NFT721Market, NFT721Metadata, AccessControlUpgradeable, NFT721Creator) returns (bool) {\r\n    return super.supportsInterface(interfaceId);\r\n  }\r\n}",
  "sourcePath": "C:\\alex\\nft\\openZeppelin\\mintedBasic\\contracts\\minted\\NFToonMain.sol",
  "compiler": {
    "name": "solc",
    "version": "0.8.9+commit.e5eed63a.Emscripten.clang"
  },
  "schemaVersion": "3.4.5",
  "updatedAt": "2022-03-24T15:34:25.529Z",
  "networkType": "ethereum",
  "devdoc": {
    "details": "This top level file holds no data directly to ease future upgrades.",
    "kind": "dev",
    "methods": {
      "adminAccountMigration(uint256[],uint256[],address,address,bytes)": {
        "details": "This will gracefully skip any NFTs that have been burned or transferred.",
        "params": {
          "signature": "Message `I authorize Minted to migrate my account to ${newAccount.address.toLowerCase()}` signed by the original account."
        }
      },
      "adminUpdateConfig(address,string)": {
        "details": "This must be called right after the initial call to `initialize`."
      },
      "approve(address,uint256)": {
        "details": "See {IERC721-approve}."
      },
      "balanceOf(address)": {
        "details": "See {IERC721-balanceOf}."
      },
      "getApproved(uint256)": {
        "details": "See {IERC721-getApproved}."
      },
      "getRoleAdmin(bytes32)": {
        "details": "Returns the admin role that controls `role`. See {grantRole} and {revokeRole}. To change a role's admin, use {_setRoleAdmin}."
      },
      "getTokenCreatorPaymentAddress(uint256)": {
        "details": "If an alternate address was not defined, the creator is returned instead."
      },
      "grantRole(bytes32,address)": {
        "details": "Grants `role` to `account`. If `account` had not been already granted `role`, emits a {RoleGranted} event. Requirements: - the caller must have ``role``'s admin role."
      },
      "hasRole(bytes32,address)": {
        "details": "Returns `true` if `account` has been granted `role`."
      },
      "initialize(string,string,address)": {
        "details": "This farms the initialize call out to inherited contracts as needed."
      },
      "isApprovedForAll(address,address)": {
        "details": "See {IERC721-isApprovedForAll}."
      },
      "name()": {
        "details": "See {IERC721Metadata-name}."
      },
      "ownerOf(uint256)": {
        "details": "See {IERC721-ownerOf}."
      },
      "renounceRole(bytes32,address)": {
        "details": "Revokes `role` from the calling account. Roles are often managed via {grantRole} and {revokeRole}: this function's purpose is to provide a mechanism for accounts to lose their privileges if they are compromised (such as when a trusted device is misplaced). If the calling account had been granted `role`, emits a {RoleRevoked} event. Requirements: - the caller must be `account`."
      },
      "revokeRole(bytes32,address)": {
        "details": "Revokes `role` from `account`. If `account` had been granted `role`, emits a {RoleRevoked} event. Requirements: - the caller must have ``role``'s admin role."
      },
      "safeTransferFrom(address,address,uint256)": {
        "details": "See {IERC721-safeTransferFrom}."
      },
      "safeTransferFrom(address,address,uint256,bytes)": {
        "details": "See {IERC721-safeTransferFrom}."
      },
      "setApprovalForAll(address,bool)": {
        "details": "See {IERC721-setApprovalForAll}."
      },
      "symbol()": {
        "details": "See {IERC721Metadata-symbol}."
      },
      "transferFrom(address,address,uint256)": {
        "details": "See {IERC721-transferFrom}."
      }
    },
    "title": "Minted NFTs implemented using the ERC-721 standard.",
    "version": 1
  },
  "userdoc": {
    "kind": "user",
    "methods": {
      "adminAccountMigration(uint256[],uint256[],address,address,bytes)": {
        "notice": "Allows an NFT owner or creator and Minted to work together in order to update the creator to a new account and/or transfer NFTs to that account."
      },
      "adminUpdateConfig(address,string)": {
        "notice": "Allows a Minted admin to update NFT config variables."
      },
      "burn(uint256)": {
        "notice": "Allows the creator to burn if they currently own the NFT."
      },
      "getFeeBps(uint256)": {
        "notice": "Returns an array of fees in basis points. The expected recipients is communicated with `getFeeRecipients`."
      },
      "getFeeRecipients(uint256)": {
        "notice": "Returns an array of recipient addresses to which fees should be sent. The expected fee amount is communicated with `getFeeBps`."
      },
      "getHasCreatorMintedIPFSHash(address,string)": {
        "notice": "Checks if the creator has already minted a given NFT."
      },
      "getMintedTreasury()": {
        "notice": "Returns the address of the Minted treasury."
      },
      "getNFTMarket()": {
        "notice": "Returns the address of the Minted NFTMarket contract."
      },
      "getNextTokenId()": {
        "notice": "Gets the tokenId of the next NFT minted."
      },
      "getRoyalties(uint256)": {
        "notice": "Get fee recipients and fees in a single call. The data is the same as when calling getFeeRecipients and getFeeBps separately."
      },
      "getTokenCreatorPaymentAddress(uint256)": {
        "notice": "Returns the payment address for a given tokenId."
      },
      "getTokenIPFSPath(uint256)": {
        "notice": "Returns the IPFSPath to the metadata JSON file for a given NFT."
      },
      "initialize(string,string,address)": {
        "notice": "Called once to configure the contract after the initial deployment."
      },
      "mint()": {
        "notice": "Allows a creator to mint an NFT."
      },
      "tokenCreator(uint256)": {
        "notice": "Returns the creator's address for a given tokenId."
      }
    },
    "version": 1
  }
}