{
    "contractName": "Master",
    "abi": [
        {
            "inputs": [],
            "stateMutability": "nonpayable",
            "type": "constructor"
        },
        {
            "anonymous": false,
            "inputs": [
                {
                    "indexed": true,
                    "internalType": "address",
                    "name": "owner",
                    "type": "address"
                },
                {
                    "indexed": true,
                    "internalType": "address",
                    "name": "approved",
                    "type": "address"
                },
                {
                    "indexed": true,
                    "internalType": "uint256",
                    "name": "tokenId",
                    "type": "uint256"
                }
            ],
            "name": "Approval",
            "type": "event"
        },
        {
            "anonymous": false,
            "inputs": [
                {
                    "indexed": true,
                    "internalType": "address",
                    "name": "owner",
                    "type": "address"
                },
                {
                    "indexed": true,
                    "internalType": "address",
                    "name": "operator",
                    "type": "address"
                },
                {
                    "indexed": false,
                    "internalType": "bool",
                    "name": "approved",
                    "type": "bool"
                }
            ],
            "name": "ApprovalForAll",
            "type": "event"
        },
        {
            "anonymous": false,
            "inputs": [
                {
                    "indexed": false,
                    "internalType": "address",
                    "name": "account",
                    "type": "address"
                }
            ],
            "name": "Paused",
            "type": "event"
        },
        {
            "anonymous": false,
            "inputs": [
                {
                    "indexed": true,
                    "internalType": "bytes32",
                    "name": "role",
                    "type": "bytes32"
                },
                {
                    "indexed": true,
                    "internalType": "bytes32",
                    "name": "previousAdminRole",
                    "type": "bytes32"
                },
                {
                    "indexed": true,
                    "internalType": "bytes32",
                    "name": "newAdminRole",
                    "type": "bytes32"
                }
            ],
            "name": "RoleAdminChanged",
            "type": "event"
        },
        {
            "anonymous": false,
            "inputs": [
                {
                    "indexed": true,
                    "internalType": "bytes32",
                    "name": "role",
                    "type": "bytes32"
                },
                {
                    "indexed": true,
                    "internalType": "address",
                    "name": "account",
                    "type": "address"
                },
                {
                    "indexed": true,
                    "internalType": "address",
                    "name": "sender",
                    "type": "address"
                }
            ],
            "name": "RoleGranted",
            "type": "event"
        },
        {
            "anonymous": false,
            "inputs": [
                {
                    "indexed": true,
                    "internalType": "bytes32",
                    "name": "role",
                    "type": "bytes32"
                },
                {
                    "indexed": true,
                    "internalType": "address",
                    "name": "account",
                    "type": "address"
                },
                {
                    "indexed": true,
                    "internalType": "address",
                    "name": "sender",
                    "type": "address"
                }
            ],
            "name": "RoleRevoked",
            "type": "event"
        },
        {
            "anonymous": false,
            "inputs": [
                {
                    "indexed": true,
                    "internalType": "address",
                    "name": "from",
                    "type": "address"
                },
                {
                    "indexed": true,
                    "internalType": "address",
                    "name": "to",
                    "type": "address"
                },
                {
                    "indexed": true,
                    "internalType": "uint256",
                    "name": "tokenId",
                    "type": "uint256"
                }
            ],
            "name": "Transfer",
            "type": "event"
        },
        {
            "anonymous": false,
            "inputs": [
                {
                    "indexed": false,
                    "internalType": "address",
                    "name": "account",
                    "type": "address"
                }
            ],
            "name": "Unpaused",
            "type": "event"
        },
        {
            "anonymous": false,
            "inputs": [
                {
                    "indexed": false,
                    "internalType": "uint256",
                    "name": "id",
                    "type": "uint256"
                },
                {
                    "indexed": false,
                    "internalType": "string",
                    "name": "userName",
                    "type": "string"
                },
                {
                    "indexed": false,
                    "internalType": "address payable",
                    "name": "userAddress",
                    "type": "address"
                },
                {
                    "indexed": false,
                    "internalType": "uint256",
                    "name": "amount",
                    "type": "uint256"
                }
            ],
            "name": "UserCreated",
            "type": "event"
        },
        {
            "anonymous": false,
            "inputs": [
                {
                    "indexed": false,
                    "internalType": "uint256",
                    "name": "id",
                    "type": "uint256"
                },
                {
                    "indexed": false,
                    "internalType": "string",
                    "name": "userName",
                    "type": "string"
                },
                {
                    "indexed": false,
                    "internalType": "address payable",
                    "name": "userAddress",
                    "type": "address"
                },
                {
                    "indexed": false,
                    "internalType": "uint256",
                    "name": "amount",
                    "type": "uint256"
                }
            ],
            "name": "amountTransferred",
            "type": "event"
        },
        {
            "inputs": [],
            "name": "DEFAULT_ADMIN_ROLE",
            "outputs": [
                {
                    "internalType": "bytes32",
                    "name": "",
                    "type": "bytes32"
                }
            ],
            "stateMutability": "view",
            "type": "function",
            "constant": true
        },
        {
            "inputs": [],
            "name": "MINTER_ROLE",
            "outputs": [
                {
                    "internalType": "bytes32",
                    "name": "",
                    "type": "bytes32"
                }
            ],
            "stateMutability": "view",
            "type": "function",
            "constant": true
        },
        {
            "inputs": [],
            "name": "PAUSER_ROLE",
            "outputs": [
                {
                    "internalType": "bytes32",
                    "name": "",
                    "type": "bytes32"
                }
            ],
            "stateMutability": "view",
            "type": "function",
            "constant": true
        },
        {
            "inputs": [
                {
                    "internalType": "address",
                    "name": "to",
                    "type": "address"
                },
                {
                    "internalType": "uint256",
                    "name": "tokenId",
                    "type": "uint256"
                }
            ],
            "name": "approve",
            "outputs": [],
            "stateMutability": "nonpayable",
            "type": "function"
        },
        {
            "inputs": [
                {
                    "internalType": "address",
                    "name": "owner",
                    "type": "address"
                }
            ],
            "name": "balanceOf",
            "outputs": [
                {
                    "internalType": "uint256",
                    "name": "",
                    "type": "uint256"
                }
            ],
            "stateMutability": "view",
            "type": "function",
            "constant": true
        },
        {
            "inputs": [
                {
                    "internalType": "uint256",
                    "name": "tokenId",
                    "type": "uint256"
                }
            ],
            "name": "burn",
            "outputs": [],
            "stateMutability": "nonpayable",
            "type": "function"
        },
        {
            "inputs": [
                {
                    "internalType": "uint256",
                    "name": "tokenId",
                    "type": "uint256"
                }
            ],
            "name": "getApproved",
            "outputs": [
                {
                    "internalType": "address",
                    "name": "",
                    "type": "address"
                }
            ],
            "stateMutability": "view",
            "type": "function",
            "constant": true
        },
        {
            "inputs": [
                {
                    "internalType": "bytes32",
                    "name": "role",
                    "type": "bytes32"
                }
            ],
            "name": "getRoleAdmin",
            "outputs": [
                {
                    "internalType": "bytes32",
                    "name": "",
                    "type": "bytes32"
                }
            ],
            "stateMutability": "view",
            "type": "function",
            "constant": true
        },
        {
            "inputs": [
                {
                    "internalType": "bytes32",
                    "name": "role",
                    "type": "bytes32"
                },
                {
                    "internalType": "uint256",
                    "name": "index",
                    "type": "uint256"
                }
            ],
            "name": "getRoleMember",
            "outputs": [
                {
                    "internalType": "address",
                    "name": "",
                    "type": "address"
                }
            ],
            "stateMutability": "view",
            "type": "function",
            "constant": true
        },
        {
            "inputs": [
                {
                    "internalType": "bytes32",
                    "name": "role",
                    "type": "bytes32"
                }
            ],
            "name": "getRoleMemberCount",
            "outputs": [
                {
                    "internalType": "uint256",
                    "name": "",
                    "type": "uint256"
                }
            ],
            "stateMutability": "view",
            "type": "function",
            "constant": true
        },
        {
            "inputs": [
                {
                    "internalType": "bytes32",
                    "name": "role",
                    "type": "bytes32"
                },
                {
                    "internalType": "address",
                    "name": "account",
                    "type": "address"
                }
            ],
            "name": "grantRole",
            "outputs": [],
            "stateMutability": "nonpayable",
            "type": "function"
        },
        {
            "inputs": [
                {
                    "internalType": "bytes32",
                    "name": "role",
                    "type": "bytes32"
                },
                {
                    "internalType": "address",
                    "name": "account",
                    "type": "address"
                }
            ],
            "name": "hasRole",
            "outputs": [
                {
                    "internalType": "bool",
                    "name": "",
                    "type": "bool"
                }
            ],
            "stateMutability": "view",
            "type": "function",
            "constant": true
        },
        {
            "inputs": [
                {
                    "internalType": "address",
                    "name": "owner",
                    "type": "address"
                },
                {
                    "internalType": "address",
                    "name": "operator",
                    "type": "address"
                }
            ],
            "name": "isApprovedForAll",
            "outputs": [
                {
                    "internalType": "bool",
                    "name": "",
                    "type": "bool"
                }
            ],
            "stateMutability": "view",
            "type": "function",
            "constant": true
        },
        {
            "inputs": [],
            "name": "name",
            "outputs": [
                {
                    "internalType": "string",
                    "name": "",
                    "type": "string"
                }
            ],
            "stateMutability": "view",
            "type": "function",
            "constant": true
        },
        {
            "inputs": [
                {
                    "internalType": "uint256",
                    "name": "tokenId",
                    "type": "uint256"
                }
            ],
            "name": "ownerOf",
            "outputs": [
                {
                    "internalType": "address",
                    "name": "",
                    "type": "address"
                }
            ],
            "stateMutability": "view",
            "type": "function",
            "constant": true
        },
        {
            "inputs": [],
            "name": "paused",
            "outputs": [
                {
                    "internalType": "bool",
                    "name": "",
                    "type": "bool"
                }
            ],
            "stateMutability": "view",
            "type": "function",
            "constant": true
        },
        {
            "inputs": [
                {
                    "internalType": "bytes32",
                    "name": "role",
                    "type": "bytes32"
                },
                {
                    "internalType": "address",
                    "name": "account",
                    "type": "address"
                }
            ],
            "name": "renounceRole",
            "outputs": [],
            "stateMutability": "nonpayable",
            "type": "function"
        },
        {
            "inputs": [
                {
                    "internalType": "bytes32",
                    "name": "role",
                    "type": "bytes32"
                },
                {
                    "internalType": "address",
                    "name": "account",
                    "type": "address"
                }
            ],
            "name": "revokeRole",
            "outputs": [],
            "stateMutability": "nonpayable",
            "type": "function"
        },
        {
            "inputs": [
                {
                    "internalType": "address",
                    "name": "from",
                    "type": "address"
                },
                {
                    "internalType": "address",
                    "name": "to",
                    "type": "address"
                },
                {
                    "internalType": "uint256",
                    "name": "tokenId",
                    "type": "uint256"
                }
            ],
            "name": "safeTransferFrom",
            "outputs": [],
            "stateMutability": "nonpayable",
            "type": "function"
        },
        {
            "inputs": [
                {
                    "internalType": "address",
                    "name": "from",
                    "type": "address"
                },
                {
                    "internalType": "address",
                    "name": "to",
                    "type": "address"
                },
                {
                    "internalType": "uint256",
                    "name": "tokenId",
                    "type": "uint256"
                },
                {
                    "internalType": "bytes",
                    "name": "_data",
                    "type": "bytes"
                }
            ],
            "name": "safeTransferFrom",
            "outputs": [],
            "stateMutability": "nonpayable",
            "type": "function"
        },
        {
            "inputs": [
                {
                    "internalType": "address",
                    "name": "operator",
                    "type": "address"
                },
                {
                    "internalType": "bool",
                    "name": "approved",
                    "type": "bool"
                }
            ],
            "name": "setApprovalForAll",
            "outputs": [],
            "stateMutability": "nonpayable",
            "type": "function"
        },
        {
            "inputs": [],
            "name": "symbol",
            "outputs": [
                {
                    "internalType": "string",
                    "name": "",
                    "type": "string"
                }
            ],
            "stateMutability": "view",
            "type": "function",
            "constant": true
        },
        {
            "inputs": [
                {
                    "internalType": "uint256",
                    "name": "index",
                    "type": "uint256"
                }
            ],
            "name": "tokenByIndex",
            "outputs": [
                {
                    "internalType": "uint256",
                    "name": "",
                    "type": "uint256"
                }
            ],
            "stateMutability": "view",
            "type": "function",
            "constant": true
        },
        {
            "inputs": [
                {
                    "internalType": "address",
                    "name": "owner",
                    "type": "address"
                },
                {
                    "internalType": "uint256",
                    "name": "index",
                    "type": "uint256"
                }
            ],
            "name": "tokenOfOwnerByIndex",
            "outputs": [
                {
                    "internalType": "uint256",
                    "name": "",
                    "type": "uint256"
                }
            ],
            "stateMutability": "view",
            "type": "function",
            "constant": true
        },
        {
            "inputs": [],
            "name": "totalSupply",
            "outputs": [
                {
                    "internalType": "uint256",
                    "name": "",
                    "type": "uint256"
                }
            ],
            "stateMutability": "view",
            "type": "function",
            "constant": true
        },
        {
            "inputs": [
                {
                    "internalType": "address",
                    "name": "from",
                    "type": "address"
                },
                {
                    "internalType": "address",
                    "name": "to",
                    "type": "address"
                },
                {
                    "internalType": "uint256",
                    "name": "tokenId",
                    "type": "uint256"
                }
            ],
            "name": "transferFrom",
            "outputs": [],
            "stateMutability": "nonpayable",
            "type": "function"
        },
        {
            "inputs": [],
            "name": "userCount",
            "outputs": [
                {
                    "internalType": "uint256",
                    "name": "",
                    "type": "uint256"
                }
            ],
            "stateMutability": "view",
            "type": "function",
            "constant": true
        },
        {
            "inputs": [
                {
                    "internalType": "uint256",
                    "name": "",
                    "type": "uint256"
                }
            ],
            "name": "users",
            "outputs": [
                {
                    "internalType": "uint256",
                    "name": "id",
                    "type": "uint256"
                },
                {
                    "internalType": "string",
                    "name": "userName",
                    "type": "string"
                },
                {
                    "internalType": "address payable",
                    "name": "userAddress",
                    "type": "address"
                },
                {
                    "internalType": "uint256",
                    "name": "amount",
                    "type": "uint256"
                }
            ],
            "stateMutability": "view",
            "type": "function",
            "constant": true
        },
        {
            "inputs": [
                {
                    "internalType": "address",
                    "name": "newOwner",
                    "type": "address"
                }
            ],
            "name": "addOwnerOfContract",
            "outputs": [],
            "stateMutability": "nonpayable",
            "type": "function"
        },
        {
            "inputs": [
                {
                    "internalType": "string",
                    "name": "baseURI_",
                    "type": "string"
                }
            ],
            "name": "setBaseURI",
            "outputs": [],
            "stateMutability": "nonpayable",
            "type": "function"
        },
        {
            "inputs": [],
            "name": "testContractOwner",
            "outputs": [
                {
                    "internalType": "string",
                    "name": "",
                    "type": "string"
                }
            ],
            "stateMutability": "view",
            "type": "function",
            "constant": true
        },
        {
            "inputs": [],
            "name": "GetBaseURI",
            "outputs": [
                {
                    "internalType": "string",
                    "name": "",
                    "type": "string"
                }
            ],
            "stateMutability": "view",
            "type": "function",
            "constant": true
        },
        {
            "inputs": [
                {
                    "internalType": "uint256",
                    "name": "tokenId",
                    "type": "uint256"
                }
            ],
            "name": "tokenURI",
            "outputs": [
                {
                    "internalType": "string",
                    "name": "",
                    "type": "string"
                }
            ],
            "stateMutability": "view",
            "type": "function",
            "constant": true
        },
        {
            "inputs": [
                {
                    "internalType": "uint256",
                    "name": "tokenId",
                    "type": "uint256"
                }
            ],
            "name": "tokenCreator",
            "outputs": [
                {
                    "internalType": "address",
                    "name": "",
                    "type": "address"
                }
            ],
            "stateMutability": "view",
            "type": "function",
            "constant": true
        },
        {
            "inputs": [
                {
                    "internalType": "address",
                    "name": "to",
                    "type": "address"
                },
                {
                    "internalType": "string",
                    "name": "tokenURI_",
                    "type": "string"
                },
                {
                    "internalType": "uint256",
                    "name": "tokenId",
                    "type": "uint256"
                }
            ],
            "name": "mint",
            "outputs": [],
            "stateMutability": "nonpayable",
            "type": "function"
        },
        {
            "inputs": [],
            "name": "totalOfMintedTokens",
            "outputs": [
                {
                    "internalType": "string",
                    "name": "",
                    "type": "string"
                }
            ],
            "stateMutability": "view",
            "type": "function",
            "constant": true
        },
        {
            "inputs": [
                {
                    "internalType": "uint256",
                    "name": "_userId",
                    "type": "uint256"
                },
                {
                    "internalType": "uint256",
                    "name": "tokenId",
                    "type": "uint256"
                }
            ],
            "name": "transferNft",
            "outputs": [],
            "stateMutability": "payable",
            "type": "function",
            "payable": true
        },
        {
            "inputs": [],
            "name": "pause",
            "outputs": [],
            "stateMutability": "nonpayable",
            "type": "function"
        },
        {
            "inputs": [],
            "name": "unpause",
            "outputs": [],
            "stateMutability": "nonpayable",
            "type": "function"
        },
        {
            "inputs": [
                {
                    "internalType": "bytes4",
                    "name": "interfaceId",
                    "type": "bytes4"
                }
            ],
            "name": "supportsInterface",
            "outputs": [
                {
                    "internalType": "bool",
                    "name": "",
                    "type": "bool"
                }
            ],
            "stateMutability": "view",
            "type": "function",
            "constant": true
        },
        {
            "inputs": [
                {
                    "internalType": "string",
                    "name": "_userName",
                    "type": "string"
                }
            ],
            "name": "createUser",
            "outputs": [],
            "stateMutability": "nonpayable",
            "type": "function"
        },
        {
            "inputs": [
                {
                    "internalType": "string",
                    "name": "_userName",
                    "type": "string"
                }
            ],
            "name": "createUserWithMinterRole",
            "outputs": [],
            "stateMutability": "nonpayable",
            "type": "function"
        },
        {
            "inputs": [
                {
                    "internalType": "uint256",
                    "name": "receiverUserId",
                    "type": "uint256"
                }
            ],
            "name": "sendAmount",
            "outputs": [],
            "stateMutability": "payable",
            "type": "function",
            "payable": true
        },
        {
            "inputs": [
                {
                    "internalType": "address",
                    "name": "_user",
                    "type": "address"
                },
                {
                    "internalType": "uint256",
                    "name": "amount",
                    "type": "uint256"
                }
            ],
            "name": "sendAmountUsingAddress",
            "outputs": [],
            "stateMutability": "payable",
            "type": "function",
            "payable": true
        }
    ],
    "bytecode": "0x60e06040526025608081815290620037e060a03980516200002991600e91602090910190620003a3565b5060408051808201909152600d8082526c135554d250d096535253951151609a1b60209092019182526200006091600f91620003a3565b5060006013553480156200007357600080fd5b50600e8054620000839062000449565b80601f0160208091040260200160405190810160405280929190818152602001828054620000b19062000449565b8015620001025780601f10620000d65761010080835404028352916020019162000102565b820191906000526020600020905b815481529060010190602001808311620000e457829003601f168201915b5050505050600f8054620001169062000449565b80601f0160208091040260200160405190810160405280929190818152602001828054620001449062000449565b8015620001955780601f10620001695761010080835404028352916020019162000195565b820191906000526020600020905b8154815290600101906020018083116200017757829003601f168201915b50508451620001af935060029250602086019150620003a3565b508051620001c5906003906020840190620003a3565b5050600c805460ff1916905550620001e06000335b6200023e565b6200020c7f9f2df0fed2c77648de5860a4cc508cd0818c85b8b8a1ab4ceeef8d981c8956a633620001da565b620002387f65d7a28e3265b37a6474929f336521b332c1681b933f6cb9f3376673440d862a33620001da565b62000486565b6200025582826200028160201b620018cf1760201c565b60008281526001602090815260409091206200027c918390620018d962000291821b17901c565b505050565b6200028d8282620002b1565b5050565b6000620002a8836001600160a01b03841662000351565b90505b92915050565b6000828152602081815260408083206001600160a01b038516845290915290205460ff166200028d576000828152602081815260408083206001600160a01b03851684529091529020805460ff191660011790556200030d3390565b6001600160a01b0316816001600160a01b0316837f2f8788117e7eff1d82e926ec794901d17c78024a50270940304540a733656f0d60405160405180910390a45050565b60008181526001830160205260408120546200039a57508154600181810184556000848152602080822090930184905584548482528286019093526040902091909155620002ab565b506000620002ab565b828054620003b19062000449565b90600052602060002090601f016020900481019282620003d5576000855562000420565b82601f10620003f057805160ff191683800117855562000420565b8280016001018555821562000420579182015b828111156200042057825182559160200191906001019062000403565b506200042e92915062000432565b5090565b5b808211156200042e576000815560010162000433565b600181811c908216806200045e57607f821691505b602082108114156200048057634e487b7160e01b600052602260045260246000fd5b50919050565b61334a80620004966000396000f3fe6080604052600436106102675760003560e01c80635c975abb11610144578063ba7aef43116100b6578063d547741f1161007a578063d547741f14610733578063e63ab1e914610753578063e7ec78e314610787578063e985e9c51461079c578063f10eb93c146107e5578063fd72b6e9146107f857610267565b8063ba7aef431461067f578063c51334ac1461069f578063c87b56dd146106bf578063ca15c873146106df578063d5391393146106ff57610267565b806391d148541161010857806391d14854146105d557806395d89b41146105f557806398c2e34f1461060a578063a217fddf1461062a578063a22cb4651461063f578063b88d4fde1461065f57610267565b80635c975abb146105485780636352211e1461056057806370a08231146105805780638456cb59146105a05780639010d07c146105b557610267565b80632f2ff15d116101dd57806340c1a064116101a157806340c1a0641461048857806342842e0e146104a857806342966c68146104c85780634f6ccce7146104e8578063507ffba51461050857806355f804b31461052857610267565b80632f2ff15d146103e35780632f745c591461040357806336568abe14610423578063365b98b2146104435780633f4ba83a1461047357610267565b8063095ea7b31161022f578063095ea7b31461033457806315419edf1461035657806318160ddd1461036957806323b872dd1461037e578063248a9ca31461039e57806329b79a67146103ce57610267565b806301ffc9a71461026c57806306fdde03146102a157806307973ccf146102c3578063081812fc146102e757806308b83ae41461031f575b600080fd5b34801561027857600080fd5b5061028c610287366004612f33565b61080b565b60405190151581526020015b60405180910390f35b3480156102ad57600080fd5b506102b661081e565b6040516102989190613036565b3480156102cf57600080fd5b506102d960135481565b604051908152602001610298565b3480156102f357600080fd5b50610307610302366004612ed8565b6108b0565b6040516001600160a01b039091168152602001610298565b34801561032b57600080fd5b506102b661093d565b34801561034057600080fd5b5061035461034f366004612eaf565b61099e565b005b610354610364366004612f12565b610ab4565b34801561037557600080fd5b50600a546102d9565b34801561038a57600080fd5b50610354610399366004612d6c565b610ae4565b3480156103aa57600080fd5b506102d96103b9366004612ed8565b60009081526020819052604090206001015490565b3480156103da57600080fd5b506102b6610b16565b3480156103ef57600080fd5b506103546103fe366004612ef0565b610b25565b34801561040f57600080fd5b506102d961041e366004612eaf565b610b47565b34801561042f57600080fd5b5061035461043e366004612ef0565b610be0565b34801561044f57600080fd5b5061046361045e366004612ed8565b610c02565b60405161029894939291906131ae565b34801561047f57600080fd5b50610354610cbd565b34801561049457600080fd5b506103076104a3366004612ed8565b610d65565b3480156104b457600080fd5b506103546104c3366004612d6c565b610da8565b3480156104d457600080fd5b506103546104e3366004612ed8565b610dc3565b3480156104f457600080fd5b506102d9610503366004612ed8565b610e3d565b34801561051457600080fd5b50610354610523366004612f6b565b610ede565b34801561053457600080fd5b50610354610543366004612f6b565b610fe0565b34801561055457600080fd5b50600c5460ff1661028c565b34801561056c57600080fd5b5061030761057b366004612ed8565b61101a565b34801561058c57600080fd5b506102d961059b366004612d20565b611091565b3480156105ac57600080fd5b50610354611118565b3480156105c157600080fd5b506103076105d0366004612f12565b6111bc565b3480156105e157600080fd5b5061028c6105f0366004612ef0565b6111db565b34801561060157600080fd5b506102b6611204565b34801561061657600080fd5b50610354610625366004612d20565b611213565b34801561063657600080fd5b506102d9600081565b34801561064b57600080fd5b5061035461065a366004612e20565b611245565b34801561066b57600080fd5b5061035461067a366004612da7565b611317565b34801561068b57600080fd5b5061035461069a366004612e5a565b61134f565b3480156106ab57600080fd5b506103546106ba366004612f6b565b61144c565b3480156106cb57600080fd5b506102b66106da366004612ed8565b6114a2565b3480156106eb57600080fd5b506102d96106fa366004612ed8565b6115e5565b34801561070b57600080fd5b506102d97f9f2df0fed2c77648de5860a4cc508cd0818c85b8b8a1ab4ceeef8d981c8956a681565b34801561073f57600080fd5b5061035461074e366004612ef0565b6115fc565b34801561075f57600080fd5b506102d97f65d7a28e3265b37a6474929f336521b332c1681b933f6cb9f3376673440d862a81565b34801561079357600080fd5b506102b6611606565b3480156107a857600080fd5b5061028c6107b7366004612d3a565b6001600160a01b03918216600090815260076020908152604080832093909416825291909152205460ff1690565b6103546107f3366004612eaf565b611624565b610354610806366004612ed8565b61165c565b6000610816826118ee565b90505b919050565b60606002805461082d90613252565b80601f016020809104026020016040519081016040528092919081815260200182805461085990613252565b80156108a65780601f1061087b576101008083540402835291602001916108a6565b820191906000526020600020905b81548152906001019060200180831161088957829003601f168201915b5050505050905090565b60006108bb82611913565b6109215760405162461bcd60e51b815260206004820152602c60248201527f4552433732313a20617070726f76656420717565727920666f72206e6f6e657860448201526b34b9ba32b73a103a37b5b2b760a11b60648201526084015b60405180910390fd5b506000908152600660205260409020546001600160a01b031690565b606061094a6000336105f0565b6109665760405162461bcd60e51b81526004016109189061309b565b5060408051808201909152601781527f596f752061726520636f6e7472616374206f776e657221000000000000000000602082015290565b60006109a98261101a565b9050806001600160a01b0316836001600160a01b03161415610a175760405162461bcd60e51b815260206004820152602160248201527f4552433732313a20617070726f76616c20746f2063757272656e74206f776e656044820152603960f91b6064820152608401610918565b336001600160a01b0382161480610a335750610a3381336107b7565b610aa55760405162461bcd60e51b815260206004820152603860248201527f4552433732313a20617070726f76652063616c6c6572206973206e6f74206f7760448201527f6e6572206e6f7220617070726f76656420666f7220616c6c00000000000000006064820152608401610918565b610aaf8383611930565b505050565b600081815260116020526040902054610ad6906001600160a01b031634611624565b610ae0828261199e565b5050565b610aef335b82611ad2565b610b0b5760405162461bcd60e51b8152600401610918906130d2565b610aaf838383611bbc565b60606012805461082d90613252565b610b2f8282611d67565b6000828152600160205260409020610aaf90826118d9565b6000610b5283611091565b8210610bb45760405162461bcd60e51b815260206004820152602b60248201527f455243373231456e756d657261626c653a206f776e657220696e646578206f7560448201526a74206f6620626f756e647360a81b6064820152608401610918565b506001600160a01b03821660009081526008602090815260408083208484529091529020545b92915050565b610bea8282611de8565b6000828152600160205260409020610aaf9082611e62565b60146020526000908152604090208054600182018054919291610c2490613252565b80601f0160208091040260200160405190810160405280929190818152602001828054610c5090613252565b8015610c9d5780601f10610c7257610100808354040283529160200191610c9d565b820191906000526020600020905b815481529060010190602001808311610c8057829003601f168201915b50505050600283015460039093015491926001600160a01b031691905084565b610ce77f65d7a28e3265b37a6474929f336521b332c1681b933f6cb9f3376673440d862a336105f0565b610d5b576040805162461bcd60e51b81526020600482015260248101919091527f4552433732315072657365744d696e7465725061757365724175746f49643a2060448201527f6d75737420686176652070617573657220726f6c6520746f20756e70617573656064820152608401610918565b610d63611e77565b565b6000610d7082611913565b610d8c5760405162461bcd60e51b815260040161091890613123565b506000908152601160205260409020546001600160a01b031690565b610aaf83838360405180602001604052806000815250611317565b610dcc33610ae9565b610e315760405162461bcd60e51b815260206004820152603060248201527f4552433732314275726e61626c653a2063616c6c6572206973206e6f74206f7760448201526f1b995c881b9bdc88185c1c1c9bdd995960821b6064820152608401610918565b610e3a81611f0a565b50565b6000610e48600a5490565b8210610eab5760405162461bcd60e51b815260206004820152602c60248201527f455243373231456e756d657261626c653a20676c6f62616c20696e646578206f60448201526b7574206f6620626f756e647360a01b6064820152608401610918565b600a8281548110610ecc57634e487b7160e01b600052603260045260246000fd5b90600052602060002001549050919050565b60008151118015610eee57503315155b610f0a5760405162461bcd60e51b81526004016109189061316a565b601360008154610f199061328d565b9091555060408051608081018252601354808252602080830185815233848601819052316060850152600092835260148252939091208251815592518051929392610f6a9260018501920190612bdb565b506040828101516002830180546001600160a01b0319166001600160a01b0390921691909117905560609092015160039091015560135490517fb2c7233f4e09c1b426ea094c6a1ffb80181b3ff0b5d8389bf93c97d1005a235291610fd591849033908131906131ae565b60405180910390a150565b610feb6000336105f0565b6110075760405162461bcd60e51b81526004016109189061309b565b8051610ae0906012906020840190612bdb565b6000818152600460205260408120546001600160a01b0316806108165760405162461bcd60e51b815260206004820152602960248201527f4552433732313a206f776e657220717565727920666f72206e6f6e657869737460448201526832b73a103a37b5b2b760b91b6064820152608401610918565b60006001600160a01b0382166110fc5760405162461bcd60e51b815260206004820152602a60248201527f4552433732313a2062616c616e636520717565727920666f7220746865207a65604482015269726f206164647265737360b01b6064820152608401610918565b506001600160a01b031660009081526005602052604090205490565b6111427f65d7a28e3265b37a6474929f336521b332c1681b933f6cb9f3376673440d862a336105f0565b6111b45760405162461bcd60e51b815260206004820152603e60248201527f4552433732315072657365744d696e7465725061757365724175746f49643a2060448201527f6d75737420686176652070617573657220726f6c6520746f20706175736500006064820152608401610918565b610d63611fb1565b60008281526001602052604081206111d4908361202c565b9392505050565b6000918252602082815260408084206001600160a01b0393909316845291905290205460ff1690565b60606003805461082d90613252565b61121e6000336105f0565b61123a5760405162461bcd60e51b81526004016109189061309b565b610e3a600082612038565b6001600160a01b03821633141561129e5760405162461bcd60e51b815260206004820152601960248201527f4552433732313a20617070726f766520746f2063616c6c6572000000000000006044820152606401610918565b3360008181526007602090815260408083206001600160a01b0387168085529252909120805460ff1916841515179055906001600160a01b03167f17307eab39ab6107e8899845ad3d59bd9653f200f220920489ca2b5937696c318360405161130b911515815260200190565b60405180910390a35050565b6113213383611ad2565b61133d5760405162461bcd60e51b8152600401610918906130d2565b61134984848484612042565b50505050565b6113797f9f2df0fed2c77648de5860a4cc508cd0818c85b8b8a1ab4ceeef8d981c8956a6336105f0565b6113d35760405162461bcd60e51b815260206004820152602560248201527f4d61737465723a206d7573742068617665206d696e74657220726f6c6520746f604482015264081b5a5b9d60da1b6064820152608401610918565b6113dc81611913565b156114295760405162461bcd60e51b815260206004820181905260248201527f4d61737465723a20546f6b656e496420616c7265616479206578697374656e746044820152606401610918565b611437600d80546001019055565b6114418382612075565b610aaf81838561208f565b6000815111801561145c57503315155b6114785760405162461bcd60e51b81526004016109189061316a565b610f0a7f9f2df0fed2c77648de5860a4cc508cd0818c85b8b8a1ab4ceeef8d981c8956a633612038565b60606114ad82611913565b6114c95760405162461bcd60e51b815260040161091890613123565b600082815260106020526040812080546114e290613252565b80601f016020809104026020016040519081016040528092919081815260200182805461150e90613252565b801561155b5780601f106115305761010080835404028352916020019161155b565b820191906000526020600020905b81548152906001019060200180831161153e57829003601f168201915b50505050509050600061156c610b16565b905080516000141561158057509050610819565b8151156115b257808260405160200161159a929190612fca565b60405160208183030381529060405292505050610819565b806115bc85612140565b6040516020016115cd929190612fca565b60405160208183030381529060405292505050919050565b60008181526001602052604081206108169061225b565b610bea8282612265565b60606000611613600d5490565b905061161e81612140565b91505090565b60405182906001600160a01b0382169083156108fc029084906000818181858888f19350505050158015611349573d6000803e3d6000fd5b600081116116a55760405162461bcd60e51b81526020600482015260166024820152752a3432903ab9b2b91034b9903737ba103b30b634b21760511b6044820152606401610918565b600034116116f55760405162461bcd60e51b815260206004820152601d60248201527f416d6f756e74206d757374206e6f7420626520657175616c20746f20300000006044820152606401610918565b6000601460008381526020019081526020016000206040518060800160405290816000820154815260200160018201805461172f90613252565b80601f016020809104026020016040519081016040528092919081815260200182805461175b90613252565b80156117a85780601f1061177d576101008083540402835291602001916117a8565b820191906000526020600020905b81548152906001019060200180831161178b57829003601f168201915b505050918352505060028201546001600160a01b03908116602083015260039092015460409182015282810151905192935091908216903480156108fc02916000818181858888f19350505050158015611806573d6000803e3d6000fd5b50348260600181815161181991906131e3565b905250600083815260146020908152604090912083518155818401518051859361184a926001850192910190612bdb565b5060408201518160020160006101000a8154816001600160a01b0302191690836001600160a01b03160217905550606082015181600301559050507fcae6c067139fa171212448471375428e3376f9057fed1aeae8b7b44696f8f38d8383602001518385606001516040516118c294939291906131ae565b60405180910390a1505050565b610ae082826122e5565b60006111d4836001600160a01b038416612369565b60006001600160e01b0319821663780e9d6360e01b14806108165750610816826123b8565b6000908152600460205260409020546001600160a01b0316151590565b600081815260066020526040902080546001600160a01b0319166001600160a01b03841690811790915581906119658261101a565b6001600160a01b03167f8c5be1e5ebec7d5bd14f71427d1e84f3dd0314c0f7b2291e5b200ac8c7c3b92560405160405180910390a45050565b600082116119e75760405162461bcd60e51b81526020600482015260166024820152752a3432903ab9b2b91034b9903737ba103b30b634b21760511b6044820152606401610918565b60006014600084815260200190815260200160002060405180608001604052908160008201548152602001600182018054611a2190613252565b80601f0160208091040260200160405190810160405280929190818152602001828054611a4d90613252565b8015611a9a5780601f10611a6f57610100808354040283529160200191611a9a565b820191906000526020600020905b815481529060010190602001808311611a7d57829003601f168201915b505050918352505060028201546001600160a01b03166020820152600390910154604091820152810151909150611349338285610da8565b6000611add82611913565b611b3e5760405162461bcd60e51b815260206004820152602c60248201527f4552433732313a206f70657261746f7220717565727920666f72206e6f6e657860448201526b34b9ba32b73a103a37b5b2b760a11b6064820152608401610918565b6000611b498361101a565b9050806001600160a01b0316846001600160a01b03161480611b845750836001600160a01b0316611b79846108b0565b6001600160a01b0316145b80611bb457506001600160a01b0380821660009081526007602090815260408083209388168352929052205460ff165b949350505050565b826001600160a01b0316611bcf8261101a565b6001600160a01b031614611c375760405162461bcd60e51b815260206004820152602960248201527f4552433732313a207472616e73666572206f6620746f6b656e2074686174206960448201526839903737ba1037bbb760b91b6064820152608401610918565b6001600160a01b038216611c995760405162461bcd60e51b8152602060048201526024808201527f4552433732313a207472616e7366657220746f20746865207a65726f206164646044820152637265737360e01b6064820152608401610918565b611ca48383836123f8565b611caf600082611930565b6001600160a01b0383166000908152600560205260408120805460019290611cd890849061320f565b90915550506001600160a01b0382166000908152600560205260408120805460019290611d069084906131e3565b909155505060008181526004602052604080822080546001600160a01b0319166001600160a01b0386811691821790925591518493918716917fddf252ad1be2c89b69c2b068fc378daa952ba7f163c4a11628f55a4df523b3ef91a4505050565b600082815260208190526040902060010154611d84905b336105f0565b6118cf5760405162461bcd60e51b815260206004820152602f60248201527f416363657373436f6e74726f6c3a2073656e646572206d75737420626520616e60448201526e0818591b5a5b881d1bc819dc985b9d608a1b6064820152608401610918565b6001600160a01b0381163314611e585760405162461bcd60e51b815260206004820152602f60248201527f416363657373436f6e74726f6c3a2063616e206f6e6c792072656e6f756e636560448201526e103937b632b9903337b91039b2b63360891b6064820152608401610918565b610ae08282612403565b60006111d4836001600160a01b038416612468565b600c5460ff16611ec05760405162461bcd60e51b815260206004820152601460248201527314185d5cd8589b194e881b9bdd081c185d5cd95960621b6044820152606401610918565b600c805460ff191690557f5db9ee0a495bf2e6ff9c91a7834c1ba4fdd244a5e8aa4e537bd38aeae4b073aa335b6040516001600160a01b03909116815260200160405180910390a1565b6000611f158261101a565b9050611f23816000846123f8565b611f2e600083611930565b6001600160a01b0381166000908152600560205260408120805460019290611f5790849061320f565b909155505060008281526004602052604080822080546001600160a01b0319169055518391906001600160a01b038416907fddf252ad1be2c89b69c2b068fc378daa952ba7f163c4a11628f55a4df523b3ef908390a45050565b600c5460ff1615611ff75760405162461bcd60e51b815260206004820152601060248201526f14185d5cd8589b194e881c185d5cd95960821b6044820152606401610918565b600c805460ff191660011790557f62e78cea01bee320cd4e420270b5ea74000d11b0c9f74754ebdbfc544b05a258611eed3390565b60006111d48383612585565b610b2f82826118cf565b61204d848484611bbc565b61205984848484612619565b6113495760405162461bcd60e51b815260040161091890613049565b610ae0828260405180602001604052806000815250612726565b61209883611913565b6120f05760405162461bcd60e51b8152602060048201526024808201527f4d61737465723a2055524920736574206f66206e6f6e6578697374656e74207460448201526337b5b2b760e11b6064820152608401610918565b6000838152601060209081526040909120835161210f92850190612bdb565b5060009283526011602052604090922080546001600160a01b0319166001600160a01b039093169290921790915550565b60608161216557506040805180820190915260018152600360fc1b6020820152610819565b8160005b811561218f57806121798161328d565b91506121889050600a836131fb565b9150612169565b60008167ffffffffffffffff8111156121b857634e487b7160e01b600052604160045260246000fd5b6040519080825280601f01601f1916602001820160405280156121e2576020820181803683370190505b5090505b8415611bb4576121f760018361320f565b9150612204600a866132a8565b61220f9060306131e3565b60f81b81838151811061223257634e487b7160e01b600052603260045260246000fd5b60200101906001600160f81b031916908160001a905350612254600a866131fb565b94506121e6565b6000610816825490565b60008281526020819052604090206001015461228090611d7e565b611e585760405162461bcd60e51b815260206004820152603060248201527f416363657373436f6e74726f6c3a2073656e646572206d75737420626520616e60448201526f2061646d696e20746f207265766f6b6560801b6064820152608401610918565b6122ef82826111db565b610ae0576000828152602081815260408083206001600160a01b03851684529091529020805460ff191660011790556123253390565b6001600160a01b0316816001600160a01b0316837f2f8788117e7eff1d82e926ec794901d17c78024a50270940304540a733656f0d60405160405180910390a45050565b60008181526001830160205260408120546123b057508154600181810184556000848152602080822090930184905584548482528286019093526040902091909155610bda565b506000610bda565b60006001600160e01b031982166380ac58cd60e01b14806123e957506001600160e01b03198216635b5e139f60e01b145b80610816575061081682612759565b610aaf83838361277e565b61240d82826111db565b15610ae0576000828152602081815260408083206001600160a01b0385168085529252808320805460ff1916905551339285917ff6391f5c32d9c69d2a47ea670b442974b53935d1edc7fd64eb21e047a839171b9190a45050565b6000818152600183016020526040812054801561257b57600061248c60018361320f565b85549091506000906124a09060019061320f565b905060008660000182815481106124c757634e487b7160e01b600052603260045260246000fd5b90600052602060002001549050808760000184815481106124f857634e487b7160e01b600052603260045260246000fd5b60009182526020909120015561250f8360016131e3565b6000828152600189016020526040902055865487908061253f57634e487b7160e01b600052603160045260246000fd5b60019003818190600052602060002001600090559055866001016000878152602001908152602001600020600090556001945050505050610bda565b6000915050610bda565b815460009082106125e35760405162461bcd60e51b815260206004820152602260248201527f456e756d657261626c655365743a20696e646578206f7574206f6620626f756e604482015261647360f01b6064820152608401610918565b82600001828154811061260657634e487b7160e01b600052603260045260246000fd5b9060005260206000200154905092915050565b60006001600160a01b0384163b1561271b57604051630a85bd0160e11b81526001600160a01b0385169063150b7a029061265d903390899088908890600401612ff9565b602060405180830381600087803b15801561267757600080fd5b505af19250505080156126a7575060408051601f3d908101601f191682019092526126a491810190612f4f565b60015b612701573d8080156126d5576040519150601f19603f3d011682016040523d82523d6000602084013e6126da565b606091505b5080516126f95760405162461bcd60e51b815260040161091890613049565b805181602001fd5b6001600160e01b031916630a85bd0160e11b149050611bb4565b506001949350505050565b61273083836127f0565b61273d6000848484612619565b610aaf5760405162461bcd60e51b815260040161091890613049565b60006001600160e01b03198216635a05180f60e01b148061081657506108168261292f565b612789838383612964565b600c5460ff1615610aaf5760405162461bcd60e51b815260206004820152602b60248201527f4552433732315061757361626c653a20746f6b656e207472616e73666572207760448201526a1a1a5b19481c185d5cd95960aa1b6064820152608401610918565b6001600160a01b0382166128465760405162461bcd60e51b815260206004820181905260248201527f4552433732313a206d696e7420746f20746865207a65726f20616464726573736044820152606401610918565b61284f81611913565b1561289c5760405162461bcd60e51b815260206004820152601c60248201527f4552433732313a20746f6b656e20616c7265616479206d696e746564000000006044820152606401610918565b6128a8600083836123f8565b6001600160a01b03821660009081526005602052604081208054600192906128d19084906131e3565b909155505060008181526004602052604080822080546001600160a01b0319166001600160a01b03861690811790915590518392907fddf252ad1be2c89b69c2b068fc378daa952ba7f163c4a11628f55a4df523b3ef908290a45050565b60006001600160e01b03198216637965db0b60e01b148061081657506301ffc9a760e01b6001600160e01b0319831614610816565b6001600160a01b0383166129bf576129ba81600a80546000838152600b60205260408120829055600182018355919091527fc65a7bb8d6351c1cf70c95a316cc6a92839c986682d98bc35f958f4883f9d2a80155565b6129e2565b816001600160a01b0316836001600160a01b0316146129e2576129e28382612a21565b6001600160a01b0382166129fe576129f981612abe565b610aaf565b826001600160a01b0316826001600160a01b031614610aaf57610aaf8282612b97565b60006001612a2e84611091565b612a38919061320f565b600083815260096020526040902054909150808214612a8b576001600160a01b03841660009081526008602090815260408083208584528252808320548484528184208190558352600990915290208190555b5060009182526009602090815260408084208490556001600160a01b039094168352600881528383209183525290812055565b600a54600090612ad09060019061320f565b6000838152600b6020526040812054600a8054939450909284908110612b0657634e487b7160e01b600052603260045260246000fd5b9060005260206000200154905080600a8381548110612b3557634e487b7160e01b600052603260045260246000fd5b6000918252602080832090910192909255828152600b9091526040808220849055858252812055600a805480612b7b57634e487b7160e01b600052603160045260246000fd5b6001900381819060005260206000200160009055905550505050565b6000612ba283611091565b6001600160a01b039093166000908152600860209081526040808320868452825280832085905593825260099052919091209190915550565b828054612be790613252565b90600052602060002090601f016020900481019282612c095760008555612c4f565b82601f10612c2257805160ff1916838001178555612c4f565b82800160010185558215612c4f579182015b82811115612c4f578251825591602001919060010190612c34565b50612c5b929150612c5f565b5090565b5b80821115612c5b5760008155600101612c60565b600067ffffffffffffffff80841115612c8f57612c8f6132e8565b604051601f8501601f19908116603f01168101908282118183101715612cb757612cb76132e8565b81604052809350858152868686011115612cd057600080fd5b858560208301376000602087830101525050509392505050565b80356001600160a01b038116811461081957600080fd5b600082601f830112612d11578081fd5b6111d483833560208501612c74565b600060208284031215612d31578081fd5b6111d482612cea565b60008060408385031215612d4c578081fd5b612d5583612cea565b9150612d6360208401612cea565b90509250929050565b600080600060608486031215612d80578081fd5b612d8984612cea565b9250612d9760208501612cea565b9150604084013590509250925092565b60008060008060808587031215612dbc578081fd5b612dc585612cea565b9350612dd360208601612cea565b925060408501359150606085013567ffffffffffffffff811115612df5578182fd5b8501601f81018713612e05578182fd5b612e1487823560208401612c74565b91505092959194509250565b60008060408385031215612e32578182fd5b612e3b83612cea565b915060208301358015158114612e4f578182fd5b809150509250929050565b600080600060608486031215612e6e578283fd5b612e7784612cea565b9250602084013567ffffffffffffffff811115612e92578283fd5b612e9e86828701612d01565b925050604084013590509250925092565b60008060408385031215612ec1578182fd5b612eca83612cea565b946020939093013593505050565b600060208284031215612ee9578081fd5b5035919050565b60008060408385031215612f02578182fd5b82359150612d6360208401612cea565b60008060408385031215612f24578182fd5b50508035926020909101359150565b600060208284031215612f44578081fd5b81356111d4816132fe565b600060208284031215612f60578081fd5b81516111d4816132fe565b600060208284031215612f7c578081fd5b813567ffffffffffffffff811115612f92578182fd5b611bb484828501612d01565b60008151808452612fb6816020860160208601613226565b601f01601f19169290920160200192915050565b60008351612fdc818460208801613226565b835190830190612ff0818360208801613226565b01949350505050565b6001600160a01b038581168252841660208201526040810183905260806060820181905260009061302c90830184612f9e565b9695505050505050565b6000602082526111d46020830184612f9e565b60208082526032908201527f4552433732313a207472616e7366657220746f206e6f6e20455243373231526560408201527131b2b4bb32b91034b6b83632b6b2b73a32b960711b606082015260800190565b6020808252601d908201527f4d61737465723a206d75737420686176652061646d696e20726f6c6521000000604082015260600190565b60208082526031908201527f4552433732313a207472616e736665722063616c6c6572206973206e6f74206f6040820152701ddb995c881b9bdc88185c1c1c9bdd9959607a1b606082015260800190565b60208082526027908201527f4d61737465723a2055524920717565727920666f72206e6f6e6578697374656e6040820152663a103a37b5b2b760c91b606082015260800190565b60208082526024908201527f557365726e616d6520262041646472657373206d757374206e6f74206265206e6040820152633ab6361760e11b606082015260800190565b6000858252608060208301526131c76080830186612f9e565b6001600160a01b03949094166040830152506060015292915050565b600082198211156131f6576131f66132bc565b500190565b60008261320a5761320a6132d2565b500490565b600082821015613221576132216132bc565b500390565b60005b83811015613241578181015183820152602001613229565b838111156113495750506000910152565b600181811c9082168061326657607f821691505b6020821081141561328757634e487b7160e01b600052602260045260246000fd5b50919050565b60006000198214156132a1576132a16132bc565b5060010190565b6000826132b7576132b76132d2565b500690565b634e487b7160e01b600052601160045260246000fd5b634e487b7160e01b600052601260045260246000fd5b634e487b7160e01b600052604160045260246000fd5b6001600160e01b031981168114610e3a57600080fdfea26469706673582212202cc9f0731f83eaff143f96644f190f82429422a68888626b0fc19432018a89e264736f6c634300080300334d494e5445443a204f70656e2045646974696f6e7320536f6e6720436f6c6c656374696f6e",
    "immutableReferences": {},
    "source": "// SPDX-License-Identifier: Non-Licensed\r\npragma solidity ^0.8.0;\r\n\r\nimport \"../node_modules/@openzeppelin/contracts/token/ERC721/ERC721.sol\";\r\nimport \"../node_modules/@openzeppelin/contracts/token/ERC721/extensions/ERC721Enumerable.sol\";\r\nimport \"../node_modules/@openzeppelin/contracts/token/ERC721/extensions/ERC721Burnable.sol\";\r\nimport \"../node_modules/@openzeppelin/contracts/token/ERC721/extensions/ERC721Pausable.sol\";\r\nimport \"../node_modules/@openzeppelin/contracts/access/AccessControlEnumerable.sol\";\r\nimport \"../node_modules/@openzeppelin/contracts/utils/Context.sol\";\r\nimport \"../node_modules/@openzeppelin/contracts/utils/Counters.sol\";\r\n\r\n\r\ncontract Master is Context, AccessControlEnumerable, ERC721Enumerable, ERC721Burnable, ERC721Pausable {\r\n    using Counters for Counters.Counter;\r\n    using Strings for uint256;\r\n\r\n    Counters.Counter private _tokenIdTracker;\r\n\r\n    bytes32 public constant MINTER_ROLE = keccak256(\"MINTER_ROLE\");\r\n    bytes32 public constant PAUSER_ROLE = keccak256(\"PAUSER_ROLE\");\r\n\r\n    string private _tmpName =\"MINTED: Open Editions Song Collection\";\r\n    string private _tmpSymbol =\"MUSICBYMINTED\";\r\n\r\n    // Optional mapping for token URIs\r\n    mapping (uint256 => string) private _tokenURIs;\r\n    mapping (uint256 => address) private _tokenCreators;\r\n\r\n    // Base URI\r\n    string private _baseURIextended;\r\n\r\n\r\n    constructor() ERC721(_tmpName, _tmpSymbol) {\r\n        _setupRole(DEFAULT_ADMIN_ROLE, _msgSender());\r\n\r\n        _setupRole(MINTER_ROLE, _msgSender());\r\n        _setupRole(PAUSER_ROLE, _msgSender());\r\n    }\r\n\r\n    function addOwnerOfContract(address newOwner) public{\r\n        require(hasRole(DEFAULT_ADMIN_ROLE, _msgSender()), \"Master: must have admin role!\");\r\n        _setupRole(DEFAULT_ADMIN_ROLE, newOwner);\r\n    }\r\n\r\n    function setBaseURI(string memory baseURI_) public {\r\n        require(hasRole(DEFAULT_ADMIN_ROLE, _msgSender()), \"Master: must have admin role!\");\r\n        _baseURIextended = baseURI_;\r\n    }\r\n\r\n    function testContractOwner() public view returns (string memory){\r\n        require(hasRole(DEFAULT_ADMIN_ROLE, _msgSender()), \"Master: must have admin role!\");\r\n        return \"You are contract owner!\";\r\n    }\r\n\r\n    function _baseURI() internal view virtual override returns (string memory) {\r\n        return _baseURIextended;\r\n    }\r\n\r\n    function GetBaseURI() public view returns (string memory) {\r\n        return _baseURIextended;\r\n    }\r\n\r\n    function _setTokenURI(uint256 tokenId, string memory _tokenURI, address creator) internal virtual {\r\n        require(_exists(tokenId), \"Master: URI set of nonexistent token\");\r\n        _tokenURIs[tokenId] = _tokenURI;\r\n        _tokenCreators[tokenId] = creator;\r\n    }\r\n\r\n    function tokenURI(uint256 tokenId) public view virtual override returns (string memory) {\r\n        require(_exists(tokenId), \"Master: URI query for nonexistent token\");\r\n\r\n        string memory _tokenURI = _tokenURIs[tokenId];\r\n        string memory base = _baseURI();\r\n        \r\n        // If there is no base URI, return the token URI.\r\n        if (bytes(base).length == 0) {\r\n            return _tokenURI;\r\n        }\r\n        // If both are set, concatenate the baseURI and tokenURI (via abi.encodePacked).\r\n        if (bytes(_tokenURI).length > 0) {\r\n            return string(abi.encodePacked(base, _tokenURI));\r\n        }\r\n        // If there is a baseURI but no tokenURI, concatenate the tokenID to the baseURI.\r\n        return string(abi.encodePacked(base, tokenId.toString()));\r\n    }\r\n\r\n    //ToDo:\r\n    //_IPFSHashHasBeenSet(uint256) param: tokenID return bool \r\n    //_niftyIPFSHashes(uint256) param: tokenID return string\r\n    // baseURI= https://api.niftygateway.com/eminemopens/; tokenId=26200010675 ; metadata: https://api.niftygateway.com/eminemopens/26200010675/\r\n    // contractId return uint256 (give it a number)\r\n    // name() returns string contract name <- IMPLEMENTED\r\n    // nameOfCreator() returns string (name of Artist who created)\r\n    // masterRegistryContract() return address <- should give us back the parent contract that is using from us\r\n    // tokenIPFSHash(uint256) returns string <- it returned the hash of the video\r\n\r\n\r\n\r\n    function tokenCreator(uint256 tokenId) public view returns(address) {\r\n        require(_exists(tokenId), \"Master: URI query for nonexistent token\");\r\n\r\n        return _tokenCreators[tokenId];\r\n    }\r\n\r\n    function mint(address to, string memory tokenURI_, uint256 tokenId) public virtual {\r\n        require(hasRole(MINTER_ROLE, _msgSender()), \"Master: must have minter role to mint\");\r\n        require(!_exists(tokenId), \"Master: TokenId already existent\");\r\n\r\n\r\n        // We cannot just use balanceOf to create the new tokenId because tokens\r\n        // can be burned (destroyed), so we need a separate counter.\r\n        _tokenIdTracker.increment();\r\n        // uint256 newItemId = _tokenIdTracker.current();\r\n\r\n        _safeMint(to, tokenId);\r\n        _setTokenURI(tokenId, tokenURI_, to);\r\n    }\r\n\r\n    function totalOfMintedTokens() public view returns(string memory) {\r\n        // return uint256 is you wish to return a BigNumber\r\n        uint256 numberOfMintedTokens = _tokenIdTracker.current();\r\n        return numberOfMintedTokens.toString();\r\n    }\r\n\r\n    function transferNft(uint256 _userId, uint256 tokenId) public payable {\r\n        \r\n        // Whith this even if nft is outside of us owned it will pay the author\r\n        //todo: decide the value to be transferred\r\n        sendAmountUsingAddress(_tokenCreators[tokenId], msg.value);\r\n\r\n        transferNftByUserId(_userId,tokenId);\r\n    }\r\n\r\n    function transferNftByUserId(uint256 receiverUserId, uint256 tokenId) private {\r\n        require(receiverUserId > 0, 'The user is not valid.');\r\n        \r\n        User memory _user = users[receiverUserId];\r\n        address _receiverAddress = _user.userAddress;\r\n        \r\n        safeTransferFrom(msg.sender, _receiverAddress, tokenId);\r\n    }\r\n\r\n    function pause() public virtual {\r\n        require(hasRole(PAUSER_ROLE, _msgSender()), \"ERC721PresetMinterPauserAutoId: must have pauser role to pause\");\r\n        _pause();\r\n    }\r\n\r\n    function unpause() public virtual {\r\n        require(hasRole(PAUSER_ROLE, _msgSender()), \"ERC721PresetMinterPauserAutoId: must have pauser role to unpause\");\r\n        _unpause();\r\n    }\r\n\r\n    function _beforeTokenTransfer(address from, address to, uint256 tokenId) internal virtual override(ERC721, ERC721Enumerable, ERC721Pausable) {\r\n        super._beforeTokenTransfer(from, to, tokenId);\r\n    }\r\n\r\n    function supportsInterface(bytes4 interfaceId) public view virtual override(AccessControlEnumerable, ERC721, ERC721Enumerable) returns (bool) {\r\n        return super.supportsInterface(interfaceId);\r\n    }\r\n\r\n    uint256 public userCount = 0;\r\n\r\n    struct User {\r\n        uint256 id;\r\n        string userName;\r\n        address payable userAddress;\r\n        uint256 amount;\r\n    }\r\n\r\n    mapping(uint256 => User) public users;\r\n\r\n    // Events\r\n    event amountTransferred(\r\n        uint256 id,\r\n        string userName,\r\n        address payable userAddress,\r\n        uint256 amount\r\n    );\r\n\r\n    event UserCreated(\r\n        uint256 id,\r\n        string userName,\r\n        address payable userAddress,\r\n        uint256 amount\r\n    );\r\n\r\n    // create user\r\n    function createUser(string memory _userName) public {\r\n        require(bytes(_userName).length > 0 && msg.sender != address(0x0), 'Username & Address must not be null.');\r\n\r\n        ++userCount;\r\n\r\n        users[userCount] = User(userCount, _userName, payable(msg.sender), msg.sender.balance);\r\n\r\n        emit UserCreated(userCount, _userName, payable(msg.sender), msg.sender.balance);\r\n    }\r\n\r\n    function createUserWithMinterRole(string memory _userName) public {\r\n        require(bytes(_userName).length > 0 && msg.sender != address(0x0), 'Username & Address must not be null.');\r\n        _setupRole(MINTER_ROLE, _msgSender());\r\n        \r\n        ++userCount;\r\n\r\n        users[userCount] = User(userCount, _userName, payable(msg.sender), msg.sender.balance);\r\n\r\n        emit UserCreated(userCount, _userName, payable(msg.sender), msg.sender.balance);\r\n    }\r\n\r\n    // send amount\r\n    function sendAmount(uint256 receiverUserId) public payable {\r\n        require(receiverUserId > 0, 'The user is not valid.');\r\n        require(msg.value > 0, 'Amount must not be equal to 0');\r\n        \r\n        User memory _user = users[receiverUserId];\r\n        \r\n        address payable _receiverAddress = _user.userAddress;\r\n        \r\n        _receiverAddress.transfer(msg.value);\r\n\r\n        _user.amount += msg.value;\r\n\r\n        users[receiverUserId] = _user;\r\n\r\n        emit amountTransferred(receiverUserId, _user.userName, _receiverAddress, _user.amount);\r\n    }\r\n\r\n    //todo: https://consensys.net/diligence/blog/2019/09/stop-using-soliditys-transfer-now/\r\n    function sendAmountUsingAddress(address _user, uint256 amount) public payable {\r\n        address payable user = payable(_user);\r\n        user.transfer(amount);\r\n        //todo: update values!!!\r\n    }\r\n}",
    "sourcePath": "C:/allex/nft/openZeppelin/V3a/contracts/Master.sol",
    "compiler": {
        "name": "solc",
        "version": "0.8.3+commit.8d00100c.Emscripten.clang"
    },
    "schemaVersion": "3.3.4",
    "updatedAt": "2021-04-30T14:04:02.740Z",
    "networkType": "ethereum",
    "devdoc": {
        "kind": "dev",
        "methods": {
            "approve(address,uint256)": {
                "details": "See {IERC721-approve}."
            },
            "balanceOf(address)": {
                "details": "See {IERC721-balanceOf}."
            },
            "burn(uint256)": {
                "details": "Burns `tokenId`. See {ERC721-_burn}. Requirements: - The caller must own `tokenId` or be an approved operator."
            },
            "getApproved(uint256)": {
                "details": "See {IERC721-getApproved}."
            },
            "getRoleAdmin(bytes32)": {
                "details": "Returns the admin role that controls `role`. See {grantRole} and {revokeRole}. To change a role's admin, use {_setRoleAdmin}."
            },
            "getRoleMember(bytes32,uint256)": {
                "details": "Returns one of the accounts that have `role`. `index` must be a value between 0 and {getRoleMemberCount}, non-inclusive. Role bearers are not sorted in any particular way, and their ordering may change at any point. WARNING: When using {getRoleMember} and {getRoleMemberCount}, make sure you perform all queries on the same block. See the following https://forum.openzeppelin.com/t/iterating-over-elements-on-enumerableset-in-openzeppelin-contracts/2296[forum post] for more information."
            },
            "getRoleMemberCount(bytes32)": {
                "details": "Returns the number of accounts that have `role`. Can be used together with {getRoleMember} to enumerate all bearers of a role."
            },
            "grantRole(bytes32,address)": {
                "details": "Overload {grantRole} to track enumerable memberships"
            },
            "hasRole(bytes32,address)": {
                "details": "Returns `true` if `account` has been granted `role`."
            },
            "isApprovedForAll(address,address)": {
                "details": "See {IERC721-isApprovedForAll}."
            },
            "name()": {
                "details": "See {IERC721Metadata-name}."
            },
            "ownerOf(uint256)": {
                "details": "See {IERC721-ownerOf}."
            },
            "paused()": {
                "details": "Returns true if the contract is paused, and false otherwise."
            },
            "renounceRole(bytes32,address)": {
                "details": "Overload {renounceRole} to track enumerable memberships"
            },
            "revokeRole(bytes32,address)": {
                "details": "Overload {revokeRole} to track enumerable memberships"
            },
            "safeTransferFrom(address,address,uint256)": {
                "details": "See {IERC721-safeTransferFrom}."
            },
            "safeTransferFrom(address,address,uint256,bytes)": {
                "details": "See {IERC721-safeTransferFrom}."
            },
            "setApprovalForAll(address,bool)": {
                "details": "See {IERC721-setApprovalForAll}."
            },
            "symbol()": {
                "details": "See {IERC721Metadata-symbol}."
            },
            "tokenByIndex(uint256)": {
                "details": "See {IERC721Enumerable-tokenByIndex}."
            },
            "tokenOfOwnerByIndex(address,uint256)": {
                "details": "See {IERC721Enumerable-tokenOfOwnerByIndex}."
            },
            "tokenURI(uint256)": {
                "details": "See {IERC721Metadata-tokenURI}."
            },
            "totalSupply()": {
                "details": "See {IERC721Enumerable-totalSupply}."
            },
            "transferFrom(address,address,uint256)": {
                "details": "See {IERC721-transferFrom}."
            }
        },
        "version": 1
    },
    "userdoc": {
        "kind": "user",
        "methods": {},
        "version": 1
    }
}