{
  "contractName": "Master",
  "abi": [
    {
      "inputs": [],
      "stateMutability": "nonpayable",
      "type": "constructor"
    },
    {
      "anonymous": false,
      "inputs": [
        {
          "indexed": true,
          "internalType": "address",
          "name": "owner",
          "type": "address"
        },
        {
          "indexed": true,
          "internalType": "address",
          "name": "approved",
          "type": "address"
        },
        {
          "indexed": true,
          "internalType": "uint256",
          "name": "tokenId",
          "type": "uint256"
        }
      ],
      "name": "Approval",
      "type": "event"
    },
    {
      "anonymous": false,
      "inputs": [
        {
          "indexed": true,
          "internalType": "address",
          "name": "owner",
          "type": "address"
        },
        {
          "indexed": true,
          "internalType": "address",
          "name": "operator",
          "type": "address"
        },
        {
          "indexed": false,
          "internalType": "bool",
          "name": "approved",
          "type": "bool"
        }
      ],
      "name": "ApprovalForAll",
      "type": "event"
    },
    {
      "anonymous": false,
      "inputs": [
        {
          "indexed": false,
          "internalType": "address",
          "name": "account",
          "type": "address"
        }
      ],
      "name": "Paused",
      "type": "event"
    },
    {
      "anonymous": false,
      "inputs": [
        {
          "indexed": true,
          "internalType": "bytes32",
          "name": "role",
          "type": "bytes32"
        },
        {
          "indexed": true,
          "internalType": "bytes32",
          "name": "previousAdminRole",
          "type": "bytes32"
        },
        {
          "indexed": true,
          "internalType": "bytes32",
          "name": "newAdminRole",
          "type": "bytes32"
        }
      ],
      "name": "RoleAdminChanged",
      "type": "event"
    },
    {
      "anonymous": false,
      "inputs": [
        {
          "indexed": true,
          "internalType": "bytes32",
          "name": "role",
          "type": "bytes32"
        },
        {
          "indexed": true,
          "internalType": "address",
          "name": "account",
          "type": "address"
        },
        {
          "indexed": true,
          "internalType": "address",
          "name": "sender",
          "type": "address"
        }
      ],
      "name": "RoleGranted",
      "type": "event"
    },
    {
      "anonymous": false,
      "inputs": [
        {
          "indexed": true,
          "internalType": "bytes32",
          "name": "role",
          "type": "bytes32"
        },
        {
          "indexed": true,
          "internalType": "address",
          "name": "account",
          "type": "address"
        },
        {
          "indexed": true,
          "internalType": "address",
          "name": "sender",
          "type": "address"
        }
      ],
      "name": "RoleRevoked",
      "type": "event"
    },
    {
      "anonymous": false,
      "inputs": [
        {
          "indexed": true,
          "internalType": "address",
          "name": "from",
          "type": "address"
        },
        {
          "indexed": true,
          "internalType": "address",
          "name": "to",
          "type": "address"
        },
        {
          "indexed": true,
          "internalType": "uint256",
          "name": "tokenId",
          "type": "uint256"
        }
      ],
      "name": "Transfer",
      "type": "event"
    },
    {
      "anonymous": false,
      "inputs": [
        {
          "indexed": false,
          "internalType": "address",
          "name": "account",
          "type": "address"
        }
      ],
      "name": "Unpaused",
      "type": "event"
    },
    {
      "anonymous": false,
      "inputs": [
        {
          "indexed": false,
          "internalType": "address",
          "name": "firstOwner",
          "type": "address"
        },
        {
          "indexed": false,
          "internalType": "uint256",
          "name": "tokenId",
          "type": "uint256"
        }
      ],
      "name": "tokenMinted",
      "type": "event"
    },
    {
      "inputs": [],
      "name": "DEFAULT_ADMIN_ROLE",
      "outputs": [
        {
          "internalType": "bytes32",
          "name": "",
          "type": "bytes32"
        }
      ],
      "stateMutability": "view",
      "type": "function",
      "constant": true
    },
    {
      "inputs": [],
      "name": "MINTER_ROLE",
      "outputs": [
        {
          "internalType": "bytes32",
          "name": "",
          "type": "bytes32"
        }
      ],
      "stateMutability": "view",
      "type": "function",
      "constant": true
    },
    {
      "inputs": [],
      "name": "PAUSER_ROLE",
      "outputs": [
        {
          "internalType": "bytes32",
          "name": "",
          "type": "bytes32"
        }
      ],
      "stateMutability": "view",
      "type": "function",
      "constant": true
    },
    {
      "inputs": [
        {
          "internalType": "address",
          "name": "to",
          "type": "address"
        },
        {
          "internalType": "uint256",
          "name": "tokenId",
          "type": "uint256"
        }
      ],
      "name": "approve",
      "outputs": [],
      "stateMutability": "nonpayable",
      "type": "function"
    },
    {
      "inputs": [
        {
          "internalType": "address",
          "name": "owner",
          "type": "address"
        }
      ],
      "name": "balanceOf",
      "outputs": [
        {
          "internalType": "uint256",
          "name": "",
          "type": "uint256"
        }
      ],
      "stateMutability": "view",
      "type": "function",
      "constant": true
    },
    {
      "inputs": [
        {
          "internalType": "uint256",
          "name": "tokenId",
          "type": "uint256"
        }
      ],
      "name": "burn",
      "outputs": [],
      "stateMutability": "nonpayable",
      "type": "function"
    },
    {
      "inputs": [
        {
          "internalType": "uint256",
          "name": "tokenId",
          "type": "uint256"
        }
      ],
      "name": "getApproved",
      "outputs": [
        {
          "internalType": "address",
          "name": "",
          "type": "address"
        }
      ],
      "stateMutability": "view",
      "type": "function",
      "constant": true
    },
    {
      "inputs": [
        {
          "internalType": "bytes32",
          "name": "role",
          "type": "bytes32"
        }
      ],
      "name": "getRoleAdmin",
      "outputs": [
        {
          "internalType": "bytes32",
          "name": "",
          "type": "bytes32"
        }
      ],
      "stateMutability": "view",
      "type": "function",
      "constant": true
    },
    {
      "inputs": [
        {
          "internalType": "bytes32",
          "name": "role",
          "type": "bytes32"
        },
        {
          "internalType": "uint256",
          "name": "index",
          "type": "uint256"
        }
      ],
      "name": "getRoleMember",
      "outputs": [
        {
          "internalType": "address",
          "name": "",
          "type": "address"
        }
      ],
      "stateMutability": "view",
      "type": "function",
      "constant": true
    },
    {
      "inputs": [
        {
          "internalType": "bytes32",
          "name": "role",
          "type": "bytes32"
        }
      ],
      "name": "getRoleMemberCount",
      "outputs": [
        {
          "internalType": "uint256",
          "name": "",
          "type": "uint256"
        }
      ],
      "stateMutability": "view",
      "type": "function",
      "constant": true
    },
    {
      "inputs": [
        {
          "internalType": "bytes32",
          "name": "role",
          "type": "bytes32"
        },
        {
          "internalType": "address",
          "name": "account",
          "type": "address"
        }
      ],
      "name": "grantRole",
      "outputs": [],
      "stateMutability": "nonpayable",
      "type": "function"
    },
    {
      "inputs": [
        {
          "internalType": "bytes32",
          "name": "role",
          "type": "bytes32"
        },
        {
          "internalType": "address",
          "name": "account",
          "type": "address"
        }
      ],
      "name": "hasRole",
      "outputs": [
        {
          "internalType": "bool",
          "name": "",
          "type": "bool"
        }
      ],
      "stateMutability": "view",
      "type": "function",
      "constant": true
    },
    {
      "inputs": [
        {
          "internalType": "address",
          "name": "owner",
          "type": "address"
        },
        {
          "internalType": "address",
          "name": "operator",
          "type": "address"
        }
      ],
      "name": "isApprovedForAll",
      "outputs": [
        {
          "internalType": "bool",
          "name": "",
          "type": "bool"
        }
      ],
      "stateMutability": "view",
      "type": "function",
      "constant": true
    },
    {
      "inputs": [],
      "name": "name",
      "outputs": [
        {
          "internalType": "string",
          "name": "",
          "type": "string"
        }
      ],
      "stateMutability": "view",
      "type": "function",
      "constant": true
    },
    {
      "inputs": [
        {
          "internalType": "uint256",
          "name": "tokenId",
          "type": "uint256"
        }
      ],
      "name": "ownerOf",
      "outputs": [
        {
          "internalType": "address",
          "name": "",
          "type": "address"
        }
      ],
      "stateMutability": "view",
      "type": "function",
      "constant": true
    },
    {
      "inputs": [],
      "name": "paused",
      "outputs": [
        {
          "internalType": "bool",
          "name": "",
          "type": "bool"
        }
      ],
      "stateMutability": "view",
      "type": "function",
      "constant": true
    },
    {
      "inputs": [
        {
          "internalType": "bytes32",
          "name": "role",
          "type": "bytes32"
        },
        {
          "internalType": "address",
          "name": "account",
          "type": "address"
        }
      ],
      "name": "renounceRole",
      "outputs": [],
      "stateMutability": "nonpayable",
      "type": "function"
    },
    {
      "inputs": [
        {
          "internalType": "bytes32",
          "name": "role",
          "type": "bytes32"
        },
        {
          "internalType": "address",
          "name": "account",
          "type": "address"
        }
      ],
      "name": "revokeRole",
      "outputs": [],
      "stateMutability": "nonpayable",
      "type": "function"
    },
    {
      "inputs": [
        {
          "internalType": "address",
          "name": "from",
          "type": "address"
        },
        {
          "internalType": "address",
          "name": "to",
          "type": "address"
        },
        {
          "internalType": "uint256",
          "name": "tokenId",
          "type": "uint256"
        }
      ],
      "name": "safeTransferFrom",
      "outputs": [],
      "stateMutability": "nonpayable",
      "type": "function"
    },
    {
      "inputs": [
        {
          "internalType": "address",
          "name": "from",
          "type": "address"
        },
        {
          "internalType": "address",
          "name": "to",
          "type": "address"
        },
        {
          "internalType": "uint256",
          "name": "tokenId",
          "type": "uint256"
        },
        {
          "internalType": "bytes",
          "name": "_data",
          "type": "bytes"
        }
      ],
      "name": "safeTransferFrom",
      "outputs": [],
      "stateMutability": "nonpayable",
      "type": "function"
    },
    {
      "inputs": [
        {
          "internalType": "address",
          "name": "operator",
          "type": "address"
        },
        {
          "internalType": "bool",
          "name": "approved",
          "type": "bool"
        }
      ],
      "name": "setApprovalForAll",
      "outputs": [],
      "stateMutability": "nonpayable",
      "type": "function"
    },
    {
      "inputs": [],
      "name": "symbol",
      "outputs": [
        {
          "internalType": "string",
          "name": "",
          "type": "string"
        }
      ],
      "stateMutability": "view",
      "type": "function",
      "constant": true
    },
    {
      "inputs": [
        {
          "internalType": "uint256",
          "name": "index",
          "type": "uint256"
        }
      ],
      "name": "tokenByIndex",
      "outputs": [
        {
          "internalType": "uint256",
          "name": "",
          "type": "uint256"
        }
      ],
      "stateMutability": "view",
      "type": "function",
      "constant": true
    },
    {
      "inputs": [
        {
          "internalType": "address",
          "name": "owner",
          "type": "address"
        },
        {
          "internalType": "uint256",
          "name": "index",
          "type": "uint256"
        }
      ],
      "name": "tokenOfOwnerByIndex",
      "outputs": [
        {
          "internalType": "uint256",
          "name": "",
          "type": "uint256"
        }
      ],
      "stateMutability": "view",
      "type": "function",
      "constant": true
    },
    {
      "inputs": [],
      "name": "totalSupply",
      "outputs": [
        {
          "internalType": "uint256",
          "name": "",
          "type": "uint256"
        }
      ],
      "stateMutability": "view",
      "type": "function",
      "constant": true
    },
    {
      "inputs": [
        {
          "internalType": "address",
          "name": "from",
          "type": "address"
        },
        {
          "internalType": "address",
          "name": "to",
          "type": "address"
        },
        {
          "internalType": "uint256",
          "name": "tokenId",
          "type": "uint256"
        }
      ],
      "name": "transferFrom",
      "outputs": [],
      "stateMutability": "nonpayable",
      "type": "function"
    },
    {
      "inputs": [
        {
          "internalType": "address",
          "name": "newOwner",
          "type": "address"
        }
      ],
      "name": "addOwnerOfContract",
      "outputs": [],
      "stateMutability": "nonpayable",
      "type": "function"
    },
    {
      "inputs": [
        {
          "internalType": "uint256",
          "name": "tokenId",
          "type": "uint256"
        }
      ],
      "name": "tokenURI",
      "outputs": [
        {
          "internalType": "string",
          "name": "",
          "type": "string"
        }
      ],
      "stateMutability": "view",
      "type": "function",
      "constant": true
    },
    {
      "inputs": [
        {
          "internalType": "uint256",
          "name": "tokenId",
          "type": "uint256"
        }
      ],
      "name": "getFirstOwnerOfToken",
      "outputs": [
        {
          "internalType": "address",
          "name": "",
          "type": "address"
        }
      ],
      "stateMutability": "view",
      "type": "function",
      "constant": true
    },
    {
      "inputs": [
        {
          "internalType": "address",
          "name": "to",
          "type": "address"
        },
        {
          "internalType": "string",
          "name": "tokenURI_",
          "type": "string"
        },
        {
          "internalType": "uint256",
          "name": "tokenId",
          "type": "uint256"
        }
      ],
      "name": "mint",
      "outputs": [],
      "stateMutability": "nonpayable",
      "type": "function"
    },
    {
      "inputs": [],
      "name": "totalOfMintedTokens",
      "outputs": [
        {
          "internalType": "string",
          "name": "",
          "type": "string"
        }
      ],
      "stateMutability": "view",
      "type": "function",
      "constant": true
    },
    {
      "inputs": [],
      "name": "pause",
      "outputs": [],
      "stateMutability": "nonpayable",
      "type": "function"
    },
    {
      "inputs": [],
      "name": "unpause",
      "outputs": [],
      "stateMutability": "nonpayable",
      "type": "function"
    },
    {
      "inputs": [
        {
          "internalType": "bytes4",
          "name": "interfaceId",
          "type": "bytes4"
        }
      ],
      "name": "supportsInterface",
      "outputs": [
        {
          "internalType": "bool",
          "name": "",
          "type": "bool"
        }
      ],
      "stateMutability": "view",
      "type": "function",
      "constant": true
    },
    {
      "inputs": [
        {
          "internalType": "address payable",
          "name": "to",
          "type": "address"
        }
      ],
      "name": "transfer",
      "outputs": [],
      "stateMutability": "payable",
      "type": "function",
      "payable": true
    }
  ],
  "bytecode": "0x60e060405260256080818152906200310260a03980516200002991600e916020909101906200039e565b5060408051808201909152600d8082526c135554d250d096535253951151609a1b60209092019182526200006091600f916200039e565b503480156200006e57600080fd5b50600e80546200007e9062000444565b80601f0160208091040260200160405190810160405280929190818152602001828054620000ac9062000444565b8015620000fd5780601f10620000d157610100808354040283529160200191620000fd565b820191906000526020600020905b815481529060010190602001808311620000df57829003601f168201915b5050505050600f8054620001119062000444565b80601f01602080910402602001604051908101604052809291908181526020018280546200013f9062000444565b8015620001905780601f10620001645761010080835404028352916020019162000190565b820191906000526020600020905b8154815290600101906020018083116200017257829003601f168201915b50508451620001aa9350600292506020860191506200039e565b508051620001c09060039060208401906200039e565b5050600c805460ff1916905550620001db6000335b62000239565b620002077f9f2df0fed2c77648de5860a4cc508cd0818c85b8b8a1ab4ceeef8d981c8956a633620001d5565b620002337f65d7a28e3265b37a6474929f336521b332c1681b933f6cb9f3376673440d862a33620001d5565b62000481565b6200025082826200027c60201b620012011760201c565b6000828152600160209081526040909120620002779183906200120f6200028c821b17901c565b505050565b620002888282620002ac565b5050565b6000620002a3836001600160a01b0384166200034c565b90505b92915050565b6000828152602081815260408083206001600160a01b038516845290915290205460ff1662000288576000828152602081815260408083206001600160a01b03851684529091529020805460ff19166001179055620003083390565b6001600160a01b0316816001600160a01b0316837f2f8788117e7eff1d82e926ec794901d17c78024a50270940304540a733656f0d60405160405180910390a45050565b60008181526001830160205260408120546200039557508154600181810184556000848152602080822090930184905584548482528286019093526040902091909155620002a6565b506000620002a6565b828054620003ac9062000444565b90600052602060002090601f016020900481019282620003d057600085556200041b565b82601f10620003eb57805160ff19168380011785556200041b565b828001600101855582156200041b579182015b828111156200041b578251825591602001919060010190620003fe565b50620004299291506200042d565b5090565b5b808211156200042957600081556001016200042e565b600181811c908216806200045957607f821691505b602082108114156200047b57634e487b7160e01b600052602260045260246000fd5b50919050565b612c7180620004916000396000f3fe6080604052600436106102045760003560e01c80636352211e11610118578063b88d4fde116100a0578063d53913931161006f578063d5391393146105c8578063d547741f146105fc578063e63ab1e91461061c578063e7ec78e314610650578063e985e9c51461066557610204565b8063b88d4fde14610548578063ba7aef4314610568578063c87b56dd14610588578063ca15c873146105a857610204565b806391d14854116100e757806391d14854146104be57806395d89b41146104de57806398c2e34f146104f3578063a217fddf14610513578063a22cb4651461052857610204565b80636352211e1461044957806370a08231146104695780638456cb59146104895780639010d07c1461049e57610204565b8063248a9ca31161019b5780633f4ba83a1161016a5780633f4ba83a146103bc57806342842e0e146103d157806342966c68146103f15780634f6ccce7146104115780635c975abb1461043157610204565b8063248a9ca31461032c5780632f2ff15d1461035c5780632f745c591461037c57806336568abe1461039c57610204565b80631413d82f116101d75780631413d82f146102ba57806318160ddd146102da5780631a695230146102f957806323b872dd1461030c57610204565b806301ffc9a71461020957806306fdde031461023e578063081812fc14610260578063095ea7b314610298575b600080fd5b34801561021557600080fd5b506102296102243660046128ac565b6106ae565b60405190151581526020015b60405180910390f35b34801561024a57600080fd5b506102536106c1565b60405161023591906129c2565b34801561026c57600080fd5b5061028061027b36600461284f565b610753565b6040516001600160a01b039091168152602001610235565b3480156102a457600080fd5b506102b86102b3366004612824565b6107e0565b005b3480156102c657600080fd5b506102806102d536600461284f565b6108f6565b3480156102e657600080fd5b50600a545b604051908152602001610235565b6102b8610307366004612678565b610939565b34801561031857600080fd5b506102b86103273660046126cc565b610969565b34801561033857600080fd5b506102eb61034736600461284f565b60009081526020819052604090206001015490565b34801561036857600080fd5b506102b8610377366004612867565b61099b565b34801561038857600080fd5b506102eb610397366004612824565b6109bd565b3480156103a857600080fd5b506102b86103b7366004612867565b610a56565b3480156103c857600080fd5b506102b8610a78565b3480156103dd57600080fd5b506102b86103ec3660046126cc565b610b20565b3480156103fd57600080fd5b506102b861040c36600461284f565b610b3b565b34801561041d57600080fd5b506102eb61042c36600461284f565b610bb2565b34801561043d57600080fd5b50600c5460ff16610229565b34801561045557600080fd5b5061028061046436600461284f565b610c53565b34801561047557600080fd5b506102eb610484366004612678565b610cca565b34801561049557600080fd5b506102b8610d51565b3480156104aa57600080fd5b506102806104b936600461288b565b610df5565b3480156104ca57600080fd5b506102296104d9366004612867565b610e14565b3480156104ea57600080fd5b50610253610e3d565b3480156104ff57600080fd5b506102b861050e366004612678565b610e4c565b34801561051f57600080fd5b506102eb600081565b34801561053457600080fd5b506102b8610543366004612789565b610eae565b34801561055457600080fd5b506102b861056336600461270c565b610f80565b34801561057457600080fd5b506102b86105833660046127ba565b610fb8565b34801561059457600080fd5b506102536105a336600461284f565b6110fc565b3480156105b457600080fd5b506102eb6105c336600461284f565b6111c2565b3480156105d457600080fd5b506102eb7f9f2df0fed2c77648de5860a4cc508cd0818c85b8b8a1ab4ceeef8d981c8956a681565b34801561060857600080fd5b506102b8610617366004612867565b6111d9565b34801561062857600080fd5b506102eb7f65d7a28e3265b37a6474929f336521b332c1681b933f6cb9f3376673440d862a81565b34801561065c57600080fd5b506102536111e3565b34801561067157600080fd5b50610229610680366004612694565b6001600160a01b03918216600090815260076020908152604080832093909416825291909152205460ff1690565b60006106b982611224565b90505b919050565b6060600280546106d090612b64565b80601f01602080910402602001604051908101604052809291908181526020018280546106fc90612b64565b80156107495780601f1061071e57610100808354040283529160200191610749565b820191906000526020600020905b81548152906001019060200180831161072c57829003601f168201915b5050505050905090565b600061075e82611249565b6107c45760405162461bcd60e51b815260206004820152602c60248201527f4552433732313a20617070726f76656420717565727920666f72206e6f6e657860448201526b34b9ba32b73a103a37b5b2b760a11b60648201526084015b60405180910390fd5b506000908152600660205260409020546001600160a01b031690565b60006107eb82610c53565b9050806001600160a01b0316836001600160a01b031614156108595760405162461bcd60e51b815260206004820152602160248201527f4552433732313a20617070726f76616c20746f2063757272656e74206f776e656044820152603960f91b60648201526084016107bb565b336001600160a01b038216148061087557506108758133610680565b6108e75760405162461bcd60e51b815260206004820152603860248201527f4552433732313a20617070726f76652063616c6c6572206973206e6f74206f7760448201527f6e6572206e6f7220617070726f76656420666f7220616c6c000000000000000060648201526084016107bb565b6108f18383611266565b505050565b600061090182611249565b61091d5760405162461bcd60e51b81526004016107bb90612a78565b506000908152601160205260409020546001600160a01b031690565b6040516001600160a01b038216903480156108fc02916000818181858888f1935050505061096657600080fd5b50565b610974335b826112d4565b6109905760405162461bcd60e51b81526004016107bb90612a27565b6108f18383836113be565b6109a58282611569565b60008281526001602052604090206108f1908261120f565b60006109c883610cca565b8210610a2a5760405162461bcd60e51b815260206004820152602b60248201527f455243373231456e756d657261626c653a206f776e657220696e646578206f7560448201526a74206f6620626f756e647360a81b60648201526084016107bb565b506001600160a01b03821660009081526008602090815260408083208484529091529020545b92915050565b610a608282611590565b60008281526001602052604090206108f1908261160a565b610aa27f65d7a28e3265b37a6474929f336521b332c1681b933f6cb9f3376673440d862a336104d9565b610b16576040805162461bcd60e51b81526020600482015260248101919091527f4552433732315072657365744d696e7465725061757365724175746f49643a2060448201527f6d75737420686176652070617573657220726f6c6520746f20756e706175736560648201526084016107bb565b610b1e61161f565b565b6108f183838360405180602001604052806000815250610f80565b610b443361096e565b610ba95760405162461bcd60e51b815260206004820152603060248201527f4552433732314275726e61626c653a2063616c6c6572206973206e6f74206f7760448201526f1b995c881b9bdc88185c1c1c9bdd995960821b60648201526084016107bb565b610966816116b2565b6000610bbd600a5490565b8210610c205760405162461bcd60e51b815260206004820152602c60248201527f455243373231456e756d657261626c653a20676c6f62616c20696e646578206f60448201526b7574206f6620626f756e647360a01b60648201526084016107bb565b600a8281548110610c4157634e487b7160e01b600052603260045260246000fd5b90600052602060002001549050919050565b6000818152600460205260408120546001600160a01b0316806106b95760405162461bcd60e51b815260206004820152602960248201527f4552433732313a206f776e657220717565727920666f72206e6f6e657869737460448201526832b73a103a37b5b2b760b91b60648201526084016107bb565b60006001600160a01b038216610d355760405162461bcd60e51b815260206004820152602a60248201527f4552433732313a2062616c616e636520717565727920666f7220746865207a65604482015269726f206164647265737360b01b60648201526084016107bb565b506001600160a01b031660009081526005602052604090205490565b610d7b7f65d7a28e3265b37a6474929f336521b332c1681b933f6cb9f3376673440d862a336104d9565b610ded5760405162461bcd60e51b815260206004820152603e60248201527f4552433732315072657365744d696e7465725061757365724175746f49643a2060448201527f6d75737420686176652070617573657220726f6c6520746f207061757365000060648201526084016107bb565b610b1e611759565b6000828152600160205260408120610e0d90836117d4565b9392505050565b6000918252602082815260408084206001600160a01b0393909316845291905290205460ff1690565b6060600380546106d090612b64565b610e576000336104d9565b610ea35760405162461bcd60e51b815260206004820152601d60248201527f4d61737465723a206d75737420686176652061646d696e20726f6c652100000060448201526064016107bb565b6109666000826117e0565b6001600160a01b038216331415610f075760405162461bcd60e51b815260206004820152601960248201527f4552433732313a20617070726f766520746f2063616c6c65720000000000000060448201526064016107bb565b3360008181526007602090815260408083206001600160a01b0387168085529252909120805460ff1916841515179055906001600160a01b03167f17307eab39ab6107e8899845ad3d59bd9653f200f220920489ca2b5937696c3183604051610f74911515815260200190565b60405180910390a35050565b610f8a33836112d4565b610fa65760405162461bcd60e51b81526004016107bb90612a27565b610fb2848484846117ea565b50505050565b610fe27f9f2df0fed2c77648de5860a4cc508cd0818c85b8b8a1ab4ceeef8d981c8956a6336104d9565b61103c5760405162461bcd60e51b815260206004820152602560248201527f4d61737465723a206d7573742068617665206d696e74657220726f6c6520746f604482015264081b5a5b9d60da1b60648201526084016107bb565b61104581611249565b156110925760405162461bcd60e51b815260206004820181905260248201527f4d61737465723a20546f6b656e496420616c7265616479206578697374656e7460448201526064016107bb565b6110a0600d80546001019055565b6110aa838261181d565b6110b5818385611837565b604080516001600160a01b0385168152602081018390527f2d8eb9b9558d4b5ef1d238622692f6156d5822009340e26ab15fac05d64c12f0910160405180910390a1505050565b606061110782611249565b6111235760405162461bcd60e51b81526004016107bb90612a78565b6000828152601060205260408120805461113c90612b64565b80601f016020809104026020016040519081016040528092919081815260200182805461116890612b64565b80156111b55780601f1061118a576101008083540402835291602001916111b5565b820191906000526020600020905b81548152906001019060200180831161119857829003601f168201915b5093979650505050505050565b60008181526001602052604081206106b9906118e8565b610a6082826118f2565b606060006111f0600d5490565b90506111fb81611918565b91505090565b61120b8282611a33565b5050565b6000610e0d836001600160a01b038416611ab7565b60006001600160e01b0319821663780e9d6360e01b14806106b957506106b982611b06565b6000908152600460205260409020546001600160a01b0316151590565b600081815260066020526040902080546001600160a01b0319166001600160a01b038416908117909155819061129b82610c53565b6001600160a01b03167f8c5be1e5ebec7d5bd14f71427d1e84f3dd0314c0f7b2291e5b200ac8c7c3b92560405160405180910390a45050565b60006112df82611249565b6113405760405162461bcd60e51b815260206004820152602c60248201527f4552433732313a206f70657261746f7220717565727920666f72206e6f6e657860448201526b34b9ba32b73a103a37b5b2b760a11b60648201526084016107bb565b600061134b83610c53565b9050806001600160a01b0316846001600160a01b031614806113865750836001600160a01b031661137b84610753565b6001600160a01b0316145b806113b657506001600160a01b0380821660009081526007602090815260408083209388168352929052205460ff165b949350505050565b826001600160a01b03166113d182610c53565b6001600160a01b0316146114395760405162461bcd60e51b815260206004820152602960248201527f4552433732313a207472616e73666572206f6620746f6b656e2074686174206960448201526839903737ba1037bbb760b91b60648201526084016107bb565b6001600160a01b03821661149b5760405162461bcd60e51b8152602060048201526024808201527f4552433732313a207472616e7366657220746f20746865207a65726f206164646044820152637265737360e01b60648201526084016107bb565b6114a6838383611b46565b6114b1600082611266565b6001600160a01b03831660009081526005602052604081208054600192906114da908490612b0a565b90915550506001600160a01b0382166000908152600560205260408120805460019290611508908490612abf565b909155505060008181526004602052604080822080546001600160a01b0319166001600160a01b0386811691821790925591518493918716917fddf252ad1be2c89b69c2b068fc378daa952ba7f163c4a11628f55a4df523b3ef91a4505050565b60008281526020819052604090206001015461158681335b611b51565b6108f18383611a33565b6001600160a01b03811633146116005760405162461bcd60e51b815260206004820152602f60248201527f416363657373436f6e74726f6c3a2063616e206f6e6c792072656e6f756e636560448201526e103937b632b9903337b91039b2b63360891b60648201526084016107bb565b61120b8282611bb5565b6000610e0d836001600160a01b038416611c1a565b600c5460ff166116685760405162461bcd60e51b815260206004820152601460248201527314185d5cd8589b194e881b9bdd081c185d5cd95960621b60448201526064016107bb565b600c805460ff191690557f5db9ee0a495bf2e6ff9c91a7834c1ba4fdd244a5e8aa4e537bd38aeae4b073aa335b6040516001600160a01b03909116815260200160405180910390a1565b60006116bd82610c53565b90506116cb81600084611b46565b6116d6600083611266565b6001600160a01b03811660009081526005602052604081208054600192906116ff908490612b0a565b909155505060008281526004602052604080822080546001600160a01b0319169055518391906001600160a01b038416907fddf252ad1be2c89b69c2b068fc378daa952ba7f163c4a11628f55a4df523b3ef908390a45050565b600c5460ff161561179f5760405162461bcd60e51b815260206004820152601060248201526f14185d5cd8589b194e881c185d5cd95960821b60448201526064016107bb565b600c805460ff191660011790557f62e78cea01bee320cd4e420270b5ea74000d11b0c9f74754ebdbfc544b05a2586116953390565b6000610e0d8383611d31565b6109a58282611201565b6117f58484846113be565b61180184848484611dc5565b610fb25760405162461bcd60e51b81526004016107bb906129d5565b61120b828260405180602001604052806000815250611ed2565b61184083611249565b6118985760405162461bcd60e51b8152602060048201526024808201527f4d61737465723a2055524920736574206f66206e6f6e6578697374656e74207460448201526337b5b2b760e11b60648201526084016107bb565b600083815260106020908152604090912083516118b792850190612569565b5060009283526011602052604090922080546001600160a01b0319166001600160a01b039093169290921790915550565b60006106b9825490565b60008281526020819052604090206001015461190e8133611581565b6108f18383611bb5565b60608161193d57506040805180820190915260018152600360fc1b60208201526106bc565b8160005b8115611967578061195181612b9f565b91506119609050600a83612ad7565b9150611941565b60008167ffffffffffffffff81111561199057634e487b7160e01b600052604160045260246000fd5b6040519080825280601f01601f1916602001820160405280156119ba576020820181803683370190505b5090505b84156113b6576119cf600183612b0a565b91506119dc600a86612bba565b6119e7906030612abf565b60f81b818381518110611a0a57634e487b7160e01b600052603260045260246000fd5b60200101906001600160f81b031916908160001a905350611a2c600a86612ad7565b94506119be565b611a3d8282610e14565b61120b576000828152602081815260408083206001600160a01b03851684529091529020805460ff19166001179055611a733390565b6001600160a01b0316816001600160a01b0316837f2f8788117e7eff1d82e926ec794901d17c78024a50270940304540a733656f0d60405160405180910390a45050565b6000818152600183016020526040812054611afe57508154600181810184556000848152602080822090930184905584548482528286019093526040902091909155610a50565b506000610a50565b60006001600160e01b031982166380ac58cd60e01b1480611b3757506001600160e01b03198216635b5e139f60e01b145b806106b957506106b982611f05565b6108f1838383611f2a565b611b5b8282610e14565b61120b57611b73816001600160a01b03166014611f9c565b611b7e836020611f9c565b604051602001611b8f929190612910565b60408051601f198184030181529082905262461bcd60e51b82526107bb916004016129c2565b611bbf8282610e14565b1561120b576000828152602081815260408083206001600160a01b0385168085529252808320805460ff1916905551339285917ff6391f5c32d9c69d2a47ea670b442974b53935d1edc7fd64eb21e047a839171b9190a45050565b60008181526001830160205260408120548015611d27576000611c3e600183612b0a565b8554909150600090611c5290600190612b0a565b90506000866000018281548110611c7957634e487b7160e01b600052603260045260246000fd5b9060005260206000200154905080876000018481548110611caa57634e487b7160e01b600052603260045260246000fd5b600091825260208083209091019290925582815260018901909152604090208490558654879080611ceb57634e487b7160e01b600052603160045260246000fd5b60019003818190600052602060002001600090559055866001016000878152602001908152602001600020600090556001945050505050610a50565b6000915050610a50565b81546000908210611d8f5760405162461bcd60e51b815260206004820152602260248201527f456e756d657261626c655365743a20696e646578206f7574206f6620626f756e604482015261647360f01b60648201526084016107bb565b826000018281548110611db257634e487b7160e01b600052603260045260246000fd5b9060005260206000200154905092915050565b60006001600160a01b0384163b15611ec757604051630a85bd0160e11b81526001600160a01b0385169063150b7a0290611e09903390899088908890600401612985565b602060405180830381600087803b158015611e2357600080fd5b505af1925050508015611e53575060408051601f3d908101601f19168201909252611e50918101906128c8565b60015b611ead573d808015611e81576040519150601f19603f3d011682016040523d82523d6000602084013e611e86565b606091505b508051611ea55760405162461bcd60e51b81526004016107bb906129d5565b805181602001fd5b6001600160e01b031916630a85bd0160e11b1490506113b6565b506001949350505050565b611edc838361217e565b611ee96000848484611dc5565b6108f15760405162461bcd60e51b81526004016107bb906129d5565b60006001600160e01b03198216635a05180f60e01b14806106b957506106b9826122bd565b611f358383836122f2565b600c5460ff16156108f15760405162461bcd60e51b815260206004820152602b60248201527f4552433732315061757361626c653a20746f6b656e207472616e73666572207760448201526a1a1a5b19481c185d5cd95960aa1b60648201526084016107bb565b60606000611fab836002612aeb565b611fb6906002612abf565b67ffffffffffffffff811115611fdc57634e487b7160e01b600052604160045260246000fd5b6040519080825280601f01601f191660200182016040528015612006576020820181803683370190505b509050600360fc1b8160008151811061202f57634e487b7160e01b600052603260045260246000fd5b60200101906001600160f81b031916908160001a905350600f60fb1b8160018151811061206c57634e487b7160e01b600052603260045260246000fd5b60200101906001600160f81b031916908160001a9053506000612090846002612aeb565b61209b906001612abf565b90505b600181111561212f576f181899199a1a9b1b9c1cb0b131b232b360811b85600f16601081106120dd57634e487b7160e01b600052603260045260246000fd5b1a60f81b82828151811061210157634e487b7160e01b600052603260045260246000fd5b60200101906001600160f81b031916908160001a90535060049490941c9361212881612b4d565b905061209e565b508315610e0d5760405162461bcd60e51b815260206004820181905260248201527f537472696e67733a20686578206c656e67746820696e73756666696369656e7460448201526064016107bb565b6001600160a01b0382166121d45760405162461bcd60e51b815260206004820181905260248201527f4552433732313a206d696e7420746f20746865207a65726f206164647265737360448201526064016107bb565b6121dd81611249565b1561222a5760405162461bcd60e51b815260206004820152601c60248201527f4552433732313a20746f6b656e20616c7265616479206d696e7465640000000060448201526064016107bb565b61223660008383611b46565b6001600160a01b038216600090815260056020526040812080546001929061225f908490612abf565b909155505060008181526004602052604080822080546001600160a01b0319166001600160a01b03861690811790915590518392907fddf252ad1be2c89b69c2b068fc378daa952ba7f163c4a11628f55a4df523b3ef908290a45050565b60006001600160e01b03198216637965db0b60e01b14806106b957506301ffc9a760e01b6001600160e01b03198316146106b9565b6001600160a01b03831661234d5761234881600a80546000838152600b60205260408120829055600182018355919091527fc65a7bb8d6351c1cf70c95a316cc6a92839c986682d98bc35f958f4883f9d2a80155565b612370565b816001600160a01b0316836001600160a01b0316146123705761237083826123af565b6001600160a01b03821661238c576123878161244c565b6108f1565b826001600160a01b0316826001600160a01b0316146108f1576108f18282612525565b600060016123bc84610cca565b6123c69190612b0a565b600083815260096020526040902054909150808214612419576001600160a01b03841660009081526008602090815260408083208584528252808320548484528184208190558352600990915290208190555b5060009182526009602090815260408084208490556001600160a01b039094168352600881528383209183525290812055565b600a5460009061245e90600190612b0a565b6000838152600b6020526040812054600a805493945090928490811061249457634e487b7160e01b600052603260045260246000fd5b9060005260206000200154905080600a83815481106124c357634e487b7160e01b600052603260045260246000fd5b6000918252602080832090910192909255828152600b9091526040808220849055858252812055600a80548061250957634e487b7160e01b600052603160045260246000fd5b6001900381819060005260206000200160009055905550505050565b600061253083610cca565b6001600160a01b039093166000908152600860209081526040808320868452825280832085905593825260099052919091209190915550565b82805461257590612b64565b90600052602060002090601f01602090048101928261259757600085556125dd565b82601f106125b057805160ff19168380011785556125dd565b828001600101855582156125dd579182015b828111156125dd5782518255916020019190600101906125c2565b506125e99291506125ed565b5090565b5b808211156125e957600081556001016125ee565b600067ffffffffffffffff8084111561261d5761261d612bfa565b604051601f8501601f19908116603f0116810190828211818310171561264557612645612bfa565b8160405280935085815286868601111561265e57600080fd5b858560208301376000602087830101525050509392505050565b600060208284031215612689578081fd5b8135610e0d81612c10565b600080604083850312156126a6578081fd5b82356126b181612c10565b915060208301356126c181612c10565b809150509250929050565b6000806000606084860312156126e0578081fd5b83356126eb81612c10565b925060208401356126fb81612c10565b929592945050506040919091013590565b60008060008060808587031215612721578081fd5b843561272c81612c10565b9350602085013561273c81612c10565b925060408501359150606085013567ffffffffffffffff81111561275e578182fd5b8501601f8101871361276e578182fd5b61277d87823560208401612602565b91505092959194509250565b6000806040838503121561279b578182fd5b82356127a681612c10565b9150602083013580151581146126c1578182fd5b6000806000606084860312156127ce578283fd5b83356127d981612c10565b9250602084013567ffffffffffffffff8111156127f4578283fd5b8401601f81018613612804578283fd5b61281386823560208401612602565b925050604084013590509250925092565b60008060408385031215612836578182fd5b823561284181612c10565b946020939093013593505050565b600060208284031215612860578081fd5b5035919050565b60008060408385031215612879578182fd5b8235915060208301356126c181612c10565b6000806040838503121561289d578182fd5b50508035926020909101359150565b6000602082840312156128bd578081fd5b8135610e0d81612c25565b6000602082840312156128d9578081fd5b8151610e0d81612c25565b600081518084526128fc816020860160208601612b21565b601f01601f19169290920160200192915050565b60007f416363657373436f6e74726f6c3a206163636f756e742000000000000000000082528351612948816017850160208801612b21565b7001034b99036b4b9b9b4b733903937b6329607d1b6017918401918201528351612979816028840160208801612b21565b01602801949350505050565b6001600160a01b03858116825284166020820152604081018390526080606082018190526000906129b8908301846128e4565b9695505050505050565b600060208252610e0d60208301846128e4565b60208082526032908201527f4552433732313a207472616e7366657220746f206e6f6e20455243373231526560408201527131b2b4bb32b91034b6b83632b6b2b73a32b960711b606082015260800190565b60208082526031908201527f4552433732313a207472616e736665722063616c6c6572206973206e6f74206f6040820152701ddb995c881b9bdc88185c1c1c9bdd9959607a1b606082015260800190565b60208082526027908201527f4d61737465723a2055524920717565727920666f72206e6f6e6578697374656e6040820152663a103a37b5b2b760c91b606082015260800190565b60008219821115612ad257612ad2612bce565b500190565b600082612ae657612ae6612be4565b500490565b6000816000190483118215151615612b0557612b05612bce565b500290565b600082821015612b1c57612b1c612bce565b500390565b60005b83811015612b3c578181015183820152602001612b24565b83811115610fb25750506000910152565b600081612b5c57612b5c612bce565b506000190190565b600181811c90821680612b7857607f821691505b60208210811415612b9957634e487b7160e01b600052602260045260246000fd5b50919050565b6000600019821415612bb357612bb3612bce565b5060010190565b600082612bc957612bc9612be4565b500690565b634e487b7160e01b600052601160045260246000fd5b634e487b7160e01b600052601260045260246000fd5b634e487b7160e01b600052604160045260246000fd5b6001600160a01b038116811461096657600080fd5b6001600160e01b03198116811461096657600080fdfea2646970667358221220677b3f670a5d8079b84541c8538a56b663f48d83462e1c372ea1a2027f8cc96e64736f6c634300080300334d494e5445443a204f70656e2045646974696f6e7320536f6e6720436f6c6c656374696f6e",
  "immutableReferences": {},
  "source": "// SPDX-License-Identifier: Non-Licensed\r\npragma solidity ^0.8.0;\r\n\r\nimport \"../node_modules/@openzeppelin/contracts/token/ERC721/ERC721.sol\";\r\nimport \"../node_modules/@openzeppelin/contracts/token/ERC721/extensions/ERC721Enumerable.sol\";\r\nimport \"../node_modules/@openzeppelin/contracts/token/ERC721/extensions/ERC721Burnable.sol\";\r\nimport \"../node_modules/@openzeppelin/contracts/token/ERC721/extensions/ERC721Pausable.sol\";\r\nimport \"../node_modules/@openzeppelin/contracts/access/AccessControlEnumerable.sol\";\r\nimport \"../node_modules/@openzeppelin/contracts/utils/Context.sol\";\r\nimport \"../node_modules/@openzeppelin/contracts/utils/Counters.sol\";\r\n\r\n\r\ncontract Master is Context, AccessControlEnumerable, ERC721Enumerable, ERC721Burnable, ERC721Pausable {\r\n    using Counters for Counters.Counter;\r\n    using Strings for uint256;\r\n\r\n    Counters.Counter private _tokenIdTracker;\r\n\r\n    bytes32 public constant MINTER_ROLE = keccak256(\"MINTER_ROLE\");\r\n    bytes32 public constant PAUSER_ROLE = keccak256(\"PAUSER_ROLE\");\r\n\r\n    string private _tmpName =\"MINTED: Open Editions Song Collection\";\r\n    string private _tmpSymbol =\"MUSICBYMINTED\";\r\n\r\n    // Optional mapping for token URIs\r\n    mapping (uint256 => string) private _tokenURIs;\r\n    mapping (uint256 => address) private _initialOwners;\r\n\r\n\r\n    constructor() ERC721(_tmpName, _tmpSymbol) {\r\n        _setupRole(DEFAULT_ADMIN_ROLE, _msgSender());\r\n\r\n        _setupRole(MINTER_ROLE, _msgSender());\r\n        _setupRole(PAUSER_ROLE, _msgSender());\r\n    }\r\n\r\n    function addOwnerOfContract(address newOwner) public{\r\n        require(hasRole(DEFAULT_ADMIN_ROLE, _msgSender()), \"Master: must have admin role!\");\r\n        _setupRole(DEFAULT_ADMIN_ROLE, newOwner);\r\n    }\r\n\r\n    function _setTokenURI(uint256 tokenId, string memory _tokenURI, address firstOwner) internal virtual {\r\n        require(_exists(tokenId), \"Master: URI set of nonexistent token\");\r\n        _tokenURIs[tokenId] = _tokenURI;\r\n        _initialOwners[tokenId] = firstOwner;\r\n    }\r\n\r\n    function tokenURI(uint256 tokenId) public view virtual override returns (string memory) {\r\n        require(_exists(tokenId), \"Master: URI query for nonexistent token\");\r\n\r\n        string memory _tokenURI = _tokenURIs[tokenId];\r\n        return _tokenURI;\r\n    }\r\n\r\n    //ToDo:\r\n    //_IPFSHashHasBeenSet(uint256) param: tokenID return bool \r\n    //_niftyIPFSHashes(uint256) param: tokenID return string\r\n    // baseURI= https://api.niftygateway.com/eminemopens/; tokenId=26200010675 ; metadata: https://api.niftygateway.com/eminemopens/26200010675/\r\n    // contractId return uint256 (give it a number)\r\n    // name() returns string contract name <- IMPLEMENTED\r\n    // nameOfCreator() returns string (name of Artist who created)\r\n    // masterRegistryContract() return address <- should give us back the parent contract that is using from us\r\n    // tokenIPFSHash(uint256) returns string <- it returned the hash of the video\r\n\r\n    function getFirstOwnerOfToken(uint256 tokenId) public view returns(address) {\r\n        require(_exists(tokenId), \"Master: URI query for nonexistent token\");\r\n\r\n        return _initialOwners[tokenId];\r\n    }\r\n\r\n    function mint(address to, string memory tokenURI_, uint256 tokenId) public virtual {\r\n        require(hasRole(MINTER_ROLE, _msgSender()), \"Master: must have minter role to mint\");\r\n        require(!_exists(tokenId), \"Master: TokenId already existent\");\r\n\r\n        _tokenIdTracker.increment();\r\n\r\n        _safeMint(to, tokenId);\r\n        _setTokenURI(tokenId, tokenURI_, to);\r\n\r\n        emit tokenMinted(to,tokenId);\r\n    }\r\n\r\n    function totalOfMintedTokens() public view returns(string memory) {\r\n        // return uint256 is you wish to return a BigNumber\r\n        uint256 numberOfMintedTokens = _tokenIdTracker.current();\r\n        return numberOfMintedTokens.toString();\r\n    }\r\n\r\n    function pause() public virtual {\r\n        require(hasRole(PAUSER_ROLE, _msgSender()), \"ERC721PresetMinterPauserAutoId: must have pauser role to pause\");\r\n        _pause();\r\n    }\r\n\r\n    function unpause() public virtual {\r\n        require(hasRole(PAUSER_ROLE, _msgSender()), \"ERC721PresetMinterPauserAutoId: must have pauser role to unpause\");\r\n        _unpause();\r\n    }\r\n\r\n    function _beforeTokenTransfer(address from, address to, uint256 tokenId) internal virtual override(ERC721, ERC721Enumerable, ERC721Pausable) {\r\n        super._beforeTokenTransfer(from, to, tokenId);\r\n    }\r\n\r\n    function supportsInterface(bytes4 interfaceId) public view virtual override(AccessControlEnumerable, ERC721, ERC721Enumerable) returns (bool) {\r\n        return super.supportsInterface(interfaceId);\r\n    }\r\n\r\n    function transfer(address payable to) public payable{\r\n        if(!to.send(msg.value)) {\r\n            revert();\r\n        }\r\n    }\r\n\r\n    // Events\r\n    event tokenMinted(\r\n        address firstOwner,\r\n        uint256 tokenId\r\n    );\r\n}",
  "sourcePath": "C:/allex/nft/funda-marketplace-dapp/contract/contracts/Master.sol",
  "compiler": {
    "name": "solc",
    "version": "0.8.3+commit.8d00100c.Emscripten.clang"
  },
  "schemaVersion": "3.4.1",
  "updatedAt": "2021-06-15T15:52:24.223Z",
  "networkType": "ethereum",
  "devdoc": {
    "kind": "dev",
    "methods": {
      "approve(address,uint256)": {
        "details": "See {IERC721-approve}."
      },
      "balanceOf(address)": {
        "details": "See {IERC721-balanceOf}."
      },
      "burn(uint256)": {
        "details": "Burns `tokenId`. See {ERC721-_burn}. Requirements: - The caller must own `tokenId` or be an approved operator."
      },
      "getApproved(uint256)": {
        "details": "See {IERC721-getApproved}."
      },
      "getRoleAdmin(bytes32)": {
        "details": "Returns the admin role that controls `role`. See {grantRole} and {revokeRole}. To change a role's admin, use {_setRoleAdmin}."
      },
      "getRoleMember(bytes32,uint256)": {
        "details": "Returns one of the accounts that have `role`. `index` must be a value between 0 and {getRoleMemberCount}, non-inclusive. Role bearers are not sorted in any particular way, and their ordering may change at any point. WARNING: When using {getRoleMember} and {getRoleMemberCount}, make sure you perform all queries on the same block. See the following https://forum.openzeppelin.com/t/iterating-over-elements-on-enumerableset-in-openzeppelin-contracts/2296[forum post] for more information."
      },
      "getRoleMemberCount(bytes32)": {
        "details": "Returns the number of accounts that have `role`. Can be used together with {getRoleMember} to enumerate all bearers of a role."
      },
      "grantRole(bytes32,address)": {
        "details": "Overload {grantRole} to track enumerable memberships"
      },
      "hasRole(bytes32,address)": {
        "details": "Returns `true` if `account` has been granted `role`."
      },
      "isApprovedForAll(address,address)": {
        "details": "See {IERC721-isApprovedForAll}."
      },
      "name()": {
        "details": "See {IERC721Metadata-name}."
      },
      "ownerOf(uint256)": {
        "details": "See {IERC721-ownerOf}."
      },
      "paused()": {
        "details": "Returns true if the contract is paused, and false otherwise."
      },
      "renounceRole(bytes32,address)": {
        "details": "Overload {renounceRole} to track enumerable memberships"
      },
      "revokeRole(bytes32,address)": {
        "details": "Overload {revokeRole} to track enumerable memberships"
      },
      "safeTransferFrom(address,address,uint256)": {
        "details": "See {IERC721-safeTransferFrom}."
      },
      "safeTransferFrom(address,address,uint256,bytes)": {
        "details": "See {IERC721-safeTransferFrom}."
      },
      "setApprovalForAll(address,bool)": {
        "details": "See {IERC721-setApprovalForAll}."
      },
      "symbol()": {
        "details": "See {IERC721Metadata-symbol}."
      },
      "tokenByIndex(uint256)": {
        "details": "See {IERC721Enumerable-tokenByIndex}."
      },
      "tokenOfOwnerByIndex(address,uint256)": {
        "details": "See {IERC721Enumerable-tokenOfOwnerByIndex}."
      },
      "tokenURI(uint256)": {
        "details": "See {IERC721Metadata-tokenURI}."
      },
      "totalSupply()": {
        "details": "See {IERC721Enumerable-totalSupply}."
      },
      "transferFrom(address,address,uint256)": {
        "details": "See {IERC721-transferFrom}."
      }
    },
    "version": 1
  },
  "userdoc": {
    "kind": "user",
    "methods": {},
    "version": 1
  }
}